{
  "contractName": "ambitionNFT",
  "abi": [
    {
      "inputs": [
        {
          "internalType": "string",
          "name": "_uri",
          "type": "string"
        },
        {
          "internalType": "string",
          "name": "_name",
          "type": "string"
        },
        {
          "internalType": "string",
          "name": "_symbol",
          "type": "string"
        },
        {
          "internalType": "uint32",
          "name": "_totalSupply",
          "type": "uint32"
        },
        {
          "internalType": "uint256",
          "name": "_cost",
          "type": "uint256"
        },
        {
          "internalType": "bool",
          "name": "_open",
          "type": "bool"
        }
      ],
      "stateMutability": "nonpayable",
      "type": "constructor"
    },
    {
      "anonymous": false,
      "inputs": [
        {
          "indexed": true,
          "internalType": "address",
          "name": "owner",
          "type": "address"
        },
        {
          "indexed": true,
          "internalType": "address",
          "name": "approved",
          "type": "address"
        },
        {
          "indexed": true,
          "internalType": "uint256",
          "name": "tokenId",
          "type": "uint256"
        }
      ],
      "name": "Approval",
      "type": "event"
    },
    {
      "anonymous": false,
      "inputs": [
        {
          "indexed": true,
          "internalType": "address",
          "name": "owner",
          "type": "address"
        },
        {
          "indexed": true,
          "internalType": "address",
          "name": "operator",
          "type": "address"
        },
        {
          "indexed": false,
          "internalType": "bool",
          "name": "approved",
          "type": "bool"
        }
      ],
      "name": "ApprovalForAll",
      "type": "event"
    },
    {
      "anonymous": false,
      "inputs": [
        {
          "indexed": true,
          "internalType": "address",
          "name": "previousOwner",
          "type": "address"
        },
        {
          "indexed": true,
          "internalType": "address",
          "name": "newOwner",
          "type": "address"
        }
      ],
      "name": "OwnershipTransferred",
      "type": "event"
    },
    {
      "anonymous": false,
      "inputs": [
        {
          "indexed": true,
          "internalType": "address",
          "name": "from",
          "type": "address"
        },
        {
          "indexed": true,
          "internalType": "address",
          "name": "to",
          "type": "address"
        },
        {
          "indexed": true,
          "internalType": "uint256",
          "name": "tokenId",
          "type": "uint256"
        }
      ],
      "name": "Transfer",
      "type": "event"
    },
    {
      "inputs": [
        {
          "internalType": "address",
          "name": "to",
          "type": "address"
        },
        {
          "internalType": "uint256",
          "name": "tokenId",
          "type": "uint256"
        }
      ],
      "name": "approve",
      "outputs": [],
      "stateMutability": "nonpayable",
      "type": "function"
    },
    {
      "inputs": [
        {
          "internalType": "address",
          "name": "owner",
          "type": "address"
        }
      ],
      "name": "balanceOf",
      "outputs": [
        {
          "internalType": "uint256",
          "name": "",
          "type": "uint256"
        }
      ],
      "stateMutability": "view",
      "type": "function"
    },
    {
      "inputs": [],
      "name": "baseTokenURI",
      "outputs": [
        {
          "internalType": "string",
          "name": "",
          "type": "string"
        }
      ],
      "stateMutability": "view",
      "type": "function"
    },
    {
      "inputs": [],
      "name": "cost",
      "outputs": [
        {
          "internalType": "uint256",
          "name": "",
          "type": "uint256"
        }
      ],
      "stateMutability": "view",
      "type": "function"
    },
    {
      "inputs": [
        {
          "internalType": "uint256",
          "name": "tokenId",
          "type": "uint256"
        }
      ],
      "name": "getApproved",
      "outputs": [
        {
          "internalType": "address",
          "name": "",
          "type": "address"
        }
      ],
      "stateMutability": "view",
      "type": "function"
    },
    {
      "inputs": [
        {
          "internalType": "address",
          "name": "owner",
          "type": "address"
        },
        {
          "internalType": "address",
          "name": "operator",
          "type": "address"
        }
      ],
      "name": "isApprovedForAll",
      "outputs": [
        {
          "internalType": "bool",
          "name": "",
          "type": "bool"
        }
      ],
      "stateMutability": "view",
      "type": "function"
    },
    {
      "inputs": [],
      "name": "maxPerMint",
      "outputs": [
        {
          "internalType": "uint32",
          "name": "",
          "type": "uint32"
        }
      ],
      "stateMutability": "view",
      "type": "function"
    },
    {
      "inputs": [],
      "name": "maxPerWallet",
      "outputs": [
        {
          "internalType": "uint32",
          "name": "",
          "type": "uint32"
        }
      ],
      "stateMutability": "view",
      "type": "function"
    },
    {
      "inputs": [],
      "name": "name",
      "outputs": [
        {
          "internalType": "string",
          "name": "",
          "type": "string"
        }
      ],
      "stateMutability": "view",
      "type": "function"
    },
    {
      "inputs": [],
      "name": "open",
      "outputs": [
        {
          "internalType": "bool",
          "name": "",
          "type": "bool"
        }
      ],
      "stateMutability": "view",
      "type": "function"
    },
    {
      "inputs": [],
      "name": "owner",
      "outputs": [
        {
          "internalType": "address",
          "name": "",
          "type": "address"
        }
      ],
      "stateMutability": "view",
      "type": "function"
    },
    {
      "inputs": [
        {
          "internalType": "uint256",
          "name": "tokenId",
          "type": "uint256"
        }
      ],
      "name": "ownerOf",
      "outputs": [
        {
          "internalType": "address",
          "name": "",
          "type": "address"
        }
      ],
      "stateMutability": "view",
      "type": "function"
    },
    {
      "inputs": [],
      "name": "renounceOwnership",
      "outputs": [],
      "stateMutability": "nonpayable",
      "type": "function"
    },
    {
      "inputs": [
        {
          "internalType": "address",
          "name": "from",
          "type": "address"
        },
        {
          "internalType": "address",
          "name": "to",
          "type": "address"
        },
        {
          "internalType": "uint256",
          "name": "tokenId",
          "type": "uint256"
        }
      ],
      "name": "safeTransferFrom",
      "outputs": [],
      "stateMutability": "nonpayable",
      "type": "function"
    },
    {
      "inputs": [
        {
          "internalType": "address",
          "name": "from",
          "type": "address"
        },
        {
          "internalType": "address",
          "name": "to",
          "type": "address"
        },
        {
          "internalType": "uint256",
          "name": "tokenId",
          "type": "uint256"
        },
        {
          "internalType": "bytes",
          "name": "_data",
          "type": "bytes"
        }
      ],
      "name": "safeTransferFrom",
      "outputs": [],
      "stateMutability": "nonpayable",
      "type": "function"
    },
    {
      "inputs": [
        {
          "internalType": "address",
          "name": "operator",
          "type": "address"
        },
        {
          "internalType": "bool",
          "name": "approved",
          "type": "bool"
        }
      ],
      "name": "setApprovalForAll",
      "outputs": [],
      "stateMutability": "nonpayable",
      "type": "function"
    },
    {
      "inputs": [],
      "name": "supply",
      "outputs": [
        {
          "internalType": "uint32",
          "name": "",
          "type": "uint32"
        }
      ],
      "stateMutability": "view",
      "type": "function"
    },
    {
      "inputs": [
        {
          "internalType": "bytes4",
          "name": "interfaceId",
          "type": "bytes4"
        }
      ],
      "name": "supportsInterface",
      "outputs": [
        {
          "internalType": "bool",
          "name": "",
          "type": "bool"
        }
      ],
      "stateMutability": "view",
      "type": "function"
    },
    {
      "inputs": [],
      "name": "symbol",
      "outputs": [
        {
          "internalType": "string",
          "name": "",
          "type": "string"
        }
      ],
      "stateMutability": "view",
      "type": "function"
    },
    {
      "inputs": [
        {
          "internalType": "uint256",
          "name": "tokenId",
          "type": "uint256"
        }
      ],
      "name": "tokenURI",
      "outputs": [
        {
          "internalType": "string",
          "name": "",
          "type": "string"
        }
      ],
      "stateMutability": "view",
      "type": "function"
    },
    {
      "inputs": [],
      "name": "totalSupply",
      "outputs": [
        {
          "internalType": "uint32",
          "name": "",
          "type": "uint32"
        }
      ],
      "stateMutability": "view",
      "type": "function"
    },
    {
      "inputs": [
        {
          "internalType": "address",
          "name": "from",
          "type": "address"
        },
        {
          "internalType": "address",
          "name": "to",
          "type": "address"
        },
        {
          "internalType": "uint256",
          "name": "tokenId",
          "type": "uint256"
        }
      ],
      "name": "transferFrom",
      "outputs": [],
      "stateMutability": "nonpayable",
      "type": "function"
    },
    {
      "inputs": [
        {
          "internalType": "address",
          "name": "newOwner",
          "type": "address"
        }
      ],
      "name": "transferOwnership",
      "outputs": [],
      "stateMutability": "nonpayable",
      "type": "function"
    },
    {
      "inputs": [
        {
          "internalType": "uint32",
          "name": "_commision",
          "type": "uint32"
        }
      ],
      "name": "setCommission",
      "outputs": [],
      "stateMutability": "nonpayable",
      "type": "function"
    },
    {
      "inputs": [
        {
          "internalType": "string",
          "name": "_baseTokenURI",
          "type": "string"
        }
      ],
      "name": "setBaseURI",
      "outputs": [],
      "stateMutability": "nonpayable",
      "type": "function"
    },
    {
      "inputs": [
        {
          "internalType": "uint256",
          "name": "_cost",
          "type": "uint256"
        }
      ],
      "name": "setCost",
      "outputs": [],
      "stateMutability": "nonpayable",
      "type": "function"
    },
    {
      "inputs": [
        {
          "internalType": "bool",
          "name": "_open",
          "type": "bool"
        }
      ],
      "name": "setOpen",
      "outputs": [],
      "stateMutability": "nonpayable",
      "type": "function"
    },
    {
      "inputs": [
        {
          "internalType": "uint32",
          "name": "_max",
          "type": "uint32"
        }
      ],
      "name": "setMaxPerWallet",
      "outputs": [],
      "stateMutability": "nonpayable",
      "type": "function"
    },
    {
      "inputs": [
        {
          "internalType": "uint32",
          "name": "_max",
          "type": "uint32"
        }
      ],
      "name": "setMaxPerMint",
      "outputs": [],
      "stateMutability": "nonpayable",
      "type": "function"
    },
    {
      "inputs": [
        {
          "internalType": "address[]",
          "name": "to",
          "type": "address[]"
        }
      ],
      "name": "airdrop",
      "outputs": [],
      "stateMutability": "nonpayable",
      "type": "function"
    },
    {
      "inputs": [],
      "name": "withdraw",
      "outputs": [],
      "stateMutability": "payable",
      "type": "function"
    },
    {
      "inputs": [
        {
          "internalType": "uint32",
          "name": "count",
          "type": "uint32"
        }
      ],
      "name": "mint",
      "outputs": [],
      "stateMutability": "payable",
      "type": "function"
    },
    {
      "inputs": [
        {
          "internalType": "uint32",
          "name": "count",
          "type": "uint32"
        }
      ],
      "name": "mintNFTs",
      "outputs": [],
      "stateMutability": "payable",
      "type": "function"
    }
  ],
  "bytecode": "0x608060405266b1a2bc2ec500006008556005600960006101000a81548163ffffffff021916908363ffffffff1602179055506014600960046101000a81548163ffffffff021916908363ffffffff1602179055506000600960086101000a81548163ffffffff021916908363ffffffff16021790555060006009600c6101000a81548163ffffffff021916908363ffffffff1602179055506000600960106101000a81548160ff0219169083151502179055506031600b60006101000a81548163ffffffff021916908363ffffffff16021790555073fd6c3bd6db6d7cbb77ee64d1e406b2acb63a5166600b60046101000a81548173ffffffffffffffffffffffffffffffffffffffff021916908373ffffffffffffffffffffffffffffffffffffffff1602179055503480156200013657600080fd5b5060405162004a8a38038062004a8a83398181016040528101906200015c91906200051b565b8484816000908051906020019062000176929190620003b4565b5080600190805190602001906200018f929190620003b4565b505050620001b2620001a66200021160201b60201c565b6200021960201b60201c565b620001c386620002df60201b60201c565b826009600c6101000a81548163ffffffff021916908363ffffffff1602179055508160088190555080600960106101000a81548160ff02191690831515021790555050505050505062000863565b600033905090565b6000600660009054906101000a900473ffffffffffffffffffffffffffffffffffffffff16905081600660006101000a81548173ffffffffffffffffffffffffffffffffffffffff021916908373ffffffffffffffffffffffffffffffffffffffff1602179055508173ffffffffffffffffffffffffffffffffffffffff168173ffffffffffffffffffffffffffffffffffffffff167f8be0079c531659141344cd1fd0a4f28419497f9722a3daafe3b4186f6b6457e060405160405180910390a35050565b620002ef6200021160201b60201c565b73ffffffffffffffffffffffffffffffffffffffff16620003156200038a60201b60201c565b73ffffffffffffffffffffffffffffffffffffffff16146200036e576040517f08c379a0000000000000000000000000000000000000000000000000000000008152600401620003659062000623565b60405180910390fd5b806007908051906020019062000386929190620003b4565b5050565b6000600660009054906101000a900473ffffffffffffffffffffffffffffffffffffffff16905090565b828054620003c29062000711565b90600052602060002090601f016020900481019282620003e6576000855562000432565b82601f106200040157805160ff191683800117855562000432565b8280016001018555821562000432579182015b828111156200043157825182559160200191906001019062000414565b5b50905062000441919062000445565b5090565b5b808211156200046057600081600090555060010162000446565b5090565b60006200047b62000475846200066e565b62000645565b9050828152602081018484840111156200049457600080fd5b620004a1848285620006db565b509392505050565b600081519050620004ba8162000815565b92915050565b600082601f830112620004d257600080fd5b8151620004e484826020860162000464565b91505092915050565b600081519050620004fe816200082f565b92915050565b600081519050620005158162000849565b92915050565b60008060008060008060c087890312156200053557600080fd5b600087015167ffffffffffffffff8111156200055057600080fd5b6200055e89828a01620004c0565b965050602087015167ffffffffffffffff8111156200057c57600080fd5b6200058a89828a01620004c0565b955050604087015167ffffffffffffffff811115620005a857600080fd5b620005b689828a01620004c0565b9450506060620005c989828a0162000504565b9350506080620005dc89828a01620004ed565b92505060a0620005ef89828a01620004a9565b9150509295509295509295565b60006200060b602083620006a4565b91506200061882620007ec565b602082019050919050565b600060208201905081810360008301526200063e81620005fc565b9050919050565b60006200065162000664565b90506200065f828262000747565b919050565b6000604051905090565b600067ffffffffffffffff8211156200068c576200068b620007ac565b5b6200069782620007db565b9050602081019050919050565b600082825260208201905092915050565b60008115159050919050565b6000819050919050565b600063ffffffff82169050919050565b60005b83811015620006fb578082015181840152602081019050620006de565b838111156200070b576000848401525b50505050565b600060028204905060018216806200072a57607f821691505b602082108114156200074157620007406200077d565b5b50919050565b6200075282620007db565b810181811067ffffffffffffffff82111715620007745762000773620007ac565b5b80604052505050565b7f4e487b7100000000000000000000000000000000000000000000000000000000600052602260045260246000fd5b7f4e487b7100000000000000000000000000000000000000000000000000000000600052604160045260246000fd5b6000601f19601f8301169050919050565b7f4f776e61626c653a2063616c6c6572206973206e6f7420746865206f776e6572600082015250565b6200082081620006b5565b81146200082c57600080fd5b50565b6200083a81620006c1565b81146200084657600080fd5b50565b6200085481620006cb565b81146200086057600080fd5b50565b61421780620008736000396000f3fe6080604052600436106101e35760003560e01c80636352211e11610102578063a71bbebe11610095578063e985e9c511610064578063e985e9c51461069c578063f2fde38b146106d9578063f8048d8f14610702578063fcfff16f1461072b576101e3565b8063a71bbebe146105ef578063b88d4fde1461060b578063c87b56dd14610634578063d547cfb714610671576101e3565b8063729ad39e116100d1578063729ad39e146105475780638da5cb5b1461057057806395d89b411461059b578063a22cb465146105c6576101e3565b80636352211e1461048d5780636fdca5e0146104ca57806370a08231146104f3578063715018a614610530576101e3565b806323b872dd1161017a57806344a0d68a1161014957806344a0d68a146103e5578063453c23101461040e578063507e094f1461043957806355f804b314610464576101e3565b806323b872dd146103605780633006b543146103895780633ccfd60b146103b257806342842e0e146103bc576101e3565b8063092501a0116101b6578063092501a0146102b8578063095ea7b3146102e157806313faede61461030a57806318160ddd14610335576101e3565b806301ffc9a7146101e8578063047fc9aa1461022557806306fdde0314610250578063081812fc1461027b575b600080fd5b3480156101f457600080fd5b5061020f600480360381019061020a9190612dc8565b610756565b60405161021c9190613397565b60405180910390f35b34801561023157600080fd5b5061023a610838565b60405161024791906136ef565b60405180910390f35b34801561025c57600080fd5b5061026561084e565b60405161027291906133b2565b60405180910390f35b34801561028757600080fd5b506102a2600480360381019061029d9190612e5b565b6108e0565b6040516102af9190613330565b60405180910390f35b3480156102c457600080fd5b506102df60048036038101906102da9190612e84565b610965565b005b3480156102ed57600080fd5b5061030860048036038101906103039190612d1e565b610a19565b005b34801561031657600080fd5b5061031f610b31565b60405161032c91906136d4565b60405180910390f35b34801561034157600080fd5b5061034a610b37565b60405161035791906136ef565b60405180910390f35b34801561036c57600080fd5b5061038760048036038101906103829190612c18565b610b4d565b005b34801561039557600080fd5b506103b060048036038101906103ab9190612e84565b610bad565b005b6103ba610c4d565b005b3480156103c857600080fd5b506103e360048036038101906103de9190612c18565b610d42565b005b3480156103f157600080fd5b5061040c60048036038101906104079190612e5b565b610d62565b005b34801561041a57600080fd5b50610423610de8565b60405161043091906136ef565b60405180910390f35b34801561044557600080fd5b5061044e610dfe565b60405161045b91906136ef565b60405180910390f35b34801561047057600080fd5b5061048b60048036038101906104869190612e1a565b610e14565b005b34801561049957600080fd5b506104b460048036038101906104af9190612e5b565b610eaa565b6040516104c19190613330565b60405180910390f35b3480156104d657600080fd5b506104f160048036038101906104ec9190612d9f565b610f5c565b005b3480156104ff57600080fd5b5061051a60048036038101906105159190612bb3565b610ff5565b60405161052791906136d4565b60405180910390f35b34801561053c57600080fd5b506105456110ad565b005b34801561055357600080fd5b5061056e60048036038101906105699190612d5a565b611135565b005b34801561057c57600080fd5b50610585611309565b6040516105929190613330565b60405180910390f35b3480156105a757600080fd5b506105b0611333565b6040516105bd91906133b2565b60405180910390f35b3480156105d257600080fd5b506105ed60048036038101906105e89190612ce2565b6113c5565b005b61060960048036038101906106049190612e84565b6113db565b005b34801561061757600080fd5b50610632600480360381019061062d9190612c67565b61167e565b005b34801561064057600080fd5b5061065b60048036038101906106569190612e5b565b6116e0565b60405161066891906133b2565b60405180910390f35b34801561067d57600080fd5b50610686611787565b60405161069391906133b2565b60405180910390f35b3480156106a857600080fd5b506106c360048036038101906106be9190612bdc565b611815565b6040516106d09190613397565b60405180910390f35b3480156106e557600080fd5b5061070060048036038101906106fb9190612bb3565b6118a9565b005b34801561070e57600080fd5b5061072960048036038101906107249190612e84565b6119a1565b005b34801561073757600080fd5b50610740611a41565b60405161074d9190613397565b60405180910390f35b60007f80ac58cd000000000000000000000000000000000000000000000000000000007bffffffffffffffffffffffffffffffffffffffffffffffffffffffff1916827bffffffffffffffffffffffffffffffffffffffffffffffffffffffff1916148061082157507f5b5e139f000000000000000000000000000000000000000000000000000000007bffffffffffffffffffffffffffffffffffffffffffffffffffffffff1916827bffffffffffffffffffffffffffffffffffffffffffffffffffffffff1916145b80610831575061083082611a54565b5b9050919050565b600960089054906101000a900463ffffffff1681565b60606000805461085d906139f4565b80601f0160208091040260200160405190810160405280929190818152602001828054610889906139f4565b80156108d65780601f106108ab576101008083540402835291602001916108d6565b820191906000526020600020905b8154815290600101906020018083116108b957829003601f168201915b5050505050905090565b60006108eb82611abe565b61092a576040517f08c379a000000000000000000000000000000000000000000000000000000000815260040161092190613554565b60405180910390fd5b6004600083815260200190815260200160002060009054906101000a900473ffffffffffffffffffffffffffffffffffffffff169050919050565b600b60049054906101000a900473ffffffffffffffffffffffffffffffffffffffff1673ffffffffffffffffffffffffffffffffffffffff163373ffffffffffffffffffffffffffffffffffffffff16146109f5576040517f08c379a00000000000000000000000000000000000000000000000000000000081526004016109ec90613654565b60405180910390fd5b80600b60006101000a81548163ffffffff021916908363ffffffff16021790555050565b6000610a2482610eaa565b90508073ffffffffffffffffffffffffffffffffffffffff168373ffffffffffffffffffffffffffffffffffffffff161415610a95576040517f08c379a0000000000000000000000000000000000000000000000000000000008152600401610a8c906135f4565b60405180910390fd5b8073ffffffffffffffffffffffffffffffffffffffff16610ab4611b2a565b73ffffffffffffffffffffffffffffffffffffffff161480610ae35750610ae281610add611b2a565b611815565b5b610b22576040517f08c379a0000000000000000000000000000000000000000000000000000000008152600401610b19906134d4565b60405180910390fd5b610b2c8383611b32565b505050565b60085481565b6009600c9054906101000a900463ffffffff1681565b610b5e610b58611b2a565b82611beb565b610b9d576040517f08c379a0000000000000000000000000000000000000000000000000000000008152600401610b9490613634565b60405180910390fd5b610ba8838383611cc9565b505050565b610bb5611b2a565b73ffffffffffffffffffffffffffffffffffffffff16610bd3611309565b73ffffffffffffffffffffffffffffffffffffffff1614610c29576040517f08c379a0000000000000000000000000000000000000000000000000000000008152600401610c2090613574565b60405180910390fd5b80600960046101000a81548163ffffffff021916908363ffffffff16021790555050565b610c55611b2a565b73ffffffffffffffffffffffffffffffffffffffff16610c73611309565b73ffffffffffffffffffffffffffffffffffffffff1614610cc9576040517f08c379a0000000000000000000000000000000000000000000000000000000008152600401610cc090613574565b60405180910390fd5b60003373ffffffffffffffffffffffffffffffffffffffff1647604051610cef9061331b565b60006040518083038185875af1925050503d8060008114610d2c576040519150601f19603f3d011682016040523d82523d6000602084013e610d31565b606091505b5050905080610d3f57600080fd5b50565b610d5d8383836040518060200160405280600081525061167e565b505050565b610d6a611b2a565b73ffffffffffffffffffffffffffffffffffffffff16610d88611309565b73ffffffffffffffffffffffffffffffffffffffff1614610dde576040517f08c379a0000000000000000000000000000000000000000000000000000000008152600401610dd590613574565b60405180910390fd5b8060088190555050565b600960049054906101000a900463ffffffff1681565b600960009054906101000a900463ffffffff1681565b610e1c611b2a565b73ffffffffffffffffffffffffffffffffffffffff16610e3a611309565b73ffffffffffffffffffffffffffffffffffffffff1614610e90576040517f08c379a0000000000000000000000000000000000000000000000000000000008152600401610e8790613574565b60405180910390fd5b8060079080519060200190610ea6929190612978565b5050565b6000806002600084815260200190815260200160002060009054906101000a900473ffffffffffffffffffffffffffffffffffffffff169050600073ffffffffffffffffffffffffffffffffffffffff168173ffffffffffffffffffffffffffffffffffffffff161415610f53576040517f08c379a0000000000000000000000000000000000000000000000000000000008152600401610f4a90613514565b60405180910390fd5b80915050919050565b610f64611b2a565b73ffffffffffffffffffffffffffffffffffffffff16610f82611309565b73ffffffffffffffffffffffffffffffffffffffff1614610fd8576040517f08c379a0000000000000000000000000000000000000000000000000000000008152600401610fcf90613574565b60405180910390fd5b80600960106101000a81548160ff02191690831515021790555050565b60008073ffffffffffffffffffffffffffffffffffffffff168273ffffffffffffffffffffffffffffffffffffffff161415611066576040517f08c379a000000000000000000000000000000000000000000000000000000000815260040161105d906134f4565b60405180910390fd5b600360008373ffffffffffffffffffffffffffffffffffffffff1673ffffffffffffffffffffffffffffffffffffffff168152602001908152602001600020549050919050565b6110b5611b2a565b73ffffffffffffffffffffffffffffffffffffffff166110d3611309565b73ffffffffffffffffffffffffffffffffffffffff1614611129576040517f08c379a000000000000000000000000000000000000000000000000000000000815260040161112090613574565b60405180910390fd5b6111336000611f25565b565b61113d611b2a565b73ffffffffffffffffffffffffffffffffffffffff1661115b611309565b73ffffffffffffffffffffffffffffffffffffffff16146111b1576040517f08c379a00000000000000000000000000000000000000000000000000000000081526004016111a890613574565b60405180910390fd5b60005b828290508163ffffffff161015611304576009600c9054906101000a900463ffffffff1663ffffffff16600960089054906101000a900463ffffffff1660016111fd9190613835565b63ffffffff161115611244576040517f08c379a000000000000000000000000000000000000000000000000000000000815260040161123b90613494565b60405180910390fd5b6112f183838363ffffffff16818110611286577f4e487b7100000000000000000000000000000000000000000000000000000000600052603260045260246000fd5b905060200201602081019061129b9190612bb3565b6009600881819054906101000a900463ffffffff166112b990613aa0565b91906101000a81548163ffffffff021916908363ffffffff160217905563ffffffff1660405180602001604052806000815250611feb565b80806112fc90613aa0565b9150506111b4565b505050565b6000600660009054906101000a900473ffffffffffffffffffffffffffffffffffffffff16905090565b606060018054611342906139f4565b80601f016020809104026020016040519081016040528092919081815260200182805461136e906139f4565b80156113bb5780601f10611390576101008083540402835291602001916113bb565b820191906000526020600020905b81548152906001019060200180831161139e57829003601f168201915b5050505050905090565b6113d76113d0611b2a565b8383612046565b5050565b8060008163ffffffff1611611425576040517f08c379a000000000000000000000000000000000000000000000000000000000815260040161141c906136b4565b60405180910390fd5b6001600960009054906101000a900463ffffffff166114449190613835565b63ffffffff168163ffffffff1610611491576040517f08c379a000000000000000000000000000000000000000000000000000000000815260040161148890613694565b60405180910390fd5b8063ffffffff166008546114a591906138a0565b3410156114e7576040517f08c379a00000000000000000000000000000000000000000000000000000000081526004016114de90613674565b60405180910390fd5b60016009600c9054906101000a900463ffffffff166115069190613835565b63ffffffff1681600960089054906101000a900463ffffffff1661152a9190613835565b63ffffffff1610611570576040517f08c379a0000000000000000000000000000000000000000000000000000000008152600401611567906135d4565b60405180910390fd5b600960049054906101000a900463ffffffff1663ffffffff168163ffffffff16600a60003373ffffffffffffffffffffffffffffffffffffffff1673ffffffffffffffffffffffffffffffffffffffff168152602001908152602001600020546115da91906137df565b111561161b576040517f08c379a000000000000000000000000000000000000000000000000000000000815260040161161290613434565b60405180910390fd5b60011515600960109054906101000a900460ff16151514611671576040517f08c379a000000000000000000000000000000000000000000000000000000000815260040161166890613614565b60405180910390fd5b61167a826121b3565b5050565b61168f611689611b2a565b83611beb565b6116ce576040517f08c379a00000000000000000000000000000000000000000000000000000000081526004016116c590613634565b60405180910390fd5b6116da84848484612360565b50505050565b60606116eb82611abe565b61172a576040517f08c379a0000000000000000000000000000000000000000000000000000000008152600401611721906135b4565b60405180910390fd5b60006117346123bc565b90506000815111611754576040518060200160405280600081525061177f565b8061175e8461244e565b60405160200161176f9291906132f7565b6040516020818303038152906040525b915050919050565b60078054611794906139f4565b80601f01602080910402602001604051908101604052809291908181526020018280546117c0906139f4565b801561180d5780601f106117e25761010080835404028352916020019161180d565b820191906000526020600020905b8154815290600101906020018083116117f057829003601f168201915b505050505081565b6000600560008473ffffffffffffffffffffffffffffffffffffffff1673ffffffffffffffffffffffffffffffffffffffff16815260200190815260200160002060008373ffffffffffffffffffffffffffffffffffffffff1673ffffffffffffffffffffffffffffffffffffffff16815260200190815260200160002060009054906101000a900460ff16905092915050565b6118b1611b2a565b73ffffffffffffffffffffffffffffffffffffffff166118cf611309565b73ffffffffffffffffffffffffffffffffffffffff1614611925576040517f08c379a000000000000000000000000000000000000000000000000000000000815260040161191c90613574565b60405180910390fd5b600073ffffffffffffffffffffffffffffffffffffffff168173ffffffffffffffffffffffffffffffffffffffff161415611995576040517f08c379a000000000000000000000000000000000000000000000000000000000815260040161198c906133f4565b60405180910390fd5b61199e81611f25565b50565b6119a9611b2a565b73ffffffffffffffffffffffffffffffffffffffff166119c7611309565b73ffffffffffffffffffffffffffffffffffffffff1614611a1d576040517f08c379a0000000000000000000000000000000000000000000000000000000008152600401611a1490613574565b60405180910390fd5b80600960006101000a81548163ffffffff021916908363ffffffff16021790555050565b600960109054906101000a900460ff1681565b60007f01ffc9a7000000000000000000000000000000000000000000000000000000007bffffffffffffffffffffffffffffffffffffffffffffffffffffffff1916827bffffffffffffffffffffffffffffffffffffffffffffffffffffffff1916149050919050565b60008073ffffffffffffffffffffffffffffffffffffffff166002600084815260200190815260200160002060009054906101000a900473ffffffffffffffffffffffffffffffffffffffff1673ffffffffffffffffffffffffffffffffffffffff1614159050919050565b600033905090565b816004600083815260200190815260200160002060006101000a81548173ffffffffffffffffffffffffffffffffffffffff021916908373ffffffffffffffffffffffffffffffffffffffff160217905550808273ffffffffffffffffffffffffffffffffffffffff16611ba583610eaa565b73ffffffffffffffffffffffffffffffffffffffff167f8c5be1e5ebec7d5bd14f71427d1e84f3dd0314c0f7b2291e5b200ac8c7c3b92560405160405180910390a45050565b6000611bf682611abe565b611c35576040517f08c379a0000000000000000000000000000000000000000000000000000000008152600401611c2c906134b4565b60405180910390fd5b6000611c4083610eaa565b90508073ffffffffffffffffffffffffffffffffffffffff168473ffffffffffffffffffffffffffffffffffffffff161480611caf57508373ffffffffffffffffffffffffffffffffffffffff16611c97846108e0565b73ffffffffffffffffffffffffffffffffffffffff16145b80611cc05750611cbf8185611815565b5b91505092915050565b8273ffffffffffffffffffffffffffffffffffffffff16611ce982610eaa565b73ffffffffffffffffffffffffffffffffffffffff1614611d3f576040517f08c379a0000000000000000000000000000000000000000000000000000000008152600401611d3690613594565b60405180910390fd5b600073ffffffffffffffffffffffffffffffffffffffff168273ffffffffffffffffffffffffffffffffffffffff161415611daf576040517f08c379a0000000000000000000000000000000000000000000000000000000008152600401611da690613454565b60405180910390fd5b611dba8383836125fb565b611dc5600082611b32565b6001600360008573ffffffffffffffffffffffffffffffffffffffff1673ffffffffffffffffffffffffffffffffffffffff1681526020019081526020016000206000828254611e1591906138fa565b925050819055506001600360008473ffffffffffffffffffffffffffffffffffffffff1673ffffffffffffffffffffffffffffffffffffffff1681526020019081526020016000206000828254611e6c91906137df565b92505081905550816002600083815260200190815260200160002060006101000a81548173ffffffffffffffffffffffffffffffffffffffff021916908373ffffffffffffffffffffffffffffffffffffffff160217905550808273ffffffffffffffffffffffffffffffffffffffff168473ffffffffffffffffffffffffffffffffffffffff167fddf252ad1be2c89b69c2b068fc378daa952ba7f163c4a11628f55a4df523b3ef60405160405180910390a4505050565b6000600660009054906101000a900473ffffffffffffffffffffffffffffffffffffffff16905081600660006101000a81548173ffffffffffffffffffffffffffffffffffffffff021916908373ffffffffffffffffffffffffffffffffffffffff1602179055508173ffffffffffffffffffffffffffffffffffffffff168173ffffffffffffffffffffffffffffffffffffffff167f8be0079c531659141344cd1fd0a4f28419497f9722a3daafe3b4186f6b6457e060405160405180910390a35050565b611ff58383612600565b61200260008484846127ce565b612041576040517f08c379a0000000000000000000000000000000000000000000000000000000008152600401612038906133d4565b60405180910390fd5b505050565b8173ffffffffffffffffffffffffffffffffffffffff168373ffffffffffffffffffffffffffffffffffffffff1614156120b5576040517f08c379a00000000000000000000000000000000000000000000000000000000081526004016120ac90613474565b60405180910390fd5b80600560008573ffffffffffffffffffffffffffffffffffffffff1673ffffffffffffffffffffffffffffffffffffffff16815260200190815260200160002060008473ffffffffffffffffffffffffffffffffffffffff1673ffffffffffffffffffffffffffffffffffffffff16815260200190815260200160002060006101000a81548160ff0219169083151502179055508173ffffffffffffffffffffffffffffffffffffffff168373ffffffffffffffffffffffffffffffffffffffff167f17307eab39ab6107e8899845ad3d59bd9653f200f220920489ca2b5937696c31836040516121a69190613397565b60405180910390a3505050565b60005b8163ffffffff168163ffffffff16101561223757612224336009600881819054906101000a900463ffffffff166121ec90613aa0565b91906101000a81548163ffffffff021916908363ffffffff160217905563ffffffff1660405180602001604052806000815250611feb565b808061222f90613aa0565b9150506121b6565b508063ffffffff16600a60003373ffffffffffffffffffffffffffffffffffffffff1673ffffffffffffffffffffffffffffffffffffffff168152602001908152602001600020600082825461228d91906137df565b925050819055506000600b60049054906101000a900473ffffffffffffffffffffffffffffffffffffffff1673ffffffffffffffffffffffffffffffffffffffff166103e8600b60009054906101000a900463ffffffff1663ffffffff16346122f691906138a0565b612300919061386f565b60405161230c9061331b565b60006040518083038185875af1925050503d8060008114612349576040519150601f19603f3d011682016040523d82523d6000602084013e61234e565b606091505b505090508061235c57600080fd5b5050565b61236b848484611cc9565b612377848484846127ce565b6123b6576040517f08c379a00000000000000000000000000000000000000000000000000000000081526004016123ad906133d4565b60405180910390fd5b50505050565b6060600780546123cb906139f4565b80601f01602080910402602001604051908101604052809291908181526020018280546123f7906139f4565b80156124445780601f1061241957610100808354040283529160200191612444565b820191906000526020600020905b81548152906001019060200180831161242757829003601f168201915b5050505050905090565b60606000821415612496576040518060400160405280600181526020017f300000000000000000000000000000000000000000000000000000000000000081525090506125f6565b600082905060005b600082146124c85780806124b190613a57565b915050600a826124c1919061386f565b915061249e565b60008167ffffffffffffffff81111561250a577f4e487b7100000000000000000000000000000000000000000000000000000000600052604160045260246000fd5b6040519080825280601f01601f19166020018201604052801561253c5781602001600182028036833780820191505090505b5090505b600085146125ef5760018261255591906138fa565b9150600a856125649190613acd565b603061257091906137df565b60f81b8183815181106125ac577f4e487b7100000000000000000000000000000000000000000000000000000000600052603260045260246000fd5b60200101907effffffffffffffffffffffffffffffffffffffffffffffffffffffffffffff1916908160001a905350600a856125e8919061386f565b9450612540565b8093505050505b919050565b505050565b600073ffffffffffffffffffffffffffffffffffffffff168273ffffffffffffffffffffffffffffffffffffffff161415612670576040517f08c379a000000000000000000000000000000000000000000000000000000000815260040161266790613534565b60405180910390fd5b61267981611abe565b156126b9576040517f08c379a00000000000000000000000000000000000000000000000000000000081526004016126b090613414565b60405180910390fd5b6126c5600083836125fb565b6001600360008473ffffffffffffffffffffffffffffffffffffffff1673ffffffffffffffffffffffffffffffffffffffff168152602001908152602001600020600082825461271591906137df565b92505081905550816002600083815260200190815260200160002060006101000a81548173ffffffffffffffffffffffffffffffffffffffff021916908373ffffffffffffffffffffffffffffffffffffffff160217905550808273ffffffffffffffffffffffffffffffffffffffff16600073ffffffffffffffffffffffffffffffffffffffff167fddf252ad1be2c89b69c2b068fc378daa952ba7f163c4a11628f55a4df523b3ef60405160405180910390a45050565b60006127ef8473ffffffffffffffffffffffffffffffffffffffff16612965565b15612958578373ffffffffffffffffffffffffffffffffffffffff1663150b7a02612818611b2a565b8786866040518563ffffffff1660e01b815260040161283a949392919061334b565b602060405180830381600087803b15801561285457600080fd5b505af192505050801561288557506040513d601f19601f820116820180604052508101906128829190612df1565b60015b612908573d80600081146128b5576040519150601f19603f3d011682016040523d82523d6000602084013e6128ba565b606091505b50600081511415612900576040517f08c379a00000000000000000000000000000000000000000000000000000000081526004016128f7906133d4565b60405180910390fd5b805181602001fd5b63150b7a0260e01b7bffffffffffffffffffffffffffffffffffffffffffffffffffffffff1916817bffffffffffffffffffffffffffffffffffffffffffffffffffffffff19161491505061295d565b600190505b949350505050565b600080823b905060008111915050919050565b828054612984906139f4565b90600052602060002090601f0160209004810192826129a657600085556129ed565b82601f106129bf57805160ff19168380011785556129ed565b828001600101855582156129ed579182015b828111156129ec5782518255916020019190600101906129d1565b5b5090506129fa91906129fe565b5090565b5b80821115612a175760008160009055506001016129ff565b5090565b6000612a2e612a298461372f565b61370a565b905082815260208101848484011115612a4657600080fd5b612a518482856139b2565b509392505050565b6000612a6c612a6784613760565b61370a565b905082815260208101848484011115612a8457600080fd5b612a8f8482856139b2565b509392505050565b600081359050612aa68161416e565b92915050565b60008083601f840112612abe57600080fd5b8235905067ffffffffffffffff811115612ad757600080fd5b602083019150836020820283011115612aef57600080fd5b9250929050565b600081359050612b0581614185565b92915050565b600081359050612b1a8161419c565b92915050565b600081519050612b2f8161419c565b92915050565b600082601f830112612b4657600080fd5b8135612b56848260208601612a1b565b91505092915050565b600082601f830112612b7057600080fd5b8135612b80848260208601612a59565b91505092915050565b600081359050612b98816141b3565b92915050565b600081359050612bad816141ca565b92915050565b600060208284031215612bc557600080fd5b6000612bd384828501612a97565b91505092915050565b60008060408385031215612bef57600080fd5b6000612bfd85828601612a97565b9250506020612c0e85828601612a97565b9150509250929050565b600080600060608486031215612c2d57600080fd5b6000612c3b86828701612a97565b9350506020612c4c86828701612a97565b9250506040612c5d86828701612b89565b9150509250925092565b60008060008060808587031215612c7d57600080fd5b6000612c8b87828801612a97565b9450506020612c9c87828801612a97565b9350506040612cad87828801612b89565b925050606085013567ffffffffffffffff811115612cca57600080fd5b612cd687828801612b35565b91505092959194509250565b60008060408385031215612cf557600080fd5b6000612d0385828601612a97565b9250506020612d1485828601612af6565b9150509250929050565b60008060408385031215612d3157600080fd5b6000612d3f85828601612a97565b9250506020612d5085828601612b89565b9150509250929050565b60008060208385031215612d6d57600080fd5b600083013567ffffffffffffffff811115612d8757600080fd5b612d9385828601612aac565b92509250509250929050565b600060208284031215612db157600080fd5b6000612dbf84828501612af6565b91505092915050565b600060208284031215612dda57600080fd5b6000612de884828501612b0b565b91505092915050565b600060208284031215612e0357600080fd5b6000612e1184828501612b20565b91505092915050565b600060208284031215612e2c57600080fd5b600082013567ffffffffffffffff811115612e4657600080fd5b612e5284828501612b5f565b91505092915050565b600060208284031215612e6d57600080fd5b6000612e7b84828501612b89565b91505092915050565b600060208284031215612e9657600080fd5b6000612ea484828501612b9e565b91505092915050565b612eb68161392e565b82525050565b612ec581613940565b82525050565b6000612ed682613791565b612ee081856137a7565b9350612ef08185602086016139c1565b612ef981613bba565b840191505092915050565b6000612f0f8261379c565b612f1981856137c3565b9350612f298185602086016139c1565b612f3281613bba565b840191505092915050565b6000612f488261379c565b612f5281856137d4565b9350612f628185602086016139c1565b80840191505092915050565b6000612f7b6032836137c3565b9150612f8682613bcb565b604082019050919050565b6000612f9e6026836137c3565b9150612fa982613c1a565b604082019050919050565b6000612fc1601c836137c3565b9150612fcc82613c69565b602082019050919050565b6000612fe46016836137c3565b9150612fef82613c92565b602082019050919050565b60006130076024836137c3565b915061301282613cbb565b604082019050919050565b600061302a6019836137c3565b915061303582613d0a565b602082019050919050565b600061304d600d836137c3565b915061305882613d33565b602082019050919050565b6000613070602c836137c3565b915061307b82613d5c565b604082019050919050565b60006130936038836137c3565b915061309e82613dab565b604082019050919050565b60006130b6602a836137c3565b91506130c182613dfa565b604082019050919050565b60006130d96029836137c3565b91506130e482613e49565b604082019050919050565b60006130fc6020836137c3565b915061310782613e98565b602082019050919050565b600061311f602c836137c3565b915061312a82613ec1565b604082019050919050565b60006131426020836137c3565b915061314d82613f10565b602082019050919050565b60006131656029836137c3565b915061317082613f39565b604082019050919050565b6000613188602f836137c3565b915061319382613f88565b604082019050919050565b60006131ab600d836137c3565b91506131b682613fd7565b602082019050919050565b60006131ce6021836137c3565b91506131d982614000565b604082019050919050565b60006131f1600d836137c3565b91506131fc8261404f565b602082019050919050565b60006132146000836137b8565b915061321f82614078565b600082019050919050565b60006132376031836137c3565b91506132428261407b565b604082019050919050565b600061325a6011836137c3565b9150613265826140ca565b602082019050919050565b600061327d6010836137c3565b9150613288826140f3565b602082019050919050565b60006132a06011836137c3565b91506132ab8261411c565b602082019050919050565b60006132c36012836137c3565b91506132ce82614145565b602082019050919050565b6132e281613998565b82525050565b6132f1816139a2565b82525050565b60006133038285612f3d565b915061330f8284612f3d565b91508190509392505050565b600061332682613207565b9150819050919050565b60006020820190506133456000830184612ead565b92915050565b60006080820190506133606000830187612ead565b61336d6020830186612ead565b61337a60408301856132d9565b818103606083015261338c8184612ecb565b905095945050505050565b60006020820190506133ac6000830184612ebc565b92915050565b600060208201905081810360008301526133cc8184612f04565b905092915050565b600060208201905081810360008301526133ed81612f6e565b9050919050565b6000602082019050818103600083015261340d81612f91565b9050919050565b6000602082019050818103600083015261342d81612fb4565b9050919050565b6000602082019050818103600083015261344d81612fd7565b9050919050565b6000602082019050818103600083015261346d81612ffa565b9050919050565b6000602082019050818103600083015261348d8161301d565b9050919050565b600060208201905081810360008301526134ad81613040565b9050919050565b600060208201905081810360008301526134cd81613063565b9050919050565b600060208201905081810360008301526134ed81613086565b9050919050565b6000602082019050818103600083015261350d816130a9565b9050919050565b6000602082019050818103600083015261352d816130cc565b9050919050565b6000602082019050818103600083015261354d816130ef565b9050919050565b6000602082019050818103600083015261356d81613112565b9050919050565b6000602082019050818103600083015261358d81613135565b9050919050565b600060208201905081810360008301526135ad81613158565b9050919050565b600060208201905081810360008301526135cd8161317b565b9050919050565b600060208201905081810360008301526135ed8161319e565b9050919050565b6000602082019050818103600083015261360d816131c1565b9050919050565b6000602082019050818103600083015261362d816131e4565b9050919050565b6000602082019050818103600083015261364d8161322a565b9050919050565b6000602082019050818103600083015261366d8161324d565b9050919050565b6000602082019050818103600083015261368d81613270565b9050919050565b600060208201905081810360008301526136ad81613293565b9050919050565b600060208201905081810360008301526136cd816132b6565b9050919050565b60006020820190506136e960008301846132d9565b92915050565b600060208201905061370460008301846132e8565b92915050565b6000613714613725565b90506137208282613a26565b919050565b6000604051905090565b600067ffffffffffffffff82111561374a57613749613b8b565b5b61375382613bba565b9050602081019050919050565b600067ffffffffffffffff82111561377b5761377a613b8b565b5b61378482613bba565b9050602081019050919050565b600081519050919050565b600081519050919050565b600082825260208201905092915050565b600081905092915050565b600082825260208201905092915050565b600081905092915050565b60006137ea82613998565b91506137f583613998565b9250827fffffffffffffffffffffffffffffffffffffffffffffffffffffffffffffffff0382111561382a57613829613afe565b5b828201905092915050565b6000613840826139a2565b915061384b836139a2565b92508263ffffffff0382111561386457613863613afe565b5b828201905092915050565b600061387a82613998565b915061388583613998565b92508261389557613894613b2d565b5b828204905092915050565b60006138ab82613998565b91506138b683613998565b9250817fffffffffffffffffffffffffffffffffffffffffffffffffffffffffffffffff04831182151516156138ef576138ee613afe565b5b828202905092915050565b600061390582613998565b915061391083613998565b92508282101561392357613922613afe565b5b828203905092915050565b600061393982613978565b9050919050565b60008115159050919050565b60007fffffffff0000000000000000000000000000000000000000000000000000000082169050919050565b600073ffffffffffffffffffffffffffffffffffffffff82169050919050565b6000819050919050565b600063ffffffff82169050919050565b82818337600083830152505050565b60005b838110156139df5780820151818401526020810190506139c4565b838111156139ee576000848401525b50505050565b60006002820490506001821680613a0c57607f821691505b60208210811415613a2057613a1f613b5c565b5b50919050565b613a2f82613bba565b810181811067ffffffffffffffff82111715613a4e57613a4d613b8b565b5b80604052505050565b6000613a6282613998565b91507fffffffffffffffffffffffffffffffffffffffffffffffffffffffffffffffff821415613a9557613a94613afe565b5b600182019050919050565b6000613aab826139a2565b915063ffffffff821415613ac257613ac1613afe565b5b600182019050919050565b6000613ad882613998565b9150613ae383613998565b925082613af357613af2613b2d565b5b828206905092915050565b7f4e487b7100000000000000000000000000000000000000000000000000000000600052601160045260246000fd5b7f4e487b7100000000000000000000000000000000000000000000000000000000600052601260045260246000fd5b7f4e487b7100000000000000000000000000000000000000000000000000000000600052602260045260246000fd5b7f4e487b7100000000000000000000000000000000000000000000000000000000600052604160045260246000fd5b6000601f19601f8301169050919050565b7f4552433732313a207472616e7366657220746f206e6f6e20455243373231526560008201527f63656976657220696d706c656d656e7465720000000000000000000000000000602082015250565b7f4f776e61626c653a206e6577206f776e657220697320746865207a65726f206160008201527f6464726573730000000000000000000000000000000000000000000000000000602082015250565b7f4552433732313a20746f6b656e20616c7265616479206d696e74656400000000600082015250565b7f4d617820746f74616c206d696e74207265616368656400000000000000000000600082015250565b7f4552433732313a207472616e7366657220746f20746865207a65726f2061646460008201527f7265737300000000000000000000000000000000000000000000000000000000602082015250565b7f4552433732313a20617070726f766520746f2063616c6c657200000000000000600082015250565b7f4c696d6974207265616368656400000000000000000000000000000000000000600082015250565b7f4552433732313a206f70657261746f7220717565727920666f72206e6f6e657860008201527f697374656e7420746f6b656e0000000000000000000000000000000000000000602082015250565b7f4552433732313a20617070726f76652063616c6c6572206973206e6f74206f7760008201527f6e6572206e6f7220617070726f76656420666f7220616c6c0000000000000000602082015250565b7f4552433732313a2062616c616e636520717565727920666f7220746865207a6560008201527f726f206164647265737300000000000000000000000000000000000000000000602082015250565b7f4552433732313a206f776e657220717565727920666f72206e6f6e657869737460008201527f656e7420746f6b656e0000000000000000000000000000000000000000000000602082015250565b7f4552433732313a206d696e7420746f20746865207a65726f2061646472657373600082015250565b7f4552433732313a20617070726f76656420717565727920666f72206e6f6e657860008201527f697374656e7420746f6b656e0000000000000000000000000000000000000000602082015250565b7f4f776e61626c653a2063616c6c6572206973206e6f7420746865206f776e6572600082015250565b7f4552433732313a207472616e73666572206f6620746f6b656e2074686174206960008201527f73206e6f74206f776e0000000000000000000000000000000000000000000000602082015250565b7f4552433732314d657461646174613a2055524920717565727920666f72206e6f60008201527f6e6578697374656e7420746f6b656e0000000000000000000000000000000000602082015250565b7f4d696e7420736f6c64206f757400000000000000000000000000000000000000600082015250565b7f4552433732313a20617070726f76616c20746f2063757272656e74206f776e6560008201527f7200000000000000000000000000000000000000000000000000000000000000602082015250565b7f4d696e74206e6f74206f70656e00000000000000000000000000000000000000600082015250565b50565b7f4552433732313a207472616e736665722063616c6c6572206973206e6f74206f60008201527f776e6572206e6f7220617070726f766564000000000000000000000000000000602082015250565b7f496e636f72726563742041646472657373000000000000000000000000000000600082015250565b7f4e6f7420656e6f7567682066756e642e00000000000000000000000000000000600082015250565b7f4d6178206d696e7420726561636865642e000000000000000000000000000000600082015250565b7f4d696e74206174206c65617374206f6e652e0000000000000000000000000000600082015250565b6141778161392e565b811461418257600080fd5b50565b61418e81613940565b811461419957600080fd5b50565b6141a58161394c565b81146141b057600080fd5b50565b6141bc81613998565b81146141c757600080fd5b50565b6141d3816139a2565b81146141de57600080fd5b5056fea2646970667358221220fd21fa41759951a7a76cee40a6a473e6cb694fbb72cec377d710822b59cab24564736f6c63430008040033",
  "immutableReferences": {},
  "source": "// Sources flattened with hardhat v2.8.0 https://hardhat.org\n\n// File @openzeppelin/contracts/utils/introspection/IERC165.sol@v4.4.1\n\n// OpenZeppelin Contracts v4.4.1 (utils/introspection/IERC165.sol)\n\npragma solidity ^0.8.0;\n\n/**\n * @dev Interface of the ERC165 standard, as defined in the\n * https://eips.ethereum.org/EIPS/eip-165[EIP].\n *\n * Implementers can declare support of contract interfaces, which can then be\n * queried by others ({ERC165Checker}).\n *\n * For an implementation, see {ERC165}.\n */\ninterface IERC165 {\n    /**\n     * @dev Returns true if this contract implements the interface defined by\n     * `interfaceId`. See the corresponding\n     * https://eips.ethereum.org/EIPS/eip-165#how-interfaces-are-identified[EIP section]\n     * to learn more about how these ids are created.\n     *\n     * This function call must use less than 30 000 gas.\n     */\n    function supportsInterface(bytes4 interfaceId) external view returns (bool);\n}\n\n\n// File @openzeppelin/contracts/token/ERC721/IERC721.sol@v4.4.1\n\n// OpenZeppelin Contracts v4.4.1 (token/ERC721/IERC721.sol)\n\npragma solidity ^0.8.0;\n\n/**\n * @dev Required interface of an ERC721 compliant contract.\n */\ninterface IERC721 is IERC165 {\n    /**\n     * @dev Emitted when `tokenId` token is transferred from `from` to `to`.\n     */\n    event Transfer(address indexed from, address indexed to, uint256 indexed tokenId);\n\n    /**\n     * @dev Emitted when `owner` enables `approved` to manage the `tokenId` token.\n     */\n    event Approval(address indexed owner, address indexed approved, uint256 indexed tokenId);\n\n    /**\n     * @dev Emitted when `owner` enables or disables (`approved`) `operator` to manage all of its assets.\n     */\n    event ApprovalForAll(address indexed owner, address indexed operator, bool approved);\n\n    /**\n     * @dev Returns the number of tokens in ``owner``'s account.\n     */\n    function balanceOf(address owner) external view returns (uint256 balance);\n\n    /**\n     * @dev Returns the owner of the `tokenId` token.\n     *\n     * Requirements:\n     *\n     * - `tokenId` must exist.\n     */\n    function ownerOf(uint256 tokenId) external view returns (address owner);\n\n    /**\n     * @dev Safely transfers `tokenId` token from `from` to `to`, checking first that contract recipients\n     * are aware of the ERC721 protocol to prevent tokens from being forever locked.\n     *\n     * Requirements:\n     *\n     * - `from` cannot be the zero address.\n     * - `to` cannot be the zero address.\n     * - `tokenId` token must exist and be owned by `from`.\n     * - If the caller is not `from`, it must be have been allowed to move this token by either {approve} or {setApprovalForAll}.\n     * - If `to` refers to a smart contract, it must implement {IERC721Receiver-onERC721Received}, which is called upon a safe transfer.\n     *\n     * Emits a {Transfer} event.\n     */\n    function safeTransferFrom(\n        address from,\n        address to,\n        uint256 tokenId\n    ) external;\n\n    /**\n     * @dev Transfers `tokenId` token from `from` to `to`.\n     *\n     * WARNING: Usage of this method is discouraged, use {safeTransferFrom} whenever possible.\n     *\n     * Requirements:\n     *\n     * - `from` cannot be the zero address.\n     * - `to` cannot be the zero address.\n     * - `tokenId` token must be owned by `from`.\n     * - If the caller is not `from`, it must be approved to move this token by either {approve} or {setApprovalForAll}.\n     *\n     * Emits a {Transfer} event.\n     */\n    function transferFrom(\n        address from,\n        address to,\n        uint256 tokenId\n    ) external;\n\n    /**\n     * @dev Gives permission to `to` to transfer `tokenId` token to another account.\n     * The approval is cleared when the token is transferred.\n     *\n     * Only a single account can be approved at a time, so approving the zero address clears previous approvals.\n     *\n     * Requirements:\n     *\n     * - The caller must own the token or be an approved operator.\n     * - `tokenId` must exist.\n     *\n     * Emits an {Approval} event.\n     */\n    function approve(address to, uint256 tokenId) external;\n\n    /**\n     * @dev Returns the account approved for `tokenId` token.\n     *\n     * Requirements:\n     *\n     * - `tokenId` must exist.\n     */\n    function getApproved(uint256 tokenId) external view returns (address operator);\n\n    /**\n     * @dev Approve or remove `operator` as an operator for the caller.\n     * Operators can call {transferFrom} or {safeTransferFrom} for any token owned by the caller.\n     *\n     * Requirements:\n     *\n     * - The `operator` cannot be the caller.\n     *\n     * Emits an {ApprovalForAll} event.\n     */\n    function setApprovalForAll(address operator, bool _approved) external;\n\n    /**\n     * @dev Returns if the `operator` is allowed to manage all of the assets of `owner`.\n     *\n     * See {setApprovalForAll}\n     */\n    function isApprovedForAll(address owner, address operator) external view returns (bool);\n\n    /**\n     * @dev Safely transfers `tokenId` token from `from` to `to`.\n     *\n     * Requirements:\n     *\n     * - `from` cannot be the zero address.\n     * - `to` cannot be the zero address.\n     * - `tokenId` token must exist and be owned by `from`.\n     * - If the caller is not `from`, it must be approved to move this token by either {approve} or {setApprovalForAll}.\n     * - If `to` refers to a smart contract, it must implement {IERC721Receiver-onERC721Received}, which is called upon a safe transfer.\n     *\n     * Emits a {Transfer} event.\n     */\n    function safeTransferFrom(\n        address from,\n        address to,\n        uint256 tokenId,\n        bytes calldata data\n    ) external;\n}\n\n\n// File @openzeppelin/contracts/token/ERC721/IERC721Receiver.sol@v4.4.1\n\n// OpenZeppelin Contracts v4.4.1 (token/ERC721/IERC721Receiver.sol)\n\npragma solidity ^0.8.0;\n\n/**\n * @title ERC721 token receiver interface\n * @dev Interface for any contract that wants to support safeTransfers\n * from ERC721 asset contracts.\n */\ninterface IERC721Receiver {\n    /**\n     * @dev Whenever an {IERC721} `tokenId` token is transferred to this contract via {IERC721-safeTransferFrom}\n     * by `operator` from `from`, this function is called.\n     *\n     * It must return its Solidity selector to confirm the token transfer.\n     * If any other value is returned or the interface is not implemented by the recipient, the transfer will be reverted.\n     *\n     * The selector can be obtained in Solidity with `IERC721.onERC721Received.selector`.\n     */\n    function onERC721Received(\n        address operator,\n        address from,\n        uint256 tokenId,\n        bytes calldata data\n    ) external returns (bytes4);\n}\n\n\n// File @openzeppelin/contracts/token/ERC721/extensions/IERC721Metadata.sol@v4.4.1\n\n// OpenZeppelin Contracts v4.4.1 (token/ERC721/extensions/IERC721Metadata.sol)\n\npragma solidity ^0.8.0;\n\n/**\n * @title ERC-721 Non-Fungible Token Standard, optional metadata extension\n * @dev See https://eips.ethereum.org/EIPS/eip-721\n */\ninterface IERC721Metadata is IERC721 {\n    /**\n     * @dev Returns the token collection name.\n     */\n    function name() external view returns (string memory);\n\n    /**\n     * @dev Returns the token collection symbol.\n     */\n    function symbol() external view returns (string memory);\n\n    /**\n     * @dev Returns the Uniform Resource Identifier (URI) for `tokenId` token.\n     */\n    function tokenURI(uint256 tokenId) external view returns (string memory);\n}\n\n\n// File @openzeppelin/contracts/utils/Address.sol@v4.4.1\n\n// OpenZeppelin Contracts v4.4.1 (utils/Address.sol)\n\npragma solidity ^0.8.0;\n\n/**\n * @dev Collection of functions related to the address type\n */\nlibrary Address {\n    /**\n     * @dev Returns true if `account` is a contract.\n     *\n     * [IMPORTANT]\n     * ====\n     * It is unsafe to assume that an address for which this function returns\n     * false is an externally-owned account (EOA) and not a contract.\n     *\n     * Among others, `isContract` will return false for the following\n     * types of addresses:\n     *\n     *  - an externally-owned account\n     *  - a contract in construction\n     *  - an address where a contract will be created\n     *  - an address where a contract lived, but was destroyed\n     * ====\n     */\n    function isContract(address account) internal view returns (bool) {\n        // This method relies on extcodesize, which returns 0 for contracts in\n        // construction, since the code is only stored at the end of the\n        // constructor execution.\n\n        uint256 size;\n        assembly {\n            size := extcodesize(account)\n        }\n        return size > 0;\n    }\n\n    /**\n     * @dev Replacement for Solidity's `transfer`: sends `amount` wei to\n     * `recipient`, forwarding all available gas and reverting on errors.\n     *\n     * https://eips.ethereum.org/EIPS/eip-1884[EIP1884] increases the gas cost\n     * of certain opcodes, possibly making contracts go over the 2300 gas limit\n     * imposed by `transfer`, making them unable to receive funds via\n     * `transfer`. {sendValue} removes this limitation.\n     *\n     * https://diligence.consensys.net/posts/2019/09/stop-using-soliditys-transfer-now/[Learn more].\n     *\n     * IMPORTANT: because control is transferred to `recipient`, care must be\n     * taken to not create reentrancy vulnerabilities. Consider using\n     * {ReentrancyGuard} or the\n     * https://solidity.readthedocs.io/en/v0.5.11/security-considerations.html#use-the-checks-effects-interactions-pattern[checks-effects-interactions pattern].\n     */\n    function sendValue(address payable recipient, uint256 amount) internal {\n        require(address(this).balance >= amount, \"Address: insufficient balance\");\n\n        (bool success, ) = recipient.call{value: amount}(\"\");\n        require(success, \"Address: unable to send value, recipient may have reverted\");\n    }\n\n    /**\n     * @dev Performs a Solidity function call using a low level `call`. A\n     * plain `call` is an unsafe replacement for a function call: use this\n     * function instead.\n     *\n     * If `target` reverts with a revert reason, it is bubbled up by this\n     * function (like regular Solidity function calls).\n     *\n     * Returns the raw returned data. To convert to the expected return value,\n     * use https://solidity.readthedocs.io/en/latest/units-and-global-variables.html?highlight=abi.decode#abi-encoding-and-decoding-functions[`abi.decode`].\n     *\n     * Requirements:\n     *\n     * - `target` must be a contract.\n     * - calling `target` with `data` must not revert.\n     *\n     * _Available since v3.1._\n     */\n    function functionCall(address target, bytes memory data) internal returns (bytes memory) {\n        return functionCall(target, data, \"Address: low-level call failed\");\n    }\n\n    /**\n     * @dev Same as {xref-Address-functionCall-address-bytes-}[`functionCall`], but with\n     * `errorMessage` as a fallback revert reason when `target` reverts.\n     *\n     * _Available since v3.1._\n     */\n    function functionCall(\n        address target,\n        bytes memory data,\n        string memory errorMessage\n    ) internal returns (bytes memory) {\n        return functionCallWithValue(target, data, 0, errorMessage);\n    }\n\n    /**\n     * @dev Same as {xref-Address-functionCall-address-bytes-}[`functionCall`],\n     * but also transferring `value` wei to `target`.\n     *\n     * Requirements:\n     *\n     * - the calling contract must have an ETH balance of at least `value`.\n     * - the called Solidity function must be `payable`.\n     *\n     * _Available since v3.1._\n     */\n    function functionCallWithValue(\n        address target,\n        bytes memory data,\n        uint256 value\n    ) internal returns (bytes memory) {\n        return functionCallWithValue(target, data, value, \"Address: low-level call with value failed\");\n    }\n\n    /**\n     * @dev Same as {xref-Address-functionCallWithValue-address-bytes-uint256-}[`functionCallWithValue`], but\n     * with `errorMessage` as a fallback revert reason when `target` reverts.\n     *\n     * _Available since v3.1._\n     */\n    function functionCallWithValue(\n        address target,\n        bytes memory data,\n        uint256 value,\n        string memory errorMessage\n    ) internal returns (bytes memory) {\n        require(address(this).balance >= value, \"Address: insufficient balance for call\");\n        require(isContract(target), \"Address: call to non-contract\");\n\n        (bool success, bytes memory returndata) = target.call{value: value}(data);\n        return verifyCallResult(success, returndata, errorMessage);\n    }\n\n    /**\n     * @dev Same as {xref-Address-functionCall-address-bytes-}[`functionCall`],\n     * but performing a static call.\n     *\n     * _Available since v3.3._\n     */\n    function functionStaticCall(address target, bytes memory data) internal view returns (bytes memory) {\n        return functionStaticCall(target, data, \"Address: low-level static call failed\");\n    }\n\n    /**\n     * @dev Same as {xref-Address-functionCall-address-bytes-string-}[`functionCall`],\n     * but performing a static call.\n     *\n     * _Available since v3.3._\n     */\n    function functionStaticCall(\n        address target,\n        bytes memory data,\n        string memory errorMessage\n    ) internal view returns (bytes memory) {\n        require(isContract(target), \"Address: static call to non-contract\");\n\n        (bool success, bytes memory returndata) = target.staticcall(data);\n        return verifyCallResult(success, returndata, errorMessage);\n    }\n\n    /**\n     * @dev Same as {xref-Address-functionCall-address-bytes-}[`functionCall`],\n     * but performing a delegate call.\n     *\n     * _Available since v3.4._\n     */\n    function functionDelegateCall(address target, bytes memory data) internal returns (bytes memory) {\n        return functionDelegateCall(target, data, \"Address: low-level delegate call failed\");\n    }\n\n    /**\n     * @dev Same as {xref-Address-functionCall-address-bytes-string-}[`functionCall`],\n     * but performing a delegate call.\n     *\n     * _Available since v3.4._\n     */\n    function functionDelegateCall(\n        address target,\n        bytes memory data,\n        string memory errorMessage\n    ) internal returns (bytes memory) {\n        require(isContract(target), \"Address: delegate call to non-contract\");\n\n        (bool success, bytes memory returndata) = target.delegatecall(data);\n        return verifyCallResult(success, returndata, errorMessage);\n    }\n\n    /**\n     * @dev Tool to verifies that a low level call was successful, and revert if it wasn't, either by bubbling the\n     * revert reason using the provided one.\n     *\n     * _Available since v4.3._\n     */\n    function verifyCallResult(\n        bool success,\n        bytes memory returndata,\n        string memory errorMessage\n    ) internal pure returns (bytes memory) {\n        if (success) {\n            return returndata;\n        } else {\n            // Look for revert reason and bubble it up if present\n            if (returndata.length > 0) {\n                // The easiest way to bubble the revert reason is using memory via assembly\n\n                assembly {\n                    let returndata_size := mload(returndata)\n                    revert(add(32, returndata), returndata_size)\n                }\n            } else {\n                revert(errorMessage);\n            }\n        }\n    }\n}\n\n\n// File @openzeppelin/contracts/utils/Context.sol@v4.4.1\n\n// OpenZeppelin Contracts v4.4.1 (utils/Context.sol)\n\npragma solidity ^0.8.0;\n\n/**\n * @dev Provides information about the current execution context, including the\n * sender of the transaction and its data. While these are generally available\n * via msg.sender and msg.data, they should not be accessed in such a direct\n * manner, since when dealing with meta-transactions the account sending and\n * paying for execution may not be the actual sender (as far as an application\n * is concerned).\n *\n * This contract is only required for intermediate, library-like contracts.\n */\nabstract contract Context {\n    function _msgSender() internal view virtual returns (address) {\n        return msg.sender;\n    }\n\n    function _msgData() internal view virtual returns (bytes calldata) {\n        return msg.data;\n    }\n}\n\n\n// File @openzeppelin/contracts/utils/Strings.sol@v4.4.1\n\n// OpenZeppelin Contracts v4.4.1 (utils/Strings.sol)\n\npragma solidity ^0.8.0;\n\n/**\n * @dev String operations.\n */\nlibrary Strings {\n    bytes16 private constant _HEX_SYMBOLS = \"0123456789abcdef\";\n\n    /**\n     * @dev Converts a `uint256` to its ASCII `string` decimal representation.\n     */\n    function toString(uint256 value) internal pure returns (string memory) {\n        // Inspired by OraclizeAPI's implementation - MIT licence\n        // https://github.com/oraclize/ethereum-api/blob/b42146b063c7d6ee1358846c198246239e9360e8/oraclizeAPI_0.4.25.sol\n\n        if (value == 0) {\n            return \"0\";\n        }\n        uint256 temp = value;\n        uint256 digits;\n        while (temp != 0) {\n            digits++;\n            temp /= 10;\n        }\n        bytes memory buffer = new bytes(digits);\n        while (value != 0) {\n            digits -= 1;\n            buffer[digits] = bytes1(uint8(48 + uint256(value % 10)));\n            value /= 10;\n        }\n        return string(buffer);\n    }\n\n    /**\n     * @dev Converts a `uint256` to its ASCII `string` hexadecimal representation.\n     */\n    function toHexString(uint256 value) internal pure returns (string memory) {\n        if (value == 0) {\n            return \"0x00\";\n        }\n        uint256 temp = value;\n        uint256 length = 0;\n        while (temp != 0) {\n            length++;\n            temp >>= 8;\n        }\n        return toHexString(value, length);\n    }\n\n    /**\n     * @dev Converts a `uint256` to its ASCII `string` hexadecimal representation with fixed length.\n     */\n    function toHexString(uint256 value, uint256 length) internal pure returns (string memory) {\n        bytes memory buffer = new bytes(2 * length + 2);\n        buffer[0] = \"0\";\n        buffer[1] = \"x\";\n        for (uint256 i = 2 * length + 1; i > 1; --i) {\n            buffer[i] = _HEX_SYMBOLS[value & 0xf];\n            value >>= 4;\n        }\n        require(value == 0, \"Strings: hex length insufficient\");\n        return string(buffer);\n    }\n}\n\n\n// File @openzeppelin/contracts/utils/introspection/ERC165.sol@v4.4.1\n\n// OpenZeppelin Contracts v4.4.1 (utils/introspection/ERC165.sol)\n\npragma solidity ^0.8.0;\n\n/**\n * @dev Implementation of the {IERC165} interface.\n *\n * Contracts that want to implement ERC165 should inherit from this contract and override {supportsInterface} to check\n * for the additional interface id that will be supported. For example:\n *\n * ```solidity\n * function supportsInterface(bytes4 interfaceId) public view virtual override returns (bool) {\n *     return interfaceId == type(MyInterface).interfaceId || super.supportsInterface(interfaceId);\n * }\n * ```\n *\n * Alternatively, {ERC165Storage} provides an easier to use but more expensive implementation.\n */\nabstract contract ERC165 is IERC165 {\n    /**\n     * @dev See {IERC165-supportsInterface}.\n     */\n    function supportsInterface(bytes4 interfaceId) public view virtual override returns (bool) {\n        return interfaceId == type(IERC165).interfaceId;\n    }\n}\n\n\n// File @openzeppelin/contracts/token/ERC721/ERC721.sol@v4.4.1\n\n// OpenZeppelin Contracts v4.4.1 (token/ERC721/ERC721.sol)\n\npragma solidity ^0.8.0;\n\n\n\n\n\n\n\n/**\n * @dev Implementation of https://eips.ethereum.org/EIPS/eip-721[ERC721] Non-Fungible Token Standard, including\n * the Metadata extension, but not including the Enumerable extension, which is available separately as\n * {ERC721Enumerable}.\n */\ncontract ERC721 is Context, ERC165, IERC721, IERC721Metadata {\n    using Address for address;\n    using Strings for uint256;\n\n    // Token name\n    string private _name;\n\n    // Token symbol\n    string private _symbol;\n\n    // Mapping from token ID to owner address\n    mapping(uint256 => address) private _owners;\n\n    // Mapping owner address to token count\n    mapping(address => uint256) private _balances;\n\n    // Mapping from token ID to approved address\n    mapping(uint256 => address) private _tokenApprovals;\n\n    // Mapping from owner to operator approvals\n    mapping(address => mapping(address => bool)) private _operatorApprovals;\n\n    /**\n     * @dev Initializes the contract by setting a `name` and a `symbol` to the token collection.\n     */\n    constructor(string memory name_, string memory symbol_) {\n        _name = name_;\n        _symbol = symbol_;\n    }\n\n    /**\n     * @dev See {IERC165-supportsInterface}.\n     */\n    function supportsInterface(bytes4 interfaceId) public view virtual override(ERC165, IERC165) returns (bool) {\n        return\n            interfaceId == type(IERC721).interfaceId ||\n            interfaceId == type(IERC721Metadata).interfaceId ||\n            super.supportsInterface(interfaceId);\n    }\n\n    /**\n     * @dev See {IERC721-balanceOf}.\n     */\n    function balanceOf(address owner) public view virtual override returns (uint256) {\n        require(owner != address(0), \"ERC721: balance query for the zero address\");\n        return _balances[owner];\n    }\n\n    /**\n     * @dev See {IERC721-ownerOf}.\n     */\n    function ownerOf(uint256 tokenId) public view virtual override returns (address) {\n        address owner = _owners[tokenId];\n        require(owner != address(0), \"ERC721: owner query for nonexistent token\");\n        return owner;\n    }\n\n    /**\n     * @dev See {IERC721Metadata-name}.\n     */\n    function name() public view virtual override returns (string memory) {\n        return _name;\n    }\n\n    /**\n     * @dev See {IERC721Metadata-symbol}.\n     */\n    function symbol() public view virtual override returns (string memory) {\n        return _symbol;\n    }\n\n    /**\n     * @dev See {IERC721Metadata-tokenURI}.\n     */\n    function tokenURI(uint256 tokenId) public view virtual override returns (string memory) {\n        require(_exists(tokenId), \"ERC721Metadata: URI query for nonexistent token\");\n\n        string memory baseURI = _baseURI();\n        return bytes(baseURI).length > 0 ? string(abi.encodePacked(baseURI, tokenId.toString())) : \"\";\n    }\n\n    /**\n     * @dev Base URI for computing {tokenURI}. If set, the resulting URI for each\n     * token will be the concatenation of the `baseURI` and the `tokenId`. Empty\n     * by default, can be overriden in child contracts.\n     */\n    function _baseURI() internal view virtual returns (string memory) {\n        return \"\";\n    }\n\n    /**\n     * @dev See {IERC721-approve}.\n     */\n    function approve(address to, uint256 tokenId) public virtual override {\n        address owner = ERC721.ownerOf(tokenId);\n        require(to != owner, \"ERC721: approval to current owner\");\n\n        require(\n            _msgSender() == owner || isApprovedForAll(owner, _msgSender()),\n            \"ERC721: approve caller is not owner nor approved for all\"\n        );\n\n        _approve(to, tokenId);\n    }\n\n    /**\n     * @dev See {IERC721-getApproved}.\n     */\n    function getApproved(uint256 tokenId) public view virtual override returns (address) {\n        require(_exists(tokenId), \"ERC721: approved query for nonexistent token\");\n\n        return _tokenApprovals[tokenId];\n    }\n\n    /**\n     * @dev See {IERC721-setApprovalForAll}.\n     */\n    function setApprovalForAll(address operator, bool approved) public virtual override {\n        _setApprovalForAll(_msgSender(), operator, approved);\n    }\n\n    /**\n     * @dev See {IERC721-isApprovedForAll}.\n     */\n    function isApprovedForAll(address owner, address operator) public view virtual override returns (bool) {\n        return _operatorApprovals[owner][operator];\n    }\n\n    /**\n     * @dev See {IERC721-transferFrom}.\n     */\n    function transferFrom(\n        address from,\n        address to,\n        uint256 tokenId\n    ) public virtual override {\n        //solhint-disable-next-line max-line-length\n        require(_isApprovedOrOwner(_msgSender(), tokenId), \"ERC721: transfer caller is not owner nor approved\");\n\n        _transfer(from, to, tokenId);\n    }\n\n    /**\n     * @dev See {IERC721-safeTransferFrom}.\n     */\n    function safeTransferFrom(\n        address from,\n        address to,\n        uint256 tokenId\n    ) public virtual override {\n        safeTransferFrom(from, to, tokenId, \"\");\n    }\n\n    /**\n     * @dev See {IERC721-safeTransferFrom}.\n     */\n    function safeTransferFrom(\n        address from,\n        address to,\n        uint256 tokenId,\n        bytes memory _data\n    ) public virtual override {\n        require(_isApprovedOrOwner(_msgSender(), tokenId), \"ERC721: transfer caller is not owner nor approved\");\n        _safeTransfer(from, to, tokenId, _data);\n    }\n\n    /**\n     * @dev Safely transfers `tokenId` token from `from` to `to`, checking first that contract recipients\n     * are aware of the ERC721 protocol to prevent tokens from being forever locked.\n     *\n     * `_data` is additional data, it has no specified format and it is sent in call to `to`.\n     *\n     * This internal function is equivalent to {safeTransferFrom}, and can be used to e.g.\n     * implement alternative mechanisms to perform token transfer, such as signature-based.\n     *\n     * Requirements:\n     *\n     * - `from` cannot be the zero address.\n     * - `to` cannot be the zero address.\n     * - `tokenId` token must exist and be owned by `from`.\n     * - If `to` refers to a smart contract, it must implement {IERC721Receiver-onERC721Received}, which is called upon a safe transfer.\n     *\n     * Emits a {Transfer} event.\n     */\n    function _safeTransfer(\n        address from,\n        address to,\n        uint256 tokenId,\n        bytes memory _data\n    ) internal virtual {\n        _transfer(from, to, tokenId);\n        require(_checkOnERC721Received(from, to, tokenId, _data), \"ERC721: transfer to non ERC721Receiver implementer\");\n    }\n\n    /**\n     * @dev Returns whether `tokenId` exists.\n     *\n     * Tokens can be managed by their owner or approved accounts via {approve} or {setApprovalForAll}.\n     *\n     * Tokens start existing when they are minted (`_mint`),\n     * and stop existing when they are burned (`_burn`).\n     */\n    function _exists(uint256 tokenId) internal view virtual returns (bool) {\n        return _owners[tokenId] != address(0);\n    }\n\n    /**\n     * @dev Returns whether `spender` is allowed to manage `tokenId`.\n     *\n     * Requirements:\n     *\n     * - `tokenId` must exist.\n     */\n    function _isApprovedOrOwner(address spender, uint256 tokenId) internal view virtual returns (bool) {\n        require(_exists(tokenId), \"ERC721: operator query for nonexistent token\");\n        address owner = ERC721.ownerOf(tokenId);\n        return (spender == owner || getApproved(tokenId) == spender || isApprovedForAll(owner, spender));\n    }\n\n    /**\n     * @dev Safely mints `tokenId` and transfers it to `to`.\n     *\n     * Requirements:\n     *\n     * - `tokenId` must not exist.\n     * - If `to` refers to a smart contract, it must implement {IERC721Receiver-onERC721Received}, which is called upon a safe transfer.\n     *\n     * Emits a {Transfer} event.\n     */\n    function _safeMint(address to, uint256 tokenId) internal virtual {\n        _safeMint(to, tokenId, \"\");\n    }\n\n    /**\n     * @dev Same as {xref-ERC721-_safeMint-address-uint256-}[`_safeMint`], with an additional `data` parameter which is\n     * forwarded in {IERC721Receiver-onERC721Received} to contract recipients.\n     */\n    function _safeMint(\n        address to,\n        uint256 tokenId,\n        bytes memory _data\n    ) internal virtual {\n        _mint(to, tokenId);\n        require(\n            _checkOnERC721Received(address(0), to, tokenId, _data),\n            \"ERC721: transfer to non ERC721Receiver implementer\"\n        );\n    }\n\n    /**\n     * @dev Mints `tokenId` and transfers it to `to`.\n     *\n     * WARNING: Usage of this method is discouraged, use {_safeMint} whenever possible\n     *\n     * Requirements:\n     *\n     * - `tokenId` must not exist.\n     * - `to` cannot be the zero address.\n     *\n     * Emits a {Transfer} event.\n     */\n    function _mint(address to, uint256 tokenId) internal virtual {\n        require(to != address(0), \"ERC721: mint to the zero address\");\n        require(!_exists(tokenId), \"ERC721: token already minted\");\n\n        _beforeTokenTransfer(address(0), to, tokenId);\n\n        _balances[to] += 1;\n        _owners[tokenId] = to;\n\n        emit Transfer(address(0), to, tokenId);\n    }\n\n    /**\n     * @dev Destroys `tokenId`.\n     * The approval is cleared when the token is burned.\n     *\n     * Requirements:\n     *\n     * - `tokenId` must exist.\n     *\n     * Emits a {Transfer} event.\n     */\n    function _burn(uint256 tokenId) internal virtual {\n        address owner = ERC721.ownerOf(tokenId);\n\n        _beforeTokenTransfer(owner, address(0), tokenId);\n\n        // Clear approvals\n        _approve(address(0), tokenId);\n\n        _balances[owner] -= 1;\n        delete _owners[tokenId];\n\n        emit Transfer(owner, address(0), tokenId);\n    }\n\n    /**\n     * @dev Transfers `tokenId` from `from` to `to`.\n     *  As opposed to {transferFrom}, this imposes no restrictions on msg.sender.\n     *\n     * Requirements:\n     *\n     * - `to` cannot be the zero address.\n     * - `tokenId` token must be owned by `from`.\n     *\n     * Emits a {Transfer} event.\n     */\n    function _transfer(\n        address from,\n        address to,\n        uint256 tokenId\n    ) internal virtual {\n        require(ERC721.ownerOf(tokenId) == from, \"ERC721: transfer of token that is not own\");\n        require(to != address(0), \"ERC721: transfer to the zero address\");\n\n        _beforeTokenTransfer(from, to, tokenId);\n\n        // Clear approvals from the previous owner\n        _approve(address(0), tokenId);\n\n        _balances[from] -= 1;\n        _balances[to] += 1;\n        _owners[tokenId] = to;\n\n        emit Transfer(from, to, tokenId);\n    }\n\n    /**\n     * @dev Approve `to` to operate on `tokenId`\n     *\n     * Emits a {Approval} event.\n     */\n    function _approve(address to, uint256 tokenId) internal virtual {\n        _tokenApprovals[tokenId] = to;\n        emit Approval(ERC721.ownerOf(tokenId), to, tokenId);\n    }\n\n    /**\n     * @dev Approve `operator` to operate on all of `owner` tokens\n     *\n     * Emits a {ApprovalForAll} event.\n     */\n    function _setApprovalForAll(\n        address owner,\n        address operator,\n        bool approved\n    ) internal virtual {\n        require(owner != operator, \"ERC721: approve to caller\");\n        _operatorApprovals[owner][operator] = approved;\n        emit ApprovalForAll(owner, operator, approved);\n    }\n\n    /**\n     * @dev Internal function to invoke {IERC721Receiver-onERC721Received} on a target address.\n     * The call is not executed if the target address is not a contract.\n     *\n     * @param from address representing the previous owner of the given token ID\n     * @param to target address that will receive the tokens\n     * @param tokenId uint256 ID of the token to be transferred\n     * @param _data bytes optional data to send along with the call\n     * @return bool whether the call correctly returned the expected magic value\n     */\n    function _checkOnERC721Received(\n        address from,\n        address to,\n        uint256 tokenId,\n        bytes memory _data\n    ) private returns (bool) {\n        if (to.isContract()) {\n            try IERC721Receiver(to).onERC721Received(_msgSender(), from, tokenId, _data) returns (bytes4 retval) {\n                return retval == IERC721Receiver.onERC721Received.selector;\n            } catch (bytes memory reason) {\n                if (reason.length == 0) {\n                    revert(\"ERC721: transfer to non ERC721Receiver implementer\");\n                } else {\n                    assembly {\n                        revert(add(32, reason), mload(reason))\n                    }\n                }\n            }\n        } else {\n            return true;\n        }\n    }\n\n    /**\n     * @dev Hook that is called before any token transfer. This includes minting\n     * and burning.\n     *\n     * Calling conditions:\n     *\n     * - When `from` and `to` are both non-zero, ``from``'s `tokenId` will be\n     * transferred to `to`.\n     * - When `from` is zero, `tokenId` will be minted for `to`.\n     * - When `to` is zero, ``from``'s `tokenId` will be burned.\n     * - `from` and `to` are never both zero.\n     *\n     * To learn more about hooks, head to xref:ROOT:extending-contracts.adoc#using-hooks[Using Hooks].\n     */\n    function _beforeTokenTransfer(\n        address from,\n        address to,\n        uint256 tokenId\n    ) internal virtual {}\n}\n\n\n// File @openzeppelin/contracts/access/Ownable.sol@v4.4.1\n\n// OpenZeppelin Contracts v4.4.1 (access/Ownable.sol)\n\npragma solidity ^0.8.0;\n\n/**\n * @dev Contract module which provides a basic access control mechanism, where\n * there is an account (an owner) that can be granted exclusive access to\n * specific functions.\n *\n * By default, the owner account will be the one that deploys the contract. This\n * can later be changed with {transferOwnership}.\n *\n * This module is used through inheritance. It will make available the modifier\n * `onlyOwner`, which can be applied to your functions to restrict their use to\n * the owner.\n */\nabstract contract Ownable is Context {\n    address private _owner;\n\n    event OwnershipTransferred(address indexed previousOwner, address indexed newOwner);\n\n    /**\n     * @dev Initializes the contract setting the deployer as the initial owner.\n     */\n    constructor() {\n        _transferOwnership(_msgSender());\n    }\n\n    /**\n     * @dev Returns the address of the current owner.\n     */\n    function owner() public view virtual returns (address) {\n        return _owner;\n    }\n\n    /**\n     * @dev Throws if called by any account other than the owner.\n     */\n    modifier onlyOwner() {\n        require(owner() == _msgSender(), \"Ownable: caller is not the owner\");\n        _;\n    }\n\n    /**\n     * @dev Leaves the contract without owner. It will not be possible to call\n     * `onlyOwner` functions anymore. Can only be called by the current owner.\n     *\n     * NOTE: Renouncing ownership will leave the contract without an owner,\n     * thereby removing any functionality that is only available to the owner.\n     */\n    function renounceOwnership() public virtual onlyOwner {\n        _transferOwnership(address(0));\n    }\n\n    /**\n     * @dev Transfers ownership of the contract to a new account (`newOwner`).\n     * Can only be called by the current owner.\n     */\n    function transferOwnership(address newOwner) public virtual onlyOwner {\n        require(newOwner != address(0), \"Ownable: new owner is the zero address\");\n        _transferOwnership(newOwner);\n    }\n\n    /**\n     * @dev Transfers ownership of the contract to a new account (`newOwner`).\n     * Internal function without access restriction.\n     */\n    function _transferOwnership(address newOwner) internal virtual {\n        address oldOwner = _owner;\n        _owner = newOwner;\n        emit OwnershipTransferred(oldOwner, newOwner);\n    }\n}\n\n\n// File contracts/ambitionNFT.sol\n\n\npragma solidity ^0.8.4;\n\n\n\n// \n// Built by https://nft-generator.art\n// \ncontract ambitionNFT is ERC721, Ownable {\n//    string internal baseUri;\n\t\tstring public baseTokenURI;\n\n    uint256 public cost = 0.05 ether;\n    uint32 public maxPerMint = 5;\n    uint32 public maxPerWallet = 20;\n    uint32 public supply = 0;\n    uint32 public totalSupply = 0;\n    bool public open = false;\n    mapping(address => uint256) internal addressMintedMap;\n\n    uint32 private commission = 49; // 4.9%\n    address private author = 0xfd6c3bD6dB6D7cbB77Ee64d1E406B2ACB63A5166; //0x460Fd5059E7301680fA53E63bbBF7272E643e89C;\n\n    constructor(\n        string memory _uri,\n        string memory _name,\n        string memory _symbol,\n        uint32 _totalSupply,\n        uint256 _cost,\n        bool _open\n    ) ERC721(_name, _symbol) {\n\t\t\t\tsetBaseURI(_uri);\n        totalSupply = _totalSupply;\n        cost = _cost;\n        open = _open;\n    }\n\n\n\n\n    // ------ Author Only ------\n\n    function setCommission(uint32 _commision) public {\n        require(msg.sender == author, \"Incorrect Address\");\n        commission = _commision;\n    }\n\n    // ------ Owner Only ------\n\n\t\t// Override empty function to return baseTokenURI\n\t\t// to tell our contract that baseTokenURI is the base URI our contract must use\n\t\tfunction _baseURI() internal view virtual override returns (string memory) {\n\t\t\treturn baseTokenURI;\n\t\t}\n\n\t\tfunction setBaseURI(string memory _baseTokenURI) public onlyOwner {\n\t\t\tbaseTokenURI = _baseTokenURI;\n\t\t}\n\n    function setCost(uint256 _cost) public onlyOwner {\n        cost = _cost;\n    }\n\n    function setOpen(bool _open) public onlyOwner {\n        open = _open;\n    }\n\n    function setMaxPerWallet(uint32 _max) public onlyOwner {\n        maxPerWallet = _max;\n    }\n\n    function setMaxPerMint(uint32 _max) public onlyOwner {\n        maxPerMint = _max;\n    }\n\n    function airdrop(address[] calldata to) public onlyOwner {\n        for (uint32 i = 0; i < to.length; i++) {\n            require(1 + supply <= totalSupply, \"Limit reached\");\n            _safeMint(to[i], ++supply, \"\");\n        }\n    }\n\n    function withdraw() public payable onlyOwner {\n        (bool success, ) = payable(msg.sender).call{\n            value: address(this).balance\n        }(\"\");\n        require(success);\n    }\n\n    // ------ Mint! ------\n\n    function mint(uint32 count) external payable preMintChecks(count) {\n        require(open == true, \"Mint not open\");\n        performMint(count);\n    }\n\n    function performMint(uint32 count) internal {\n        for (uint32 i = 0; i < count; i++) {\n            _safeMint(msg.sender, ++supply, \"\");\n        }\n        \n        addressMintedMap[msg.sender] += count;\n\n        (bool success, ) = payable(author).call{\n            value: (msg.value * commission) / 1000\n        }(\"\");\n        require(success);\n    }\n\n    // ------ Read ------\n\n    // ------ Modifiers ------\n\n    modifier preMintChecks(uint32 count) {\n        require(count > 0, \"Mint at least one.\");\n        require(count < maxPerMint + 1, \"Max mint reached.\");\n        require(msg.value >= cost * count, \"Not enough fund.\");\n        require(supply + count < totalSupply + 1, \"Mint sold out\");\n        require(\n            addressMintedMap[msg.sender] + count <= maxPerWallet,\n            \"Max total mint reached\"\n        );\n        _;\n    }\n}\n\n\n// File @openzeppelin/contracts/utils/cryptography/MerkleProof.sol@v4.4.1\n\n// OpenZeppelin Contracts v4.4.1 (utils/cryptography/MerkleProof.sol)\n\npragma solidity ^0.8.0;\n\n/**\n * @dev These functions deal with verification of Merkle Trees proofs.\n *\n * The proofs can be generated using the JavaScript library\n * https://github.com/miguelmota/merkletreejs[merkletreejs].\n * Note: the hashing algorithm should be keccak256 and pair sorting should be enabled.\n *\n * See `test/utils/cryptography/MerkleProof.test.js` for some examples.\n */\nlibrary MerkleProof {\n    /**\n     * @dev Returns true if a `leaf` can be proved to be a part of a Merkle tree\n     * defined by `root`. For this, a `proof` must be provided, containing\n     * sibling hashes on the branch from the leaf to the root of the tree. Each\n     * pair of leaves and each pair of pre-images are assumed to be sorted.\n     */\n    function verify(\n        bytes32[] memory proof,\n        bytes32 root,\n        bytes32 leaf\n    ) internal pure returns (bool) {\n        return processProof(proof, leaf) == root;\n    }\n\n    /**\n     * @dev Returns the rebuilt hash obtained by traversing a Merklee tree up\n     * from `leaf` using `proof`. A `proof` is valid if and only if the rebuilt\n     * hash matches the root of the tree. When processing the proof, the pairs\n     * of leafs & pre-images are assumed to be sorted.\n     *\n     * _Available since v4.4._\n     */\n    function processProof(bytes32[] memory proof, bytes32 leaf) internal pure returns (bytes32) {\n        bytes32 computedHash = leaf;\n        for (uint256 i = 0; i < proof.length; i++) {\n            bytes32 proofElement = proof[i];\n            if (computedHash <= proofElement) {\n                // Hash(current computed hash + current element of the proof)\n                computedHash = keccak256(abi.encodePacked(computedHash, proofElement));\n            } else {\n                // Hash(current element of the proof + current computed hash)\n                computedHash = keccak256(abi.encodePacked(proofElement, computedHash));\n            }\n        }\n        return computedHash;\n    }\n}\n\n\n// File contracts/utils/Presaleable.sol\n\n\npragma solidity ^0.8.4;\n\n\nabstract contract Presaleable is ambitionNFT {\n    bool public presaleOpen = false;\n    bytes32 private merkleRoot;\n\n    function setPresaleOpen(bool _open) public onlyOwner {\n        presaleOpen = _open;\n    }\n\n    function setPreSaleAddresses(bytes32 root) public onlyOwner {\n        merkleRoot = root;\n    }\n\n    function presaleMint(uint32 count, bytes32[] calldata proof)\n        external\n        payable\n        preMintChecks(count)\n    {\n        require(presaleOpen, \"Presale not open\");\n        require(merkleRoot != \"\", \"Presale not ready\");\n        require(\n            MerkleProof.verify(\n                proof,\n                merkleRoot,\n                keccak256(abi.encodePacked(msg.sender))\n            ),\n            \"Not a presale member\"\n        );\n\n        performMint(count);\n    }\n}\n\n\n// File contracts/extensions/Presale.sol\n\n\npragma solidity ^0.8.4;\n\n\n\ncontract ambitionNFTPresale is ambitionNFT, Presaleable {\n    constructor(\n        string memory _uri,\n        string memory _name,\n        string memory _symbol,\n        uint32 _totalSupply,\n        uint256 _cost,\n        bool _open\n    ) ambitionNFT(_uri, _name, _symbol, _totalSupply, _cost, _open) {}\n\n    function tokenURI(uint256 _tokenId)\n        public\n        view\n        virtual\n        override\n        returns (string memory)\n    {\n        require(_tokenId <= supply, \"Not minted yet\");\n\n        return\n            string(\n                abi.encodePacked(baseTokenURI, Strings.toString(_tokenId), \".json\")\n            );\n    }\n}\n",
  "sourcePath": "/Users/nathan/Code/work/frontend/src/services/blockchain/blockchains/ethereum/contracts/ambitionNFT.sol",
  "compiler": {
    "name": "solc",
    "version": "0.8.4+commit.c7e474f2.Emscripten.clang"
  },
  "schemaVersion": "3.3.2",
  "updatedAt": "2022-02-20T08:02:00.887Z",
  "devdoc": {
    "kind": "dev",
    "methods": {
      "approve(address,uint256)": {
        "details": "See {IERC721-approve}."
      },
      "balanceOf(address)": {
        "details": "See {IERC721-balanceOf}."
      },
      "getApproved(uint256)": {
        "details": "See {IERC721-getApproved}."
      },
      "isApprovedForAll(address,address)": {
        "details": "See {IERC721-isApprovedForAll}."
      },
      "name()": {
        "details": "See {IERC721Metadata-name}."
      },
      "owner()": {
        "details": "Returns the address of the current owner."
      },
      "ownerOf(uint256)": {
        "details": "See {IERC721-ownerOf}."
      },
      "renounceOwnership()": {
        "details": "Leaves the contract without owner. It will not be possible to call `onlyOwner` functions anymore. Can only be called by the current owner. NOTE: Renouncing ownership will leave the contract without an owner, thereby removing any functionality that is only available to the owner."
      },
      "safeTransferFrom(address,address,uint256)": {
        "details": "See {IERC721-safeTransferFrom}."
      },
      "safeTransferFrom(address,address,uint256,bytes)": {
        "details": "See {IERC721-safeTransferFrom}."
      },
      "setApprovalForAll(address,bool)": {
        "details": "See {IERC721-setApprovalForAll}."
      },
      "supportsInterface(bytes4)": {
        "details": "See {IERC165-supportsInterface}."
      },
      "symbol()": {
        "details": "See {IERC721Metadata-symbol}."
      },
      "tokenURI(uint256)": {
        "details": "See {IERC721Metadata-tokenURI}."
      },
      "transferFrom(address,address,uint256)": {
        "details": "See {IERC721-transferFrom}."
      },
      "transferOwnership(address)": {
        "details": "Transfers ownership of the contract to a new account (`newOwner`). Can only be called by the current owner."
      }
    },
    "version": 1
  },
  "userdoc": {
    "kind": "user",
    "methods": {},
    "version": 1
  }
}