{
  "contractName": "NFTArtGenPresale",
  "abi": [
    {
      "inputs": [
        {
          "internalType": "string",
          "name": "_uri",
          "type": "string"
        },
        {
          "internalType": "string",
          "name": "_name",
          "type": "string"
        },
        {
          "internalType": "string",
          "name": "_symbol",
          "type": "string"
        },
        {
          "internalType": "uint32",
          "name": "_totalSupply",
          "type": "uint32"
        },
        {
          "internalType": "uint256",
          "name": "_cost",
          "type": "uint256"
        },
        {
          "internalType": "bool",
          "name": "_open",
          "type": "bool"
        }
      ],
      "stateMutability": "nonpayable",
      "type": "constructor"
    },
    {
      "anonymous": false,
      "inputs": [
        {
          "indexed": true,
          "internalType": "address",
          "name": "owner",
          "type": "address"
        },
        {
          "indexed": true,
          "internalType": "address",
          "name": "approved",
          "type": "address"
        },
        {
          "indexed": true,
          "internalType": "uint256",
          "name": "tokenId",
          "type": "uint256"
        }
      ],
      "name": "Approval",
      "type": "event"
    },
    {
      "anonymous": false,
      "inputs": [
        {
          "indexed": true,
          "internalType": "address",
          "name": "owner",
          "type": "address"
        },
        {
          "indexed": true,
          "internalType": "address",
          "name": "operator",
          "type": "address"
        },
        {
          "indexed": false,
          "internalType": "bool",
          "name": "approved",
          "type": "bool"
        }
      ],
      "name": "ApprovalForAll",
      "type": "event"
    },
    {
      "anonymous": false,
      "inputs": [
        {
          "indexed": true,
          "internalType": "address",
          "name": "previousOwner",
          "type": "address"
        },
        {
          "indexed": true,
          "internalType": "address",
          "name": "newOwner",
          "type": "address"
        }
      ],
      "name": "OwnershipTransferred",
      "type": "event"
    },
    {
      "anonymous": false,
      "inputs": [
        {
          "indexed": true,
          "internalType": "address",
          "name": "from",
          "type": "address"
        },
        {
          "indexed": true,
          "internalType": "address",
          "name": "to",
          "type": "address"
        },
        {
          "indexed": true,
          "internalType": "uint256",
          "name": "tokenId",
          "type": "uint256"
        }
      ],
      "name": "Transfer",
      "type": "event"
    },
    {
      "inputs": [
        {
          "internalType": "address[]",
          "name": "to",
          "type": "address[]"
        }
      ],
      "name": "airdrop",
      "outputs": [],
      "stateMutability": "nonpayable",
      "type": "function"
    },
    {
      "inputs": [
        {
          "internalType": "address",
          "name": "to",
          "type": "address"
        },
        {
          "internalType": "uint256",
          "name": "tokenId",
          "type": "uint256"
        }
      ],
      "name": "approve",
      "outputs": [],
      "stateMutability": "nonpayable",
      "type": "function"
    },
    {
      "inputs": [
        {
          "internalType": "address",
          "name": "owner",
          "type": "address"
        }
      ],
      "name": "balanceOf",
      "outputs": [
        {
          "internalType": "uint256",
          "name": "",
          "type": "uint256"
        }
      ],
      "stateMutability": "view",
      "type": "function"
    },
    {
      "inputs": [],
      "name": "cost",
      "outputs": [
        {
          "internalType": "uint256",
          "name": "",
          "type": "uint256"
        }
      ],
      "stateMutability": "view",
      "type": "function"
    },
    {
      "inputs": [
        {
          "internalType": "uint256",
          "name": "tokenId",
          "type": "uint256"
        }
      ],
      "name": "getApproved",
      "outputs": [
        {
          "internalType": "address",
          "name": "",
          "type": "address"
        }
      ],
      "stateMutability": "view",
      "type": "function"
    },
    {
      "inputs": [
        {
          "internalType": "address",
          "name": "owner",
          "type": "address"
        },
        {
          "internalType": "address",
          "name": "operator",
          "type": "address"
        }
      ],
      "name": "isApprovedForAll",
      "outputs": [
        {
          "internalType": "bool",
          "name": "",
          "type": "bool"
        }
      ],
      "stateMutability": "view",
      "type": "function"
    },
    {
      "inputs": [],
      "name": "maxPerMint",
      "outputs": [
        {
          "internalType": "uint32",
          "name": "",
          "type": "uint32"
        }
      ],
      "stateMutability": "view",
      "type": "function"
    },
    {
      "inputs": [],
      "name": "maxPerWallet",
      "outputs": [
        {
          "internalType": "uint32",
          "name": "",
          "type": "uint32"
        }
      ],
      "stateMutability": "view",
      "type": "function"
    },
    {
      "inputs": [
        {
          "internalType": "uint32",
          "name": "count",
          "type": "uint32"
        }
      ],
      "name": "mint",
      "outputs": [],
      "stateMutability": "payable",
      "type": "function"
    },
    {
      "inputs": [],
      "name": "name",
      "outputs": [
        {
          "internalType": "string",
          "name": "",
          "type": "string"
        }
      ],
      "stateMutability": "view",
      "type": "function"
    },
    {
      "inputs": [],
      "name": "open",
      "outputs": [
        {
          "internalType": "bool",
          "name": "",
          "type": "bool"
        }
      ],
      "stateMutability": "view",
      "type": "function"
    },
    {
      "inputs": [],
      "name": "owner",
      "outputs": [
        {
          "internalType": "address",
          "name": "",
          "type": "address"
        }
      ],
      "stateMutability": "view",
      "type": "function"
    },
    {
      "inputs": [
        {
          "internalType": "uint256",
          "name": "tokenId",
          "type": "uint256"
        }
      ],
      "name": "ownerOf",
      "outputs": [
        {
          "internalType": "address",
          "name": "",
          "type": "address"
        }
      ],
      "stateMutability": "view",
      "type": "function"
    },
    {
      "inputs": [
        {
          "internalType": "uint32",
          "name": "count",
          "type": "uint32"
        },
        {
          "internalType": "bytes32[]",
          "name": "proof",
          "type": "bytes32[]"
        }
      ],
      "name": "presaleMint",
      "outputs": [],
      "stateMutability": "payable",
      "type": "function"
    },
    {
      "inputs": [],
      "name": "presaleOpen",
      "outputs": [
        {
          "internalType": "bool",
          "name": "",
          "type": "bool"
        }
      ],
      "stateMutability": "view",
      "type": "function"
    },
    {
      "inputs": [],
      "name": "renounceOwnership",
      "outputs": [],
      "stateMutability": "nonpayable",
      "type": "function"
    },
    {
      "inputs": [
        {
          "internalType": "address",
          "name": "from",
          "type": "address"
        },
        {
          "internalType": "address",
          "name": "to",
          "type": "address"
        },
        {
          "internalType": "uint256",
          "name": "tokenId",
          "type": "uint256"
        }
      ],
      "name": "safeTransferFrom",
      "outputs": [],
      "stateMutability": "nonpayable",
      "type": "function"
    },
    {
      "inputs": [
        {
          "internalType": "address",
          "name": "from",
          "type": "address"
        },
        {
          "internalType": "address",
          "name": "to",
          "type": "address"
        },
        {
          "internalType": "uint256",
          "name": "tokenId",
          "type": "uint256"
        },
        {
          "internalType": "bytes",
          "name": "_data",
          "type": "bytes"
        }
      ],
      "name": "safeTransferFrom",
      "outputs": [],
      "stateMutability": "nonpayable",
      "type": "function"
    },
    {
      "inputs": [
        {
          "internalType": "address",
          "name": "operator",
          "type": "address"
        },
        {
          "internalType": "bool",
          "name": "approved",
          "type": "bool"
        }
      ],
      "name": "setApprovalForAll",
      "outputs": [],
      "stateMutability": "nonpayable",
      "type": "function"
    },
    {
      "inputs": [
        {
          "internalType": "uint32",
          "name": "_commision",
          "type": "uint32"
        }
      ],
      "name": "setCommission",
      "outputs": [],
      "stateMutability": "nonpayable",
      "type": "function"
    },
    {
      "inputs": [
        {
          "internalType": "uint256",
          "name": "_cost",
          "type": "uint256"
        }
      ],
      "name": "setCost",
      "outputs": [],
      "stateMutability": "nonpayable",
      "type": "function"
    },
    {
      "inputs": [
        {
          "internalType": "uint32",
          "name": "_max",
          "type": "uint32"
        }
      ],
      "name": "setMaxPerMint",
      "outputs": [],
      "stateMutability": "nonpayable",
      "type": "function"
    },
    {
      "inputs": [
        {
          "internalType": "uint32",
          "name": "_max",
          "type": "uint32"
        }
      ],
      "name": "setMaxPerWallet",
      "outputs": [],
      "stateMutability": "nonpayable",
      "type": "function"
    },
    {
      "inputs": [
        {
          "internalType": "bool",
          "name": "_open",
          "type": "bool"
        }
      ],
      "name": "setOpen",
      "outputs": [],
      "stateMutability": "nonpayable",
      "type": "function"
    },
    {
      "inputs": [
        {
          "internalType": "bytes32",
          "name": "root",
          "type": "bytes32"
        }
      ],
      "name": "setPreSaleAddresses",
      "outputs": [],
      "stateMutability": "nonpayable",
      "type": "function"
    },
    {
      "inputs": [
        {
          "internalType": "bool",
          "name": "_open",
          "type": "bool"
        }
      ],
      "name": "setPresaleOpen",
      "outputs": [],
      "stateMutability": "nonpayable",
      "type": "function"
    },
    {
      "inputs": [],
      "name": "supply",
      "outputs": [
        {
          "internalType": "uint32",
          "name": "",
          "type": "uint32"
        }
      ],
      "stateMutability": "view",
      "type": "function"
    },
    {
      "inputs": [
        {
          "internalType": "bytes4",
          "name": "interfaceId",
          "type": "bytes4"
        }
      ],
      "name": "supportsInterface",
      "outputs": [
        {
          "internalType": "bool",
          "name": "",
          "type": "bool"
        }
      ],
      "stateMutability": "view",
      "type": "function"
    },
    {
      "inputs": [],
      "name": "symbol",
      "outputs": [
        {
          "internalType": "string",
          "name": "",
          "type": "string"
        }
      ],
      "stateMutability": "view",
      "type": "function"
    },
    {
      "inputs": [],
      "name": "totalSupply",
      "outputs": [
        {
          "internalType": "uint32",
          "name": "",
          "type": "uint32"
        }
      ],
      "stateMutability": "view",
      "type": "function"
    },
    {
      "inputs": [
        {
          "internalType": "address",
          "name": "from",
          "type": "address"
        },
        {
          "internalType": "address",
          "name": "to",
          "type": "address"
        },
        {
          "internalType": "uint256",
          "name": "tokenId",
          "type": "uint256"
        }
      ],
      "name": "transferFrom",
      "outputs": [],
      "stateMutability": "nonpayable",
      "type": "function"
    },
    {
      "inputs": [
        {
          "internalType": "address",
          "name": "newOwner",
          "type": "address"
        }
      ],
      "name": "transferOwnership",
      "outputs": [],
      "stateMutability": "nonpayable",
      "type": "function"
    },
    {
      "inputs": [],
      "name": "withdraw",
      "outputs": [],
      "stateMutability": "payable",
      "type": "function"
    },
    {
      "inputs": [
        {
          "internalType": "uint256",
          "name": "_tokenId",
          "type": "uint256"
        }
      ],
      "name": "tokenURI",
      "outputs": [
        {
          "internalType": "string",
          "name": "",
          "type": "string"
        }
      ],
      "stateMutability": "view",
      "type": "function"
    }
  ],
  "bytecode": "0x608060405266b1a2bc2ec500006008556005600960006101000a81548163ffffffff021916908363ffffffff1602179055506014600960046101000a81548163ffffffff021916908363ffffffff1602179055506000600960086101000a81548163ffffffff021916908363ffffffff16021790555060006009600c6101000a81548163ffffffff021916908363ffffffff1602179055506000600960106101000a81548160ff0219169083151502179055506031600b60006101000a81548163ffffffff021916908363ffffffff16021790555073460fd5059e7301680fa53e63bbbf7272e643e89c600b60046101000a81548173ffffffffffffffffffffffffffffffffffffffff021916908373ffffffffffffffffffffffffffffffffffffffff1602179055506000600b60186101000a81548160ff0219169083151502179055503480156200015157600080fd5b5060405162004fe438038062004fe4833981810160405281019062000177919062000475565b85858585858584848160009080519060200190620001979291906200030e565b508060019080519060200190620001b09291906200030e565b505050620001d3620001c76200024060201b60201c565b6200024860201b60201c565b8560079080519060200190620001eb9291906200030e565b50826009600c6101000a81548163ffffffff021916908363ffffffff1602179055508160088190555080600960106101000a81548160ff0219169083151502179055505050505050505050505050506200073a565b600033905090565b6000600660009054906101000a900473ffffffffffffffffffffffffffffffffffffffff16905081600660006101000a81548173ffffffffffffffffffffffffffffffffffffffff021916908373ffffffffffffffffffffffffffffffffffffffff1602179055508173ffffffffffffffffffffffffffffffffffffffff168173ffffffffffffffffffffffffffffffffffffffff167f8be0079c531659141344cd1fd0a4f28419497f9722a3daafe3b4186f6b6457e060405160405180910390a35050565b8280546200031c9062000611565b90600052602060002090601f0160209004810192826200034057600085556200038c565b82601f106200035b57805160ff19168380011785556200038c565b828001600101855582156200038c579182015b828111156200038b5782518255916020019190600101906200036e565b5b5090506200039b91906200039f565b5090565b5b80821115620003ba576000816000905550600101620003a0565b5090565b6000620003d5620003cf846200057f565b62000556565b905082815260208101848484011115620003ee57600080fd5b620003fb848285620005db565b509392505050565b6000815190506200041481620006ec565b92915050565b600082601f8301126200042c57600080fd5b81516200043e848260208601620003be565b91505092915050565b600081519050620004588162000706565b92915050565b6000815190506200046f8162000720565b92915050565b60008060008060008060c087890312156200048f57600080fd5b600087015167ffffffffffffffff811115620004aa57600080fd5b620004b889828a016200041a565b965050602087015167ffffffffffffffff811115620004d657600080fd5b620004e489828a016200041a565b955050604087015167ffffffffffffffff8111156200050257600080fd5b6200051089828a016200041a565b94505060606200052389828a016200045e565b93505060806200053689828a0162000447565b92505060a06200054989828a0162000403565b9150509295509295509295565b60006200056262000575565b905062000570828262000647565b919050565b6000604051905090565b600067ffffffffffffffff8211156200059d576200059c620006ac565b5b620005a882620006db565b9050602081019050919050565b60008115159050919050565b6000819050919050565b600063ffffffff82169050919050565b60005b83811015620005fb578082015181840152602081019050620005de565b838111156200060b576000848401525b50505050565b600060028204905060018216806200062a57607f821691505b602082108114156200064157620006406200067d565b5b50919050565b6200065282620006db565b810181811067ffffffffffffffff82111715620006745762000673620006ac565b5b80604052505050565b7f4e487b7100000000000000000000000000000000000000000000000000000000600052602260045260246000fd5b7f4e487b7100000000000000000000000000000000000000000000000000000000600052604160045260246000fd5b6000601f19601f8301169050919050565b620006f781620005b5565b81146200070357600080fd5b50565b6200071181620005c1565b81146200071d57600080fd5b50565b6200072b81620005cb565b81146200073757600080fd5b50565b61489a806200074a6000396000f3fe6080604052600436106101f95760003560e01c80636fdca5e01161010d578063a71bbebe116100a0578063e985e9c51161006f578063e985e9c5146106ce578063f2fde38b1461070b578063f5b9662114610734578063f8048d8f1461075d578063fcfff16f14610786576101f9565b8063a71bbebe14610621578063b88d4fde1461063d578063bee6348a14610666578063c87b56dd14610691576101f9565b80638da5cb5b116100dc5780638da5cb5b1461057957806395d89b41146105a45780639e5666cd146105cf578063a22cb465146105f8576101f9565b80636fdca5e0146104d357806370a08231146104fc578063715018a614610539578063729ad39e14610550576101f9565b806318160ddd1161019057806342842e0e1161015f57806342842e0e146103ee57806344a0d68a14610417578063453c231014610440578063507e094f1461046b5780636352211e14610496576101f9565b806318160ddd1461036757806323b872dd146103925780633006b543146103bb5780633ccfd60b146103e4576101f9565b8063081812fc116101cc578063081812fc146102ad578063092501a0146102ea578063095ea7b31461031357806313faede61461033c576101f9565b806301ffc9a7146101fe5780630364d22a1461023b578063047fc9aa1461025757806306fdde0314610282575b600080fd5b34801561020a57600080fd5b506102256004803603810190610220919061318b565b6107b1565b60405161023291906138fc565b60405180910390f35b6102556004803603810190610250919061322f565b610893565b005b34801561026357600080fd5b5061026c610c2a565b6040516102799190613cb4565b60405180910390f35b34801561028e57600080fd5b50610297610c40565b6040516102a49190613917565b60405180910390f35b3480156102b957600080fd5b506102d460048036038101906102cf91906131dd565b610cd2565b6040516102e19190613895565b60405180910390f35b3480156102f657600080fd5b50610311600480360381019061030c9190613206565b610d57565b005b34801561031f57600080fd5b5061033a600480360381019061033591906130b8565b610e0b565b005b34801561034857600080fd5b50610351610f23565b60405161035e9190613c99565b60405180910390f35b34801561037357600080fd5b5061037c610f29565b6040516103899190613cb4565b60405180910390f35b34801561039e57600080fd5b506103b960048036038101906103b49190612fb2565b610f3f565b005b3480156103c757600080fd5b506103e260048036038101906103dd9190613206565b610f9f565b005b6103ec61103f565b005b3480156103fa57600080fd5b5061041560048036038101906104109190612fb2565b611134565b005b34801561042357600080fd5b5061043e600480360381019061043991906131dd565b611154565b005b34801561044c57600080fd5b506104556111da565b6040516104629190613cb4565b60405180910390f35b34801561047757600080fd5b506104806111f0565b60405161048d9190613cb4565b60405180910390f35b3480156104a257600080fd5b506104bd60048036038101906104b891906131dd565b611206565b6040516104ca9190613895565b60405180910390f35b3480156104df57600080fd5b506104fa60048036038101906104f59190613139565b6112b8565b005b34801561050857600080fd5b50610523600480360381019061051e9190612f4d565b611351565b6040516105309190613c99565b60405180910390f35b34801561054557600080fd5b5061054e611409565b005b34801561055c57600080fd5b50610577600480360381019061057291906130f4565b611491565b005b34801561058557600080fd5b5061058e611665565b60405161059b9190613895565b60405180910390f35b3480156105b057600080fd5b506105b961168f565b6040516105c69190613917565b60405180910390f35b3480156105db57600080fd5b506105f660048036038101906105f19190613162565b611721565b005b34801561060457600080fd5b5061061f600480360381019061061a919061307c565b6117a7565b005b61063b60048036038101906106369190613206565b6117bd565b005b34801561064957600080fd5b50610664600480360381019061065f9190613001565b611a60565b005b34801561067257600080fd5b5061067b611ac2565b60405161068891906138fc565b60405180910390f35b34801561069d57600080fd5b506106b860048036038101906106b391906131dd565b611ad5565b6040516106c59190613917565b60405180910390f35b3480156106da57600080fd5b506106f560048036038101906106f09190612f76565b611b64565b60405161070291906138fc565b60405180910390f35b34801561071757600080fd5b50610732600480360381019061072d9190612f4d565b611bf8565b005b34801561074057600080fd5b5061075b60048036038101906107569190613139565b611cf0565b005b34801561076957600080fd5b50610784600480360381019061077f9190613206565b611d89565b005b34801561079257600080fd5b5061079b611e29565b6040516107a891906138fc565b60405180910390f35b60007f80ac58cd000000000000000000000000000000000000000000000000000000007bffffffffffffffffffffffffffffffffffffffffffffffffffffffff1916827bffffffffffffffffffffffffffffffffffffffffffffffffffffffff1916148061087c57507f5b5e139f000000000000000000000000000000000000000000000000000000007bffffffffffffffffffffffffffffffffffffffffffffffffffffffff1916827bffffffffffffffffffffffffffffffffffffffffffffffffffffffff1916145b8061088c575061088b82611e3c565b5b9050919050565b8260008163ffffffff16116108dd576040517f08c379a00000000000000000000000000000000000000000000000000000000081526004016108d490613c79565b60405180910390fd5b6001600960009054906101000a900463ffffffff166108fc9190613dde565b63ffffffff168163ffffffff1610610949576040517f08c379a000000000000000000000000000000000000000000000000000000000815260040161094090613c59565b60405180910390fd5b8063ffffffff1660085461095d9190613e49565b34101561099f576040517f08c379a000000000000000000000000000000000000000000000000000000000815260040161099690613c39565b60405180910390fd5b60016009600c9054906101000a900463ffffffff166109be9190613dde565b63ffffffff1681600960089054906101000a900463ffffffff166109e29190613dde565b63ffffffff1610610a28576040517f08c379a0000000000000000000000000000000000000000000000000000000008152600401610a1f90613b79565b60405180910390fd5b600960049054906101000a900463ffffffff1663ffffffff168163ffffffff16600a60003373ffffffffffffffffffffffffffffffffffffffff1673ffffffffffffffffffffffffffffffffffffffff16815260200190815260200160002054610a929190613d88565b1115610ad3576040517f08c379a0000000000000000000000000000000000000000000000000000000008152600401610aca906139f9565b60405180910390fd5b600b60189054906101000a900460ff16610b22576040517f08c379a0000000000000000000000000000000000000000000000000000000008152600401610b1990613bd9565b60405180910390fd5b6000600c541415610b68576040517f08c379a0000000000000000000000000000000000000000000000000000000008152600401610b5f90613939565b60405180910390fd5b610bdc838380806020026020016040519081016040528093929190818152602001838360200280828437600081840152601f19601f82011690508083019250505050505050600c5433604051602001610bc1919061380a565b60405160208183030381529060405280519060200120611ea6565b610c1b576040517f08c379a0000000000000000000000000000000000000000000000000000000008152600401610c12906139d9565b60405180910390fd5b610c2484611ebd565b50505050565b600960089054906101000a900463ffffffff1681565b606060008054610c4f90613fa7565b80601f0160208091040260200160405190810160405280929190818152602001828054610c7b90613fa7565b8015610cc85780601f10610c9d57610100808354040283529160200191610cc8565b820191906000526020600020905b815481529060010190602001808311610cab57829003601f168201915b5050505050905090565b6000610cdd8261206a565b610d1c576040517f08c379a0000000000000000000000000000000000000000000000000000000008152600401610d1390613b19565b60405180910390fd5b6004600083815260200190815260200160002060009054906101000a900473ffffffffffffffffffffffffffffffffffffffff169050919050565b600b60049054906101000a900473ffffffffffffffffffffffffffffffffffffffff1673ffffffffffffffffffffffffffffffffffffffff163373ffffffffffffffffffffffffffffffffffffffff1614610de7576040517f08c379a0000000000000000000000000000000000000000000000000000000008152600401610dde90613c19565b60405180910390fd5b80600b60006101000a81548163ffffffff021916908363ffffffff16021790555050565b6000610e1682611206565b90508073ffffffffffffffffffffffffffffffffffffffff168373ffffffffffffffffffffffffffffffffffffffff161415610e87576040517f08c379a0000000000000000000000000000000000000000000000000000000008152600401610e7e90613b99565b60405180910390fd5b8073ffffffffffffffffffffffffffffffffffffffff16610ea66120d6565b73ffffffffffffffffffffffffffffffffffffffff161480610ed55750610ed481610ecf6120d6565b611b64565b5b610f14576040517f08c379a0000000000000000000000000000000000000000000000000000000008152600401610f0b90613a99565b60405180910390fd5b610f1e83836120de565b505050565b60085481565b6009600c9054906101000a900463ffffffff1681565b610f50610f4a6120d6565b82612197565b610f8f576040517f08c379a0000000000000000000000000000000000000000000000000000000008152600401610f8690613bf9565b60405180910390fd5b610f9a838383612275565b505050565b610fa76120d6565b73ffffffffffffffffffffffffffffffffffffffff16610fc5611665565b73ffffffffffffffffffffffffffffffffffffffff161461101b576040517f08c379a000000000000000000000000000000000000000000000000000000000815260040161101290613b39565b60405180910390fd5b80600960046101000a81548163ffffffff021916908363ffffffff16021790555050565b6110476120d6565b73ffffffffffffffffffffffffffffffffffffffff16611065611665565b73ffffffffffffffffffffffffffffffffffffffff16146110bb576040517f08c379a00000000000000000000000000000000000000000000000000000000081526004016110b290613b39565b60405180910390fd5b60003373ffffffffffffffffffffffffffffffffffffffff16476040516110e190613880565b60006040518083038185875af1925050503d806000811461111e576040519150601f19603f3d011682016040523d82523d6000602084013e611123565b606091505b505090508061113157600080fd5b50565b61114f83838360405180602001604052806000815250611a60565b505050565b61115c6120d6565b73ffffffffffffffffffffffffffffffffffffffff1661117a611665565b73ffffffffffffffffffffffffffffffffffffffff16146111d0576040517f08c379a00000000000000000000000000000000000000000000000000000000081526004016111c790613b39565b60405180910390fd5b8060088190555050565b600960049054906101000a900463ffffffff1681565b600960009054906101000a900463ffffffff1681565b6000806002600084815260200190815260200160002060009054906101000a900473ffffffffffffffffffffffffffffffffffffffff169050600073ffffffffffffffffffffffffffffffffffffffff168173ffffffffffffffffffffffffffffffffffffffff1614156112af576040517f08c379a00000000000000000000000000000000000000000000000000000000081526004016112a690613ad9565b60405180910390fd5b80915050919050565b6112c06120d6565b73ffffffffffffffffffffffffffffffffffffffff166112de611665565b73ffffffffffffffffffffffffffffffffffffffff1614611334576040517f08c379a000000000000000000000000000000000000000000000000000000000815260040161132b90613b39565b60405180910390fd5b80600960106101000a81548160ff02191690831515021790555050565b60008073ffffffffffffffffffffffffffffffffffffffff168273ffffffffffffffffffffffffffffffffffffffff1614156113c2576040517f08c379a00000000000000000000000000000000000000000000000000000000081526004016113b990613ab9565b60405180910390fd5b600360008373ffffffffffffffffffffffffffffffffffffffff1673ffffffffffffffffffffffffffffffffffffffff168152602001908152602001600020549050919050565b6114116120d6565b73ffffffffffffffffffffffffffffffffffffffff1661142f611665565b73ffffffffffffffffffffffffffffffffffffffff1614611485576040517f08c379a000000000000000000000000000000000000000000000000000000000815260040161147c90613b39565b60405180910390fd5b61148f60006124d1565b565b6114996120d6565b73ffffffffffffffffffffffffffffffffffffffff166114b7611665565b73ffffffffffffffffffffffffffffffffffffffff161461150d576040517f08c379a000000000000000000000000000000000000000000000000000000000815260040161150490613b39565b60405180910390fd5b60005b828290508163ffffffff161015611660576009600c9054906101000a900463ffffffff1663ffffffff16600960089054906101000a900463ffffffff1660016115599190613dde565b63ffffffff1611156115a0576040517f08c379a000000000000000000000000000000000000000000000000000000000815260040161159790613a59565b60405180910390fd5b61164d83838363ffffffff168181106115e2577f4e487b7100000000000000000000000000000000000000000000000000000000600052603260045260246000fd5b90506020020160208101906115f79190612f4d565b6009600881819054906101000a900463ffffffff1661161590614053565b91906101000a81548163ffffffff021916908363ffffffff160217905563ffffffff1660405180602001604052806000815250612597565b808061165890614053565b915050611510565b505050565b6000600660009054906101000a900473ffffffffffffffffffffffffffffffffffffffff16905090565b60606001805461169e90613fa7565b80601f01602080910402602001604051908101604052809291908181526020018280546116ca90613fa7565b80156117175780601f106116ec57610100808354040283529160200191611717565b820191906000526020600020905b8154815290600101906020018083116116fa57829003601f168201915b5050505050905090565b6117296120d6565b73ffffffffffffffffffffffffffffffffffffffff16611747611665565b73ffffffffffffffffffffffffffffffffffffffff161461179d576040517f08c379a000000000000000000000000000000000000000000000000000000000815260040161179490613b39565b60405180910390fd5b80600c8190555050565b6117b96117b26120d6565b83836125f2565b5050565b8060008163ffffffff1611611807576040517f08c379a00000000000000000000000000000000000000000000000000000000081526004016117fe90613c79565b60405180910390fd5b6001600960009054906101000a900463ffffffff166118269190613dde565b63ffffffff168163ffffffff1610611873576040517f08c379a000000000000000000000000000000000000000000000000000000000815260040161186a90613c59565b60405180910390fd5b8063ffffffff166008546118879190613e49565b3410156118c9576040517f08c379a00000000000000000000000000000000000000000000000000000000081526004016118c090613c39565b60405180910390fd5b60016009600c9054906101000a900463ffffffff166118e89190613dde565b63ffffffff1681600960089054906101000a900463ffffffff1661190c9190613dde565b63ffffffff1610611952576040517f08c379a000000000000000000000000000000000000000000000000000000000815260040161194990613b79565b60405180910390fd5b600960049054906101000a900463ffffffff1663ffffffff168163ffffffff16600a60003373ffffffffffffffffffffffffffffffffffffffff1673ffffffffffffffffffffffffffffffffffffffff168152602001908152602001600020546119bc9190613d88565b11156119fd576040517f08c379a00000000000000000000000000000000000000000000000000000000081526004016119f4906139f9565b60405180910390fd5b60011515600960109054906101000a900460ff16151514611a53576040517f08c379a0000000000000000000000000000000000000000000000000000000008152600401611a4a90613bb9565b60405180910390fd5b611a5c82611ebd565b5050565b611a71611a6b6120d6565b83612197565b611ab0576040517f08c379a0000000000000000000000000000000000000000000000000000000008152600401611aa790613bf9565b60405180910390fd5b611abc8484848461275f565b50505050565b600b60189054906101000a900460ff1681565b6060600960089054906101000a900463ffffffff1663ffffffff16821115611b32576040517f08c379a0000000000000000000000000000000000000000000000000000000008152600401611b2990613979565b60405180910390fd5b6007611b3d836127bb565b604051602001611b4e929190613851565b6040516020818303038152906040529050919050565b6000600560008473ffffffffffffffffffffffffffffffffffffffff1673ffffffffffffffffffffffffffffffffffffffff16815260200190815260200160002060008373ffffffffffffffffffffffffffffffffffffffff1673ffffffffffffffffffffffffffffffffffffffff16815260200190815260200160002060009054906101000a900460ff16905092915050565b611c006120d6565b73ffffffffffffffffffffffffffffffffffffffff16611c1e611665565b73ffffffffffffffffffffffffffffffffffffffff1614611c74576040517f08c379a0000000000000000000000000000000000000000000000000000000008152600401611c6b90613b39565b60405180910390fd5b600073ffffffffffffffffffffffffffffffffffffffff168173ffffffffffffffffffffffffffffffffffffffff161415611ce4576040517f08c379a0000000000000000000000000000000000000000000000000000000008152600401611cdb90613999565b60405180910390fd5b611ced816124d1565b50565b611cf86120d6565b73ffffffffffffffffffffffffffffffffffffffff16611d16611665565b73ffffffffffffffffffffffffffffffffffffffff1614611d6c576040517f08c379a0000000000000000000000000000000000000000000000000000000008152600401611d6390613b39565b60405180910390fd5b80600b60186101000a81548160ff02191690831515021790555050565b611d916120d6565b73ffffffffffffffffffffffffffffffffffffffff16611daf611665565b73ffffffffffffffffffffffffffffffffffffffff1614611e05576040517f08c379a0000000000000000000000000000000000000000000000000000000008152600401611dfc90613b39565b60405180910390fd5b80600960006101000a81548163ffffffff021916908363ffffffff16021790555050565b600960109054906101000a900460ff1681565b60007f01ffc9a7000000000000000000000000000000000000000000000000000000007bffffffffffffffffffffffffffffffffffffffffffffffffffffffff1916827bffffffffffffffffffffffffffffffffffffffffffffffffffffffff1916149050919050565b600082611eb38584612968565b1490509392505050565b60005b8163ffffffff168163ffffffff161015611f4157611f2e336009600881819054906101000a900463ffffffff16611ef690614053565b91906101000a81548163ffffffff021916908363ffffffff160217905563ffffffff1660405180602001604052806000815250612597565b8080611f3990614053565b915050611ec0565b508063ffffffff16600a60003373ffffffffffffffffffffffffffffffffffffffff1673ffffffffffffffffffffffffffffffffffffffff1681526020019081526020016000206000828254611f979190613d88565b925050819055506000600b60049054906101000a900473ffffffffffffffffffffffffffffffffffffffff1673ffffffffffffffffffffffffffffffffffffffff166103e8600b60009054906101000a900463ffffffff1663ffffffff16346120009190613e49565b61200a9190613e18565b60405161201690613880565b60006040518083038185875af1925050503d8060008114612053576040519150601f19603f3d011682016040523d82523d6000602084013e612058565b606091505b505090508061206657600080fd5b5050565b60008073ffffffffffffffffffffffffffffffffffffffff166002600084815260200190815260200160002060009054906101000a900473ffffffffffffffffffffffffffffffffffffffff1673ffffffffffffffffffffffffffffffffffffffff1614159050919050565b600033905090565b816004600083815260200190815260200160002060006101000a81548173ffffffffffffffffffffffffffffffffffffffff021916908373ffffffffffffffffffffffffffffffffffffffff160217905550808273ffffffffffffffffffffffffffffffffffffffff1661215183611206565b73ffffffffffffffffffffffffffffffffffffffff167f8c5be1e5ebec7d5bd14f71427d1e84f3dd0314c0f7b2291e5b200ac8c7c3b92560405160405180910390a45050565b60006121a28261206a565b6121e1576040517f08c379a00000000000000000000000000000000000000000000000000000000081526004016121d890613a79565b60405180910390fd5b60006121ec83611206565b90508073ffffffffffffffffffffffffffffffffffffffff168473ffffffffffffffffffffffffffffffffffffffff16148061225b57508373ffffffffffffffffffffffffffffffffffffffff1661224384610cd2565b73ffffffffffffffffffffffffffffffffffffffff16145b8061226c575061226b8185611b64565b5b91505092915050565b8273ffffffffffffffffffffffffffffffffffffffff1661229582611206565b73ffffffffffffffffffffffffffffffffffffffff16146122eb576040517f08c379a00000000000000000000000000000000000000000000000000000000081526004016122e290613b59565b60405180910390fd5b600073ffffffffffffffffffffffffffffffffffffffff168273ffffffffffffffffffffffffffffffffffffffff16141561235b576040517f08c379a000000000000000000000000000000000000000000000000000000000815260040161235290613a19565b60405180910390fd5b612366838383612a41565b6123716000826120de565b6001600360008573ffffffffffffffffffffffffffffffffffffffff1673ffffffffffffffffffffffffffffffffffffffff16815260200190815260200160002060008282546123c19190613ea3565b925050819055506001600360008473ffffffffffffffffffffffffffffffffffffffff1673ffffffffffffffffffffffffffffffffffffffff16815260200190815260200160002060008282546124189190613d88565b92505081905550816002600083815260200190815260200160002060006101000a81548173ffffffffffffffffffffffffffffffffffffffff021916908373ffffffffffffffffffffffffffffffffffffffff160217905550808273ffffffffffffffffffffffffffffffffffffffff168473ffffffffffffffffffffffffffffffffffffffff167fddf252ad1be2c89b69c2b068fc378daa952ba7f163c4a11628f55a4df523b3ef60405160405180910390a4505050565b6000600660009054906101000a900473ffffffffffffffffffffffffffffffffffffffff16905081600660006101000a81548173ffffffffffffffffffffffffffffffffffffffff021916908373ffffffffffffffffffffffffffffffffffffffff1602179055508173ffffffffffffffffffffffffffffffffffffffff168173ffffffffffffffffffffffffffffffffffffffff167f8be0079c531659141344cd1fd0a4f28419497f9722a3daafe3b4186f6b6457e060405160405180910390a35050565b6125a18383612a46565b6125ae6000848484612c14565b6125ed576040517f08c379a00000000000000000000000000000000000000000000000000000000081526004016125e490613959565b60405180910390fd5b505050565b8173ffffffffffffffffffffffffffffffffffffffff168373ffffffffffffffffffffffffffffffffffffffff161415612661576040517f08c379a000000000000000000000000000000000000000000000000000000000815260040161265890613a39565b60405180910390fd5b80600560008573ffffffffffffffffffffffffffffffffffffffff1673ffffffffffffffffffffffffffffffffffffffff16815260200190815260200160002060008473ffffffffffffffffffffffffffffffffffffffff1673ffffffffffffffffffffffffffffffffffffffff16815260200190815260200160002060006101000a81548160ff0219169083151502179055508173ffffffffffffffffffffffffffffffffffffffff168373ffffffffffffffffffffffffffffffffffffffff167f17307eab39ab6107e8899845ad3d59bd9653f200f220920489ca2b5937696c318360405161275291906138fc565b60405180910390a3505050565b61276a848484612275565b61277684848484612c14565b6127b5576040517f08c379a00000000000000000000000000000000000000000000000000000000081526004016127ac90613959565b60405180910390fd5b50505050565b60606000821415612803576040518060400160405280600181526020017f30000000000000000000000000000000000000000000000000000000000000008152509050612963565b600082905060005b6000821461283557808061281e9061400a565b915050600a8261282e9190613e18565b915061280b565b60008167ffffffffffffffff811115612877577f4e487b7100000000000000000000000000000000000000000000000000000000600052604160045260246000fd5b6040519080825280601f01601f1916602001820160405280156128a95781602001600182028036833780820191505090505b5090505b6000851461295c576001826128c29190613ea3565b9150600a856128d191906140ae565b60306128dd9190613d88565b60f81b818381518110612919577f4e487b7100000000000000000000000000000000000000000000000000000000600052603260045260246000fd5b60200101907effffffffffffffffffffffffffffffffffffffffffffffffffffffffffffff1916908160001a905350600a856129559190613e18565b94506128ad565b8093505050505b919050565b60008082905060005b8451811015612a365760008582815181106129b5577f4e487b7100000000000000000000000000000000000000000000000000000000600052603260045260246000fd5b602002602001015190508083116129f65782816040516020016129d9929190613825565b604051602081830303815290604052805190602001209250612a22565b8083604051602001612a09929190613825565b6040516020818303038152906040528051906020012092505b508080612a2e9061400a565b915050612971565b508091505092915050565b505050565b600073ffffffffffffffffffffffffffffffffffffffff168273ffffffffffffffffffffffffffffffffffffffff161415612ab6576040517f08c379a0000000000000000000000000000000000000000000000000000000008152600401612aad90613af9565b60405180910390fd5b612abf8161206a565b15612aff576040517f08c379a0000000000000000000000000000000000000000000000000000000008152600401612af6906139b9565b60405180910390fd5b612b0b60008383612a41565b6001600360008473ffffffffffffffffffffffffffffffffffffffff1673ffffffffffffffffffffffffffffffffffffffff1681526020019081526020016000206000828254612b5b9190613d88565b92505081905550816002600083815260200190815260200160002060006101000a81548173ffffffffffffffffffffffffffffffffffffffff021916908373ffffffffffffffffffffffffffffffffffffffff160217905550808273ffffffffffffffffffffffffffffffffffffffff16600073ffffffffffffffffffffffffffffffffffffffff167fddf252ad1be2c89b69c2b068fc378daa952ba7f163c4a11628f55a4df523b3ef60405160405180910390a45050565b6000612c358473ffffffffffffffffffffffffffffffffffffffff16612dab565b15612d9e578373ffffffffffffffffffffffffffffffffffffffff1663150b7a02612c5e6120d6565b8786866040518563ffffffff1660e01b8152600401612c8094939291906138b0565b602060405180830381600087803b158015612c9a57600080fd5b505af1925050508015612ccb57506040513d601f19601f82011682018060405250810190612cc891906131b4565b60015b612d4e573d8060008114612cfb576040519150601f19603f3d011682016040523d82523d6000602084013e612d00565b606091505b50600081511415612d46576040517f08c379a0000000000000000000000000000000000000000000000000000000008152600401612d3d90613959565b60405180910390fd5b805181602001fd5b63150b7a0260e01b7bffffffffffffffffffffffffffffffffffffffffffffffffffffffff1916817bffffffffffffffffffffffffffffffffffffffffffffffffffffffff191614915050612da3565b600190505b949350505050565b600080823b905060008111915050919050565b6000612dd1612dcc84613cf4565b613ccf565b905082815260208101848484011115612de957600080fd5b612df4848285613f65565b509392505050565b600081359050612e0b816147da565b92915050565b60008083601f840112612e2357600080fd5b8235905067ffffffffffffffff811115612e3c57600080fd5b602083019150836020820283011115612e5457600080fd5b9250929050565b60008083601f840112612e6d57600080fd5b8235905067ffffffffffffffff811115612e8657600080fd5b602083019150836020820283011115612e9e57600080fd5b9250929050565b600081359050612eb4816147f1565b92915050565b600081359050612ec981614808565b92915050565b600081359050612ede8161481f565b92915050565b600081519050612ef38161481f565b92915050565b600082601f830112612f0a57600080fd5b8135612f1a848260208601612dbe565b91505092915050565b600081359050612f3281614836565b92915050565b600081359050612f478161484d565b92915050565b600060208284031215612f5f57600080fd5b6000612f6d84828501612dfc565b91505092915050565b60008060408385031215612f8957600080fd5b6000612f9785828601612dfc565b9250506020612fa885828601612dfc565b9150509250929050565b600080600060608486031215612fc757600080fd5b6000612fd586828701612dfc565b9350506020612fe686828701612dfc565b9250506040612ff786828701612f23565b9150509250925092565b6000806000806080858703121561301757600080fd5b600061302587828801612dfc565b945050602061303687828801612dfc565b935050604061304787828801612f23565b925050606085013567ffffffffffffffff81111561306457600080fd5b61307087828801612ef9565b91505092959194509250565b6000806040838503121561308f57600080fd5b600061309d85828601612dfc565b92505060206130ae85828601612ea5565b9150509250929050565b600080604083850312156130cb57600080fd5b60006130d985828601612dfc565b92505060206130ea85828601612f23565b9150509250929050565b6000806020838503121561310757600080fd5b600083013567ffffffffffffffff81111561312157600080fd5b61312d85828601612e11565b92509250509250929050565b60006020828403121561314b57600080fd5b600061315984828501612ea5565b91505092915050565b60006020828403121561317457600080fd5b600061318284828501612eba565b91505092915050565b60006020828403121561319d57600080fd5b60006131ab84828501612ecf565b91505092915050565b6000602082840312156131c657600080fd5b60006131d484828501612ee4565b91505092915050565b6000602082840312156131ef57600080fd5b60006131fd84828501612f23565b91505092915050565b60006020828403121561321857600080fd5b600061322684828501612f38565b91505092915050565b60008060006040848603121561324457600080fd5b600061325286828701612f38565b935050602084013567ffffffffffffffff81111561326f57600080fd5b61327b86828701612e5b565b92509250509250925092565b61329081613ed7565b82525050565b6132a76132a282613ed7565b614080565b82525050565b6132b681613ee9565b82525050565b6132cd6132c882613ef5565b614092565b82525050565b60006132de82613d3a565b6132e88185613d50565b93506132f8818560208601613f74565b6133018161419b565b840191505092915050565b600061331782613d45565b6133218185613d6c565b9350613331818560208601613f74565b61333a8161419b565b840191505092915050565b600061335082613d45565b61335a8185613d7d565b935061336a818560208601613f74565b80840191505092915050565b6000815461338381613fa7565b61338d8186613d7d565b945060018216600081146133a857600181146133b9576133ec565b60ff198316865281860193506133ec565b6133c285613d25565b60005b838110156133e4578154818901526001820191506020810190506133c5565b838801955050505b50505092915050565b6000613402601183613d6c565b915061340d826141b9565b602082019050919050565b6000613425603283613d6c565b9150613430826141e2565b604082019050919050565b6000613448600e83613d6c565b915061345382614231565b602082019050919050565b600061346b602683613d6c565b91506134768261425a565b604082019050919050565b600061348e601c83613d6c565b9150613499826142a9565b602082019050919050565b60006134b1601483613d6c565b91506134bc826142d2565b602082019050919050565b60006134d4601683613d6c565b91506134df826142fb565b602082019050919050565b60006134f7602483613d6c565b915061350282614324565b604082019050919050565b600061351a601983613d6c565b915061352582614373565b602082019050919050565b600061353d600d83613d6c565b91506135488261439c565b602082019050919050565b6000613560602c83613d6c565b915061356b826143c5565b604082019050919050565b6000613583603883613d6c565b915061358e82614414565b604082019050919050565b60006135a6602a83613d6c565b91506135b182614463565b604082019050919050565b60006135c9602983613d6c565b91506135d4826144b2565b604082019050919050565b60006135ec602083613d6c565b91506135f782614501565b602082019050919050565b600061360f602c83613d6c565b915061361a8261452a565b604082019050919050565b6000613632600583613d7d565b915061363d82614579565b600582019050919050565b6000613655602083613d6c565b9150613660826145a2565b602082019050919050565b6000613678602983613d6c565b9150613683826145cb565b604082019050919050565b600061369b600d83613d6c565b91506136a68261461a565b602082019050919050565b60006136be602183613d6c565b91506136c982614643565b604082019050919050565b60006136e1600d83613d6c565b91506136ec82614692565b602082019050919050565b6000613704601083613d6c565b915061370f826146bb565b602082019050919050565b6000613727600083613d61565b9150613732826146e4565b600082019050919050565b600061374a603183613d6c565b9150613755826146e7565b604082019050919050565b600061376d601183613d6c565b915061377882614736565b602082019050919050565b6000613790601083613d6c565b915061379b8261475f565b602082019050919050565b60006137b3601183613d6c565b91506137be82614788565b602082019050919050565b60006137d6601283613d6c565b91506137e1826147b1565b602082019050919050565b6137f581613f4b565b82525050565b61380481613f55565b82525050565b60006138168284613296565b60148201915081905092915050565b600061383182856132bc565b60208201915061384182846132bc565b6020820191508190509392505050565b600061385d8285613376565b91506138698284613345565b915061387482613625565b91508190509392505050565b600061388b8261371a565b9150819050919050565b60006020820190506138aa6000830184613287565b92915050565b60006080820190506138c56000830187613287565b6138d26020830186613287565b6138df60408301856137ec565b81810360608301526138f181846132d3565b905095945050505050565b600060208201905061391160008301846132ad565b92915050565b60006020820190508181036000830152613931818461330c565b905092915050565b60006020820190508181036000830152613952816133f5565b9050919050565b6000602082019050818103600083015261397281613418565b9050919050565b600060208201905081810360008301526139928161343b565b9050919050565b600060208201905081810360008301526139b28161345e565b9050919050565b600060208201905081810360008301526139d281613481565b9050919050565b600060208201905081810360008301526139f2816134a4565b9050919050565b60006020820190508181036000830152613a12816134c7565b9050919050565b60006020820190508181036000830152613a32816134ea565b9050919050565b60006020820190508181036000830152613a528161350d565b9050919050565b60006020820190508181036000830152613a7281613530565b9050919050565b60006020820190508181036000830152613a9281613553565b9050919050565b60006020820190508181036000830152613ab281613576565b9050919050565b60006020820190508181036000830152613ad281613599565b9050919050565b60006020820190508181036000830152613af2816135bc565b9050919050565b60006020820190508181036000830152613b12816135df565b9050919050565b60006020820190508181036000830152613b3281613602565b9050919050565b60006020820190508181036000830152613b5281613648565b9050919050565b60006020820190508181036000830152613b728161366b565b9050919050565b60006020820190508181036000830152613b928161368e565b9050919050565b60006020820190508181036000830152613bb2816136b1565b9050919050565b60006020820190508181036000830152613bd2816136d4565b9050919050565b60006020820190508181036000830152613bf2816136f7565b9050919050565b60006020820190508181036000830152613c128161373d565b9050919050565b60006020820190508181036000830152613c3281613760565b9050919050565b60006020820190508181036000830152613c5281613783565b9050919050565b60006020820190508181036000830152613c72816137a6565b9050919050565b60006020820190508181036000830152613c92816137c9565b9050919050565b6000602082019050613cae60008301846137ec565b92915050565b6000602082019050613cc960008301846137fb565b92915050565b6000613cd9613cea565b9050613ce58282613fd9565b919050565b6000604051905090565b600067ffffffffffffffff821115613d0f57613d0e61416c565b5b613d188261419b565b9050602081019050919050565b60008190508160005260206000209050919050565b600081519050919050565b600081519050919050565b600082825260208201905092915050565b600081905092915050565b600082825260208201905092915050565b600081905092915050565b6000613d9382613f4b565b9150613d9e83613f4b565b9250827fffffffffffffffffffffffffffffffffffffffffffffffffffffffffffffffff03821115613dd357613dd26140df565b5b828201905092915050565b6000613de982613f55565b9150613df483613f55565b92508263ffffffff03821115613e0d57613e0c6140df565b5b828201905092915050565b6000613e2382613f4b565b9150613e2e83613f4b565b925082613e3e57613e3d61410e565b5b828204905092915050565b6000613e5482613f4b565b9150613e5f83613f4b565b9250817fffffffffffffffffffffffffffffffffffffffffffffffffffffffffffffffff0483118215151615613e9857613e976140df565b5b828202905092915050565b6000613eae82613f4b565b9150613eb983613f4b565b925082821015613ecc57613ecb6140df565b5b828203905092915050565b6000613ee282613f2b565b9050919050565b60008115159050919050565b6000819050919050565b60007fffffffff0000000000000000000000000000000000000000000000000000000082169050919050565b600073ffffffffffffffffffffffffffffffffffffffff82169050919050565b6000819050919050565b600063ffffffff82169050919050565b82818337600083830152505050565b60005b83811015613f92578082015181840152602081019050613f77565b83811115613fa1576000848401525b50505050565b60006002820490506001821680613fbf57607f821691505b60208210811415613fd357613fd261413d565b5b50919050565b613fe28261419b565b810181811067ffffffffffffffff821117156140015761400061416c565b5b80604052505050565b600061401582613f4b565b91507fffffffffffffffffffffffffffffffffffffffffffffffffffffffffffffffff821415614048576140476140df565b5b600182019050919050565b600061405e82613f55565b915063ffffffff821415614075576140746140df565b5b600182019050919050565b600061408b8261409c565b9050919050565b6000819050919050565b60006140a7826141ac565b9050919050565b60006140b982613f4b565b91506140c483613f4b565b9250826140d4576140d361410e565b5b828206905092915050565b7f4e487b7100000000000000000000000000000000000000000000000000000000600052601160045260246000fd5b7f4e487b7100000000000000000000000000000000000000000000000000000000600052601260045260246000fd5b7f4e487b7100000000000000000000000000000000000000000000000000000000600052602260045260246000fd5b7f4e487b7100000000000000000000000000000000000000000000000000000000600052604160045260246000fd5b6000601f19601f8301169050919050565b60008160601b9050919050565b7f50726573616c65206e6f74207265616479000000000000000000000000000000600082015250565b7f4552433732313a207472616e7366657220746f206e6f6e20455243373231526560008201527f63656976657220696d706c656d656e7465720000000000000000000000000000602082015250565b7f4e6f74206d696e74656420796574000000000000000000000000000000000000600082015250565b7f4f776e61626c653a206e6577206f776e657220697320746865207a65726f206160008201527f6464726573730000000000000000000000000000000000000000000000000000602082015250565b7f4552433732313a20746f6b656e20616c7265616479206d696e74656400000000600082015250565b7f4e6f7420612070726573616c65206d656d626572000000000000000000000000600082015250565b7f4d617820746f74616c206d696e74207265616368656400000000000000000000600082015250565b7f4552433732313a207472616e7366657220746f20746865207a65726f2061646460008201527f7265737300000000000000000000000000000000000000000000000000000000602082015250565b7f4552433732313a20617070726f766520746f2063616c6c657200000000000000600082015250565b7f4c696d6974207265616368656400000000000000000000000000000000000000600082015250565b7f4552433732313a206f70657261746f7220717565727920666f72206e6f6e657860008201527f697374656e7420746f6b656e0000000000000000000000000000000000000000602082015250565b7f4552433732313a20617070726f76652063616c6c6572206973206e6f74206f7760008201527f6e6572206e6f7220617070726f76656420666f7220616c6c0000000000000000602082015250565b7f4552433732313a2062616c616e636520717565727920666f7220746865207a6560008201527f726f206164647265737300000000000000000000000000000000000000000000602082015250565b7f4552433732313a206f776e657220717565727920666f72206e6f6e657869737460008201527f656e7420746f6b656e0000000000000000000000000000000000000000000000602082015250565b7f4552433732313a206d696e7420746f20746865207a65726f2061646472657373600082015250565b7f4552433732313a20617070726f76656420717565727920666f72206e6f6e657860008201527f697374656e7420746f6b656e0000000000000000000000000000000000000000602082015250565b7f2e6a736f6e000000000000000000000000000000000000000000000000000000600082015250565b7f4f776e61626c653a2063616c6c6572206973206e6f7420746865206f776e6572600082015250565b7f4552433732313a207472616e73666572206f6620746f6b656e2074686174206960008201527f73206e6f74206f776e0000000000000000000000000000000000000000000000602082015250565b7f4d696e7420736f6c64206f757400000000000000000000000000000000000000600082015250565b7f4552433732313a20617070726f76616c20746f2063757272656e74206f776e6560008201527f7200000000000000000000000000000000000000000000000000000000000000602082015250565b7f4d696e74206e6f74206f70656e00000000000000000000000000000000000000600082015250565b7f50726573616c65206e6f74206f70656e00000000000000000000000000000000600082015250565b50565b7f4552433732313a207472616e736665722063616c6c6572206973206e6f74206f60008201527f776e6572206e6f7220617070726f766564000000000000000000000000000000602082015250565b7f496e636f72726563742041646472657373000000000000000000000000000000600082015250565b7f4e6f7420656e6f7567682066756e642e00000000000000000000000000000000600082015250565b7f4d6178206d696e7420726561636865642e000000000000000000000000000000600082015250565b7f4d696e74206174206c65617374206f6e652e0000000000000000000000000000600082015250565b6147e381613ed7565b81146147ee57600080fd5b50565b6147fa81613ee9565b811461480557600080fd5b50565b61481181613ef5565b811461481c57600080fd5b50565b61482881613eff565b811461483357600080fd5b50565b61483f81613f4b565b811461484a57600080fd5b50565b61485681613f55565b811461486157600080fd5b5056fea264697066735822122031a22c4fd09b8586e6dc02a57b8aa982a65e148d5c7d96ddf012ef50e70eb23664736f6c63430008040033",
  "immutableReferences": {},
  "source": "// Sources flattened with hardhat v2.8.0 https://hardhat.org\n\n// File @openzeppelin/contracts/utils/introspection/IERC165.sol@v4.4.1\n\n// OpenZeppelin Contracts v4.4.1 (utils/introspection/IERC165.sol)\n\npragma solidity ^0.8.0;\n\n/**\n * @dev Interface of the ERC165 standard, as defined in the\n * https://eips.ethereum.org/EIPS/eip-165[EIP].\n *\n * Implementers can declare support of contract interfaces, which can then be\n * queried by others ({ERC165Checker}).\n *\n * For an implementation, see {ERC165}.\n */\ninterface IERC165 {\n    /**\n     * @dev Returns true if this contract implements the interface defined by\n     * `interfaceId`. See the corresponding\n     * https://eips.ethereum.org/EIPS/eip-165#how-interfaces-are-identified[EIP section]\n     * to learn more about how these ids are created.\n     *\n     * This function call must use less than 30 000 gas.\n     */\n    function supportsInterface(bytes4 interfaceId) external view returns (bool);\n}\n\n\n// File @openzeppelin/contracts/token/ERC721/IERC721.sol@v4.4.1\n\n// OpenZeppelin Contracts v4.4.1 (token/ERC721/IERC721.sol)\n\npragma solidity ^0.8.0;\n\n/**\n * @dev Required interface of an ERC721 compliant contract.\n */\ninterface IERC721 is IERC165 {\n    /**\n     * @dev Emitted when `tokenId` token is transferred from `from` to `to`.\n     */\n    event Transfer(address indexed from, address indexed to, uint256 indexed tokenId);\n\n    /**\n     * @dev Emitted when `owner` enables `approved` to manage the `tokenId` token.\n     */\n    event Approval(address indexed owner, address indexed approved, uint256 indexed tokenId);\n\n    /**\n     * @dev Emitted when `owner` enables or disables (`approved`) `operator` to manage all of its assets.\n     */\n    event ApprovalForAll(address indexed owner, address indexed operator, bool approved);\n\n    /**\n     * @dev Returns the number of tokens in ``owner``'s account.\n     */\n    function balanceOf(address owner) external view returns (uint256 balance);\n\n    /**\n     * @dev Returns the owner of the `tokenId` token.\n     *\n     * Requirements:\n     *\n     * - `tokenId` must exist.\n     */\n    function ownerOf(uint256 tokenId) external view returns (address owner);\n\n    /**\n     * @dev Safely transfers `tokenId` token from `from` to `to`, checking first that contract recipients\n     * are aware of the ERC721 protocol to prevent tokens from being forever locked.\n     *\n     * Requirements:\n     *\n     * - `from` cannot be the zero address.\n     * - `to` cannot be the zero address.\n     * - `tokenId` token must exist and be owned by `from`.\n     * - If the caller is not `from`, it must be have been allowed to move this token by either {approve} or {setApprovalForAll}.\n     * - If `to` refers to a smart contract, it must implement {IERC721Receiver-onERC721Received}, which is called upon a safe transfer.\n     *\n     * Emits a {Transfer} event.\n     */\n    function safeTransferFrom(\n        address from,\n        address to,\n        uint256 tokenId\n    ) external;\n\n    /**\n     * @dev Transfers `tokenId` token from `from` to `to`.\n     *\n     * WARNING: Usage of this method is discouraged, use {safeTransferFrom} whenever possible.\n     *\n     * Requirements:\n     *\n     * - `from` cannot be the zero address.\n     * - `to` cannot be the zero address.\n     * - `tokenId` token must be owned by `from`.\n     * - If the caller is not `from`, it must be approved to move this token by either {approve} or {setApprovalForAll}.\n     *\n     * Emits a {Transfer} event.\n     */\n    function transferFrom(\n        address from,\n        address to,\n        uint256 tokenId\n    ) external;\n\n    /**\n     * @dev Gives permission to `to` to transfer `tokenId` token to another account.\n     * The approval is cleared when the token is transferred.\n     *\n     * Only a single account can be approved at a time, so approving the zero address clears previous approvals.\n     *\n     * Requirements:\n     *\n     * - The caller must own the token or be an approved operator.\n     * - `tokenId` must exist.\n     *\n     * Emits an {Approval} event.\n     */\n    function approve(address to, uint256 tokenId) external;\n\n    /**\n     * @dev Returns the account approved for `tokenId` token.\n     *\n     * Requirements:\n     *\n     * - `tokenId` must exist.\n     */\n    function getApproved(uint256 tokenId) external view returns (address operator);\n\n    /**\n     * @dev Approve or remove `operator` as an operator for the caller.\n     * Operators can call {transferFrom} or {safeTransferFrom} for any token owned by the caller.\n     *\n     * Requirements:\n     *\n     * - The `operator` cannot be the caller.\n     *\n     * Emits an {ApprovalForAll} event.\n     */\n    function setApprovalForAll(address operator, bool _approved) external;\n\n    /**\n     * @dev Returns if the `operator` is allowed to manage all of the assets of `owner`.\n     *\n     * See {setApprovalForAll}\n     */\n    function isApprovedForAll(address owner, address operator) external view returns (bool);\n\n    /**\n     * @dev Safely transfers `tokenId` token from `from` to `to`.\n     *\n     * Requirements:\n     *\n     * - `from` cannot be the zero address.\n     * - `to` cannot be the zero address.\n     * - `tokenId` token must exist and be owned by `from`.\n     * - If the caller is not `from`, it must be approved to move this token by either {approve} or {setApprovalForAll}.\n     * - If `to` refers to a smart contract, it must implement {IERC721Receiver-onERC721Received}, which is called upon a safe transfer.\n     *\n     * Emits a {Transfer} event.\n     */\n    function safeTransferFrom(\n        address from,\n        address to,\n        uint256 tokenId,\n        bytes calldata data\n    ) external;\n}\n\n\n// File @openzeppelin/contracts/token/ERC721/IERC721Receiver.sol@v4.4.1\n\n// OpenZeppelin Contracts v4.4.1 (token/ERC721/IERC721Receiver.sol)\n\npragma solidity ^0.8.0;\n\n/**\n * @title ERC721 token receiver interface\n * @dev Interface for any contract that wants to support safeTransfers\n * from ERC721 asset contracts.\n */\ninterface IERC721Receiver {\n    /**\n     * @dev Whenever an {IERC721} `tokenId` token is transferred to this contract via {IERC721-safeTransferFrom}\n     * by `operator` from `from`, this function is called.\n     *\n     * It must return its Solidity selector to confirm the token transfer.\n     * If any other value is returned or the interface is not implemented by the recipient, the transfer will be reverted.\n     *\n     * The selector can be obtained in Solidity with `IERC721.onERC721Received.selector`.\n     */\n    function onERC721Received(\n        address operator,\n        address from,\n        uint256 tokenId,\n        bytes calldata data\n    ) external returns (bytes4);\n}\n\n\n// File @openzeppelin/contracts/token/ERC721/extensions/IERC721Metadata.sol@v4.4.1\n\n// OpenZeppelin Contracts v4.4.1 (token/ERC721/extensions/IERC721Metadata.sol)\n\npragma solidity ^0.8.0;\n\n/**\n * @title ERC-721 Non-Fungible Token Standard, optional metadata extension\n * @dev See https://eips.ethereum.org/EIPS/eip-721\n */\ninterface IERC721Metadata is IERC721 {\n    /**\n     * @dev Returns the token collection name.\n     */\n    function name() external view returns (string memory);\n\n    /**\n     * @dev Returns the token collection symbol.\n     */\n    function symbol() external view returns (string memory);\n\n    /**\n     * @dev Returns the Uniform Resource Identifier (URI) for `tokenId` token.\n     */\n    function tokenURI(uint256 tokenId) external view returns (string memory);\n}\n\n\n// File @openzeppelin/contracts/utils/Address.sol@v4.4.1\n\n// OpenZeppelin Contracts v4.4.1 (utils/Address.sol)\n\npragma solidity ^0.8.0;\n\n/**\n * @dev Collection of functions related to the address type\n */\nlibrary Address {\n    /**\n     * @dev Returns true if `account` is a contract.\n     *\n     * [IMPORTANT]\n     * ====\n     * It is unsafe to assume that an address for which this function returns\n     * false is an externally-owned account (EOA) and not a contract.\n     *\n     * Among others, `isContract` will return false for the following\n     * types of addresses:\n     *\n     *  - an externally-owned account\n     *  - a contract in construction\n     *  - an address where a contract will be created\n     *  - an address where a contract lived, but was destroyed\n     * ====\n     */\n    function isContract(address account) internal view returns (bool) {\n        // This method relies on extcodesize, which returns 0 for contracts in\n        // construction, since the code is only stored at the end of the\n        // constructor execution.\n\n        uint256 size;\n        assembly {\n            size := extcodesize(account)\n        }\n        return size > 0;\n    }\n\n    /**\n     * @dev Replacement for Solidity's `transfer`: sends `amount` wei to\n     * `recipient`, forwarding all available gas and reverting on errors.\n     *\n     * https://eips.ethereum.org/EIPS/eip-1884[EIP1884] increases the gas cost\n     * of certain opcodes, possibly making contracts go over the 2300 gas limit\n     * imposed by `transfer`, making them unable to receive funds via\n     * `transfer`. {sendValue} removes this limitation.\n     *\n     * https://diligence.consensys.net/posts/2019/09/stop-using-soliditys-transfer-now/[Learn more].\n     *\n     * IMPORTANT: because control is transferred to `recipient`, care must be\n     * taken to not create reentrancy vulnerabilities. Consider using\n     * {ReentrancyGuard} or the\n     * https://solidity.readthedocs.io/en/v0.5.11/security-considerations.html#use-the-checks-effects-interactions-pattern[checks-effects-interactions pattern].\n     */\n    function sendValue(address payable recipient, uint256 amount) internal {\n        require(address(this).balance >= amount, \"Address: insufficient balance\");\n\n        (bool success, ) = recipient.call{value: amount}(\"\");\n        require(success, \"Address: unable to send value, recipient may have reverted\");\n    }\n\n    /**\n     * @dev Performs a Solidity function call using a low level `call`. A\n     * plain `call` is an unsafe replacement for a function call: use this\n     * function instead.\n     *\n     * If `target` reverts with a revert reason, it is bubbled up by this\n     * function (like regular Solidity function calls).\n     *\n     * Returns the raw returned data. To convert to the expected return value,\n     * use https://solidity.readthedocs.io/en/latest/units-and-global-variables.html?highlight=abi.decode#abi-encoding-and-decoding-functions[`abi.decode`].\n     *\n     * Requirements:\n     *\n     * - `target` must be a contract.\n     * - calling `target` with `data` must not revert.\n     *\n     * _Available since v3.1._\n     */\n    function functionCall(address target, bytes memory data) internal returns (bytes memory) {\n        return functionCall(target, data, \"Address: low-level call failed\");\n    }\n\n    /**\n     * @dev Same as {xref-Address-functionCall-address-bytes-}[`functionCall`], but with\n     * `errorMessage` as a fallback revert reason when `target` reverts.\n     *\n     * _Available since v3.1._\n     */\n    function functionCall(\n        address target,\n        bytes memory data,\n        string memory errorMessage\n    ) internal returns (bytes memory) {\n        return functionCallWithValue(target, data, 0, errorMessage);\n    }\n\n    /**\n     * @dev Same as {xref-Address-functionCall-address-bytes-}[`functionCall`],\n     * but also transferring `value` wei to `target`.\n     *\n     * Requirements:\n     *\n     * - the calling contract must have an ETH balance of at least `value`.\n     * - the called Solidity function must be `payable`.\n     *\n     * _Available since v3.1._\n     */\n    function functionCallWithValue(\n        address target,\n        bytes memory data,\n        uint256 value\n    ) internal returns (bytes memory) {\n        return functionCallWithValue(target, data, value, \"Address: low-level call with value failed\");\n    }\n\n    /**\n     * @dev Same as {xref-Address-functionCallWithValue-address-bytes-uint256-}[`functionCallWithValue`], but\n     * with `errorMessage` as a fallback revert reason when `target` reverts.\n     *\n     * _Available since v3.1._\n     */\n    function functionCallWithValue(\n        address target,\n        bytes memory data,\n        uint256 value,\n        string memory errorMessage\n    ) internal returns (bytes memory) {\n        require(address(this).balance >= value, \"Address: insufficient balance for call\");\n        require(isContract(target), \"Address: call to non-contract\");\n\n        (bool success, bytes memory returndata) = target.call{value: value}(data);\n        return verifyCallResult(success, returndata, errorMessage);\n    }\n\n    /**\n     * @dev Same as {xref-Address-functionCall-address-bytes-}[`functionCall`],\n     * but performing a static call.\n     *\n     * _Available since v3.3._\n     */\n    function functionStaticCall(address target, bytes memory data) internal view returns (bytes memory) {\n        return functionStaticCall(target, data, \"Address: low-level static call failed\");\n    }\n\n    /**\n     * @dev Same as {xref-Address-functionCall-address-bytes-string-}[`functionCall`],\n     * but performing a static call.\n     *\n     * _Available since v3.3._\n     */\n    function functionStaticCall(\n        address target,\n        bytes memory data,\n        string memory errorMessage\n    ) internal view returns (bytes memory) {\n        require(isContract(target), \"Address: static call to non-contract\");\n\n        (bool success, bytes memory returndata) = target.staticcall(data);\n        return verifyCallResult(success, returndata, errorMessage);\n    }\n\n    /**\n     * @dev Same as {xref-Address-functionCall-address-bytes-}[`functionCall`],\n     * but performing a delegate call.\n     *\n     * _Available since v3.4._\n     */\n    function functionDelegateCall(address target, bytes memory data) internal returns (bytes memory) {\n        return functionDelegateCall(target, data, \"Address: low-level delegate call failed\");\n    }\n\n    /**\n     * @dev Same as {xref-Address-functionCall-address-bytes-string-}[`functionCall`],\n     * but performing a delegate call.\n     *\n     * _Available since v3.4._\n     */\n    function functionDelegateCall(\n        address target,\n        bytes memory data,\n        string memory errorMessage\n    ) internal returns (bytes memory) {\n        require(isContract(target), \"Address: delegate call to non-contract\");\n\n        (bool success, bytes memory returndata) = target.delegatecall(data);\n        return verifyCallResult(success, returndata, errorMessage);\n    }\n\n    /**\n     * @dev Tool to verifies that a low level call was successful, and revert if it wasn't, either by bubbling the\n     * revert reason using the provided one.\n     *\n     * _Available since v4.3._\n     */\n    function verifyCallResult(\n        bool success,\n        bytes memory returndata,\n        string memory errorMessage\n    ) internal pure returns (bytes memory) {\n        if (success) {\n            return returndata;\n        } else {\n            // Look for revert reason and bubble it up if present\n            if (returndata.length > 0) {\n                // The easiest way to bubble the revert reason is using memory via assembly\n\n                assembly {\n                    let returndata_size := mload(returndata)\n                    revert(add(32, returndata), returndata_size)\n                }\n            } else {\n                revert(errorMessage);\n            }\n        }\n    }\n}\n\n\n// File @openzeppelin/contracts/utils/Context.sol@v4.4.1\n\n// OpenZeppelin Contracts v4.4.1 (utils/Context.sol)\n\npragma solidity ^0.8.0;\n\n/**\n * @dev Provides information about the current execution context, including the\n * sender of the transaction and its data. While these are generally available\n * via msg.sender and msg.data, they should not be accessed in such a direct\n * manner, since when dealing with meta-transactions the account sending and\n * paying for execution may not be the actual sender (as far as an application\n * is concerned).\n *\n * This contract is only required for intermediate, library-like contracts.\n */\nabstract contract Context {\n    function _msgSender() internal view virtual returns (address) {\n        return msg.sender;\n    }\n\n    function _msgData() internal view virtual returns (bytes calldata) {\n        return msg.data;\n    }\n}\n\n\n// File @openzeppelin/contracts/utils/Strings.sol@v4.4.1\n\n// OpenZeppelin Contracts v4.4.1 (utils/Strings.sol)\n\npragma solidity ^0.8.0;\n\n/**\n * @dev String operations.\n */\nlibrary Strings {\n    bytes16 private constant _HEX_SYMBOLS = \"0123456789abcdef\";\n\n    /**\n     * @dev Converts a `uint256` to its ASCII `string` decimal representation.\n     */\n    function toString(uint256 value) internal pure returns (string memory) {\n        // Inspired by OraclizeAPI's implementation - MIT licence\n        // https://github.com/oraclize/ethereum-api/blob/b42146b063c7d6ee1358846c198246239e9360e8/oraclizeAPI_0.4.25.sol\n\n        if (value == 0) {\n            return \"0\";\n        }\n        uint256 temp = value;\n        uint256 digits;\n        while (temp != 0) {\n            digits++;\n            temp /= 10;\n        }\n        bytes memory buffer = new bytes(digits);\n        while (value != 0) {\n            digits -= 1;\n            buffer[digits] = bytes1(uint8(48 + uint256(value % 10)));\n            value /= 10;\n        }\n        return string(buffer);\n    }\n\n    /**\n     * @dev Converts a `uint256` to its ASCII `string` hexadecimal representation.\n     */\n    function toHexString(uint256 value) internal pure returns (string memory) {\n        if (value == 0) {\n            return \"0x00\";\n        }\n        uint256 temp = value;\n        uint256 length = 0;\n        while (temp != 0) {\n            length++;\n            temp >>= 8;\n        }\n        return toHexString(value, length);\n    }\n\n    /**\n     * @dev Converts a `uint256` to its ASCII `string` hexadecimal representation with fixed length.\n     */\n    function toHexString(uint256 value, uint256 length) internal pure returns (string memory) {\n        bytes memory buffer = new bytes(2 * length + 2);\n        buffer[0] = \"0\";\n        buffer[1] = \"x\";\n        for (uint256 i = 2 * length + 1; i > 1; --i) {\n            buffer[i] = _HEX_SYMBOLS[value & 0xf];\n            value >>= 4;\n        }\n        require(value == 0, \"Strings: hex length insufficient\");\n        return string(buffer);\n    }\n}\n\n\n// File @openzeppelin/contracts/utils/introspection/ERC165.sol@v4.4.1\n\n// OpenZeppelin Contracts v4.4.1 (utils/introspection/ERC165.sol)\n\npragma solidity ^0.8.0;\n\n/**\n * @dev Implementation of the {IERC165} interface.\n *\n * Contracts that want to implement ERC165 should inherit from this contract and override {supportsInterface} to check\n * for the additional interface id that will be supported. For example:\n *\n * ```solidity\n * function supportsInterface(bytes4 interfaceId) public view virtual override returns (bool) {\n *     return interfaceId == type(MyInterface).interfaceId || super.supportsInterface(interfaceId);\n * }\n * ```\n *\n * Alternatively, {ERC165Storage} provides an easier to use but more expensive implementation.\n */\nabstract contract ERC165 is IERC165 {\n    /**\n     * @dev See {IERC165-supportsInterface}.\n     */\n    function supportsInterface(bytes4 interfaceId) public view virtual override returns (bool) {\n        return interfaceId == type(IERC165).interfaceId;\n    }\n}\n\n\n// File @openzeppelin/contracts/token/ERC721/ERC721.sol@v4.4.1\n\n// OpenZeppelin Contracts v4.4.1 (token/ERC721/ERC721.sol)\n\npragma solidity ^0.8.0;\n\n\n\n\n\n\n\n/**\n * @dev Implementation of https://eips.ethereum.org/EIPS/eip-721[ERC721] Non-Fungible Token Standard, including\n * the Metadata extension, but not including the Enumerable extension, which is available separately as\n * {ERC721Enumerable}.\n */\ncontract ERC721 is Context, ERC165, IERC721, IERC721Metadata {\n    using Address for address;\n    using Strings for uint256;\n\n    // Token name\n    string private _name;\n\n    // Token symbol\n    string private _symbol;\n\n    // Mapping from token ID to owner address\n    mapping(uint256 => address) private _owners;\n\n    // Mapping owner address to token count\n    mapping(address => uint256) private _balances;\n\n    // Mapping from token ID to approved address\n    mapping(uint256 => address) private _tokenApprovals;\n\n    // Mapping from owner to operator approvals\n    mapping(address => mapping(address => bool)) private _operatorApprovals;\n\n    /**\n     * @dev Initializes the contract by setting a `name` and a `symbol` to the token collection.\n     */\n    constructor(string memory name_, string memory symbol_) {\n        _name = name_;\n        _symbol = symbol_;\n    }\n\n    /**\n     * @dev See {IERC165-supportsInterface}.\n     */\n    function supportsInterface(bytes4 interfaceId) public view virtual override(ERC165, IERC165) returns (bool) {\n        return\n            interfaceId == type(IERC721).interfaceId ||\n            interfaceId == type(IERC721Metadata).interfaceId ||\n            super.supportsInterface(interfaceId);\n    }\n\n    /**\n     * @dev See {IERC721-balanceOf}.\n     */\n    function balanceOf(address owner) public view virtual override returns (uint256) {\n        require(owner != address(0), \"ERC721: balance query for the zero address\");\n        return _balances[owner];\n    }\n\n    /**\n     * @dev See {IERC721-ownerOf}.\n     */\n    function ownerOf(uint256 tokenId) public view virtual override returns (address) {\n        address owner = _owners[tokenId];\n        require(owner != address(0), \"ERC721: owner query for nonexistent token\");\n        return owner;\n    }\n\n    /**\n     * @dev See {IERC721Metadata-name}.\n     */\n    function name() public view virtual override returns (string memory) {\n        return _name;\n    }\n\n    /**\n     * @dev See {IERC721Metadata-symbol}.\n     */\n    function symbol() public view virtual override returns (string memory) {\n        return _symbol;\n    }\n\n    /**\n     * @dev See {IERC721Metadata-tokenURI}.\n     */\n    function tokenURI(uint256 tokenId) public view virtual override returns (string memory) {\n        require(_exists(tokenId), \"ERC721Metadata: URI query for nonexistent token\");\n\n        string memory baseURI = _baseURI();\n        return bytes(baseURI).length > 0 ? string(abi.encodePacked(baseURI, tokenId.toString())) : \"\";\n    }\n\n    /**\n     * @dev Base URI for computing {tokenURI}. If set, the resulting URI for each\n     * token will be the concatenation of the `baseURI` and the `tokenId`. Empty\n     * by default, can be overriden in child contracts.\n     */\n    function _baseURI() internal view virtual returns (string memory) {\n        return \"\";\n    }\n\n    /**\n     * @dev See {IERC721-approve}.\n     */\n    function approve(address to, uint256 tokenId) public virtual override {\n        address owner = ERC721.ownerOf(tokenId);\n        require(to != owner, \"ERC721: approval to current owner\");\n\n        require(\n            _msgSender() == owner || isApprovedForAll(owner, _msgSender()),\n            \"ERC721: approve caller is not owner nor approved for all\"\n        );\n\n        _approve(to, tokenId);\n    }\n\n    /**\n     * @dev See {IERC721-getApproved}.\n     */\n    function getApproved(uint256 tokenId) public view virtual override returns (address) {\n        require(_exists(tokenId), \"ERC721: approved query for nonexistent token\");\n\n        return _tokenApprovals[tokenId];\n    }\n\n    /**\n     * @dev See {IERC721-setApprovalForAll}.\n     */\n    function setApprovalForAll(address operator, bool approved) public virtual override {\n        _setApprovalForAll(_msgSender(), operator, approved);\n    }\n\n    /**\n     * @dev See {IERC721-isApprovedForAll}.\n     */\n    function isApprovedForAll(address owner, address operator) public view virtual override returns (bool) {\n        return _operatorApprovals[owner][operator];\n    }\n\n    /**\n     * @dev See {IERC721-transferFrom}.\n     */\n    function transferFrom(\n        address from,\n        address to,\n        uint256 tokenId\n    ) public virtual override {\n        //solhint-disable-next-line max-line-length\n        require(_isApprovedOrOwner(_msgSender(), tokenId), \"ERC721: transfer caller is not owner nor approved\");\n\n        _transfer(from, to, tokenId);\n    }\n\n    /**\n     * @dev See {IERC721-safeTransferFrom}.\n     */\n    function safeTransferFrom(\n        address from,\n        address to,\n        uint256 tokenId\n    ) public virtual override {\n        safeTransferFrom(from, to, tokenId, \"\");\n    }\n\n    /**\n     * @dev See {IERC721-safeTransferFrom}.\n     */\n    function safeTransferFrom(\n        address from,\n        address to,\n        uint256 tokenId,\n        bytes memory _data\n    ) public virtual override {\n        require(_isApprovedOrOwner(_msgSender(), tokenId), \"ERC721: transfer caller is not owner nor approved\");\n        _safeTransfer(from, to, tokenId, _data);\n    }\n\n    /**\n     * @dev Safely transfers `tokenId` token from `from` to `to`, checking first that contract recipients\n     * are aware of the ERC721 protocol to prevent tokens from being forever locked.\n     *\n     * `_data` is additional data, it has no specified format and it is sent in call to `to`.\n     *\n     * This internal function is equivalent to {safeTransferFrom}, and can be used to e.g.\n     * implement alternative mechanisms to perform token transfer, such as signature-based.\n     *\n     * Requirements:\n     *\n     * - `from` cannot be the zero address.\n     * - `to` cannot be the zero address.\n     * - `tokenId` token must exist and be owned by `from`.\n     * - If `to` refers to a smart contract, it must implement {IERC721Receiver-onERC721Received}, which is called upon a safe transfer.\n     *\n     * Emits a {Transfer} event.\n     */\n    function _safeTransfer(\n        address from,\n        address to,\n        uint256 tokenId,\n        bytes memory _data\n    ) internal virtual {\n        _transfer(from, to, tokenId);\n        require(_checkOnERC721Received(from, to, tokenId, _data), \"ERC721: transfer to non ERC721Receiver implementer\");\n    }\n\n    /**\n     * @dev Returns whether `tokenId` exists.\n     *\n     * Tokens can be managed by their owner or approved accounts via {approve} or {setApprovalForAll}.\n     *\n     * Tokens start existing when they are minted (`_mint`),\n     * and stop existing when they are burned (`_burn`).\n     */\n    function _exists(uint256 tokenId) internal view virtual returns (bool) {\n        return _owners[tokenId] != address(0);\n    }\n\n    /**\n     * @dev Returns whether `spender` is allowed to manage `tokenId`.\n     *\n     * Requirements:\n     *\n     * - `tokenId` must exist.\n     */\n    function _isApprovedOrOwner(address spender, uint256 tokenId) internal view virtual returns (bool) {\n        require(_exists(tokenId), \"ERC721: operator query for nonexistent token\");\n        address owner = ERC721.ownerOf(tokenId);\n        return (spender == owner || getApproved(tokenId) == spender || isApprovedForAll(owner, spender));\n    }\n\n    /**\n     * @dev Safely mints `tokenId` and transfers it to `to`.\n     *\n     * Requirements:\n     *\n     * - `tokenId` must not exist.\n     * - If `to` refers to a smart contract, it must implement {IERC721Receiver-onERC721Received}, which is called upon a safe transfer.\n     *\n     * Emits a {Transfer} event.\n     */\n    function _safeMint(address to, uint256 tokenId) internal virtual {\n        _safeMint(to, tokenId, \"\");\n    }\n\n    /**\n     * @dev Same as {xref-ERC721-_safeMint-address-uint256-}[`_safeMint`], with an additional `data` parameter which is\n     * forwarded in {IERC721Receiver-onERC721Received} to contract recipients.\n     */\n    function _safeMint(\n        address to,\n        uint256 tokenId,\n        bytes memory _data\n    ) internal virtual {\n        _mint(to, tokenId);\n        require(\n            _checkOnERC721Received(address(0), to, tokenId, _data),\n            \"ERC721: transfer to non ERC721Receiver implementer\"\n        );\n    }\n\n    /**\n     * @dev Mints `tokenId` and transfers it to `to`.\n     *\n     * WARNING: Usage of this method is discouraged, use {_safeMint} whenever possible\n     *\n     * Requirements:\n     *\n     * - `tokenId` must not exist.\n     * - `to` cannot be the zero address.\n     *\n     * Emits a {Transfer} event.\n     */\n    function _mint(address to, uint256 tokenId) internal virtual {\n        require(to != address(0), \"ERC721: mint to the zero address\");\n        require(!_exists(tokenId), \"ERC721: token already minted\");\n\n        _beforeTokenTransfer(address(0), to, tokenId);\n\n        _balances[to] += 1;\n        _owners[tokenId] = to;\n\n        emit Transfer(address(0), to, tokenId);\n    }\n\n    /**\n     * @dev Destroys `tokenId`.\n     * The approval is cleared when the token is burned.\n     *\n     * Requirements:\n     *\n     * - `tokenId` must exist.\n     *\n     * Emits a {Transfer} event.\n     */\n    function _burn(uint256 tokenId) internal virtual {\n        address owner = ERC721.ownerOf(tokenId);\n\n        _beforeTokenTransfer(owner, address(0), tokenId);\n\n        // Clear approvals\n        _approve(address(0), tokenId);\n\n        _balances[owner] -= 1;\n        delete _owners[tokenId];\n\n        emit Transfer(owner, address(0), tokenId);\n    }\n\n    /**\n     * @dev Transfers `tokenId` from `from` to `to`.\n     *  As opposed to {transferFrom}, this imposes no restrictions on msg.sender.\n     *\n     * Requirements:\n     *\n     * - `to` cannot be the zero address.\n     * - `tokenId` token must be owned by `from`.\n     *\n     * Emits a {Transfer} event.\n     */\n    function _transfer(\n        address from,\n        address to,\n        uint256 tokenId\n    ) internal virtual {\n        require(ERC721.ownerOf(tokenId) == from, \"ERC721: transfer of token that is not own\");\n        require(to != address(0), \"ERC721: transfer to the zero address\");\n\n        _beforeTokenTransfer(from, to, tokenId);\n\n        // Clear approvals from the previous owner\n        _approve(address(0), tokenId);\n\n        _balances[from] -= 1;\n        _balances[to] += 1;\n        _owners[tokenId] = to;\n\n        emit Transfer(from, to, tokenId);\n    }\n\n    /**\n     * @dev Approve `to` to operate on `tokenId`\n     *\n     * Emits a {Approval} event.\n     */\n    function _approve(address to, uint256 tokenId) internal virtual {\n        _tokenApprovals[tokenId] = to;\n        emit Approval(ERC721.ownerOf(tokenId), to, tokenId);\n    }\n\n    /**\n     * @dev Approve `operator` to operate on all of `owner` tokens\n     *\n     * Emits a {ApprovalForAll} event.\n     */\n    function _setApprovalForAll(\n        address owner,\n        address operator,\n        bool approved\n    ) internal virtual {\n        require(owner != operator, \"ERC721: approve to caller\");\n        _operatorApprovals[owner][operator] = approved;\n        emit ApprovalForAll(owner, operator, approved);\n    }\n\n    /**\n     * @dev Internal function to invoke {IERC721Receiver-onERC721Received} on a target address.\n     * The call is not executed if the target address is not a contract.\n     *\n     * @param from address representing the previous owner of the given token ID\n     * @param to target address that will receive the tokens\n     * @param tokenId uint256 ID of the token to be transferred\n     * @param _data bytes optional data to send along with the call\n     * @return bool whether the call correctly returned the expected magic value\n     */\n    function _checkOnERC721Received(\n        address from,\n        address to,\n        uint256 tokenId,\n        bytes memory _data\n    ) private returns (bool) {\n        if (to.isContract()) {\n            try IERC721Receiver(to).onERC721Received(_msgSender(), from, tokenId, _data) returns (bytes4 retval) {\n                return retval == IERC721Receiver.onERC721Received.selector;\n            } catch (bytes memory reason) {\n                if (reason.length == 0) {\n                    revert(\"ERC721: transfer to non ERC721Receiver implementer\");\n                } else {\n                    assembly {\n                        revert(add(32, reason), mload(reason))\n                    }\n                }\n            }\n        } else {\n            return true;\n        }\n    }\n\n    /**\n     * @dev Hook that is called before any token transfer. This includes minting\n     * and burning.\n     *\n     * Calling conditions:\n     *\n     * - When `from` and `to` are both non-zero, ``from``'s `tokenId` will be\n     * transferred to `to`.\n     * - When `from` is zero, `tokenId` will be minted for `to`.\n     * - When `to` is zero, ``from``'s `tokenId` will be burned.\n     * - `from` and `to` are never both zero.\n     *\n     * To learn more about hooks, head to xref:ROOT:extending-contracts.adoc#using-hooks[Using Hooks].\n     */\n    function _beforeTokenTransfer(\n        address from,\n        address to,\n        uint256 tokenId\n    ) internal virtual {}\n}\n\n\n// File @openzeppelin/contracts/access/Ownable.sol@v4.4.1\n\n// OpenZeppelin Contracts v4.4.1 (access/Ownable.sol)\n\npragma solidity ^0.8.0;\n\n/**\n * @dev Contract module which provides a basic access control mechanism, where\n * there is an account (an owner) that can be granted exclusive access to\n * specific functions.\n *\n * By default, the owner account will be the one that deploys the contract. This\n * can later be changed with {transferOwnership}.\n *\n * This module is used through inheritance. It will make available the modifier\n * `onlyOwner`, which can be applied to your functions to restrict their use to\n * the owner.\n */\nabstract contract Ownable is Context {\n    address private _owner;\n\n    event OwnershipTransferred(address indexed previousOwner, address indexed newOwner);\n\n    /**\n     * @dev Initializes the contract setting the deployer as the initial owner.\n     */\n    constructor() {\n        _transferOwnership(_msgSender());\n    }\n\n    /**\n     * @dev Returns the address of the current owner.\n     */\n    function owner() public view virtual returns (address) {\n        return _owner;\n    }\n\n    /**\n     * @dev Throws if called by any account other than the owner.\n     */\n    modifier onlyOwner() {\n        require(owner() == _msgSender(), \"Ownable: caller is not the owner\");\n        _;\n    }\n\n    /**\n     * @dev Leaves the contract without owner. It will not be possible to call\n     * `onlyOwner` functions anymore. Can only be called by the current owner.\n     *\n     * NOTE: Renouncing ownership will leave the contract without an owner,\n     * thereby removing any functionality that is only available to the owner.\n     */\n    function renounceOwnership() public virtual onlyOwner {\n        _transferOwnership(address(0));\n    }\n\n    /**\n     * @dev Transfers ownership of the contract to a new account (`newOwner`).\n     * Can only be called by the current owner.\n     */\n    function transferOwnership(address newOwner) public virtual onlyOwner {\n        require(newOwner != address(0), \"Ownable: new owner is the zero address\");\n        _transferOwnership(newOwner);\n    }\n\n    /**\n     * @dev Transfers ownership of the contract to a new account (`newOwner`).\n     * Internal function without access restriction.\n     */\n    function _transferOwnership(address newOwner) internal virtual {\n        address oldOwner = _owner;\n        _owner = newOwner;\n        emit OwnershipTransferred(oldOwner, newOwner);\n    }\n}\n\n\n// File contracts/NFTArtGen.sol\n\n\npragma solidity ^0.8.4;\n\n\n\n// \n// Built by https://nft-generator.art\n// \ncontract NFTArtGen is ERC721, Ownable {\n    string internal baseUri;\n\n    uint256 public cost = 0.05 ether;\n    uint32 public maxPerMint = 5;\n    uint32 public maxPerWallet = 20;\n    uint32 public supply = 0;\n    uint32 public totalSupply = 0;\n    bool public open = false;\n    mapping(address => uint256) internal addressMintedMap;\n\n    uint32 private commission = 49; // 4.9%\n    address private author = 0x460Fd5059E7301680fA53E63bbBF7272E643e89C;\n\n    constructor(\n        string memory _uri,\n        string memory _name,\n        string memory _symbol,\n        uint32 _totalSupply,\n        uint256 _cost,\n        bool _open\n    ) ERC721(_name, _symbol) {\n        baseUri = _uri;\n        totalSupply = _totalSupply;\n        cost = _cost;\n        open = _open;\n    }\n\n    // ------ Author Only ------\n\n    function setCommission(uint32 _commision) public {\n        require(msg.sender == author, \"Incorrect Address\");\n        commission = _commision;\n    }\n\n    // ------ Owner Only ------\n\n    function setCost(uint256 _cost) public onlyOwner {\n        cost = _cost;\n    }\n\n    function setOpen(bool _open) public onlyOwner {\n        open = _open;\n    }\n\n    function setMaxPerWallet(uint32 _max) public onlyOwner {\n        maxPerWallet = _max;\n    }\n\n    function setMaxPerMint(uint32 _max) public onlyOwner {\n        maxPerMint = _max;\n    }\n\n    function airdrop(address[] calldata to) public onlyOwner {\n        for (uint32 i = 0; i < to.length; i++) {\n            require(1 + supply <= totalSupply, \"Limit reached\");\n            _safeMint(to[i], ++supply, \"\");\n        }\n    }\n\n    function withdraw() public payable onlyOwner {\n        (bool success, ) = payable(msg.sender).call{\n            value: address(this).balance\n        }(\"\");\n        require(success);\n    }\n\n    // ------ Mint! ------\n\n    function mint(uint32 count) external payable preMintChecks(count) {\n        require(open == true, \"Mint not open\");\n        performMint(count);\n    }\n\n    function performMint(uint32 count) internal {\n        for (uint32 i = 0; i < count; i++) {\n            _safeMint(msg.sender, ++supply, \"\");\n        }\n        \n        addressMintedMap[msg.sender] += count;\n\n        (bool success, ) = payable(author).call{\n            value: (msg.value * commission) / 1000\n        }(\"\");\n        require(success);\n    }\n\n    // ------ Read ------\n\n    // ------ Modifiers ------\n\n    modifier preMintChecks(uint32 count) {\n        require(count > 0, \"Mint at least one.\");\n        require(count < maxPerMint + 1, \"Max mint reached.\");\n        require(msg.value >= cost * count, \"Not enough fund.\");\n        require(supply + count < totalSupply + 1, \"Mint sold out\");\n        require(\n            addressMintedMap[msg.sender] + count <= maxPerWallet,\n            \"Max total mint reached\"\n        );\n        _;\n    }\n}\n\n\n// File @openzeppelin/contracts/utils/cryptography/MerkleProof.sol@v4.4.1\n\n// OpenZeppelin Contracts v4.4.1 (utils/cryptography/MerkleProof.sol)\n\npragma solidity ^0.8.0;\n\n/**\n * @dev These functions deal with verification of Merkle Trees proofs.\n *\n * The proofs can be generated using the JavaScript library\n * https://github.com/miguelmota/merkletreejs[merkletreejs].\n * Note: the hashing algorithm should be keccak256 and pair sorting should be enabled.\n *\n * See `test/utils/cryptography/MerkleProof.test.js` for some examples.\n */\nlibrary MerkleProof {\n    /**\n     * @dev Returns true if a `leaf` can be proved to be a part of a Merkle tree\n     * defined by `root`. For this, a `proof` must be provided, containing\n     * sibling hashes on the branch from the leaf to the root of the tree. Each\n     * pair of leaves and each pair of pre-images are assumed to be sorted.\n     */\n    function verify(\n        bytes32[] memory proof,\n        bytes32 root,\n        bytes32 leaf\n    ) internal pure returns (bool) {\n        return processProof(proof, leaf) == root;\n    }\n\n    /**\n     * @dev Returns the rebuilt hash obtained by traversing a Merklee tree up\n     * from `leaf` using `proof`. A `proof` is valid if and only if the rebuilt\n     * hash matches the root of the tree. When processing the proof, the pairs\n     * of leafs & pre-images are assumed to be sorted.\n     *\n     * _Available since v4.4._\n     */\n    function processProof(bytes32[] memory proof, bytes32 leaf) internal pure returns (bytes32) {\n        bytes32 computedHash = leaf;\n        for (uint256 i = 0; i < proof.length; i++) {\n            bytes32 proofElement = proof[i];\n            if (computedHash <= proofElement) {\n                // Hash(current computed hash + current element of the proof)\n                computedHash = keccak256(abi.encodePacked(computedHash, proofElement));\n            } else {\n                // Hash(current element of the proof + current computed hash)\n                computedHash = keccak256(abi.encodePacked(proofElement, computedHash));\n            }\n        }\n        return computedHash;\n    }\n}\n\n\n// File contracts/utils/Presaleable.sol\n\n\npragma solidity ^0.8.4;\n\n\nabstract contract Presaleable is NFTArtGen {\n    bool public presaleOpen = false;\n    bytes32 private merkleRoot;\n\n    function setPresaleOpen(bool _open) public onlyOwner {\n        presaleOpen = _open;\n    }\n\n    function setPreSaleAddresses(bytes32 root) public onlyOwner {\n        merkleRoot = root;\n    }\n\n    function presaleMint(uint32 count, bytes32[] calldata proof)\n        external\n        payable\n        preMintChecks(count)\n    {\n        require(presaleOpen, \"Presale not open\");\n        require(merkleRoot != \"\", \"Presale not ready\");\n        require(\n            MerkleProof.verify(\n                proof,\n                merkleRoot,\n                keccak256(abi.encodePacked(msg.sender))\n            ),\n            \"Not a presale member\"\n        );\n\n        performMint(count);\n    }\n}\n\n\n// File contracts/extensions/Presale.sol\n\n\npragma solidity ^0.8.4;\n\n\n\ncontract NFTArtGenPresale is NFTArtGen, Presaleable {\n    constructor(\n        string memory _uri,\n        string memory _name,\n        string memory _symbol,\n        uint32 _totalSupply,\n        uint256 _cost,\n        bool _open\n    ) NFTArtGen(_uri, _name, _symbol, _totalSupply, _cost, _open) {}\n\n    function tokenURI(uint256 _tokenId)\n        public\n        view\n        virtual\n        override\n        returns (string memory)\n    {\n        require(_tokenId <= supply, \"Not minted yet\");\n\n        return\n            string(\n                abi.encodePacked(baseUri, Strings.toString(_tokenId), \".json\")\n            );\n    }\n}\n",
  "sourcePath": "/Users/nathan/Code/work/frontend/src/services/blockchain/blockchains/ethereum/contracts/ambition-presale.sol",
  "compiler": {
    "name": "solc",
    "version": "0.8.4+commit.c7e474f2.Emscripten.clang"
  },
  "schemaVersion": "3.3.2",
  "updatedAt": "2022-02-09T07:25:23.013Z",
  "devdoc": {
    "kind": "dev",
    "methods": {
      "approve(address,uint256)": {
        "details": "See {IERC721-approve}."
      },
      "balanceOf(address)": {
        "details": "See {IERC721-balanceOf}."
      },
      "getApproved(uint256)": {
        "details": "See {IERC721-getApproved}."
      },
      "isApprovedForAll(address,address)": {
        "details": "See {IERC721-isApprovedForAll}."
      },
      "name()": {
        "details": "See {IERC721Metadata-name}."
      },
      "owner()": {
        "details": "Returns the address of the current owner."
      },
      "ownerOf(uint256)": {
        "details": "See {IERC721-ownerOf}."
      },
      "renounceOwnership()": {
        "details": "Leaves the contract without owner. It will not be possible to call `onlyOwner` functions anymore. Can only be called by the current owner. NOTE: Renouncing ownership will leave the contract without an owner, thereby removing any functionality that is only available to the owner."
      },
      "safeTransferFrom(address,address,uint256)": {
        "details": "See {IERC721-safeTransferFrom}."
      },
      "safeTransferFrom(address,address,uint256,bytes)": {
        "details": "See {IERC721-safeTransferFrom}."
      },
      "setApprovalForAll(address,bool)": {
        "details": "See {IERC721-setApprovalForAll}."
      },
      "supportsInterface(bytes4)": {
        "details": "See {IERC165-supportsInterface}."
      },
      "symbol()": {
        "details": "See {IERC721Metadata-symbol}."
      },
      "transferFrom(address,address,uint256)": {
        "details": "See {IERC721-transferFrom}."
      },
      "transferOwnership(address)": {
        "details": "Transfers ownership of the contract to a new account (`newOwner`). Can only be called by the current owner."
      }
    },
    "version": 1
  },
  "userdoc": {
    "kind": "user",
    "methods": {},
    "version": 1
  }
}