{
  "contractName": "NFTArtGenReveal",
  "abi": [
    {
      "inputs": [
        {
          "internalType": "string",
          "name": "_uri",
          "type": "string"
        },
        {
          "internalType": "string",
          "name": "_name",
          "type": "string"
        },
        {
          "internalType": "string",
          "name": "_symbol",
          "type": "string"
        },
        {
          "internalType": "uint32",
          "name": "_totalSupply",
          "type": "uint32"
        },
        {
          "internalType": "uint256",
          "name": "_cost",
          "type": "uint256"
        },
        {
          "internalType": "bool",
          "name": "_open",
          "type": "bool"
        }
      ],
      "stateMutability": "nonpayable",
      "type": "constructor"
    },
    {
      "anonymous": false,
      "inputs": [
        {
          "indexed": true,
          "internalType": "address",
          "name": "owner",
          "type": "address"
        },
        {
          "indexed": true,
          "internalType": "address",
          "name": "approved",
          "type": "address"
        },
        {
          "indexed": true,
          "internalType": "uint256",
          "name": "tokenId",
          "type": "uint256"
        }
      ],
      "name": "Approval",
      "type": "event"
    },
    {
      "anonymous": false,
      "inputs": [
        {
          "indexed": true,
          "internalType": "address",
          "name": "owner",
          "type": "address"
        },
        {
          "indexed": true,
          "internalType": "address",
          "name": "operator",
          "type": "address"
        },
        {
          "indexed": false,
          "internalType": "bool",
          "name": "approved",
          "type": "bool"
        }
      ],
      "name": "ApprovalForAll",
      "type": "event"
    },
    {
      "anonymous": false,
      "inputs": [
        {
          "indexed": true,
          "internalType": "address",
          "name": "previousOwner",
          "type": "address"
        },
        {
          "indexed": true,
          "internalType": "address",
          "name": "newOwner",
          "type": "address"
        }
      ],
      "name": "OwnershipTransferred",
      "type": "event"
    },
    {
      "anonymous": false,
      "inputs": [
        {
          "indexed": true,
          "internalType": "address",
          "name": "from",
          "type": "address"
        },
        {
          "indexed": true,
          "internalType": "address",
          "name": "to",
          "type": "address"
        },
        {
          "indexed": true,
          "internalType": "uint256",
          "name": "tokenId",
          "type": "uint256"
        }
      ],
      "name": "Transfer",
      "type": "event"
    },
    {
      "inputs": [
        {
          "internalType": "address[]",
          "name": "to",
          "type": "address[]"
        }
      ],
      "name": "airdrop",
      "outputs": [],
      "stateMutability": "nonpayable",
      "type": "function"
    },
    {
      "inputs": [
        {
          "internalType": "address",
          "name": "to",
          "type": "address"
        },
        {
          "internalType": "uint256",
          "name": "tokenId",
          "type": "uint256"
        }
      ],
      "name": "approve",
      "outputs": [],
      "stateMutability": "nonpayable",
      "type": "function"
    },
    {
      "inputs": [
        {
          "internalType": "address",
          "name": "owner",
          "type": "address"
        }
      ],
      "name": "balanceOf",
      "outputs": [
        {
          "internalType": "uint256",
          "name": "",
          "type": "uint256"
        }
      ],
      "stateMutability": "view",
      "type": "function"
    },
    {
      "inputs": [],
      "name": "cost",
      "outputs": [
        {
          "internalType": "uint256",
          "name": "",
          "type": "uint256"
        }
      ],
      "stateMutability": "view",
      "type": "function"
    },
    {
      "inputs": [
        {
          "internalType": "uint256",
          "name": "tokenId",
          "type": "uint256"
        }
      ],
      "name": "getApproved",
      "outputs": [
        {
          "internalType": "address",
          "name": "",
          "type": "address"
        }
      ],
      "stateMutability": "view",
      "type": "function"
    },
    {
      "inputs": [
        {
          "internalType": "address",
          "name": "owner",
          "type": "address"
        },
        {
          "internalType": "address",
          "name": "operator",
          "type": "address"
        }
      ],
      "name": "isApprovedForAll",
      "outputs": [
        {
          "internalType": "bool",
          "name": "",
          "type": "bool"
        }
      ],
      "stateMutability": "view",
      "type": "function"
    },
    {
      "inputs": [],
      "name": "maxPerMint",
      "outputs": [
        {
          "internalType": "uint32",
          "name": "",
          "type": "uint32"
        }
      ],
      "stateMutability": "view",
      "type": "function"
    },
    {
      "inputs": [],
      "name": "maxPerWallet",
      "outputs": [
        {
          "internalType": "uint32",
          "name": "",
          "type": "uint32"
        }
      ],
      "stateMutability": "view",
      "type": "function"
    },
    {
      "inputs": [
        {
          "internalType": "uint32",
          "name": "count",
          "type": "uint32"
        }
      ],
      "name": "mint",
      "outputs": [],
      "stateMutability": "payable",
      "type": "function"
    },
    {
      "inputs": [],
      "name": "name",
      "outputs": [
        {
          "internalType": "string",
          "name": "",
          "type": "string"
        }
      ],
      "stateMutability": "view",
      "type": "function"
    },
    {
      "inputs": [],
      "name": "open",
      "outputs": [
        {
          "internalType": "bool",
          "name": "",
          "type": "bool"
        }
      ],
      "stateMutability": "view",
      "type": "function"
    },
    {
      "inputs": [],
      "name": "owner",
      "outputs": [
        {
          "internalType": "address",
          "name": "",
          "type": "address"
        }
      ],
      "stateMutability": "view",
      "type": "function"
    },
    {
      "inputs": [
        {
          "internalType": "uint256",
          "name": "tokenId",
          "type": "uint256"
        }
      ],
      "name": "ownerOf",
      "outputs": [
        {
          "internalType": "address",
          "name": "",
          "type": "address"
        }
      ],
      "stateMutability": "view",
      "type": "function"
    },
    {
      "inputs": [],
      "name": "renounceOwnership",
      "outputs": [],
      "stateMutability": "nonpayable",
      "type": "function"
    },
    {
      "inputs": [],
      "name": "reveal",
      "outputs": [],
      "stateMutability": "nonpayable",
      "type": "function"
    },
    {
      "inputs": [],
      "name": "revealed",
      "outputs": [
        {
          "internalType": "bool",
          "name": "",
          "type": "bool"
        }
      ],
      "stateMutability": "view",
      "type": "function"
    },
    {
      "inputs": [
        {
          "internalType": "address",
          "name": "from",
          "type": "address"
        },
        {
          "internalType": "address",
          "name": "to",
          "type": "address"
        },
        {
          "internalType": "uint256",
          "name": "tokenId",
          "type": "uint256"
        }
      ],
      "name": "safeTransferFrom",
      "outputs": [],
      "stateMutability": "nonpayable",
      "type": "function"
    },
    {
      "inputs": [
        {
          "internalType": "address",
          "name": "from",
          "type": "address"
        },
        {
          "internalType": "address",
          "name": "to",
          "type": "address"
        },
        {
          "internalType": "uint256",
          "name": "tokenId",
          "type": "uint256"
        },
        {
          "internalType": "bytes",
          "name": "_data",
          "type": "bytes"
        }
      ],
      "name": "safeTransferFrom",
      "outputs": [],
      "stateMutability": "nonpayable",
      "type": "function"
    },
    {
      "inputs": [
        {
          "internalType": "address",
          "name": "operator",
          "type": "address"
        },
        {
          "internalType": "bool",
          "name": "approved",
          "type": "bool"
        }
      ],
      "name": "setApprovalForAll",
      "outputs": [],
      "stateMutability": "nonpayable",
      "type": "function"
    },
    {
      "inputs": [
        {
          "internalType": "uint32",
          "name": "_commision",
          "type": "uint32"
        }
      ],
      "name": "setCommission",
      "outputs": [],
      "stateMutability": "nonpayable",
      "type": "function"
    },
    {
      "inputs": [
        {
          "internalType": "uint256",
          "name": "_cost",
          "type": "uint256"
        }
      ],
      "name": "setCost",
      "outputs": [],
      "stateMutability": "nonpayable",
      "type": "function"
    },
    {
      "inputs": [
        {
          "internalType": "uint32",
          "name": "_max",
          "type": "uint32"
        }
      ],
      "name": "setMaxPerMint",
      "outputs": [],
      "stateMutability": "nonpayable",
      "type": "function"
    },
    {
      "inputs": [
        {
          "internalType": "uint32",
          "name": "_max",
          "type": "uint32"
        }
      ],
      "name": "setMaxPerWallet",
      "outputs": [],
      "stateMutability": "nonpayable",
      "type": "function"
    },
    {
      "inputs": [
        {
          "internalType": "bool",
          "name": "_open",
          "type": "bool"
        }
      ],
      "name": "setOpen",
      "outputs": [],
      "stateMutability": "nonpayable",
      "type": "function"
    },
    {
      "inputs": [
        {
          "internalType": "string",
          "name": "_uri",
          "type": "string"
        }
      ],
      "name": "setUnrevealedURI",
      "outputs": [],
      "stateMutability": "nonpayable",
      "type": "function"
    },
    {
      "inputs": [],
      "name": "supply",
      "outputs": [
        {
          "internalType": "uint32",
          "name": "",
          "type": "uint32"
        }
      ],
      "stateMutability": "view",
      "type": "function"
    },
    {
      "inputs": [
        {
          "internalType": "bytes4",
          "name": "interfaceId",
          "type": "bytes4"
        }
      ],
      "name": "supportsInterface",
      "outputs": [
        {
          "internalType": "bool",
          "name": "",
          "type": "bool"
        }
      ],
      "stateMutability": "view",
      "type": "function"
    },
    {
      "inputs": [],
      "name": "symbol",
      "outputs": [
        {
          "internalType": "string",
          "name": "",
          "type": "string"
        }
      ],
      "stateMutability": "view",
      "type": "function"
    },
    {
      "inputs": [],
      "name": "totalSupply",
      "outputs": [
        {
          "internalType": "uint32",
          "name": "",
          "type": "uint32"
        }
      ],
      "stateMutability": "view",
      "type": "function"
    },
    {
      "inputs": [
        {
          "internalType": "address",
          "name": "from",
          "type": "address"
        },
        {
          "internalType": "address",
          "name": "to",
          "type": "address"
        },
        {
          "internalType": "uint256",
          "name": "tokenId",
          "type": "uint256"
        }
      ],
      "name": "transferFrom",
      "outputs": [],
      "stateMutability": "nonpayable",
      "type": "function"
    },
    {
      "inputs": [
        {
          "internalType": "address",
          "name": "newOwner",
          "type": "address"
        }
      ],
      "name": "transferOwnership",
      "outputs": [],
      "stateMutability": "nonpayable",
      "type": "function"
    },
    {
      "inputs": [],
      "name": "withdraw",
      "outputs": [],
      "stateMutability": "payable",
      "type": "function"
    },
    {
      "inputs": [
        {
          "internalType": "uint256",
          "name": "_tokenId",
          "type": "uint256"
        }
      ],
      "name": "tokenURI",
      "outputs": [
        {
          "internalType": "string",
          "name": "",
          "type": "string"
        }
      ],
      "stateMutability": "view",
      "type": "function"
    }
  ],
  "bytecode": "0x608060405266b1a2bc2ec500006008556005600960006101000a81548163ffffffff021916908363ffffffff1602179055506014600960046101000a81548163ffffffff021916908363ffffffff1602179055506000600960086101000a81548163ffffffff021916908363ffffffff16021790555060006009600c6101000a81548163ffffffff021916908363ffffffff1602179055506000600960106101000a81548160ff0219169083151502179055506031600b60006101000a81548163ffffffff021916908363ffffffff16021790555073460fd5059e7301680fa53e63bbbf7272e643e89c600b60046101000a81548173ffffffffffffffffffffffffffffffffffffffff021916908373ffffffffffffffffffffffffffffffffffffffff1602179055506000600b60186101000a81548160ff0219169083151502179055503480156200015157600080fd5b5060405162004a7a38038062004a7a833981810160405281019062000177919062000481565b85858585858584848160009080519060200190620001979291906200030e565b508060019080519060200190620001b09291906200030e565b505050620001d3620001c76200024060201b60201c565b6200024860201b60201c565b8560079080519060200190620001eb9291906200030e565b50826009600c6101000a81548163ffffffff021916908363ffffffff1602179055508160088190555080600960106101000a81548160ff02191690831515021790555050505050505050505050505062000772565b600033905090565b6000600660009054906101000a900473ffffffffffffffffffffffffffffffffffffffff16905081600660006101000a81548173ffffffffffffffffffffffffffffffffffffffff021916908373ffffffffffffffffffffffffffffffffffffffff1602179055508173ffffffffffffffffffffffffffffffffffffffff168173ffffffffffffffffffffffffffffffffffffffff167f8be0079c531659141344cd1fd0a4f28419497f9722a3daafe3b4186f6b6457e060405160405180910390a35050565b8280546200031c9062000635565b90600052602060002090601f0160209004810192826200034057600085556200038c565b82601f106200035b57805160ff19168380011785556200038c565b828001600101855582156200038c579182015b828111156200038b5782518255916020019190600101906200036e565b5b5090506200039b91906200039f565b5090565b5b80821115620003ba576000816000905550600101620003a0565b5090565b6000620003d5620003cf84620005a3565b6200057a565b905082815260208101848484011115620003f457620003f362000704565b5b62000401848285620005ff565b509392505050565b6000815190506200041a8162000724565b92915050565b600082601f830112620004385762000437620006ff565b5b81516200044a848260208601620003be565b91505092915050565b60008151905062000464816200073e565b92915050565b6000815190506200047b8162000758565b92915050565b60008060008060008060c08789031215620004a157620004a06200070e565b5b600087015167ffffffffffffffff811115620004c257620004c162000709565b5b620004d089828a0162000420565b965050602087015167ffffffffffffffff811115620004f457620004f362000709565b5b6200050289828a0162000420565b955050604087015167ffffffffffffffff81111562000526576200052562000709565b5b6200053489828a0162000420565b94505060606200054789828a016200046a565b93505060806200055a89828a0162000453565b92505060a06200056d89828a0162000409565b9150509295509295509295565b60006200058662000599565b90506200059482826200066b565b919050565b6000604051905090565b600067ffffffffffffffff821115620005c157620005c0620006d0565b5b620005cc8262000713565b9050602081019050919050565b60008115159050919050565b6000819050919050565b600063ffffffff82169050919050565b60005b838110156200061f57808201518184015260208101905062000602565b838111156200062f576000848401525b50505050565b600060028204905060018216806200064e57607f821691505b60208210811415620006655762000664620006a1565b5b50919050565b620006768262000713565b810181811067ffffffffffffffff82111715620006985762000697620006d0565b5b80604052505050565b7f4e487b7100000000000000000000000000000000000000000000000000000000600052602260045260246000fd5b7f4e487b7100000000000000000000000000000000000000000000000000000000600052604160045260246000fd5b600080fd5b600080fd5b600080fd5b600080fd5b6000601f19601f8301169050919050565b6200072f81620005d9565b81146200073b57600080fd5b50565b6200074981620005e5565b81146200075557600080fd5b50565b6200076381620005ef565b81146200076f57600080fd5b50565b6142f880620007826000396000f3fe6080604052600436106101ee5760003560e01c80636352211e1161010d578063a475b5dd116100a0578063e985e9c51161006f578063e985e9c514610695578063f2fde38b146106d2578063f8048d8f146106fb578063fcfff16f14610724578063fe2c7fee1461074f576101ee565b8063a475b5dd146105fc578063a71bbebe14610613578063b88d4fde1461062f578063c87b56dd14610658576101ee565b8063729ad39e116100dc578063729ad39e146105545780638da5cb5b1461057d57806395d89b41146105a8578063a22cb465146105d3576101ee565b80636352211e1461049a5780636fdca5e0146104d757806370a0823114610500578063715018a61461053d576101ee565b806323b872dd1161018557806344a0d68a1161015457806344a0d68a146103f0578063453c231014610419578063507e094f14610444578063518302271461046f576101ee565b806323b872dd1461036b5780633006b543146103945780633ccfd60b146103bd57806342842e0e146103c7576101ee565b8063092501a0116101c1578063092501a0146102c3578063095ea7b3146102ec57806313faede61461031557806318160ddd14610340576101ee565b806301ffc9a7146101f3578063047fc9aa1461023057806306fdde031461025b578063081812fc14610286575b600080fd5b3480156101ff57600080fd5b5061021a60048036038101906102159190612d7f565b610778565b6040516102279190613413565b60405180910390f35b34801561023c57600080fd5b5061024561085a565b604051610252919061376b565b60405180910390f35b34801561026757600080fd5b50610270610870565b60405161027d919061342e565b60405180910390f35b34801561029257600080fd5b506102ad60048036038101906102a89190612e22565b610902565b6040516102ba91906133ac565b60405180910390f35b3480156102cf57600080fd5b506102ea60048036038101906102e59190612e4f565b610987565b005b3480156102f857600080fd5b50610313600480360381019061030e9190612cc5565b610a3b565b005b34801561032157600080fd5b5061032a610b53565b6040516103379190613750565b60405180910390f35b34801561034c57600080fd5b50610355610b59565b604051610362919061376b565b60405180910390f35b34801561037757600080fd5b50610392600480360381019061038d9190612baf565b610b6f565b005b3480156103a057600080fd5b506103bb60048036038101906103b69190612e4f565b610bcf565b005b6103c5610c6f565b005b3480156103d357600080fd5b506103ee60048036038101906103e99190612baf565b610d64565b005b3480156103fc57600080fd5b5061041760048036038101906104129190612e22565b610d84565b005b34801561042557600080fd5b5061042e610e0a565b60405161043b919061376b565b60405180910390f35b34801561045057600080fd5b50610459610e20565b604051610466919061376b565b60405180910390f35b34801561047b57600080fd5b50610484610e36565b6040516104919190613413565b60405180910390f35b3480156104a657600080fd5b506104c160048036038101906104bc9190612e22565b610e49565b6040516104ce91906133ac565b60405180910390f35b3480156104e357600080fd5b506104fe60048036038101906104f99190612d52565b610efb565b005b34801561050c57600080fd5b5061052760048036038101906105229190612b42565b610f94565b6040516105349190613750565b60405180910390f35b34801561054957600080fd5b5061055261104c565b005b34801561056057600080fd5b5061057b60048036038101906105769190612d05565b6110d4565b005b34801561058957600080fd5b50610592611282565b60405161059f91906133ac565b60405180910390f35b3480156105b457600080fd5b506105bd6112ac565b6040516105ca919061342e565b60405180910390f35b3480156105df57600080fd5b506105fa60048036038101906105f59190612c85565b61133e565b005b34801561060857600080fd5b50610611611354565b005b61062d60048036038101906106289190612e4f565b6113ed565b005b34801561063b57600080fd5b5061065660048036038101906106519190612c02565b611690565b005b34801561066457600080fd5b5061067f600480360381019061067a9190612e22565b6116f2565b60405161068c919061342e565b60405180910390f35b3480156106a157600080fd5b506106bc60048036038101906106b79190612b6f565b6117d0565b6040516106c99190613413565b60405180910390f35b3480156106de57600080fd5b506106f960048036038101906106f49190612b42565b611864565b005b34801561070757600080fd5b50610722600480360381019061071d9190612e4f565b61195c565b005b34801561073057600080fd5b506107396119fc565b6040516107469190613413565b60405180910390f35b34801561075b57600080fd5b5061077660048036038101906107719190612dd9565b611a0f565b005b60007f80ac58cd000000000000000000000000000000000000000000000000000000007bffffffffffffffffffffffffffffffffffffffffffffffffffffffff1916827bffffffffffffffffffffffffffffffffffffffffffffffffffffffff1916148061084357507f5b5e139f000000000000000000000000000000000000000000000000000000007bffffffffffffffffffffffffffffffffffffffffffffffffffffffff1916827bffffffffffffffffffffffffffffffffffffffffffffffffffffffff1916145b80610853575061085282611aa5565b5b9050919050565b600960089054906101000a900463ffffffff1681565b60606000805461087f90613a85565b80601f01602080910402602001604051908101604052809291908181526020018280546108ab90613a85565b80156108f85780601f106108cd576101008083540402835291602001916108f8565b820191906000526020600020905b8154815290600101906020018083116108db57829003601f168201915b5050505050905090565b600061090d82611b0f565b61094c576040517f08c379a0000000000000000000000000000000000000000000000000000000008152600401610943906135f0565b60405180910390fd5b6004600083815260200190815260200160002060009054906101000a900473ffffffffffffffffffffffffffffffffffffffff169050919050565b600b60049054906101000a900473ffffffffffffffffffffffffffffffffffffffff1673ffffffffffffffffffffffffffffffffffffffff163373ffffffffffffffffffffffffffffffffffffffff1614610a17576040517f08c379a0000000000000000000000000000000000000000000000000000000008152600401610a0e906136d0565b60405180910390fd5b80600b60006101000a81548163ffffffff021916908363ffffffff16021790555050565b6000610a4682610e49565b90508073ffffffffffffffffffffffffffffffffffffffff168373ffffffffffffffffffffffffffffffffffffffff161415610ab7576040517f08c379a0000000000000000000000000000000000000000000000000000000008152600401610aae90613670565b60405180910390fd5b8073ffffffffffffffffffffffffffffffffffffffff16610ad6611b7b565b73ffffffffffffffffffffffffffffffffffffffff161480610b055750610b0481610aff611b7b565b6117d0565b5b610b44576040517f08c379a0000000000000000000000000000000000000000000000000000000008152600401610b3b90613570565b60405180910390fd5b610b4e8383611b83565b505050565b60085481565b6009600c9054906101000a900463ffffffff1681565b610b80610b7a611b7b565b82611c3c565b610bbf576040517f08c379a0000000000000000000000000000000000000000000000000000000008152600401610bb6906136b0565b60405180910390fd5b610bca838383611d1a565b505050565b610bd7611b7b565b73ffffffffffffffffffffffffffffffffffffffff16610bf5611282565b73ffffffffffffffffffffffffffffffffffffffff1614610c4b576040517f08c379a0000000000000000000000000000000000000000000000000000000008152600401610c4290613610565b60405180910390fd5b80600960046101000a81548163ffffffff021916908363ffffffff16021790555050565b610c77611b7b565b73ffffffffffffffffffffffffffffffffffffffff16610c95611282565b73ffffffffffffffffffffffffffffffffffffffff1614610ceb576040517f08c379a0000000000000000000000000000000000000000000000000000000008152600401610ce290613610565b60405180910390fd5b60003373ffffffffffffffffffffffffffffffffffffffff1647604051610d1190613397565b60006040518083038185875af1925050503d8060008114610d4e576040519150601f19603f3d011682016040523d82523d6000602084013e610d53565b606091505b5050905080610d6157600080fd5b50565b610d7f83838360405180602001604052806000815250611690565b505050565b610d8c611b7b565b73ffffffffffffffffffffffffffffffffffffffff16610daa611282565b73ffffffffffffffffffffffffffffffffffffffff1614610e00576040517f08c379a0000000000000000000000000000000000000000000000000000000008152600401610df790613610565b60405180910390fd5b8060088190555050565b600960049054906101000a900463ffffffff1681565b600960009054906101000a900463ffffffff1681565b600b60189054906101000a900460ff1681565b6000806002600084815260200190815260200160002060009054906101000a900473ffffffffffffffffffffffffffffffffffffffff169050600073ffffffffffffffffffffffffffffffffffffffff168173ffffffffffffffffffffffffffffffffffffffff161415610ef2576040517f08c379a0000000000000000000000000000000000000000000000000000000008152600401610ee9906135b0565b60405180910390fd5b80915050919050565b610f03611b7b565b73ffffffffffffffffffffffffffffffffffffffff16610f21611282565b73ffffffffffffffffffffffffffffffffffffffff1614610f77576040517f08c379a0000000000000000000000000000000000000000000000000000000008152600401610f6e90613610565b60405180910390fd5b80600960106101000a81548160ff02191690831515021790555050565b60008073ffffffffffffffffffffffffffffffffffffffff168273ffffffffffffffffffffffffffffffffffffffff161415611005576040517f08c379a0000000000000000000000000000000000000000000000000000000008152600401610ffc90613590565b60405180910390fd5b600360008373ffffffffffffffffffffffffffffffffffffffff1673ffffffffffffffffffffffffffffffffffffffff168152602001908152602001600020549050919050565b611054611b7b565b73ffffffffffffffffffffffffffffffffffffffff16611072611282565b73ffffffffffffffffffffffffffffffffffffffff16146110c8576040517f08c379a00000000000000000000000000000000000000000000000000000000081526004016110bf90613610565b60405180910390fd5b6110d26000611f76565b565b6110dc611b7b565b73ffffffffffffffffffffffffffffffffffffffff166110fa611282565b73ffffffffffffffffffffffffffffffffffffffff1614611150576040517f08c379a000000000000000000000000000000000000000000000000000000000815260040161114790613610565b60405180910390fd5b60005b828290508163ffffffff16101561127d576009600c9054906101000a900463ffffffff1663ffffffff16600960089054906101000a900463ffffffff16600161119c91906138c6565b63ffffffff1611156111e3576040517f08c379a00000000000000000000000000000000000000000000000000000000081526004016111da90613530565b60405180910390fd5b61126a83838363ffffffff168181106111ff576111fe613c1c565b5b90506020020160208101906112149190612b42565b6009600881819054906101000a900463ffffffff1661123290613b31565b91906101000a81548163ffffffff021916908363ffffffff160217905563ffffffff166040518060200160405280600081525061203c565b808061127590613b31565b915050611153565b505050565b6000600660009054906101000a900473ffffffffffffffffffffffffffffffffffffffff16905090565b6060600180546112bb90613a85565b80601f01602080910402602001604051908101604052809291908181526020018280546112e790613a85565b80156113345780601f1061130957610100808354040283529160200191611334565b820191906000526020600020905b81548152906001019060200180831161131757829003601f168201915b5050505050905090565b611350611349611b7b565b8383612097565b5050565b61135c611b7b565b73ffffffffffffffffffffffffffffffffffffffff1661137a611282565b73ffffffffffffffffffffffffffffffffffffffff16146113d0576040517f08c379a00000000000000000000000000000000000000000000000000000000081526004016113c790613610565b60405180910390fd5b6001600b60186101000a81548160ff021916908315150217905550565b8060008163ffffffff1611611437576040517f08c379a000000000000000000000000000000000000000000000000000000000815260040161142e90613730565b60405180910390fd5b6001600960009054906101000a900463ffffffff1661145691906138c6565b63ffffffff168163ffffffff16106114a3576040517f08c379a000000000000000000000000000000000000000000000000000000000815260040161149a90613710565b60405180910390fd5b8063ffffffff166008546114b79190613931565b3410156114f9576040517f08c379a00000000000000000000000000000000000000000000000000000000081526004016114f0906136f0565b60405180910390fd5b60016009600c9054906101000a900463ffffffff1661151891906138c6565b63ffffffff1681600960089054906101000a900463ffffffff1661153c91906138c6565b63ffffffff1610611582576040517f08c379a000000000000000000000000000000000000000000000000000000000815260040161157990613650565b60405180910390fd5b600960049054906101000a900463ffffffff1663ffffffff168163ffffffff16600a60003373ffffffffffffffffffffffffffffffffffffffff1673ffffffffffffffffffffffffffffffffffffffff168152602001908152602001600020546115ec9190613870565b111561162d576040517f08c379a0000000000000000000000000000000000000000000000000000000008152600401611624906134d0565b60405180910390fd5b60011515600960109054906101000a900460ff16151514611683576040517f08c379a000000000000000000000000000000000000000000000000000000000815260040161167a90613690565b60405180910390fd5b61168c82612204565b5050565b6116a161169b611b7b565b83611c3c565b6116e0576040517f08c379a00000000000000000000000000000000000000000000000000000000081526004016116d7906136b0565b60405180910390fd5b6116ec848484846123b1565b50505050565b6060600960089054906101000a900463ffffffff1663ffffffff1682111561174f576040517f08c379a000000000000000000000000000000000000000000000000000000000815260040161174690613470565b60405180910390fd5b60001515600b60189054906101000a900460ff161515141561179d57600c6117768361240d565b604051602001611787929190613368565b60405160208183030381529060405290506117cb565b60076117a88361240d565b6040516020016117b9929190613368565b60405160208183030381529060405290505b919050565b6000600560008473ffffffffffffffffffffffffffffffffffffffff1673ffffffffffffffffffffffffffffffffffffffff16815260200190815260200160002060008373ffffffffffffffffffffffffffffffffffffffff1673ffffffffffffffffffffffffffffffffffffffff16815260200190815260200160002060009054906101000a900460ff16905092915050565b61186c611b7b565b73ffffffffffffffffffffffffffffffffffffffff1661188a611282565b73ffffffffffffffffffffffffffffffffffffffff16146118e0576040517f08c379a00000000000000000000000000000000000000000000000000000000081526004016118d790613610565b60405180910390fd5b600073ffffffffffffffffffffffffffffffffffffffff168173ffffffffffffffffffffffffffffffffffffffff161415611950576040517f08c379a000000000000000000000000000000000000000000000000000000000815260040161194790613490565b60405180910390fd5b61195981611f76565b50565b611964611b7b565b73ffffffffffffffffffffffffffffffffffffffff16611982611282565b73ffffffffffffffffffffffffffffffffffffffff16146119d8576040517f08c379a00000000000000000000000000000000000000000000000000000000081526004016119cf90613610565b60405180910390fd5b80600960006101000a81548163ffffffff021916908363ffffffff16021790555050565b600960109054906101000a900460ff1681565b611a17611b7b565b73ffffffffffffffffffffffffffffffffffffffff16611a35611282565b73ffffffffffffffffffffffffffffffffffffffff1614611a8b576040517f08c379a0000000000000000000000000000000000000000000000000000000008152600401611a8290613610565b60405180910390fd5b80600c9080519060200190611aa19291906128eb565b5050565b60007f01ffc9a7000000000000000000000000000000000000000000000000000000007bffffffffffffffffffffffffffffffffffffffffffffffffffffffff1916827bffffffffffffffffffffffffffffffffffffffffffffffffffffffff1916149050919050565b60008073ffffffffffffffffffffffffffffffffffffffff166002600084815260200190815260200160002060009054906101000a900473ffffffffffffffffffffffffffffffffffffffff1673ffffffffffffffffffffffffffffffffffffffff1614159050919050565b600033905090565b816004600083815260200190815260200160002060006101000a81548173ffffffffffffffffffffffffffffffffffffffff021916908373ffffffffffffffffffffffffffffffffffffffff160217905550808273ffffffffffffffffffffffffffffffffffffffff16611bf683610e49565b73ffffffffffffffffffffffffffffffffffffffff167f8c5be1e5ebec7d5bd14f71427d1e84f3dd0314c0f7b2291e5b200ac8c7c3b92560405160405180910390a45050565b6000611c4782611b0f565b611c86576040517f08c379a0000000000000000000000000000000000000000000000000000000008152600401611c7d90613550565b60405180910390fd5b6000611c9183610e49565b90508073ffffffffffffffffffffffffffffffffffffffff168473ffffffffffffffffffffffffffffffffffffffff161480611d0057508373ffffffffffffffffffffffffffffffffffffffff16611ce884610902565b73ffffffffffffffffffffffffffffffffffffffff16145b80611d115750611d1081856117d0565b5b91505092915050565b8273ffffffffffffffffffffffffffffffffffffffff16611d3a82610e49565b73ffffffffffffffffffffffffffffffffffffffff1614611d90576040517f08c379a0000000000000000000000000000000000000000000000000000000008152600401611d8790613630565b60405180910390fd5b600073ffffffffffffffffffffffffffffffffffffffff168273ffffffffffffffffffffffffffffffffffffffff161415611e00576040517f08c379a0000000000000000000000000000000000000000000000000000000008152600401611df7906134f0565b60405180910390fd5b611e0b83838361256e565b611e16600082611b83565b6001600360008573ffffffffffffffffffffffffffffffffffffffff1673ffffffffffffffffffffffffffffffffffffffff1681526020019081526020016000206000828254611e66919061398b565b925050819055506001600360008473ffffffffffffffffffffffffffffffffffffffff1673ffffffffffffffffffffffffffffffffffffffff1681526020019081526020016000206000828254611ebd9190613870565b92505081905550816002600083815260200190815260200160002060006101000a81548173ffffffffffffffffffffffffffffffffffffffff021916908373ffffffffffffffffffffffffffffffffffffffff160217905550808273ffffffffffffffffffffffffffffffffffffffff168473ffffffffffffffffffffffffffffffffffffffff167fddf252ad1be2c89b69c2b068fc378daa952ba7f163c4a11628f55a4df523b3ef60405160405180910390a4505050565b6000600660009054906101000a900473ffffffffffffffffffffffffffffffffffffffff16905081600660006101000a81548173ffffffffffffffffffffffffffffffffffffffff021916908373ffffffffffffffffffffffffffffffffffffffff1602179055508173ffffffffffffffffffffffffffffffffffffffff168173ffffffffffffffffffffffffffffffffffffffff167f8be0079c531659141344cd1fd0a4f28419497f9722a3daafe3b4186f6b6457e060405160405180910390a35050565b6120468383612573565b6120536000848484612741565b612092576040517f08c379a000000000000000000000000000000000000000000000000000000000815260040161208990613450565b60405180910390fd5b505050565b8173ffffffffffffffffffffffffffffffffffffffff168373ffffffffffffffffffffffffffffffffffffffff161415612106576040517f08c379a00000000000000000000000000000000000000000000000000000000081526004016120fd90613510565b60405180910390fd5b80600560008573ffffffffffffffffffffffffffffffffffffffff1673ffffffffffffffffffffffffffffffffffffffff16815260200190815260200160002060008473ffffffffffffffffffffffffffffffffffffffff1673ffffffffffffffffffffffffffffffffffffffff16815260200190815260200160002060006101000a81548160ff0219169083151502179055508173ffffffffffffffffffffffffffffffffffffffff168373ffffffffffffffffffffffffffffffffffffffff167f17307eab39ab6107e8899845ad3d59bd9653f200f220920489ca2b5937696c31836040516121f79190613413565b60405180910390a3505050565b60005b8163ffffffff168163ffffffff16101561228857612275336009600881819054906101000a900463ffffffff1661223d90613b31565b91906101000a81548163ffffffff021916908363ffffffff160217905563ffffffff166040518060200160405280600081525061203c565b808061228090613b31565b915050612207565b508063ffffffff16600a60003373ffffffffffffffffffffffffffffffffffffffff1673ffffffffffffffffffffffffffffffffffffffff16815260200190815260200160002060008282546122de9190613870565b925050819055506000600b60049054906101000a900473ffffffffffffffffffffffffffffffffffffffff1673ffffffffffffffffffffffffffffffffffffffff166103e8600b60009054906101000a900463ffffffff1663ffffffff16346123479190613931565b6123519190613900565b60405161235d90613397565b60006040518083038185875af1925050503d806000811461239a576040519150601f19603f3d011682016040523d82523d6000602084013e61239f565b606091505b50509050806123ad57600080fd5b5050565b6123bc848484611d1a565b6123c884848484612741565b612407576040517f08c379a00000000000000000000000000000000000000000000000000000000081526004016123fe90613450565b60405180910390fd5b50505050565b60606000821415612455576040518060400160405280600181526020017f30000000000000000000000000000000000000000000000000000000000000008152509050612569565b600082905060005b6000821461248757808061247090613ae8565b915050600a826124809190613900565b915061245d565b60008167ffffffffffffffff8111156124a3576124a2613c4b565b5b6040519080825280601f01601f1916602001820160405280156124d55781602001600182028036833780820191505090505b5090505b60008514612562576001826124ee919061398b565b9150600a856124fd9190613b5e565b60306125099190613870565b60f81b81838151811061251f5761251e613c1c565b5b60200101907effffffffffffffffffffffffffffffffffffffffffffffffffffffffffffff1916908160001a905350600a8561255b9190613900565b94506124d9565b8093505050505b919050565b505050565b600073ffffffffffffffffffffffffffffffffffffffff168273ffffffffffffffffffffffffffffffffffffffff1614156125e3576040517f08c379a00000000000000000000000000000000000000000000000000000000081526004016125da906135d0565b60405180910390fd5b6125ec81611b0f565b1561262c576040517f08c379a0000000000000000000000000000000000000000000000000000000008152600401612623906134b0565b60405180910390fd5b6126386000838361256e565b6001600360008473ffffffffffffffffffffffffffffffffffffffff1673ffffffffffffffffffffffffffffffffffffffff16815260200190815260200160002060008282546126889190613870565b92505081905550816002600083815260200190815260200160002060006101000a81548173ffffffffffffffffffffffffffffffffffffffff021916908373ffffffffffffffffffffffffffffffffffffffff160217905550808273ffffffffffffffffffffffffffffffffffffffff16600073ffffffffffffffffffffffffffffffffffffffff167fddf252ad1be2c89b69c2b068fc378daa952ba7f163c4a11628f55a4df523b3ef60405160405180910390a45050565b60006127628473ffffffffffffffffffffffffffffffffffffffff166128d8565b156128cb578373ffffffffffffffffffffffffffffffffffffffff1663150b7a0261278b611b7b565b8786866040518563ffffffff1660e01b81526004016127ad94939291906133c7565b602060405180830381600087803b1580156127c757600080fd5b505af19250505080156127f857506040513d601f19601f820116820180604052508101906127f59190612dac565b60015b61287b573d8060008114612828576040519150601f19603f3d011682016040523d82523d6000602084013e61282d565b606091505b50600081511415612873576040517f08c379a000000000000000000000000000000000000000000000000000000000815260040161286a90613450565b60405180910390fd5b805181602001fd5b63150b7a0260e01b7bffffffffffffffffffffffffffffffffffffffffffffffffffffffff1916817bffffffffffffffffffffffffffffffffffffffffffffffffffffffff1916149150506128d0565b600190505b949350505050565b600080823b905060008111915050919050565b8280546128f790613a85565b90600052602060002090601f0160209004810192826129195760008555612960565b82601f1061293257805160ff1916838001178555612960565b82800160010185558215612960579182015b8281111561295f578251825591602001919060010190612944565b5b50905061296d9190612971565b5090565b5b8082111561298a576000816000905550600101612972565b5090565b60006129a161299c846137ab565b613786565b9050828152602081018484840111156129bd576129bc613c89565b5b6129c8848285613a43565b509392505050565b60006129e36129de846137dc565b613786565b9050828152602081018484840111156129ff576129fe613c89565b5b612a0a848285613a43565b509392505050565b600081359050612a218161424f565b92915050565b60008083601f840112612a3d57612a3c613c7f565b5b8235905067ffffffffffffffff811115612a5a57612a59613c7a565b5b602083019150836020820283011115612a7657612a75613c84565b5b9250929050565b600081359050612a8c81614266565b92915050565b600081359050612aa18161427d565b92915050565b600081519050612ab68161427d565b92915050565b600082601f830112612ad157612ad0613c7f565b5b8135612ae184826020860161298e565b91505092915050565b600082601f830112612aff57612afe613c7f565b5b8135612b0f8482602086016129d0565b91505092915050565b600081359050612b2781614294565b92915050565b600081359050612b3c816142ab565b92915050565b600060208284031215612b5857612b57613c93565b5b6000612b6684828501612a12565b91505092915050565b60008060408385031215612b8657612b85613c93565b5b6000612b9485828601612a12565b9250506020612ba585828601612a12565b9150509250929050565b600080600060608486031215612bc857612bc7613c93565b5b6000612bd686828701612a12565b9350506020612be786828701612a12565b9250506040612bf886828701612b18565b9150509250925092565b60008060008060808587031215612c1c57612c1b613c93565b5b6000612c2a87828801612a12565b9450506020612c3b87828801612a12565b9350506040612c4c87828801612b18565b925050606085013567ffffffffffffffff811115612c6d57612c6c613c8e565b5b612c7987828801612abc565b91505092959194509250565b60008060408385031215612c9c57612c9b613c93565b5b6000612caa85828601612a12565b9250506020612cbb85828601612a7d565b9150509250929050565b60008060408385031215612cdc57612cdb613c93565b5b6000612cea85828601612a12565b9250506020612cfb85828601612b18565b9150509250929050565b60008060208385031215612d1c57612d1b613c93565b5b600083013567ffffffffffffffff811115612d3a57612d39613c8e565b5b612d4685828601612a27565b92509250509250929050565b600060208284031215612d6857612d67613c93565b5b6000612d7684828501612a7d565b91505092915050565b600060208284031215612d9557612d94613c93565b5b6000612da384828501612a92565b91505092915050565b600060208284031215612dc257612dc1613c93565b5b6000612dd084828501612aa7565b91505092915050565b600060208284031215612def57612dee613c93565b5b600082013567ffffffffffffffff811115612e0d57612e0c613c8e565b5b612e1984828501612aea565b91505092915050565b600060208284031215612e3857612e37613c93565b5b6000612e4684828501612b18565b91505092915050565b600060208284031215612e6557612e64613c93565b5b6000612e7384828501612b2d565b91505092915050565b612e85816139bf565b82525050565b612e94816139d1565b82525050565b6000612ea582613822565b612eaf8185613838565b9350612ebf818560208601613a52565b612ec881613c98565b840191505092915050565b6000612ede8261382d565b612ee88185613854565b9350612ef8818560208601613a52565b612f0181613c98565b840191505092915050565b6000612f178261382d565b612f218185613865565b9350612f31818560208601613a52565b80840191505092915050565b60008154612f4a81613a85565b612f548186613865565b94506001821660008114612f6f5760018114612f8057612fb3565b60ff19831686528186019350612fb3565b612f898561380d565b60005b83811015612fab57815481890152600182019150602081019050612f8c565b838801955050505b50505092915050565b6000612fc9603283613854565b9150612fd482613ca9565b604082019050919050565b6000612fec600e83613854565b9150612ff782613cf8565b602082019050919050565b600061300f602683613854565b915061301a82613d21565b604082019050919050565b6000613032601c83613854565b915061303d82613d70565b602082019050919050565b6000613055601683613854565b915061306082613d99565b602082019050919050565b6000613078602483613854565b915061308382613dc2565b604082019050919050565b600061309b601983613854565b91506130a682613e11565b602082019050919050565b60006130be600d83613854565b91506130c982613e3a565b602082019050919050565b60006130e1602c83613854565b91506130ec82613e63565b604082019050919050565b6000613104603883613854565b915061310f82613eb2565b604082019050919050565b6000613127602a83613854565b915061313282613f01565b604082019050919050565b600061314a602983613854565b915061315582613f50565b604082019050919050565b600061316d602083613854565b915061317882613f9f565b602082019050919050565b6000613190602c83613854565b915061319b82613fc8565b604082019050919050565b60006131b3600583613865565b91506131be82614017565b600582019050919050565b60006131d6602083613854565b91506131e182614040565b602082019050919050565b60006131f9602983613854565b915061320482614069565b604082019050919050565b600061321c600d83613854565b9150613227826140b8565b602082019050919050565b600061323f602183613854565b915061324a826140e1565b604082019050919050565b6000613262600d83613854565b915061326d82614130565b602082019050919050565b6000613285600083613849565b915061329082614159565b600082019050919050565b60006132a8603183613854565b91506132b38261415c565b604082019050919050565b60006132cb601183613854565b91506132d6826141ab565b602082019050919050565b60006132ee601083613854565b91506132f9826141d4565b602082019050919050565b6000613311601183613854565b915061331c826141fd565b602082019050919050565b6000613334601283613854565b915061333f82614226565b602082019050919050565b61335381613a29565b82525050565b61336281613a33565b82525050565b60006133748285612f3d565b91506133808284612f0c565b915061338b826131a6565b91508190509392505050565b60006133a282613278565b9150819050919050565b60006020820190506133c16000830184612e7c565b92915050565b60006080820190506133dc6000830187612e7c565b6133e96020830186612e7c565b6133f6604083018561334a565b81810360608301526134088184612e9a565b905095945050505050565b60006020820190506134286000830184612e8b565b92915050565b600060208201905081810360008301526134488184612ed3565b905092915050565b6000602082019050818103600083015261346981612fbc565b9050919050565b6000602082019050818103600083015261348981612fdf565b9050919050565b600060208201905081810360008301526134a981613002565b9050919050565b600060208201905081810360008301526134c981613025565b9050919050565b600060208201905081810360008301526134e981613048565b9050919050565b600060208201905081810360008301526135098161306b565b9050919050565b600060208201905081810360008301526135298161308e565b9050919050565b60006020820190508181036000830152613549816130b1565b9050919050565b60006020820190508181036000830152613569816130d4565b9050919050565b60006020820190508181036000830152613589816130f7565b9050919050565b600060208201905081810360008301526135a98161311a565b9050919050565b600060208201905081810360008301526135c98161313d565b9050919050565b600060208201905081810360008301526135e981613160565b9050919050565b6000602082019050818103600083015261360981613183565b9050919050565b60006020820190508181036000830152613629816131c9565b9050919050565b60006020820190508181036000830152613649816131ec565b9050919050565b600060208201905081810360008301526136698161320f565b9050919050565b6000602082019050818103600083015261368981613232565b9050919050565b600060208201905081810360008301526136a981613255565b9050919050565b600060208201905081810360008301526136c98161329b565b9050919050565b600060208201905081810360008301526136e9816132be565b9050919050565b60006020820190508181036000830152613709816132e1565b9050919050565b6000602082019050818103600083015261372981613304565b9050919050565b6000602082019050818103600083015261374981613327565b9050919050565b6000602082019050613765600083018461334a565b92915050565b60006020820190506137806000830184613359565b92915050565b60006137906137a1565b905061379c8282613ab7565b919050565b6000604051905090565b600067ffffffffffffffff8211156137c6576137c5613c4b565b5b6137cf82613c98565b9050602081019050919050565b600067ffffffffffffffff8211156137f7576137f6613c4b565b5b61380082613c98565b9050602081019050919050565b60008190508160005260206000209050919050565b600081519050919050565b600081519050919050565b600082825260208201905092915050565b600081905092915050565b600082825260208201905092915050565b600081905092915050565b600061387b82613a29565b915061388683613a29565b9250827fffffffffffffffffffffffffffffffffffffffffffffffffffffffffffffffff038211156138bb576138ba613b8f565b5b828201905092915050565b60006138d182613a33565b91506138dc83613a33565b92508263ffffffff038211156138f5576138f4613b8f565b5b828201905092915050565b600061390b82613a29565b915061391683613a29565b92508261392657613925613bbe565b5b828204905092915050565b600061393c82613a29565b915061394783613a29565b9250817fffffffffffffffffffffffffffffffffffffffffffffffffffffffffffffffff04831182151516156139805761397f613b8f565b5b828202905092915050565b600061399682613a29565b91506139a183613a29565b9250828210156139b4576139b3613b8f565b5b828203905092915050565b60006139ca82613a09565b9050919050565b60008115159050919050565b60007fffffffff0000000000000000000000000000000000000000000000000000000082169050919050565b600073ffffffffffffffffffffffffffffffffffffffff82169050919050565b6000819050919050565b600063ffffffff82169050919050565b82818337600083830152505050565b60005b83811015613a70578082015181840152602081019050613a55565b83811115613a7f576000848401525b50505050565b60006002820490506001821680613a9d57607f821691505b60208210811415613ab157613ab0613bed565b5b50919050565b613ac082613c98565b810181811067ffffffffffffffff82111715613adf57613ade613c4b565b5b80604052505050565b6000613af382613a29565b91507fffffffffffffffffffffffffffffffffffffffffffffffffffffffffffffffff821415613b2657613b25613b8f565b5b600182019050919050565b6000613b3c82613a33565b915063ffffffff821415613b5357613b52613b8f565b5b600182019050919050565b6000613b6982613a29565b9150613b7483613a29565b925082613b8457613b83613bbe565b5b828206905092915050565b7f4e487b7100000000000000000000000000000000000000000000000000000000600052601160045260246000fd5b7f4e487b7100000000000000000000000000000000000000000000000000000000600052601260045260246000fd5b7f4e487b7100000000000000000000000000000000000000000000000000000000600052602260045260246000fd5b7f4e487b7100000000000000000000000000000000000000000000000000000000600052603260045260246000fd5b7f4e487b7100000000000000000000000000000000000000000000000000000000600052604160045260246000fd5b600080fd5b600080fd5b600080fd5b600080fd5b600080fd5b600080fd5b6000601f19601f8301169050919050565b7f4552433732313a207472616e7366657220746f206e6f6e20455243373231526560008201527f63656976657220696d706c656d656e7465720000000000000000000000000000602082015250565b7f4e6f74206d696e74656420796574000000000000000000000000000000000000600082015250565b7f4f776e61626c653a206e6577206f776e657220697320746865207a65726f206160008201527f6464726573730000000000000000000000000000000000000000000000000000602082015250565b7f4552433732313a20746f6b656e20616c7265616479206d696e74656400000000600082015250565b7f4d617820746f74616c206d696e74207265616368656400000000000000000000600082015250565b7f4552433732313a207472616e7366657220746f20746865207a65726f2061646460008201527f7265737300000000000000000000000000000000000000000000000000000000602082015250565b7f4552433732313a20617070726f766520746f2063616c6c657200000000000000600082015250565b7f4c696d6974207265616368656400000000000000000000000000000000000000600082015250565b7f4552433732313a206f70657261746f7220717565727920666f72206e6f6e657860008201527f697374656e7420746f6b656e0000000000000000000000000000000000000000602082015250565b7f4552433732313a20617070726f76652063616c6c6572206973206e6f74206f7760008201527f6e6572206e6f7220617070726f76656420666f7220616c6c0000000000000000602082015250565b7f4552433732313a2062616c616e636520717565727920666f7220746865207a6560008201527f726f206164647265737300000000000000000000000000000000000000000000602082015250565b7f4552433732313a206f776e657220717565727920666f72206e6f6e657869737460008201527f656e7420746f6b656e0000000000000000000000000000000000000000000000602082015250565b7f4552433732313a206d696e7420746f20746865207a65726f2061646472657373600082015250565b7f4552433732313a20617070726f76656420717565727920666f72206e6f6e657860008201527f697374656e7420746f6b656e0000000000000000000000000000000000000000602082015250565b7f2e6a736f6e000000000000000000000000000000000000000000000000000000600082015250565b7f4f776e61626c653a2063616c6c6572206973206e6f7420746865206f776e6572600082015250565b7f4552433732313a207472616e73666572206f6620746f6b656e2074686174206960008201527f73206e6f74206f776e0000000000000000000000000000000000000000000000602082015250565b7f4d696e7420736f6c64206f757400000000000000000000000000000000000000600082015250565b7f4552433732313a20617070726f76616c20746f2063757272656e74206f776e6560008201527f7200000000000000000000000000000000000000000000000000000000000000602082015250565b7f4d696e74206e6f74206f70656e00000000000000000000000000000000000000600082015250565b50565b7f4552433732313a207472616e736665722063616c6c6572206973206e6f74206f60008201527f776e6572206e6f7220617070726f766564000000000000000000000000000000602082015250565b7f496e636f72726563742041646472657373000000000000000000000000000000600082015250565b7f4e6f7420656e6f7567682066756e642e00000000000000000000000000000000600082015250565b7f4d6178206d696e7420726561636865642e000000000000000000000000000000600082015250565b7f4d696e74206174206c65617374206f6e652e0000000000000000000000000000600082015250565b614258816139bf565b811461426357600080fd5b50565b61426f816139d1565b811461427a57600080fd5b50565b614286816139dd565b811461429157600080fd5b50565b61429d81613a29565b81146142a857600080fd5b50565b6142b481613a33565b81146142bf57600080fd5b5056fea2646970667358221220a5c5b76a87d9292ff2ddd6e7316de75e05287772e2432ce33703f82ade2a3ab364736f6c63430008070033",
  "immutableReferences": {},
  "source": "// Sources flattened with hardhat v2.8.0 https://hardhat.org\n\n// File @openzeppelin/contracts/utils/introspection/IERC165.sol@v4.4.1\n\n// OpenZeppelin Contracts v4.4.1 (utils/introspection/IERC165.sol)\n\npragma solidity ^0.8.0;\n\n/**\n * @dev Interface of the ERC165 standard, as defined in the\n * https://eips.ethereum.org/EIPS/eip-165[EIP].\n *\n * Implementers can declare support of contract interfaces, which can then be\n * queried by others ({ERC165Checker}).\n *\n * For an implementation, see {ERC165}.\n */\ninterface IERC165 {\n    /**\n     * @dev Returns true if this contract implements the interface defined by\n     * `interfaceId`. See the corresponding\n     * https://eips.ethereum.org/EIPS/eip-165#how-interfaces-are-identified[EIP section]\n     * to learn more about how these ids are created.\n     *\n     * This function call must use less than 30 000 gas.\n     */\n    function supportsInterface(bytes4 interfaceId) external view returns (bool);\n}\n\n\n// File @openzeppelin/contracts/token/ERC721/IERC721.sol@v4.4.1\n\n// OpenZeppelin Contracts v4.4.1 (token/ERC721/IERC721.sol)\n\npragma solidity ^0.8.0;\n\n/**\n * @dev Required interface of an ERC721 compliant contract.\n */\ninterface IERC721 is IERC165 {\n    /**\n     * @dev Emitted when `tokenId` token is transferred from `from` to `to`.\n     */\n    event Transfer(address indexed from, address indexed to, uint256 indexed tokenId);\n\n    /**\n     * @dev Emitted when `owner` enables `approved` to manage the `tokenId` token.\n     */\n    event Approval(address indexed owner, address indexed approved, uint256 indexed tokenId);\n\n    /**\n     * @dev Emitted when `owner` enables or disables (`approved`) `operator` to manage all of its assets.\n     */\n    event ApprovalForAll(address indexed owner, address indexed operator, bool approved);\n\n    /**\n     * @dev Returns the number of tokens in ``owner``'s account.\n     */\n    function balanceOf(address owner) external view returns (uint256 balance);\n\n    /**\n     * @dev Returns the owner of the `tokenId` token.\n     *\n     * Requirements:\n     *\n     * - `tokenId` must exist.\n     */\n    function ownerOf(uint256 tokenId) external view returns (address owner);\n\n    /**\n     * @dev Safely transfers `tokenId` token from `from` to `to`, checking first that contract recipients\n     * are aware of the ERC721 protocol to prevent tokens from being forever locked.\n     *\n     * Requirements:\n     *\n     * - `from` cannot be the zero address.\n     * - `to` cannot be the zero address.\n     * - `tokenId` token must exist and be owned by `from`.\n     * - If the caller is not `from`, it must be have been allowed to move this token by either {approve} or {setApprovalForAll}.\n     * - If `to` refers to a smart contract, it must implement {IERC721Receiver-onERC721Received}, which is called upon a safe transfer.\n     *\n     * Emits a {Transfer} event.\n     */\n    function safeTransferFrom(\n        address from,\n        address to,\n        uint256 tokenId\n    ) external;\n\n    /**\n     * @dev Transfers `tokenId` token from `from` to `to`.\n     *\n     * WARNING: Usage of this method is discouraged, use {safeTransferFrom} whenever possible.\n     *\n     * Requirements:\n     *\n     * - `from` cannot be the zero address.\n     * - `to` cannot be the zero address.\n     * - `tokenId` token must be owned by `from`.\n     * - If the caller is not `from`, it must be approved to move this token by either {approve} or {setApprovalForAll}.\n     *\n     * Emits a {Transfer} event.\n     */\n    function transferFrom(\n        address from,\n        address to,\n        uint256 tokenId\n    ) external;\n\n    /**\n     * @dev Gives permission to `to` to transfer `tokenId` token to another account.\n     * The approval is cleared when the token is transferred.\n     *\n     * Only a single account can be approved at a time, so approving the zero address clears previous approvals.\n     *\n     * Requirements:\n     *\n     * - The caller must own the token or be an approved operator.\n     * - `tokenId` must exist.\n     *\n     * Emits an {Approval} event.\n     */\n    function approve(address to, uint256 tokenId) external;\n\n    /**\n     * @dev Returns the account approved for `tokenId` token.\n     *\n     * Requirements:\n     *\n     * - `tokenId` must exist.\n     */\n    function getApproved(uint256 tokenId) external view returns (address operator);\n\n    /**\n     * @dev Approve or remove `operator` as an operator for the caller.\n     * Operators can call {transferFrom} or {safeTransferFrom} for any token owned by the caller.\n     *\n     * Requirements:\n     *\n     * - The `operator` cannot be the caller.\n     *\n     * Emits an {ApprovalForAll} event.\n     */\n    function setApprovalForAll(address operator, bool _approved) external;\n\n    /**\n     * @dev Returns if the `operator` is allowed to manage all of the assets of `owner`.\n     *\n     * See {setApprovalForAll}\n     */\n    function isApprovedForAll(address owner, address operator) external view returns (bool);\n\n    /**\n     * @dev Safely transfers `tokenId` token from `from` to `to`.\n     *\n     * Requirements:\n     *\n     * - `from` cannot be the zero address.\n     * - `to` cannot be the zero address.\n     * - `tokenId` token must exist and be owned by `from`.\n     * - If the caller is not `from`, it must be approved to move this token by either {approve} or {setApprovalForAll}.\n     * - If `to` refers to a smart contract, it must implement {IERC721Receiver-onERC721Received}, which is called upon a safe transfer.\n     *\n     * Emits a {Transfer} event.\n     */\n    function safeTransferFrom(\n        address from,\n        address to,\n        uint256 tokenId,\n        bytes calldata data\n    ) external;\n}\n\n\n// File @openzeppelin/contracts/token/ERC721/IERC721Receiver.sol@v4.4.1\n\n// OpenZeppelin Contracts v4.4.1 (token/ERC721/IERC721Receiver.sol)\n\npragma solidity ^0.8.0;\n\n/**\n * @title ERC721 token receiver interface\n * @dev Interface for any contract that wants to support safeTransfers\n * from ERC721 asset contracts.\n */\ninterface IERC721Receiver {\n    /**\n     * @dev Whenever an {IERC721} `tokenId` token is transferred to this contract via {IERC721-safeTransferFrom}\n     * by `operator` from `from`, this function is called.\n     *\n     * It must return its Solidity selector to confirm the token transfer.\n     * If any other value is returned or the interface is not implemented by the recipient, the transfer will be reverted.\n     *\n     * The selector can be obtained in Solidity with `IERC721.onERC721Received.selector`.\n     */\n    function onERC721Received(\n        address operator,\n        address from,\n        uint256 tokenId,\n        bytes calldata data\n    ) external returns (bytes4);\n}\n\n\n// File @openzeppelin/contracts/token/ERC721/extensions/IERC721Metadata.sol@v4.4.1\n\n// OpenZeppelin Contracts v4.4.1 (token/ERC721/extensions/IERC721Metadata.sol)\n\npragma solidity ^0.8.0;\n\n/**\n * @title ERC-721 Non-Fungible Token Standard, optional metadata extension\n * @dev See https://eips.ethereum.org/EIPS/eip-721\n */\ninterface IERC721Metadata is IERC721 {\n    /**\n     * @dev Returns the token collection name.\n     */\n    function name() external view returns (string memory);\n\n    /**\n     * @dev Returns the token collection symbol.\n     */\n    function symbol() external view returns (string memory);\n\n    /**\n     * @dev Returns the Uniform Resource Identifier (URI) for `tokenId` token.\n     */\n    function tokenURI(uint256 tokenId) external view returns (string memory);\n}\n\n\n// File @openzeppelin/contracts/utils/Address.sol@v4.4.1\n\n// OpenZeppelin Contracts v4.4.1 (utils/Address.sol)\n\npragma solidity ^0.8.0;\n\n/**\n * @dev Collection of functions related to the address type\n */\nlibrary Address {\n    /**\n     * @dev Returns true if `account` is a contract.\n     *\n     * [IMPORTANT]\n     * ====\n     * It is unsafe to assume that an address for which this function returns\n     * false is an externally-owned account (EOA) and not a contract.\n     *\n     * Among others, `isContract` will return false for the following\n     * types of addresses:\n     *\n     *  - an externally-owned account\n     *  - a contract in construction\n     *  - an address where a contract will be created\n     *  - an address where a contract lived, but was destroyed\n     * ====\n     */\n    function isContract(address account) internal view returns (bool) {\n        // This method relies on extcodesize, which returns 0 for contracts in\n        // construction, since the code is only stored at the end of the\n        // constructor execution.\n\n        uint256 size;\n        assembly {\n            size := extcodesize(account)\n        }\n        return size > 0;\n    }\n\n    /**\n     * @dev Replacement for Solidity's `transfer`: sends `amount` wei to\n     * `recipient`, forwarding all available gas and reverting on errors.\n     *\n     * https://eips.ethereum.org/EIPS/eip-1884[EIP1884] increases the gas cost\n     * of certain opcodes, possibly making contracts go over the 2300 gas limit\n     * imposed by `transfer`, making them unable to receive funds via\n     * `transfer`. {sendValue} removes this limitation.\n     *\n     * https://diligence.consensys.net/posts/2019/09/stop-using-soliditys-transfer-now/[Learn more].\n     *\n     * IMPORTANT: because control is transferred to `recipient`, care must be\n     * taken to not create reentrancy vulnerabilities. Consider using\n     * {ReentrancyGuard} or the\n     * https://solidity.readthedocs.io/en/v0.5.11/security-considerations.html#use-the-checks-effects-interactions-pattern[checks-effects-interactions pattern].\n     */\n    function sendValue(address payable recipient, uint256 amount) internal {\n        require(address(this).balance >= amount, \"Address: insufficient balance\");\n\n        (bool success, ) = recipient.call{value: amount}(\"\");\n        require(success, \"Address: unable to send value, recipient may have reverted\");\n    }\n\n    /**\n     * @dev Performs a Solidity function call using a low level `call`. A\n     * plain `call` is an unsafe replacement for a function call: use this\n     * function instead.\n     *\n     * If `target` reverts with a revert reason, it is bubbled up by this\n     * function (like regular Solidity function calls).\n     *\n     * Returns the raw returned data. To convert to the expected return value,\n     * use https://solidity.readthedocs.io/en/latest/units-and-global-variables.html?highlight=abi.decode#abi-encoding-and-decoding-functions[`abi.decode`].\n     *\n     * Requirements:\n     *\n     * - `target` must be a contract.\n     * - calling `target` with `data` must not revert.\n     *\n     * _Available since v3.1._\n     */\n    function functionCall(address target, bytes memory data) internal returns (bytes memory) {\n        return functionCall(target, data, \"Address: low-level call failed\");\n    }\n\n    /**\n     * @dev Same as {xref-Address-functionCall-address-bytes-}[`functionCall`], but with\n     * `errorMessage` as a fallback revert reason when `target` reverts.\n     *\n     * _Available since v3.1._\n     */\n    function functionCall(\n        address target,\n        bytes memory data,\n        string memory errorMessage\n    ) internal returns (bytes memory) {\n        return functionCallWithValue(target, data, 0, errorMessage);\n    }\n\n    /**\n     * @dev Same as {xref-Address-functionCall-address-bytes-}[`functionCall`],\n     * but also transferring `value` wei to `target`.\n     *\n     * Requirements:\n     *\n     * - the calling contract must have an ETH balance of at least `value`.\n     * - the called Solidity function must be `payable`.\n     *\n     * _Available since v3.1._\n     */\n    function functionCallWithValue(\n        address target,\n        bytes memory data,\n        uint256 value\n    ) internal returns (bytes memory) {\n        return functionCallWithValue(target, data, value, \"Address: low-level call with value failed\");\n    }\n\n    /**\n     * @dev Same as {xref-Address-functionCallWithValue-address-bytes-uint256-}[`functionCallWithValue`], but\n     * with `errorMessage` as a fallback revert reason when `target` reverts.\n     *\n     * _Available since v3.1._\n     */\n    function functionCallWithValue(\n        address target,\n        bytes memory data,\n        uint256 value,\n        string memory errorMessage\n    ) internal returns (bytes memory) {\n        require(address(this).balance >= value, \"Address: insufficient balance for call\");\n        require(isContract(target), \"Address: call to non-contract\");\n\n        (bool success, bytes memory returndata) = target.call{value: value}(data);\n        return verifyCallResult(success, returndata, errorMessage);\n    }\n\n    /**\n     * @dev Same as {xref-Address-functionCall-address-bytes-}[`functionCall`],\n     * but performing a static call.\n     *\n     * _Available since v3.3._\n     */\n    function functionStaticCall(address target, bytes memory data) internal view returns (bytes memory) {\n        return functionStaticCall(target, data, \"Address: low-level static call failed\");\n    }\n\n    /**\n     * @dev Same as {xref-Address-functionCall-address-bytes-string-}[`functionCall`],\n     * but performing a static call.\n     *\n     * _Available since v3.3._\n     */\n    function functionStaticCall(\n        address target,\n        bytes memory data,\n        string memory errorMessage\n    ) internal view returns (bytes memory) {\n        require(isContract(target), \"Address: static call to non-contract\");\n\n        (bool success, bytes memory returndata) = target.staticcall(data);\n        return verifyCallResult(success, returndata, errorMessage);\n    }\n\n    /**\n     * @dev Same as {xref-Address-functionCall-address-bytes-}[`functionCall`],\n     * but performing a delegate call.\n     *\n     * _Available since v3.4._\n     */\n    function functionDelegateCall(address target, bytes memory data) internal returns (bytes memory) {\n        return functionDelegateCall(target, data, \"Address: low-level delegate call failed\");\n    }\n\n    /**\n     * @dev Same as {xref-Address-functionCall-address-bytes-string-}[`functionCall`],\n     * but performing a delegate call.\n     *\n     * _Available since v3.4._\n     */\n    function functionDelegateCall(\n        address target,\n        bytes memory data,\n        string memory errorMessage\n    ) internal returns (bytes memory) {\n        require(isContract(target), \"Address: delegate call to non-contract\");\n\n        (bool success, bytes memory returndata) = target.delegatecall(data);\n        return verifyCallResult(success, returndata, errorMessage);\n    }\n\n    /**\n     * @dev Tool to verifies that a low level call was successful, and revert if it wasn't, either by bubbling the\n     * revert reason using the provided one.\n     *\n     * _Available since v4.3._\n     */\n    function verifyCallResult(\n        bool success,\n        bytes memory returndata,\n        string memory errorMessage\n    ) internal pure returns (bytes memory) {\n        if (success) {\n            return returndata;\n        } else {\n            // Look for revert reason and bubble it up if present\n            if (returndata.length > 0) {\n                // The easiest way to bubble the revert reason is using memory via assembly\n\n                assembly {\n                    let returndata_size := mload(returndata)\n                    revert(add(32, returndata), returndata_size)\n                }\n            } else {\n                revert(errorMessage);\n            }\n        }\n    }\n}\n\n\n// File @openzeppelin/contracts/utils/Context.sol@v4.4.1\n\n// OpenZeppelin Contracts v4.4.1 (utils/Context.sol)\n\npragma solidity ^0.8.0;\n\n/**\n * @dev Provides information about the current execution context, including the\n * sender of the transaction and its data. While these are generally available\n * via msg.sender and msg.data, they should not be accessed in such a direct\n * manner, since when dealing with meta-transactions the account sending and\n * paying for execution may not be the actual sender (as far as an application\n * is concerned).\n *\n * This contract is only required for intermediate, library-like contracts.\n */\nabstract contract Context {\n    function _msgSender() internal view virtual returns (address) {\n        return msg.sender;\n    }\n\n    function _msgData() internal view virtual returns (bytes calldata) {\n        return msg.data;\n    }\n}\n\n\n// File @openzeppelin/contracts/utils/Strings.sol@v4.4.1\n\n// OpenZeppelin Contracts v4.4.1 (utils/Strings.sol)\n\npragma solidity ^0.8.0;\n\n/**\n * @dev String operations.\n */\nlibrary Strings {\n    bytes16 private constant _HEX_SYMBOLS = \"0123456789abcdef\";\n\n    /**\n     * @dev Converts a `uint256` to its ASCII `string` decimal representation.\n     */\n    function toString(uint256 value) internal pure returns (string memory) {\n        // Inspired by OraclizeAPI's implementation - MIT licence\n        // https://github.com/oraclize/ethereum-api/blob/b42146b063c7d6ee1358846c198246239e9360e8/oraclizeAPI_0.4.25.sol\n\n        if (value == 0) {\n            return \"0\";\n        }\n        uint256 temp = value;\n        uint256 digits;\n        while (temp != 0) {\n            digits++;\n            temp /= 10;\n        }\n        bytes memory buffer = new bytes(digits);\n        while (value != 0) {\n            digits -= 1;\n            buffer[digits] = bytes1(uint8(48 + uint256(value % 10)));\n            value /= 10;\n        }\n        return string(buffer);\n    }\n\n    /**\n     * @dev Converts a `uint256` to its ASCII `string` hexadecimal representation.\n     */\n    function toHexString(uint256 value) internal pure returns (string memory) {\n        if (value == 0) {\n            return \"0x00\";\n        }\n        uint256 temp = value;\n        uint256 length = 0;\n        while (temp != 0) {\n            length++;\n            temp >>= 8;\n        }\n        return toHexString(value, length);\n    }\n\n    /**\n     * @dev Converts a `uint256` to its ASCII `string` hexadecimal representation with fixed length.\n     */\n    function toHexString(uint256 value, uint256 length) internal pure returns (string memory) {\n        bytes memory buffer = new bytes(2 * length + 2);\n        buffer[0] = \"0\";\n        buffer[1] = \"x\";\n        for (uint256 i = 2 * length + 1; i > 1; --i) {\n            buffer[i] = _HEX_SYMBOLS[value & 0xf];\n            value >>= 4;\n        }\n        require(value == 0, \"Strings: hex length insufficient\");\n        return string(buffer);\n    }\n}\n\n\n// File @openzeppelin/contracts/utils/introspection/ERC165.sol@v4.4.1\n\n// OpenZeppelin Contracts v4.4.1 (utils/introspection/ERC165.sol)\n\npragma solidity ^0.8.0;\n\n/**\n * @dev Implementation of the {IERC165} interface.\n *\n * Contracts that want to implement ERC165 should inherit from this contract and override {supportsInterface} to check\n * for the additional interface id that will be supported. For example:\n *\n * ```solidity\n * function supportsInterface(bytes4 interfaceId) public view virtual override returns (bool) {\n *     return interfaceId == type(MyInterface).interfaceId || super.supportsInterface(interfaceId);\n * }\n * ```\n *\n * Alternatively, {ERC165Storage} provides an easier to use but more expensive implementation.\n */\nabstract contract ERC165 is IERC165 {\n    /**\n     * @dev See {IERC165-supportsInterface}.\n     */\n    function supportsInterface(bytes4 interfaceId) public view virtual override returns (bool) {\n        return interfaceId == type(IERC165).interfaceId;\n    }\n}\n\n\n// File @openzeppelin/contracts/token/ERC721/ERC721.sol@v4.4.1\n\n// OpenZeppelin Contracts v4.4.1 (token/ERC721/ERC721.sol)\n\npragma solidity ^0.8.0;\n\n\n\n\n\n\n\n/**\n * @dev Implementation of https://eips.ethereum.org/EIPS/eip-721[ERC721] Non-Fungible Token Standard, including\n * the Metadata extension, but not including the Enumerable extension, which is available separately as\n * {ERC721Enumerable}.\n */\ncontract ERC721 is Context, ERC165, IERC721, IERC721Metadata {\n    using Address for address;\n    using Strings for uint256;\n\n    // Token name\n    string private _name;\n\n    // Token symbol\n    string private _symbol;\n\n    // Mapping from token ID to owner address\n    mapping(uint256 => address) private _owners;\n\n    // Mapping owner address to token count\n    mapping(address => uint256) private _balances;\n\n    // Mapping from token ID to approved address\n    mapping(uint256 => address) private _tokenApprovals;\n\n    // Mapping from owner to operator approvals\n    mapping(address => mapping(address => bool)) private _operatorApprovals;\n\n    /**\n     * @dev Initializes the contract by setting a `name` and a `symbol` to the token collection.\n     */\n    constructor(string memory name_, string memory symbol_) {\n        _name = name_;\n        _symbol = symbol_;\n    }\n\n    /**\n     * @dev See {IERC165-supportsInterface}.\n     */\n    function supportsInterface(bytes4 interfaceId) public view virtual override(ERC165, IERC165) returns (bool) {\n        return\n            interfaceId == type(IERC721).interfaceId ||\n            interfaceId == type(IERC721Metadata).interfaceId ||\n            super.supportsInterface(interfaceId);\n    }\n\n    /**\n     * @dev See {IERC721-balanceOf}.\n     */\n    function balanceOf(address owner) public view virtual override returns (uint256) {\n        require(owner != address(0), \"ERC721: balance query for the zero address\");\n        return _balances[owner];\n    }\n\n    /**\n     * @dev See {IERC721-ownerOf}.\n     */\n    function ownerOf(uint256 tokenId) public view virtual override returns (address) {\n        address owner = _owners[tokenId];\n        require(owner != address(0), \"ERC721: owner query for nonexistent token\");\n        return owner;\n    }\n\n    /**\n     * @dev See {IERC721Metadata-name}.\n     */\n    function name() public view virtual override returns (string memory) {\n        return _name;\n    }\n\n    /**\n     * @dev See {IERC721Metadata-symbol}.\n     */\n    function symbol() public view virtual override returns (string memory) {\n        return _symbol;\n    }\n\n    /**\n     * @dev See {IERC721Metadata-tokenURI}.\n     */\n    function tokenURI(uint256 tokenId) public view virtual override returns (string memory) {\n        require(_exists(tokenId), \"ERC721Metadata: URI query for nonexistent token\");\n\n        string memory baseURI = _baseURI();\n        return bytes(baseURI).length > 0 ? string(abi.encodePacked(baseURI, tokenId.toString())) : \"\";\n    }\n\n    /**\n     * @dev Base URI for computing {tokenURI}. If set, the resulting URI for each\n     * token will be the concatenation of the `baseURI` and the `tokenId`. Empty\n     * by default, can be overriden in child contracts.\n     */\n    function _baseURI() internal view virtual returns (string memory) {\n        return \"\";\n    }\n\n    /**\n     * @dev See {IERC721-approve}.\n     */\n    function approve(address to, uint256 tokenId) public virtual override {\n        address owner = ERC721.ownerOf(tokenId);\n        require(to != owner, \"ERC721: approval to current owner\");\n\n        require(\n            _msgSender() == owner || isApprovedForAll(owner, _msgSender()),\n            \"ERC721: approve caller is not owner nor approved for all\"\n        );\n\n        _approve(to, tokenId);\n    }\n\n    /**\n     * @dev See {IERC721-getApproved}.\n     */\n    function getApproved(uint256 tokenId) public view virtual override returns (address) {\n        require(_exists(tokenId), \"ERC721: approved query for nonexistent token\");\n\n        return _tokenApprovals[tokenId];\n    }\n\n    /**\n     * @dev See {IERC721-setApprovalForAll}.\n     */\n    function setApprovalForAll(address operator, bool approved) public virtual override {\n        _setApprovalForAll(_msgSender(), operator, approved);\n    }\n\n    /**\n     * @dev See {IERC721-isApprovedForAll}.\n     */\n    function isApprovedForAll(address owner, address operator) public view virtual override returns (bool) {\n        return _operatorApprovals[owner][operator];\n    }\n\n    /**\n     * @dev See {IERC721-transferFrom}.\n     */\n    function transferFrom(\n        address from,\n        address to,\n        uint256 tokenId\n    ) public virtual override {\n        //solhint-disable-next-line max-line-length\n        require(_isApprovedOrOwner(_msgSender(), tokenId), \"ERC721: transfer caller is not owner nor approved\");\n\n        _transfer(from, to, tokenId);\n    }\n\n    /**\n     * @dev See {IERC721-safeTransferFrom}.\n     */\n    function safeTransferFrom(\n        address from,\n        address to,\n        uint256 tokenId\n    ) public virtual override {\n        safeTransferFrom(from, to, tokenId, \"\");\n    }\n\n    /**\n     * @dev See {IERC721-safeTransferFrom}.\n     */\n    function safeTransferFrom(\n        address from,\n        address to,\n        uint256 tokenId,\n        bytes memory _data\n    ) public virtual override {\n        require(_isApprovedOrOwner(_msgSender(), tokenId), \"ERC721: transfer caller is not owner nor approved\");\n        _safeTransfer(from, to, tokenId, _data);\n    }\n\n    /**\n     * @dev Safely transfers `tokenId` token from `from` to `to`, checking first that contract recipients\n     * are aware of the ERC721 protocol to prevent tokens from being forever locked.\n     *\n     * `_data` is additional data, it has no specified format and it is sent in call to `to`.\n     *\n     * This internal function is equivalent to {safeTransferFrom}, and can be used to e.g.\n     * implement alternative mechanisms to perform token transfer, such as signature-based.\n     *\n     * Requirements:\n     *\n     * - `from` cannot be the zero address.\n     * - `to` cannot be the zero address.\n     * - `tokenId` token must exist and be owned by `from`.\n     * - If `to` refers to a smart contract, it must implement {IERC721Receiver-onERC721Received}, which is called upon a safe transfer.\n     *\n     * Emits a {Transfer} event.\n     */\n    function _safeTransfer(\n        address from,\n        address to,\n        uint256 tokenId,\n        bytes memory _data\n    ) internal virtual {\n        _transfer(from, to, tokenId);\n        require(_checkOnERC721Received(from, to, tokenId, _data), \"ERC721: transfer to non ERC721Receiver implementer\");\n    }\n\n    /**\n     * @dev Returns whether `tokenId` exists.\n     *\n     * Tokens can be managed by their owner or approved accounts via {approve} or {setApprovalForAll}.\n     *\n     * Tokens start existing when they are minted (`_mint`),\n     * and stop existing when they are burned (`_burn`).\n     */\n    function _exists(uint256 tokenId) internal view virtual returns (bool) {\n        return _owners[tokenId] != address(0);\n    }\n\n    /**\n     * @dev Returns whether `spender` is allowed to manage `tokenId`.\n     *\n     * Requirements:\n     *\n     * - `tokenId` must exist.\n     */\n    function _isApprovedOrOwner(address spender, uint256 tokenId) internal view virtual returns (bool) {\n        require(_exists(tokenId), \"ERC721: operator query for nonexistent token\");\n        address owner = ERC721.ownerOf(tokenId);\n        return (spender == owner || getApproved(tokenId) == spender || isApprovedForAll(owner, spender));\n    }\n\n    /**\n     * @dev Safely mints `tokenId` and transfers it to `to`.\n     *\n     * Requirements:\n     *\n     * - `tokenId` must not exist.\n     * - If `to` refers to a smart contract, it must implement {IERC721Receiver-onERC721Received}, which is called upon a safe transfer.\n     *\n     * Emits a {Transfer} event.\n     */\n    function _safeMint(address to, uint256 tokenId) internal virtual {\n        _safeMint(to, tokenId, \"\");\n    }\n\n    /**\n     * @dev Same as {xref-ERC721-_safeMint-address-uint256-}[`_safeMint`], with an additional `data` parameter which is\n     * forwarded in {IERC721Receiver-onERC721Received} to contract recipients.\n     */\n    function _safeMint(\n        address to,\n        uint256 tokenId,\n        bytes memory _data\n    ) internal virtual {\n        _mint(to, tokenId);\n        require(\n            _checkOnERC721Received(address(0), to, tokenId, _data),\n            \"ERC721: transfer to non ERC721Receiver implementer\"\n        );\n    }\n\n    /**\n     * @dev Mints `tokenId` and transfers it to `to`.\n     *\n     * WARNING: Usage of this method is discouraged, use {_safeMint} whenever possible\n     *\n     * Requirements:\n     *\n     * - `tokenId` must not exist.\n     * - `to` cannot be the zero address.\n     *\n     * Emits a {Transfer} event.\n     */\n    function _mint(address to, uint256 tokenId) internal virtual {\n        require(to != address(0), \"ERC721: mint to the zero address\");\n        require(!_exists(tokenId), \"ERC721: token already minted\");\n\n        _beforeTokenTransfer(address(0), to, tokenId);\n\n        _balances[to] += 1;\n        _owners[tokenId] = to;\n\n        emit Transfer(address(0), to, tokenId);\n    }\n\n    /**\n     * @dev Destroys `tokenId`.\n     * The approval is cleared when the token is burned.\n     *\n     * Requirements:\n     *\n     * - `tokenId` must exist.\n     *\n     * Emits a {Transfer} event.\n     */\n    function _burn(uint256 tokenId) internal virtual {\n        address owner = ERC721.ownerOf(tokenId);\n\n        _beforeTokenTransfer(owner, address(0), tokenId);\n\n        // Clear approvals\n        _approve(address(0), tokenId);\n\n        _balances[owner] -= 1;\n        delete _owners[tokenId];\n\n        emit Transfer(owner, address(0), tokenId);\n    }\n\n    /**\n     * @dev Transfers `tokenId` from `from` to `to`.\n     *  As opposed to {transferFrom}, this imposes no restrictions on msg.sender.\n     *\n     * Requirements:\n     *\n     * - `to` cannot be the zero address.\n     * - `tokenId` token must be owned by `from`.\n     *\n     * Emits a {Transfer} event.\n     */\n    function _transfer(\n        address from,\n        address to,\n        uint256 tokenId\n    ) internal virtual {\n        require(ERC721.ownerOf(tokenId) == from, \"ERC721: transfer of token that is not own\");\n        require(to != address(0), \"ERC721: transfer to the zero address\");\n\n        _beforeTokenTransfer(from, to, tokenId);\n\n        // Clear approvals from the previous owner\n        _approve(address(0), tokenId);\n\n        _balances[from] -= 1;\n        _balances[to] += 1;\n        _owners[tokenId] = to;\n\n        emit Transfer(from, to, tokenId);\n    }\n\n    /**\n     * @dev Approve `to` to operate on `tokenId`\n     *\n     * Emits a {Approval} event.\n     */\n    function _approve(address to, uint256 tokenId) internal virtual {\n        _tokenApprovals[tokenId] = to;\n        emit Approval(ERC721.ownerOf(tokenId), to, tokenId);\n    }\n\n    /**\n     * @dev Approve `operator` to operate on all of `owner` tokens\n     *\n     * Emits a {ApprovalForAll} event.\n     */\n    function _setApprovalForAll(\n        address owner,\n        address operator,\n        bool approved\n    ) internal virtual {\n        require(owner != operator, \"ERC721: approve to caller\");\n        _operatorApprovals[owner][operator] = approved;\n        emit ApprovalForAll(owner, operator, approved);\n    }\n\n    /**\n     * @dev Internal function to invoke {IERC721Receiver-onERC721Received} on a target address.\n     * The call is not executed if the target address is not a contract.\n     *\n     * @param from address representing the previous owner of the given token ID\n     * @param to target address that will receive the tokens\n     * @param tokenId uint256 ID of the token to be transferred\n     * @param _data bytes optional data to send along with the call\n     * @return bool whether the call correctly returned the expected magic value\n     */\n    function _checkOnERC721Received(\n        address from,\n        address to,\n        uint256 tokenId,\n        bytes memory _data\n    ) private returns (bool) {\n        if (to.isContract()) {\n            try IERC721Receiver(to).onERC721Received(_msgSender(), from, tokenId, _data) returns (bytes4 retval) {\n                return retval == IERC721Receiver.onERC721Received.selector;\n            } catch (bytes memory reason) {\n                if (reason.length == 0) {\n                    revert(\"ERC721: transfer to non ERC721Receiver implementer\");\n                } else {\n                    assembly {\n                        revert(add(32, reason), mload(reason))\n                    }\n                }\n            }\n        } else {\n            return true;\n        }\n    }\n\n    /**\n     * @dev Hook that is called before any token transfer. This includes minting\n     * and burning.\n     *\n     * Calling conditions:\n     *\n     * - When `from` and `to` are both non-zero, ``from``'s `tokenId` will be\n     * transferred to `to`.\n     * - When `from` is zero, `tokenId` will be minted for `to`.\n     * - When `to` is zero, ``from``'s `tokenId` will be burned.\n     * - `from` and `to` are never both zero.\n     *\n     * To learn more about hooks, head to xref:ROOT:extending-contracts.adoc#using-hooks[Using Hooks].\n     */\n    function _beforeTokenTransfer(\n        address from,\n        address to,\n        uint256 tokenId\n    ) internal virtual {}\n}\n\n\n// File @openzeppelin/contracts/access/Ownable.sol@v4.4.1\n\n// OpenZeppelin Contracts v4.4.1 (access/Ownable.sol)\n\npragma solidity ^0.8.0;\n\n/**\n * @dev Contract module which provides a basic access control mechanism, where\n * there is an account (an owner) that can be granted exclusive access to\n * specific functions.\n *\n * By default, the owner account will be the one that deploys the contract. This\n * can later be changed with {transferOwnership}.\n *\n * This module is used through inheritance. It will make available the modifier\n * `onlyOwner`, which can be applied to your functions to restrict their use to\n * the owner.\n */\nabstract contract Ownable is Context {\n    address private _owner;\n\n    event OwnershipTransferred(address indexed previousOwner, address indexed newOwner);\n\n    /**\n     * @dev Initializes the contract setting the deployer as the initial owner.\n     */\n    constructor() {\n        _transferOwnership(_msgSender());\n    }\n\n    /**\n     * @dev Returns the address of the current owner.\n     */\n    function owner() public view virtual returns (address) {\n        return _owner;\n    }\n\n    /**\n     * @dev Throws if called by any account other than the owner.\n     */\n    modifier onlyOwner() {\n        require(owner() == _msgSender(), \"Ownable: caller is not the owner\");\n        _;\n    }\n\n    /**\n     * @dev Leaves the contract without owner. It will not be possible to call\n     * `onlyOwner` functions anymore. Can only be called by the current owner.\n     *\n     * NOTE: Renouncing ownership will leave the contract without an owner,\n     * thereby removing any functionality that is only available to the owner.\n     */\n    function renounceOwnership() public virtual onlyOwner {\n        _transferOwnership(address(0));\n    }\n\n    /**\n     * @dev Transfers ownership of the contract to a new account (`newOwner`).\n     * Can only be called by the current owner.\n     */\n    function transferOwnership(address newOwner) public virtual onlyOwner {\n        require(newOwner != address(0), \"Ownable: new owner is the zero address\");\n        _transferOwnership(newOwner);\n    }\n\n    /**\n     * @dev Transfers ownership of the contract to a new account (`newOwner`).\n     * Internal function without access restriction.\n     */\n    function _transferOwnership(address newOwner) internal virtual {\n        address oldOwner = _owner;\n        _owner = newOwner;\n        emit OwnershipTransferred(oldOwner, newOwner);\n    }\n}\n\n\n// File contracts/NFTArtGen.sol\n\n\npragma solidity ^0.8.4;\n\n\n\n// \n// Built by https://nft-generator.art\n// \ncontract NFTArtGen is ERC721, Ownable {\n    string internal baseUri;\n\n    uint256 public cost = 0.05 ether;\n    uint32 public maxPerMint = 5;\n    uint32 public maxPerWallet = 20;\n    uint32 public supply = 0;\n    uint32 public totalSupply = 0;\n    bool public open = false;\n    mapping(address => uint256) internal addressMintedMap;\n\n    uint32 private commission = 49; // 4.9%\n    address private author = 0x460Fd5059E7301680fA53E63bbBF7272E643e89C;\n\n    constructor(\n        string memory _uri,\n        string memory _name,\n        string memory _symbol,\n        uint32 _totalSupply,\n        uint256 _cost,\n        bool _open\n    ) ERC721(_name, _symbol) {\n        baseUri = _uri;\n        totalSupply = _totalSupply;\n        cost = _cost;\n        open = _open;\n    }\n\n    // ------ Author Only ------\n\n    function setCommission(uint32 _commision) public {\n        require(msg.sender == author, \"Incorrect Address\");\n        commission = _commision;\n    }\n\n    // ------ Owner Only ------\n\n    function setCost(uint256 _cost) public onlyOwner {\n        cost = _cost;\n    }\n\n    function setOpen(bool _open) public onlyOwner {\n        open = _open;\n    }\n\n    function setMaxPerWallet(uint32 _max) public onlyOwner {\n        maxPerWallet = _max;\n    }\n\n    function setMaxPerMint(uint32 _max) public onlyOwner {\n        maxPerMint = _max;\n    }\n\n    function airdrop(address[] calldata to) public onlyOwner {\n        for (uint32 i = 0; i < to.length; i++) {\n            require(1 + supply <= totalSupply, \"Limit reached\");\n            _safeMint(to[i], ++supply, \"\");\n        }\n    }\n\n    function withdraw() public payable onlyOwner {\n        (bool success, ) = payable(msg.sender).call{\n            value: address(this).balance\n        }(\"\");\n        require(success);\n    }\n\n    // ------ Mint! ------\n\n    function mint(uint32 count) external payable preMintChecks(count) {\n        require(open == true, \"Mint not open\");\n        performMint(count);\n    }\n\n    function performMint(uint32 count) internal {\n        for (uint32 i = 0; i < count; i++) {\n            _safeMint(msg.sender, ++supply, \"\");\n        }\n        \n        addressMintedMap[msg.sender] += count;\n\n        (bool success, ) = payable(author).call{\n            value: (msg.value * commission) / 1000\n        }(\"\");\n        require(success);\n    }\n\n    // ------ Read ------\n\n    // ------ Modifiers ------\n\n    modifier preMintChecks(uint32 count) {\n        require(count > 0, \"Mint at least one.\");\n        require(count < maxPerMint + 1, \"Max mint reached.\");\n        require(msg.value >= cost * count, \"Not enough fund.\");\n        require(supply + count < totalSupply + 1, \"Mint sold out\");\n        require(\n            addressMintedMap[msg.sender] + count <= maxPerWallet,\n            \"Max total mint reached\"\n        );\n        _;\n    }\n}\n\n\n// File contracts/utils/Revealable.sol\n\n\npragma solidity ^0.8.4;\n\nabstract contract Revealable is NFTArtGen {\n    bool public revealed = false;\n    string internal uriNotRevealed;\n\n    function setUnrevealedURI(string memory _uri) public onlyOwner {\n        uriNotRevealed = _uri;\n    }\n\n    function reveal() public onlyOwner {\n        revealed = true;\n    }\n}\n\n\n// File contracts/extensions/Reveal.sol\n\n\npragma solidity ^0.8.4;\n\n\ncontract NFTArtGenReveal is NFTArtGen, Revealable {\n    constructor(\n        string memory _uri,\n        string memory _name,\n        string memory _symbol,\n        uint32 _totalSupply,\n        uint256 _cost,\n        bool _open\n    ) NFTArtGen(_uri, _name, _symbol, _totalSupply, _cost, _open) {}\n\n    function tokenURI(uint256 _tokenId)\n        public\n        view\n        override\n        returns (string memory)\n    {\n        require(_tokenId <= supply, \"Not minted yet\");\n        if (revealed == false) {\n            return string(\n                abi.encodePacked(uriNotRevealed, Strings.toString(_tokenId), \".json\")\n            );\n        }\n\n        return\n            string(\n                abi.encodePacked(baseUri, Strings.toString(_tokenId), \".json\")\n            );\n    }\n}\n",
  "sourcePath": "/Users/nathan/Code/work/frontend/src/services/blockchain/blockchains/ethereum/contracts/nftartgen-reveal-later.sol",
  "compiler": {
    "name": "solc",
    "version": "0.8.7+commit.e28d00a7.Emscripten.clang"
  },
  "schemaVersion": "3.3.2",
  "updatedAt": "2022-04-23T01:29:27.579Z",
  "devdoc": {
    "kind": "dev",
    "methods": {
      "approve(address,uint256)": {
        "details": "See {IERC721-approve}."
      },
      "balanceOf(address)": {
        "details": "See {IERC721-balanceOf}."
      },
      "getApproved(uint256)": {
        "details": "See {IERC721-getApproved}."
      },
      "isApprovedForAll(address,address)": {
        "details": "See {IERC721-isApprovedForAll}."
      },
      "name()": {
        "details": "See {IERC721Metadata-name}."
      },
      "owner()": {
        "details": "Returns the address of the current owner."
      },
      "ownerOf(uint256)": {
        "details": "See {IERC721-ownerOf}."
      },
      "renounceOwnership()": {
        "details": "Leaves the contract without owner. It will not be possible to call `onlyOwner` functions anymore. Can only be called by the current owner. NOTE: Renouncing ownership will leave the contract without an owner, thereby removing any functionality that is only available to the owner."
      },
      "safeTransferFrom(address,address,uint256)": {
        "details": "See {IERC721-safeTransferFrom}."
      },
      "safeTransferFrom(address,address,uint256,bytes)": {
        "details": "See {IERC721-safeTransferFrom}."
      },
      "setApprovalForAll(address,bool)": {
        "details": "See {IERC721-setApprovalForAll}."
      },
      "supportsInterface(bytes4)": {
        "details": "See {IERC165-supportsInterface}."
      },
      "symbol()": {
        "details": "See {IERC721Metadata-symbol}."
      },
      "transferFrom(address,address,uint256)": {
        "details": "See {IERC721-transferFrom}."
      },
      "transferOwnership(address)": {
        "details": "Transfers ownership of the contract to a new account (`newOwner`). Can only be called by the current owner."
      }
    },
    "version": 1
  },
  "userdoc": {
    "kind": "user",
    "methods": {},
    "version": 1
  }
}