{
  "contractName": "NFTArtGen",
  "abi": [
    {
      "inputs": [
        {
          "internalType": "string",
          "name": "_uri",
          "type": "string"
        },
        {
          "internalType": "string",
          "name": "_name",
          "type": "string"
        },
        {
          "internalType": "string",
          "name": "_symbol",
          "type": "string"
        },
        {
          "internalType": "uint32",
          "name": "_totalSupply",
          "type": "uint32"
        },
        {
          "internalType": "uint256",
          "name": "_cost",
          "type": "uint256"
        },
        {
          "internalType": "bool",
          "name": "_open",
          "type": "bool"
        }
      ],
      "stateMutability": "nonpayable",
      "type": "constructor"
    },
    {
      "anonymous": false,
      "inputs": [
        {
          "indexed": true,
          "internalType": "address",
          "name": "owner",
          "type": "address"
        },
        {
          "indexed": true,
          "internalType": "address",
          "name": "approved",
          "type": "address"
        },
        {
          "indexed": true,
          "internalType": "uint256",
          "name": "tokenId",
          "type": "uint256"
        }
      ],
      "name": "Approval",
      "type": "event"
    },
    {
      "anonymous": false,
      "inputs": [
        {
          "indexed": true,
          "internalType": "address",
          "name": "owner",
          "type": "address"
        },
        {
          "indexed": true,
          "internalType": "address",
          "name": "operator",
          "type": "address"
        },
        {
          "indexed": false,
          "internalType": "bool",
          "name": "approved",
          "type": "bool"
        }
      ],
      "name": "ApprovalForAll",
      "type": "event"
    },
    {
      "anonymous": false,
      "inputs": [
        {
          "indexed": true,
          "internalType": "address",
          "name": "previousOwner",
          "type": "address"
        },
        {
          "indexed": true,
          "internalType": "address",
          "name": "newOwner",
          "type": "address"
        }
      ],
      "name": "OwnershipTransferred",
      "type": "event"
    },
    {
      "anonymous": false,
      "inputs": [
        {
          "indexed": true,
          "internalType": "address",
          "name": "from",
          "type": "address"
        },
        {
          "indexed": true,
          "internalType": "address",
          "name": "to",
          "type": "address"
        },
        {
          "indexed": true,
          "internalType": "uint256",
          "name": "tokenId",
          "type": "uint256"
        }
      ],
      "name": "Transfer",
      "type": "event"
    },
    {
      "inputs": [
        {
          "internalType": "address",
          "name": "to",
          "type": "address"
        },
        {
          "internalType": "uint256",
          "name": "tokenId",
          "type": "uint256"
        }
      ],
      "name": "approve",
      "outputs": [],
      "stateMutability": "nonpayable",
      "type": "function"
    },
    {
      "inputs": [
        {
          "internalType": "address",
          "name": "owner",
          "type": "address"
        }
      ],
      "name": "balanceOf",
      "outputs": [
        {
          "internalType": "uint256",
          "name": "",
          "type": "uint256"
        }
      ],
      "stateMutability": "view",
      "type": "function"
    },
    {
      "inputs": [],
      "name": "cost",
      "outputs": [
        {
          "internalType": "uint256",
          "name": "",
          "type": "uint256"
        }
      ],
      "stateMutability": "view",
      "type": "function"
    },
    {
      "inputs": [
        {
          "internalType": "uint256",
          "name": "tokenId",
          "type": "uint256"
        }
      ],
      "name": "getApproved",
      "outputs": [
        {
          "internalType": "address",
          "name": "",
          "type": "address"
        }
      ],
      "stateMutability": "view",
      "type": "function"
    },
    {
      "inputs": [
        {
          "internalType": "address",
          "name": "owner",
          "type": "address"
        },
        {
          "internalType": "address",
          "name": "operator",
          "type": "address"
        }
      ],
      "name": "isApprovedForAll",
      "outputs": [
        {
          "internalType": "bool",
          "name": "",
          "type": "bool"
        }
      ],
      "stateMutability": "view",
      "type": "function"
    },
    {
      "inputs": [],
      "name": "maxPerMint",
      "outputs": [
        {
          "internalType": "uint32",
          "name": "",
          "type": "uint32"
        }
      ],
      "stateMutability": "view",
      "type": "function"
    },
    {
      "inputs": [],
      "name": "maxPerWallet",
      "outputs": [
        {
          "internalType": "uint32",
          "name": "",
          "type": "uint32"
        }
      ],
      "stateMutability": "view",
      "type": "function"
    },
    {
      "inputs": [],
      "name": "name",
      "outputs": [
        {
          "internalType": "string",
          "name": "",
          "type": "string"
        }
      ],
      "stateMutability": "view",
      "type": "function"
    },
    {
      "inputs": [],
      "name": "open",
      "outputs": [
        {
          "internalType": "bool",
          "name": "",
          "type": "bool"
        }
      ],
      "stateMutability": "view",
      "type": "function"
    },
    {
      "inputs": [],
      "name": "owner",
      "outputs": [
        {
          "internalType": "address",
          "name": "",
          "type": "address"
        }
      ],
      "stateMutability": "view",
      "type": "function"
    },
    {
      "inputs": [
        {
          "internalType": "uint256",
          "name": "tokenId",
          "type": "uint256"
        }
      ],
      "name": "ownerOf",
      "outputs": [
        {
          "internalType": "address",
          "name": "",
          "type": "address"
        }
      ],
      "stateMutability": "view",
      "type": "function"
    },
    {
      "inputs": [],
      "name": "renounceOwnership",
      "outputs": [],
      "stateMutability": "nonpayable",
      "type": "function"
    },
    {
      "inputs": [
        {
          "internalType": "address",
          "name": "from",
          "type": "address"
        },
        {
          "internalType": "address",
          "name": "to",
          "type": "address"
        },
        {
          "internalType": "uint256",
          "name": "tokenId",
          "type": "uint256"
        }
      ],
      "name": "safeTransferFrom",
      "outputs": [],
      "stateMutability": "nonpayable",
      "type": "function"
    },
    {
      "inputs": [
        {
          "internalType": "address",
          "name": "from",
          "type": "address"
        },
        {
          "internalType": "address",
          "name": "to",
          "type": "address"
        },
        {
          "internalType": "uint256",
          "name": "tokenId",
          "type": "uint256"
        },
        {
          "internalType": "bytes",
          "name": "_data",
          "type": "bytes"
        }
      ],
      "name": "safeTransferFrom",
      "outputs": [],
      "stateMutability": "nonpayable",
      "type": "function"
    },
    {
      "inputs": [
        {
          "internalType": "address",
          "name": "operator",
          "type": "address"
        },
        {
          "internalType": "bool",
          "name": "approved",
          "type": "bool"
        }
      ],
      "name": "setApprovalForAll",
      "outputs": [],
      "stateMutability": "nonpayable",
      "type": "function"
    },
    {
      "inputs": [],
      "name": "supply",
      "outputs": [
        {
          "internalType": "uint32",
          "name": "",
          "type": "uint32"
        }
      ],
      "stateMutability": "view",
      "type": "function"
    },
    {
      "inputs": [
        {
          "internalType": "bytes4",
          "name": "interfaceId",
          "type": "bytes4"
        }
      ],
      "name": "supportsInterface",
      "outputs": [
        {
          "internalType": "bool",
          "name": "",
          "type": "bool"
        }
      ],
      "stateMutability": "view",
      "type": "function"
    },
    {
      "inputs": [],
      "name": "symbol",
      "outputs": [
        {
          "internalType": "string",
          "name": "",
          "type": "string"
        }
      ],
      "stateMutability": "view",
      "type": "function"
    },
    {
      "inputs": [
        {
          "internalType": "uint256",
          "name": "tokenId",
          "type": "uint256"
        }
      ],
      "name": "tokenURI",
      "outputs": [
        {
          "internalType": "string",
          "name": "",
          "type": "string"
        }
      ],
      "stateMutability": "view",
      "type": "function"
    },
    {
      "inputs": [],
      "name": "totalSupply",
      "outputs": [
        {
          "internalType": "uint32",
          "name": "",
          "type": "uint32"
        }
      ],
      "stateMutability": "view",
      "type": "function"
    },
    {
      "inputs": [
        {
          "internalType": "address",
          "name": "from",
          "type": "address"
        },
        {
          "internalType": "address",
          "name": "to",
          "type": "address"
        },
        {
          "internalType": "uint256",
          "name": "tokenId",
          "type": "uint256"
        }
      ],
      "name": "transferFrom",
      "outputs": [],
      "stateMutability": "nonpayable",
      "type": "function"
    },
    {
      "inputs": [
        {
          "internalType": "address",
          "name": "newOwner",
          "type": "address"
        }
      ],
      "name": "transferOwnership",
      "outputs": [],
      "stateMutability": "nonpayable",
      "type": "function"
    },
    {
      "inputs": [
        {
          "internalType": "uint32",
          "name": "_commision",
          "type": "uint32"
        }
      ],
      "name": "setCommission",
      "outputs": [],
      "stateMutability": "nonpayable",
      "type": "function"
    },
    {
      "inputs": [
        {
          "internalType": "uint256",
          "name": "_cost",
          "type": "uint256"
        }
      ],
      "name": "setCost",
      "outputs": [],
      "stateMutability": "nonpayable",
      "type": "function"
    },
    {
      "inputs": [
        {
          "internalType": "bool",
          "name": "_open",
          "type": "bool"
        }
      ],
      "name": "setOpen",
      "outputs": [],
      "stateMutability": "nonpayable",
      "type": "function"
    },
    {
      "inputs": [
        {
          "internalType": "uint32",
          "name": "_max",
          "type": "uint32"
        }
      ],
      "name": "setMaxPerWallet",
      "outputs": [],
      "stateMutability": "nonpayable",
      "type": "function"
    },
    {
      "inputs": [
        {
          "internalType": "uint32",
          "name": "_max",
          "type": "uint32"
        }
      ],
      "name": "setMaxPerMint",
      "outputs": [],
      "stateMutability": "nonpayable",
      "type": "function"
    },
    {
      "inputs": [
        {
          "internalType": "address[]",
          "name": "to",
          "type": "address[]"
        }
      ],
      "name": "airdrop",
      "outputs": [],
      "stateMutability": "nonpayable",
      "type": "function"
    },
    {
      "inputs": [],
      "name": "withdraw",
      "outputs": [],
      "stateMutability": "payable",
      "type": "function"
    },
    {
      "inputs": [
        {
          "internalType": "uint32",
          "name": "count",
          "type": "uint32"
        }
      ],
      "name": "mint",
      "outputs": [],
      "stateMutability": "payable",
      "type": "function"
    }
  ],
  "bytecode": "0x608060405266b1a2bc2ec500006008556005600960006101000a81548163ffffffff021916908363ffffffff1602179055506014600960046101000a81548163ffffffff021916908363ffffffff1602179055506000600960086101000a81548163ffffffff021916908363ffffffff16021790555060006009600c6101000a81548163ffffffff021916908363ffffffff1602179055506000600960106101000a81548160ff0219169083151502179055506031600b60006101000a81548163ffffffff021916908363ffffffff16021790555073460fd5059e7301680fa53e63bbbf7272e643e89c600b60046101000a81548173ffffffffffffffffffffffffffffffffffffffff021916908373ffffffffffffffffffffffffffffffffffffffff1602179055503480156200013657600080fd5b50604051620046133803806200461383398181016040528101906200015c91906200045a565b8484816000908051906020019062000176929190620002e7565b5080600190805190602001906200018f929190620002e7565b505050620001b2620001a66200021960201b60201c565b6200022160201b60201c565b8560079080519060200190620001ca929190620002e7565b50826009600c6101000a81548163ffffffff021916908363ffffffff1602179055508160088190555080600960106101000a81548160ff0219169083151502179055505050505050506200074b565b600033905090565b6000600660009054906101000a900473ffffffffffffffffffffffffffffffffffffffff16905081600660006101000a81548173ffffffffffffffffffffffffffffffffffffffff021916908373ffffffffffffffffffffffffffffffffffffffff1602179055508173ffffffffffffffffffffffffffffffffffffffff168173ffffffffffffffffffffffffffffffffffffffff167f8be0079c531659141344cd1fd0a4f28419497f9722a3daafe3b4186f6b6457e060405160405180910390a35050565b828054620002f5906200060e565b90600052602060002090601f01602090048101928262000319576000855562000365565b82601f106200033457805160ff191683800117855562000365565b8280016001018555821562000365579182015b828111156200036457825182559160200191906001019062000347565b5b50905062000374919062000378565b5090565b5b808211156200039357600081600090555060010162000379565b5090565b6000620003ae620003a8846200057c565b62000553565b905082815260208101848484011115620003cd57620003cc620006dd565b5b620003da848285620005d8565b509392505050565b600081519050620003f381620006fd565b92915050565b600082601f830112620004115762000410620006d8565b5b81516200042384826020860162000397565b91505092915050565b6000815190506200043d8162000717565b92915050565b600081519050620004548162000731565b92915050565b60008060008060008060c087890312156200047a5762000479620006e7565b5b600087015167ffffffffffffffff8111156200049b576200049a620006e2565b5b620004a989828a01620003f9565b965050602087015167ffffffffffffffff811115620004cd57620004cc620006e2565b5b620004db89828a01620003f9565b955050604087015167ffffffffffffffff811115620004ff57620004fe620006e2565b5b6200050d89828a01620003f9565b94505060606200052089828a0162000443565b93505060806200053389828a016200042c565b92505060a06200054689828a01620003e2565b9150509295509295509295565b60006200055f62000572565b90506200056d828262000644565b919050565b6000604051905090565b600067ffffffffffffffff8211156200059a5762000599620006a9565b5b620005a582620006ec565b9050602081019050919050565b60008115159050919050565b6000819050919050565b600063ffffffff82169050919050565b60005b83811015620005f8578082015181840152602081019050620005db565b8381111562000608576000848401525b50505050565b600060028204905060018216806200062757607f821691505b602082108114156200063e576200063d6200067a565b5b50919050565b6200064f82620006ec565b810181811067ffffffffffffffff82111715620006715762000670620006a9565b5b80604052505050565b7f4e487b7100000000000000000000000000000000000000000000000000000000600052602260045260246000fd5b7f4e487b7100000000000000000000000000000000000000000000000000000000600052604160045260246000fd5b600080fd5b600080fd5b600080fd5b600080fd5b6000601f19601f8301169050919050565b6200070881620005b2565b81146200071457600080fd5b50565b6200072281620005be565b81146200072e57600080fd5b50565b6200073c81620005c8565b81146200074857600080fd5b50565b613eb8806200075b6000396000f3fe6080604052600436106101cd5760003560e01c80636352211e116100f7578063a22cb46511610095578063e985e9c511610064578063e985e9c514610632578063f2fde38b1461066f578063f8048d8f14610698578063fcfff16f146106c1576101cd565b8063a22cb46514610587578063a71bbebe146105b0578063b88d4fde146105cc578063c87b56dd146105f5576101cd565b8063715018a6116100d1578063715018a6146104f1578063729ad39e146105085780638da5cb5b1461053157806395d89b411461055c576101cd565b80636352211e1461044e5780636fdca5e01461048b57806370a08231146104b4576101cd565b806318160ddd1161016f57806342842e0e1161013e57806342842e0e146103a657806344a0d68a146103cf578063453c2310146103f8578063507e094f14610423576101cd565b806318160ddd1461031f57806323b872dd1461034a5780633006b543146103735780633ccfd60b1461039c576101cd565b8063081812fc116101ab578063081812fc14610265578063092501a0146102a2578063095ea7b3146102cb57806313faede6146102f4576101cd565b806301ffc9a7146101d2578063047fc9aa1461020f57806306fdde031461023a575b600080fd5b3480156101de57600080fd5b506101f960048036038101906101f49190612a7e565b6106ec565b604051610206919061301c565b60405180910390f35b34801561021b57600080fd5b506102246107ce565b6040516102319190613374565b60405180910390f35b34801561024657600080fd5b5061024f6107e4565b60405161025c9190613037565b60405180910390f35b34801561027157600080fd5b5061028c60048036038101906102879190612ad8565b610876565b6040516102999190612fb5565b60405180910390f35b3480156102ae57600080fd5b506102c960048036038101906102c49190612b05565b6108fb565b005b3480156102d757600080fd5b506102f260048036038101906102ed91906129c4565b6109af565b005b34801561030057600080fd5b50610309610ac7565b6040516103169190613359565b60405180910390f35b34801561032b57600080fd5b50610334610acd565b6040516103419190613374565b60405180910390f35b34801561035657600080fd5b50610371600480360381019061036c91906128ae565b610ae3565b005b34801561037f57600080fd5b5061039a60048036038101906103959190612b05565b610b43565b005b6103a4610be3565b005b3480156103b257600080fd5b506103cd60048036038101906103c891906128ae565b610cd8565b005b3480156103db57600080fd5b506103f660048036038101906103f19190612ad8565b610cf8565b005b34801561040457600080fd5b5061040d610d7e565b60405161041a9190613374565b60405180910390f35b34801561042f57600080fd5b50610438610d94565b6040516104459190613374565b60405180910390f35b34801561045a57600080fd5b5061047560048036038101906104709190612ad8565b610daa565b6040516104829190612fb5565b60405180910390f35b34801561049757600080fd5b506104b260048036038101906104ad9190612a51565b610e5c565b005b3480156104c057600080fd5b506104db60048036038101906104d69190612841565b610ef5565b6040516104e89190613359565b60405180910390f35b3480156104fd57600080fd5b50610506610fad565b005b34801561051457600080fd5b5061052f600480360381019061052a9190612a04565b611035565b005b34801561053d57600080fd5b506105466111e3565b6040516105539190612fb5565b60405180910390f35b34801561056857600080fd5b5061057161120d565b60405161057e9190613037565b60405180910390f35b34801561059357600080fd5b506105ae60048036038101906105a99190612984565b61129f565b005b6105ca60048036038101906105c59190612b05565b6112b5565b005b3480156105d857600080fd5b506105f360048036038101906105ee9190612901565b611558565b005b34801561060157600080fd5b5061061c60048036038101906106179190612ad8565b6115ba565b6040516106299190613037565b60405180910390f35b34801561063e57600080fd5b506106596004803603810190610654919061286e565b611661565b604051610666919061301c565b60405180910390f35b34801561067b57600080fd5b5061069660048036038101906106919190612841565b6116f5565b005b3480156106a457600080fd5b506106bf60048036038101906106ba9190612b05565b6117ed565b005b3480156106cd57600080fd5b506106d661188d565b6040516106e3919061301c565b60405180910390f35b60007f80ac58cd000000000000000000000000000000000000000000000000000000007bffffffffffffffffffffffffffffffffffffffffffffffffffffffff1916827bffffffffffffffffffffffffffffffffffffffffffffffffffffffff191614806107b757507f5b5e139f000000000000000000000000000000000000000000000000000000007bffffffffffffffffffffffffffffffffffffffffffffffffffffffff1916827bffffffffffffffffffffffffffffffffffffffffffffffffffffffff1916145b806107c757506107c6826118a0565b5b9050919050565b600960089054906101000a900463ffffffff1681565b6060600080546107f390613648565b80601f016020809104026020016040519081016040528092919081815260200182805461081f90613648565b801561086c5780601f106108415761010080835404028352916020019161086c565b820191906000526020600020905b81548152906001019060200180831161084f57829003601f168201915b5050505050905090565b60006108818261190a565b6108c0576040517f08c379a00000000000000000000000000000000000000000000000000000000081526004016108b7906131d9565b60405180910390fd5b6004600083815260200190815260200160002060009054906101000a900473ffffffffffffffffffffffffffffffffffffffff169050919050565b600b60049054906101000a900473ffffffffffffffffffffffffffffffffffffffff1673ffffffffffffffffffffffffffffffffffffffff163373ffffffffffffffffffffffffffffffffffffffff161461098b576040517f08c379a0000000000000000000000000000000000000000000000000000000008152600401610982906132d9565b60405180910390fd5b80600b60006101000a81548163ffffffff021916908363ffffffff16021790555050565b60006109ba82610daa565b90508073ffffffffffffffffffffffffffffffffffffffff168373ffffffffffffffffffffffffffffffffffffffff161415610a2b576040517f08c379a0000000000000000000000000000000000000000000000000000000008152600401610a2290613279565b60405180910390fd5b8073ffffffffffffffffffffffffffffffffffffffff16610a4a611976565b73ffffffffffffffffffffffffffffffffffffffff161480610a795750610a7881610a73611976565b611661565b5b610ab8576040517f08c379a0000000000000000000000000000000000000000000000000000000008152600401610aaf90613159565b60405180910390fd5b610ac2838361197e565b505050565b60085481565b6009600c9054906101000a900463ffffffff1681565b610af4610aee611976565b82611a37565b610b33576040517f08c379a0000000000000000000000000000000000000000000000000000000008152600401610b2a906132b9565b60405180910390fd5b610b3e838383611b15565b505050565b610b4b611976565b73ffffffffffffffffffffffffffffffffffffffff16610b696111e3565b73ffffffffffffffffffffffffffffffffffffffff1614610bbf576040517f08c379a0000000000000000000000000000000000000000000000000000000008152600401610bb6906131f9565b60405180910390fd5b80600960046101000a81548163ffffffff021916908363ffffffff16021790555050565b610beb611976565b73ffffffffffffffffffffffffffffffffffffffff16610c096111e3565b73ffffffffffffffffffffffffffffffffffffffff1614610c5f576040517f08c379a0000000000000000000000000000000000000000000000000000000008152600401610c56906131f9565b60405180910390fd5b60003373ffffffffffffffffffffffffffffffffffffffff1647604051610c8590612fa0565b60006040518083038185875af1925050503d8060008114610cc2576040519150601f19603f3d011682016040523d82523d6000602084013e610cc7565b606091505b5050905080610cd557600080fd5b50565b610cf383838360405180602001604052806000815250611558565b505050565b610d00611976565b73ffffffffffffffffffffffffffffffffffffffff16610d1e6111e3565b73ffffffffffffffffffffffffffffffffffffffff1614610d74576040517f08c379a0000000000000000000000000000000000000000000000000000000008152600401610d6b906131f9565b60405180910390fd5b8060088190555050565b600960049054906101000a900463ffffffff1681565b600960009054906101000a900463ffffffff1681565b6000806002600084815260200190815260200160002060009054906101000a900473ffffffffffffffffffffffffffffffffffffffff169050600073ffffffffffffffffffffffffffffffffffffffff168173ffffffffffffffffffffffffffffffffffffffff161415610e53576040517f08c379a0000000000000000000000000000000000000000000000000000000008152600401610e4a90613199565b60405180910390fd5b80915050919050565b610e64611976565b73ffffffffffffffffffffffffffffffffffffffff16610e826111e3565b73ffffffffffffffffffffffffffffffffffffffff1614610ed8576040517f08c379a0000000000000000000000000000000000000000000000000000000008152600401610ecf906131f9565b60405180910390fd5b80600960106101000a81548160ff02191690831515021790555050565b60008073ffffffffffffffffffffffffffffffffffffffff168273ffffffffffffffffffffffffffffffffffffffff161415610f66576040517f08c379a0000000000000000000000000000000000000000000000000000000008152600401610f5d90613179565b60405180910390fd5b600360008373ffffffffffffffffffffffffffffffffffffffff1673ffffffffffffffffffffffffffffffffffffffff168152602001908152602001600020549050919050565b610fb5611976565b73ffffffffffffffffffffffffffffffffffffffff16610fd36111e3565b73ffffffffffffffffffffffffffffffffffffffff1614611029576040517f08c379a0000000000000000000000000000000000000000000000000000000008152600401611020906131f9565b60405180910390fd5b6110336000611d71565b565b61103d611976565b73ffffffffffffffffffffffffffffffffffffffff1661105b6111e3565b73ffffffffffffffffffffffffffffffffffffffff16146110b1576040517f08c379a00000000000000000000000000000000000000000000000000000000081526004016110a8906131f9565b60405180910390fd5b60005b828290508163ffffffff1610156111de576009600c9054906101000a900463ffffffff1663ffffffff16600960089054906101000a900463ffffffff1660016110fd9190613489565b63ffffffff161115611144576040517f08c379a000000000000000000000000000000000000000000000000000000000815260040161113b90613119565b60405180910390fd5b6111cb83838363ffffffff168181106111605761115f6137df565b5b90506020020160208101906111759190612841565b6009600881819054906101000a900463ffffffff16611193906136f4565b91906101000a81548163ffffffff021916908363ffffffff160217905563ffffffff1660405180602001604052806000815250611e37565b80806111d6906136f4565b9150506110b4565b505050565b6000600660009054906101000a900473ffffffffffffffffffffffffffffffffffffffff16905090565b60606001805461121c90613648565b80601f016020809104026020016040519081016040528092919081815260200182805461124890613648565b80156112955780601f1061126a57610100808354040283529160200191611295565b820191906000526020600020905b81548152906001019060200180831161127857829003601f168201915b5050505050905090565b6112b16112aa611976565b8383611e92565b5050565b8060008163ffffffff16116112ff576040517f08c379a00000000000000000000000000000000000000000000000000000000081526004016112f690613339565b60405180910390fd5b6001600960009054906101000a900463ffffffff1661131e9190613489565b63ffffffff168163ffffffff161061136b576040517f08c379a000000000000000000000000000000000000000000000000000000000815260040161136290613319565b60405180910390fd5b8063ffffffff1660085461137f91906134f4565b3410156113c1576040517f08c379a00000000000000000000000000000000000000000000000000000000081526004016113b8906132f9565b60405180910390fd5b60016009600c9054906101000a900463ffffffff166113e09190613489565b63ffffffff1681600960089054906101000a900463ffffffff166114049190613489565b63ffffffff161061144a576040517f08c379a000000000000000000000000000000000000000000000000000000000815260040161144190613259565b60405180910390fd5b600960049054906101000a900463ffffffff1663ffffffff168163ffffffff16600a60003373ffffffffffffffffffffffffffffffffffffffff1673ffffffffffffffffffffffffffffffffffffffff168152602001908152602001600020546114b49190613433565b11156114f5576040517f08c379a00000000000000000000000000000000000000000000000000000000081526004016114ec906130b9565b60405180910390fd5b60011515600960109054906101000a900460ff1615151461154b576040517f08c379a000000000000000000000000000000000000000000000000000000000815260040161154290613299565b60405180910390fd5b61155482611fff565b5050565b611569611563611976565b83611a37565b6115a8576040517f08c379a000000000000000000000000000000000000000000000000000000000815260040161159f906132b9565b60405180910390fd5b6115b4848484846121ac565b50505050565b60606115c58261190a565b611604576040517f08c379a00000000000000000000000000000000000000000000000000000000081526004016115fb90613239565b60405180910390fd5b600061160e612208565b9050600081511161162e5760405180602001604052806000815250611659565b806116388461221f565b604051602001611649929190612f7c565b6040516020818303038152906040525b915050919050565b6000600560008473ffffffffffffffffffffffffffffffffffffffff1673ffffffffffffffffffffffffffffffffffffffff16815260200190815260200160002060008373ffffffffffffffffffffffffffffffffffffffff1673ffffffffffffffffffffffffffffffffffffffff16815260200190815260200160002060009054906101000a900460ff16905092915050565b6116fd611976565b73ffffffffffffffffffffffffffffffffffffffff1661171b6111e3565b73ffffffffffffffffffffffffffffffffffffffff1614611771576040517f08c379a0000000000000000000000000000000000000000000000000000000008152600401611768906131f9565b60405180910390fd5b600073ffffffffffffffffffffffffffffffffffffffff168173ffffffffffffffffffffffffffffffffffffffff1614156117e1576040517f08c379a00000000000000000000000000000000000000000000000000000000081526004016117d890613079565b60405180910390fd5b6117ea81611d71565b50565b6117f5611976565b73ffffffffffffffffffffffffffffffffffffffff166118136111e3565b73ffffffffffffffffffffffffffffffffffffffff1614611869576040517f08c379a0000000000000000000000000000000000000000000000000000000008152600401611860906131f9565b60405180910390fd5b80600960006101000a81548163ffffffff021916908363ffffffff16021790555050565b600960109054906101000a900460ff1681565b60007f01ffc9a7000000000000000000000000000000000000000000000000000000007bffffffffffffffffffffffffffffffffffffffffffffffffffffffff1916827bffffffffffffffffffffffffffffffffffffffffffffffffffffffff1916149050919050565b60008073ffffffffffffffffffffffffffffffffffffffff166002600084815260200190815260200160002060009054906101000a900473ffffffffffffffffffffffffffffffffffffffff1673ffffffffffffffffffffffffffffffffffffffff1614159050919050565b600033905090565b816004600083815260200190815260200160002060006101000a81548173ffffffffffffffffffffffffffffffffffffffff021916908373ffffffffffffffffffffffffffffffffffffffff160217905550808273ffffffffffffffffffffffffffffffffffffffff166119f183610daa565b73ffffffffffffffffffffffffffffffffffffffff167f8c5be1e5ebec7d5bd14f71427d1e84f3dd0314c0f7b2291e5b200ac8c7c3b92560405160405180910390a45050565b6000611a428261190a565b611a81576040517f08c379a0000000000000000000000000000000000000000000000000000000008152600401611a7890613139565b60405180910390fd5b6000611a8c83610daa565b90508073ffffffffffffffffffffffffffffffffffffffff168473ffffffffffffffffffffffffffffffffffffffff161480611afb57508373ffffffffffffffffffffffffffffffffffffffff16611ae384610876565b73ffffffffffffffffffffffffffffffffffffffff16145b80611b0c5750611b0b8185611661565b5b91505092915050565b8273ffffffffffffffffffffffffffffffffffffffff16611b3582610daa565b73ffffffffffffffffffffffffffffffffffffffff1614611b8b576040517f08c379a0000000000000000000000000000000000000000000000000000000008152600401611b8290613219565b60405180910390fd5b600073ffffffffffffffffffffffffffffffffffffffff168273ffffffffffffffffffffffffffffffffffffffff161415611bfb576040517f08c379a0000000000000000000000000000000000000000000000000000000008152600401611bf2906130d9565b60405180910390fd5b611c06838383612380565b611c1160008261197e565b6001600360008573ffffffffffffffffffffffffffffffffffffffff1673ffffffffffffffffffffffffffffffffffffffff1681526020019081526020016000206000828254611c61919061354e565b925050819055506001600360008473ffffffffffffffffffffffffffffffffffffffff1673ffffffffffffffffffffffffffffffffffffffff1681526020019081526020016000206000828254611cb89190613433565b92505081905550816002600083815260200190815260200160002060006101000a81548173ffffffffffffffffffffffffffffffffffffffff021916908373ffffffffffffffffffffffffffffffffffffffff160217905550808273ffffffffffffffffffffffffffffffffffffffff168473ffffffffffffffffffffffffffffffffffffffff167fddf252ad1be2c89b69c2b068fc378daa952ba7f163c4a11628f55a4df523b3ef60405160405180910390a4505050565b6000600660009054906101000a900473ffffffffffffffffffffffffffffffffffffffff16905081600660006101000a81548173ffffffffffffffffffffffffffffffffffffffff021916908373ffffffffffffffffffffffffffffffffffffffff1602179055508173ffffffffffffffffffffffffffffffffffffffff168173ffffffffffffffffffffffffffffffffffffffff167f8be0079c531659141344cd1fd0a4f28419497f9722a3daafe3b4186f6b6457e060405160405180910390a35050565b611e418383612385565b611e4e6000848484612553565b611e8d576040517f08c379a0000000000000000000000000000000000000000000000000000000008152600401611e8490613059565b60405180910390fd5b505050565b8173ffffffffffffffffffffffffffffffffffffffff168373ffffffffffffffffffffffffffffffffffffffff161415611f01576040517f08c379a0000000000000000000000000000000000000000000000000000000008152600401611ef8906130f9565b60405180910390fd5b80600560008573ffffffffffffffffffffffffffffffffffffffff1673ffffffffffffffffffffffffffffffffffffffff16815260200190815260200160002060008473ffffffffffffffffffffffffffffffffffffffff1673ffffffffffffffffffffffffffffffffffffffff16815260200190815260200160002060006101000a81548160ff0219169083151502179055508173ffffffffffffffffffffffffffffffffffffffff168373ffffffffffffffffffffffffffffffffffffffff167f17307eab39ab6107e8899845ad3d59bd9653f200f220920489ca2b5937696c3183604051611ff2919061301c565b60405180910390a3505050565b60005b8163ffffffff168163ffffffff16101561208357612070336009600881819054906101000a900463ffffffff16612038906136f4565b91906101000a81548163ffffffff021916908363ffffffff160217905563ffffffff1660405180602001604052806000815250611e37565b808061207b906136f4565b915050612002565b508063ffffffff16600a60003373ffffffffffffffffffffffffffffffffffffffff1673ffffffffffffffffffffffffffffffffffffffff16815260200190815260200160002060008282546120d99190613433565b925050819055506000600b60049054906101000a900473ffffffffffffffffffffffffffffffffffffffff1673ffffffffffffffffffffffffffffffffffffffff166103e8600b60009054906101000a900463ffffffff1663ffffffff163461214291906134f4565b61214c91906134c3565b60405161215890612fa0565b60006040518083038185875af1925050503d8060008114612195576040519150601f19603f3d011682016040523d82523d6000602084013e61219a565b606091505b50509050806121a857600080fd5b5050565b6121b7848484611b15565b6121c384848484612553565b612202576040517f08c379a00000000000000000000000000000000000000000000000000000000081526004016121f990613059565b60405180910390fd5b50505050565b606060405180602001604052806000815250905090565b60606000821415612267576040518060400160405280600181526020017f3000000000000000000000000000000000000000000000000000000000000000815250905061237b565b600082905060005b60008214612299578080612282906136ab565b915050600a8261229291906134c3565b915061226f565b60008167ffffffffffffffff8111156122b5576122b461380e565b5b6040519080825280601f01601f1916602001820160405280156122e75781602001600182028036833780820191505090505b5090505b6000851461237457600182612300919061354e565b9150600a8561230f9190613721565b603061231b9190613433565b60f81b818381518110612331576123306137df565b5b60200101907effffffffffffffffffffffffffffffffffffffffffffffffffffffffffffff1916908160001a905350600a8561236d91906134c3565b94506122eb565b8093505050505b919050565b505050565b600073ffffffffffffffffffffffffffffffffffffffff168273ffffffffffffffffffffffffffffffffffffffff1614156123f5576040517f08c379a00000000000000000000000000000000000000000000000000000000081526004016123ec906131b9565b60405180910390fd5b6123fe8161190a565b1561243e576040517f08c379a000000000000000000000000000000000000000000000000000000000815260040161243590613099565b60405180910390fd5b61244a60008383612380565b6001600360008473ffffffffffffffffffffffffffffffffffffffff1673ffffffffffffffffffffffffffffffffffffffff168152602001908152602001600020600082825461249a9190613433565b92505081905550816002600083815260200190815260200160002060006101000a81548173ffffffffffffffffffffffffffffffffffffffff021916908373ffffffffffffffffffffffffffffffffffffffff160217905550808273ffffffffffffffffffffffffffffffffffffffff16600073ffffffffffffffffffffffffffffffffffffffff167fddf252ad1be2c89b69c2b068fc378daa952ba7f163c4a11628f55a4df523b3ef60405160405180910390a45050565b60006125748473ffffffffffffffffffffffffffffffffffffffff166126ea565b156126dd578373ffffffffffffffffffffffffffffffffffffffff1663150b7a0261259d611976565b8786866040518563ffffffff1660e01b81526004016125bf9493929190612fd0565b602060405180830381600087803b1580156125d957600080fd5b505af192505050801561260a57506040513d601f19601f820116820180604052508101906126079190612aab565b60015b61268d573d806000811461263a576040519150601f19603f3d011682016040523d82523d6000602084013e61263f565b606091505b50600081511415612685576040517f08c379a000000000000000000000000000000000000000000000000000000000815260040161267c90613059565b60405180910390fd5b805181602001fd5b63150b7a0260e01b7bffffffffffffffffffffffffffffffffffffffffffffffffffffffff1916817bffffffffffffffffffffffffffffffffffffffffffffffffffffffff1916149150506126e2565b600190505b949350505050565b600080823b905060008111915050919050565b600061271061270b846133b4565b61338f565b90508281526020810184848401111561272c5761272b61384c565b5b612737848285613606565b509392505050565b60008135905061274e81613e0f565b92915050565b60008083601f84011261276a57612769613842565b5b8235905067ffffffffffffffff8111156127875761278661383d565b5b6020830191508360208202830111156127a3576127a2613847565b5b9250929050565b6000813590506127b981613e26565b92915050565b6000813590506127ce81613e3d565b92915050565b6000815190506127e381613e3d565b92915050565b600082601f8301126127fe576127fd613842565b5b813561280e8482602086016126fd565b91505092915050565b60008135905061282681613e54565b92915050565b60008135905061283b81613e6b565b92915050565b60006020828403121561285757612856613856565b5b60006128658482850161273f565b91505092915050565b6000806040838503121561288557612884613856565b5b60006128938582860161273f565b92505060206128a48582860161273f565b9150509250929050565b6000806000606084860312156128c7576128c6613856565b5b60006128d58682870161273f565b93505060206128e68682870161273f565b92505060406128f786828701612817565b9150509250925092565b6000806000806080858703121561291b5761291a613856565b5b60006129298782880161273f565b945050602061293a8782880161273f565b935050604061294b87828801612817565b925050606085013567ffffffffffffffff81111561296c5761296b613851565b5b612978878288016127e9565b91505092959194509250565b6000806040838503121561299b5761299a613856565b5b60006129a98582860161273f565b92505060206129ba858286016127aa565b9150509250929050565b600080604083850312156129db576129da613856565b5b60006129e98582860161273f565b92505060206129fa85828601612817565b9150509250929050565b60008060208385031215612a1b57612a1a613856565b5b600083013567ffffffffffffffff811115612a3957612a38613851565b5b612a4585828601612754565b92509250509250929050565b600060208284031215612a6757612a66613856565b5b6000612a75848285016127aa565b91505092915050565b600060208284031215612a9457612a93613856565b5b6000612aa2848285016127bf565b91505092915050565b600060208284031215612ac157612ac0613856565b5b6000612acf848285016127d4565b91505092915050565b600060208284031215612aee57612aed613856565b5b6000612afc84828501612817565b91505092915050565b600060208284031215612b1b57612b1a613856565b5b6000612b298482850161282c565b91505092915050565b612b3b81613582565b82525050565b612b4a81613594565b82525050565b6000612b5b826133e5565b612b6581856133fb565b9350612b75818560208601613615565b612b7e8161385b565b840191505092915050565b6000612b94826133f0565b612b9e8185613417565b9350612bae818560208601613615565b612bb78161385b565b840191505092915050565b6000612bcd826133f0565b612bd78185613428565b9350612be7818560208601613615565b80840191505092915050565b6000612c00603283613417565b9150612c0b8261386c565b604082019050919050565b6000612c23602683613417565b9150612c2e826138bb565b604082019050919050565b6000612c46601c83613417565b9150612c518261390a565b602082019050919050565b6000612c69601683613417565b9150612c7482613933565b602082019050919050565b6000612c8c602483613417565b9150612c978261395c565b604082019050919050565b6000612caf601983613417565b9150612cba826139ab565b602082019050919050565b6000612cd2600d83613417565b9150612cdd826139d4565b602082019050919050565b6000612cf5602c83613417565b9150612d00826139fd565b604082019050919050565b6000612d18603883613417565b9150612d2382613a4c565b604082019050919050565b6000612d3b602a83613417565b9150612d4682613a9b565b604082019050919050565b6000612d5e602983613417565b9150612d6982613aea565b604082019050919050565b6000612d81602083613417565b9150612d8c82613b39565b602082019050919050565b6000612da4602c83613417565b9150612daf82613b62565b604082019050919050565b6000612dc7602083613417565b9150612dd282613bb1565b602082019050919050565b6000612dea602983613417565b9150612df582613bda565b604082019050919050565b6000612e0d602f83613417565b9150612e1882613c29565b604082019050919050565b6000612e30600d83613417565b9150612e3b82613c78565b602082019050919050565b6000612e53602183613417565b9150612e5e82613ca1565b604082019050919050565b6000612e76600d83613417565b9150612e8182613cf0565b602082019050919050565b6000612e9960008361340c565b9150612ea482613d19565b600082019050919050565b6000612ebc603183613417565b9150612ec782613d1c565b604082019050919050565b6000612edf601183613417565b9150612eea82613d6b565b602082019050919050565b6000612f02601083613417565b9150612f0d82613d94565b602082019050919050565b6000612f25601183613417565b9150612f3082613dbd565b602082019050919050565b6000612f48601283613417565b9150612f5382613de6565b602082019050919050565b612f67816135ec565b82525050565b612f76816135f6565b82525050565b6000612f888285612bc2565b9150612f948284612bc2565b91508190509392505050565b6000612fab82612e8c565b9150819050919050565b6000602082019050612fca6000830184612b32565b92915050565b6000608082019050612fe56000830187612b32565b612ff26020830186612b32565b612fff6040830185612f5e565b81810360608301526130118184612b50565b905095945050505050565b60006020820190506130316000830184612b41565b92915050565b600060208201905081810360008301526130518184612b89565b905092915050565b6000602082019050818103600083015261307281612bf3565b9050919050565b6000602082019050818103600083015261309281612c16565b9050919050565b600060208201905081810360008301526130b281612c39565b9050919050565b600060208201905081810360008301526130d281612c5c565b9050919050565b600060208201905081810360008301526130f281612c7f565b9050919050565b6000602082019050818103600083015261311281612ca2565b9050919050565b6000602082019050818103600083015261313281612cc5565b9050919050565b6000602082019050818103600083015261315281612ce8565b9050919050565b6000602082019050818103600083015261317281612d0b565b9050919050565b6000602082019050818103600083015261319281612d2e565b9050919050565b600060208201905081810360008301526131b281612d51565b9050919050565b600060208201905081810360008301526131d281612d74565b9050919050565b600060208201905081810360008301526131f281612d97565b9050919050565b6000602082019050818103600083015261321281612dba565b9050919050565b6000602082019050818103600083015261323281612ddd565b9050919050565b6000602082019050818103600083015261325281612e00565b9050919050565b6000602082019050818103600083015261327281612e23565b9050919050565b6000602082019050818103600083015261329281612e46565b9050919050565b600060208201905081810360008301526132b281612e69565b9050919050565b600060208201905081810360008301526132d281612eaf565b9050919050565b600060208201905081810360008301526132f281612ed2565b9050919050565b6000602082019050818103600083015261331281612ef5565b9050919050565b6000602082019050818103600083015261333281612f18565b9050919050565b6000602082019050818103600083015261335281612f3b565b9050919050565b600060208201905061336e6000830184612f5e565b92915050565b60006020820190506133896000830184612f6d565b92915050565b60006133996133aa565b90506133a5828261367a565b919050565b6000604051905090565b600067ffffffffffffffff8211156133cf576133ce61380e565b5b6133d88261385b565b9050602081019050919050565b600081519050919050565b600081519050919050565b600082825260208201905092915050565b600081905092915050565b600082825260208201905092915050565b600081905092915050565b600061343e826135ec565b9150613449836135ec565b9250827fffffffffffffffffffffffffffffffffffffffffffffffffffffffffffffffff0382111561347e5761347d613752565b5b828201905092915050565b6000613494826135f6565b915061349f836135f6565b92508263ffffffff038211156134b8576134b7613752565b5b828201905092915050565b60006134ce826135ec565b91506134d9836135ec565b9250826134e9576134e8613781565b5b828204905092915050565b60006134ff826135ec565b915061350a836135ec565b9250817fffffffffffffffffffffffffffffffffffffffffffffffffffffffffffffffff048311821515161561354357613542613752565b5b828202905092915050565b6000613559826135ec565b9150613564836135ec565b92508282101561357757613576613752565b5b828203905092915050565b600061358d826135cc565b9050919050565b60008115159050919050565b60007fffffffff0000000000000000000000000000000000000000000000000000000082169050919050565b600073ffffffffffffffffffffffffffffffffffffffff82169050919050565b6000819050919050565b600063ffffffff82169050919050565b82818337600083830152505050565b60005b83811015613633578082015181840152602081019050613618565b83811115613642576000848401525b50505050565b6000600282049050600182168061366057607f821691505b60208210811415613674576136736137b0565b5b50919050565b6136838261385b565b810181811067ffffffffffffffff821117156136a2576136a161380e565b5b80604052505050565b60006136b6826135ec565b91507fffffffffffffffffffffffffffffffffffffffffffffffffffffffffffffffff8214156136e9576136e8613752565b5b600182019050919050565b60006136ff826135f6565b915063ffffffff82141561371657613715613752565b5b600182019050919050565b600061372c826135ec565b9150613737836135ec565b92508261374757613746613781565b5b828206905092915050565b7f4e487b7100000000000000000000000000000000000000000000000000000000600052601160045260246000fd5b7f4e487b7100000000000000000000000000000000000000000000000000000000600052601260045260246000fd5b7f4e487b7100000000000000000000000000000000000000000000000000000000600052602260045260246000fd5b7f4e487b7100000000000000000000000000000000000000000000000000000000600052603260045260246000fd5b7f4e487b7100000000000000000000000000000000000000000000000000000000600052604160045260246000fd5b600080fd5b600080fd5b600080fd5b600080fd5b600080fd5b600080fd5b6000601f19601f8301169050919050565b7f4552433732313a207472616e7366657220746f206e6f6e20455243373231526560008201527f63656976657220696d706c656d656e7465720000000000000000000000000000602082015250565b7f4f776e61626c653a206e6577206f776e657220697320746865207a65726f206160008201527f6464726573730000000000000000000000000000000000000000000000000000602082015250565b7f4552433732313a20746f6b656e20616c7265616479206d696e74656400000000600082015250565b7f4d617820746f74616c206d696e74207265616368656400000000000000000000600082015250565b7f4552433732313a207472616e7366657220746f20746865207a65726f2061646460008201527f7265737300000000000000000000000000000000000000000000000000000000602082015250565b7f4552433732313a20617070726f766520746f2063616c6c657200000000000000600082015250565b7f4c696d6974207265616368656400000000000000000000000000000000000000600082015250565b7f4552433732313a206f70657261746f7220717565727920666f72206e6f6e657860008201527f697374656e7420746f6b656e0000000000000000000000000000000000000000602082015250565b7f4552433732313a20617070726f76652063616c6c6572206973206e6f74206f7760008201527f6e6572206e6f7220617070726f76656420666f7220616c6c0000000000000000602082015250565b7f4552433732313a2062616c616e636520717565727920666f7220746865207a6560008201527f726f206164647265737300000000000000000000000000000000000000000000602082015250565b7f4552433732313a206f776e657220717565727920666f72206e6f6e657869737460008201527f656e7420746f6b656e0000000000000000000000000000000000000000000000602082015250565b7f4552433732313a206d696e7420746f20746865207a65726f2061646472657373600082015250565b7f4552433732313a20617070726f76656420717565727920666f72206e6f6e657860008201527f697374656e7420746f6b656e0000000000000000000000000000000000000000602082015250565b7f4f776e61626c653a2063616c6c6572206973206e6f7420746865206f776e6572600082015250565b7f4552433732313a207472616e73666572206f6620746f6b656e2074686174206960008201527f73206e6f74206f776e0000000000000000000000000000000000000000000000602082015250565b7f4552433732314d657461646174613a2055524920717565727920666f72206e6f60008201527f6e6578697374656e7420746f6b656e0000000000000000000000000000000000602082015250565b7f4d696e7420736f6c64206f757400000000000000000000000000000000000000600082015250565b7f4552433732313a20617070726f76616c20746f2063757272656e74206f776e6560008201527f7200000000000000000000000000000000000000000000000000000000000000602082015250565b7f4d696e74206e6f74206f70656e00000000000000000000000000000000000000600082015250565b50565b7f4552433732313a207472616e736665722063616c6c6572206973206e6f74206f60008201527f776e6572206e6f7220617070726f766564000000000000000000000000000000602082015250565b7f496e636f72726563742041646472657373000000000000000000000000000000600082015250565b7f4e6f7420656e6f7567682066756e642e00000000000000000000000000000000600082015250565b7f4d6178206d696e7420726561636865642e000000000000000000000000000000600082015250565b7f4d696e74206174206c65617374206f6e652e0000000000000000000000000000600082015250565b613e1881613582565b8114613e2357600080fd5b50565b613e2f81613594565b8114613e3a57600080fd5b50565b613e46816135a0565b8114613e5157600080fd5b50565b613e5d816135ec565b8114613e6857600080fd5b50565b613e74816135f6565b8114613e7f57600080fd5b5056fea2646970667358221220f1a643cfeece97b9283cc81d4201f83c8bcefd190d6933b7bb862bc9c057db2364736f6c63430008070033",
  "immutableReferences": {},
  "source": "// Sources flattened with hardhat v2.8.0 https://hardhat.org\n\n// File @openzeppelin/contracts/utils/introspection/IERC165.sol@v4.4.1\n\n// OpenZeppelin Contracts v4.4.1 (utils/introspection/IERC165.sol)\n\npragma solidity ^0.8.0;\n\n/**\n * @dev Interface of the ERC165 standard, as defined in the\n * https://eips.ethereum.org/EIPS/eip-165[EIP].\n *\n * Implementers can declare support of contract interfaces, which can then be\n * queried by others ({ERC165Checker}).\n *\n * For an implementation, see {ERC165}.\n */\ninterface IERC165 {\n    /**\n     * @dev Returns true if this contract implements the interface defined by\n     * `interfaceId`. See the corresponding\n     * https://eips.ethereum.org/EIPS/eip-165#how-interfaces-are-identified[EIP section]\n     * to learn more about how these ids are created.\n     *\n     * This function call must use less than 30 000 gas.\n     */\n    function supportsInterface(bytes4 interfaceId) external view returns (bool);\n}\n\n\n// File @openzeppelin/contracts/token/ERC721/IERC721.sol@v4.4.1\n\n// OpenZeppelin Contracts v4.4.1 (token/ERC721/IERC721.sol)\n\npragma solidity ^0.8.0;\n\n/**\n * @dev Required interface of an ERC721 compliant contract.\n */\ninterface IERC721 is IERC165 {\n    /**\n     * @dev Emitted when `tokenId` token is transferred from `from` to `to`.\n     */\n    event Transfer(address indexed from, address indexed to, uint256 indexed tokenId);\n\n    /**\n     * @dev Emitted when `owner` enables `approved` to manage the `tokenId` token.\n     */\n    event Approval(address indexed owner, address indexed approved, uint256 indexed tokenId);\n\n    /**\n     * @dev Emitted when `owner` enables or disables (`approved`) `operator` to manage all of its assets.\n     */\n    event ApprovalForAll(address indexed owner, address indexed operator, bool approved);\n\n    /**\n     * @dev Returns the number of tokens in ``owner``'s account.\n     */\n    function balanceOf(address owner) external view returns (uint256 balance);\n\n    /**\n     * @dev Returns the owner of the `tokenId` token.\n     *\n     * Requirements:\n     *\n     * - `tokenId` must exist.\n     */\n    function ownerOf(uint256 tokenId) external view returns (address owner);\n\n    /**\n     * @dev Safely transfers `tokenId` token from `from` to `to`, checking first that contract recipients\n     * are aware of the ERC721 protocol to prevent tokens from being forever locked.\n     *\n     * Requirements:\n     *\n     * - `from` cannot be the zero address.\n     * - `to` cannot be the zero address.\n     * - `tokenId` token must exist and be owned by `from`.\n     * - If the caller is not `from`, it must be have been allowed to move this token by either {approve} or {setApprovalForAll}.\n     * - If `to` refers to a smart contract, it must implement {IERC721Receiver-onERC721Received}, which is called upon a safe transfer.\n     *\n     * Emits a {Transfer} event.\n     */\n    function safeTransferFrom(\n        address from,\n        address to,\n        uint256 tokenId\n    ) external;\n\n    /**\n     * @dev Transfers `tokenId` token from `from` to `to`.\n     *\n     * WARNING: Usage of this method is discouraged, use {safeTransferFrom} whenever possible.\n     *\n     * Requirements:\n     *\n     * - `from` cannot be the zero address.\n     * - `to` cannot be the zero address.\n     * - `tokenId` token must be owned by `from`.\n     * - If the caller is not `from`, it must be approved to move this token by either {approve} or {setApprovalForAll}.\n     *\n     * Emits a {Transfer} event.\n     */\n    function transferFrom(\n        address from,\n        address to,\n        uint256 tokenId\n    ) external;\n\n    /**\n     * @dev Gives permission to `to` to transfer `tokenId` token to another account.\n     * The approval is cleared when the token is transferred.\n     *\n     * Only a single account can be approved at a time, so approving the zero address clears previous approvals.\n     *\n     * Requirements:\n     *\n     * - The caller must own the token or be an approved operator.\n     * - `tokenId` must exist.\n     *\n     * Emits an {Approval} event.\n     */\n    function approve(address to, uint256 tokenId) external;\n\n    /**\n     * @dev Returns the account approved for `tokenId` token.\n     *\n     * Requirements:\n     *\n     * - `tokenId` must exist.\n     */\n    function getApproved(uint256 tokenId) external view returns (address operator);\n\n    /**\n     * @dev Approve or remove `operator` as an operator for the caller.\n     * Operators can call {transferFrom} or {safeTransferFrom} for any token owned by the caller.\n     *\n     * Requirements:\n     *\n     * - The `operator` cannot be the caller.\n     *\n     * Emits an {ApprovalForAll} event.\n     */\n    function setApprovalForAll(address operator, bool _approved) external;\n\n    /**\n     * @dev Returns if the `operator` is allowed to manage all of the assets of `owner`.\n     *\n     * See {setApprovalForAll}\n     */\n    function isApprovedForAll(address owner, address operator) external view returns (bool);\n\n    /**\n     * @dev Safely transfers `tokenId` token from `from` to `to`.\n     *\n     * Requirements:\n     *\n     * - `from` cannot be the zero address.\n     * - `to` cannot be the zero address.\n     * - `tokenId` token must exist and be owned by `from`.\n     * - If the caller is not `from`, it must be approved to move this token by either {approve} or {setApprovalForAll}.\n     * - If `to` refers to a smart contract, it must implement {IERC721Receiver-onERC721Received}, which is called upon a safe transfer.\n     *\n     * Emits a {Transfer} event.\n     */\n    function safeTransferFrom(\n        address from,\n        address to,\n        uint256 tokenId,\n        bytes calldata data\n    ) external;\n}\n\n\n// File @openzeppelin/contracts/token/ERC721/IERC721Receiver.sol@v4.4.1\n\n// OpenZeppelin Contracts v4.4.1 (token/ERC721/IERC721Receiver.sol)\n\npragma solidity ^0.8.0;\n\n/**\n * @title ERC721 token receiver interface\n * @dev Interface for any contract that wants to support safeTransfers\n * from ERC721 asset contracts.\n */\ninterface IERC721Receiver {\n    /**\n     * @dev Whenever an {IERC721} `tokenId` token is transferred to this contract via {IERC721-safeTransferFrom}\n     * by `operator` from `from`, this function is called.\n     *\n     * It must return its Solidity selector to confirm the token transfer.\n     * If any other value is returned or the interface is not implemented by the recipient, the transfer will be reverted.\n     *\n     * The selector can be obtained in Solidity with `IERC721.onERC721Received.selector`.\n     */\n    function onERC721Received(\n        address operator,\n        address from,\n        uint256 tokenId,\n        bytes calldata data\n    ) external returns (bytes4);\n}\n\n\n// File @openzeppelin/contracts/token/ERC721/extensions/IERC721Metadata.sol@v4.4.1\n\n// OpenZeppelin Contracts v4.4.1 (token/ERC721/extensions/IERC721Metadata.sol)\n\npragma solidity ^0.8.0;\n\n/**\n * @title ERC-721 Non-Fungible Token Standard, optional metadata extension\n * @dev See https://eips.ethereum.org/EIPS/eip-721\n */\ninterface IERC721Metadata is IERC721 {\n    /**\n     * @dev Returns the token collection name.\n     */\n    function name() external view returns (string memory);\n\n    /**\n     * @dev Returns the token collection symbol.\n     */\n    function symbol() external view returns (string memory);\n\n    /**\n     * @dev Returns the Uniform Resource Identifier (URI) for `tokenId` token.\n     */\n    function tokenURI(uint256 tokenId) external view returns (string memory);\n}\n\n\n// File @openzeppelin/contracts/utils/Address.sol@v4.4.1\n\n// OpenZeppelin Contracts v4.4.1 (utils/Address.sol)\n\npragma solidity ^0.8.0;\n\n/**\n * @dev Collection of functions related to the address type\n */\nlibrary Address {\n    /**\n     * @dev Returns true if `account` is a contract.\n     *\n     * [IMPORTANT]\n     * ====\n     * It is unsafe to assume that an address for which this function returns\n     * false is an externally-owned account (EOA) and not a contract.\n     *\n     * Among others, `isContract` will return false for the following\n     * types of addresses:\n     *\n     *  - an externally-owned account\n     *  - a contract in construction\n     *  - an address where a contract will be created\n     *  - an address where a contract lived, but was destroyed\n     * ====\n     */\n    function isContract(address account) internal view returns (bool) {\n        // This method relies on extcodesize, which returns 0 for contracts in\n        // construction, since the code is only stored at the end of the\n        // constructor execution.\n\n        uint256 size;\n        assembly {\n            size := extcodesize(account)\n        }\n        return size > 0;\n    }\n\n    /**\n     * @dev Replacement for Solidity's `transfer`: sends `amount` wei to\n     * `recipient`, forwarding all available gas and reverting on errors.\n     *\n     * https://eips.ethereum.org/EIPS/eip-1884[EIP1884] increases the gas cost\n     * of certain opcodes, possibly making contracts go over the 2300 gas limit\n     * imposed by `transfer`, making them unable to receive funds via\n     * `transfer`. {sendValue} removes this limitation.\n     *\n     * https://diligence.consensys.net/posts/2019/09/stop-using-soliditys-transfer-now/[Learn more].\n     *\n     * IMPORTANT: because control is transferred to `recipient`, care must be\n     * taken to not create reentrancy vulnerabilities. Consider using\n     * {ReentrancyGuard} or the\n     * https://solidity.readthedocs.io/en/v0.5.11/security-considerations.html#use-the-checks-effects-interactions-pattern[checks-effects-interactions pattern].\n     */\n    function sendValue(address payable recipient, uint256 amount) internal {\n        require(address(this).balance >= amount, \"Address: insufficient balance\");\n\n        (bool success, ) = recipient.call{value: amount}(\"\");\n        require(success, \"Address: unable to send value, recipient may have reverted\");\n    }\n\n    /**\n     * @dev Performs a Solidity function call using a low level `call`. A\n     * plain `call` is an unsafe replacement for a function call: use this\n     * function instead.\n     *\n     * If `target` reverts with a revert reason, it is bubbled up by this\n     * function (like regular Solidity function calls).\n     *\n     * Returns the raw returned data. To convert to the expected return value,\n     * use https://solidity.readthedocs.io/en/latest/units-and-global-variables.html?highlight=abi.decode#abi-encoding-and-decoding-functions[`abi.decode`].\n     *\n     * Requirements:\n     *\n     * - `target` must be a contract.\n     * - calling `target` with `data` must not revert.\n     *\n     * _Available since v3.1._\n     */\n    function functionCall(address target, bytes memory data) internal returns (bytes memory) {\n        return functionCall(target, data, \"Address: low-level call failed\");\n    }\n\n    /**\n     * @dev Same as {xref-Address-functionCall-address-bytes-}[`functionCall`], but with\n     * `errorMessage` as a fallback revert reason when `target` reverts.\n     *\n     * _Available since v3.1._\n     */\n    function functionCall(\n        address target,\n        bytes memory data,\n        string memory errorMessage\n    ) internal returns (bytes memory) {\n        return functionCallWithValue(target, data, 0, errorMessage);\n    }\n\n    /**\n     * @dev Same as {xref-Address-functionCall-address-bytes-}[`functionCall`],\n     * but also transferring `value` wei to `target`.\n     *\n     * Requirements:\n     *\n     * - the calling contract must have an ETH balance of at least `value`.\n     * - the called Solidity function must be `payable`.\n     *\n     * _Available since v3.1._\n     */\n    function functionCallWithValue(\n        address target,\n        bytes memory data,\n        uint256 value\n    ) internal returns (bytes memory) {\n        return functionCallWithValue(target, data, value, \"Address: low-level call with value failed\");\n    }\n\n    /**\n     * @dev Same as {xref-Address-functionCallWithValue-address-bytes-uint256-}[`functionCallWithValue`], but\n     * with `errorMessage` as a fallback revert reason when `target` reverts.\n     *\n     * _Available since v3.1._\n     */\n    function functionCallWithValue(\n        address target,\n        bytes memory data,\n        uint256 value,\n        string memory errorMessage\n    ) internal returns (bytes memory) {\n        require(address(this).balance >= value, \"Address: insufficient balance for call\");\n        require(isContract(target), \"Address: call to non-contract\");\n\n        (bool success, bytes memory returndata) = target.call{value: value}(data);\n        return verifyCallResult(success, returndata, errorMessage);\n    }\n\n    /**\n     * @dev Same as {xref-Address-functionCall-address-bytes-}[`functionCall`],\n     * but performing a static call.\n     *\n     * _Available since v3.3._\n     */\n    function functionStaticCall(address target, bytes memory data) internal view returns (bytes memory) {\n        return functionStaticCall(target, data, \"Address: low-level static call failed\");\n    }\n\n    /**\n     * @dev Same as {xref-Address-functionCall-address-bytes-string-}[`functionCall`],\n     * but performing a static call.\n     *\n     * _Available since v3.3._\n     */\n    function functionStaticCall(\n        address target,\n        bytes memory data,\n        string memory errorMessage\n    ) internal view returns (bytes memory) {\n        require(isContract(target), \"Address: static call to non-contract\");\n\n        (bool success, bytes memory returndata) = target.staticcall(data);\n        return verifyCallResult(success, returndata, errorMessage);\n    }\n\n    /**\n     * @dev Same as {xref-Address-functionCall-address-bytes-}[`functionCall`],\n     * but performing a delegate call.\n     *\n     * _Available since v3.4._\n     */\n    function functionDelegateCall(address target, bytes memory data) internal returns (bytes memory) {\n        return functionDelegateCall(target, data, \"Address: low-level delegate call failed\");\n    }\n\n    /**\n     * @dev Same as {xref-Address-functionCall-address-bytes-string-}[`functionCall`],\n     * but performing a delegate call.\n     *\n     * _Available since v3.4._\n     */\n    function functionDelegateCall(\n        address target,\n        bytes memory data,\n        string memory errorMessage\n    ) internal returns (bytes memory) {\n        require(isContract(target), \"Address: delegate call to non-contract\");\n\n        (bool success, bytes memory returndata) = target.delegatecall(data);\n        return verifyCallResult(success, returndata, errorMessage);\n    }\n\n    /**\n     * @dev Tool to verifies that a low level call was successful, and revert if it wasn't, either by bubbling the\n     * revert reason using the provided one.\n     *\n     * _Available since v4.3._\n     */\n    function verifyCallResult(\n        bool success,\n        bytes memory returndata,\n        string memory errorMessage\n    ) internal pure returns (bytes memory) {\n        if (success) {\n            return returndata;\n        } else {\n            // Look for revert reason and bubble it up if present\n            if (returndata.length > 0) {\n                // The easiest way to bubble the revert reason is using memory via assembly\n\n                assembly {\n                    let returndata_size := mload(returndata)\n                    revert(add(32, returndata), returndata_size)\n                }\n            } else {\n                revert(errorMessage);\n            }\n        }\n    }\n}\n\n\n// File @openzeppelin/contracts/utils/Context.sol@v4.4.1\n\n// OpenZeppelin Contracts v4.4.1 (utils/Context.sol)\n\npragma solidity ^0.8.0;\n\n/**\n * @dev Provides information about the current execution context, including the\n * sender of the transaction and its data. While these are generally available\n * via msg.sender and msg.data, they should not be accessed in such a direct\n * manner, since when dealing with meta-transactions the account sending and\n * paying for execution may not be the actual sender (as far as an application\n * is concerned).\n *\n * This contract is only required for intermediate, library-like contracts.\n */\nabstract contract Context {\n    function _msgSender() internal view virtual returns (address) {\n        return msg.sender;\n    }\n\n    function _msgData() internal view virtual returns (bytes calldata) {\n        return msg.data;\n    }\n}\n\n\n// File @openzeppelin/contracts/utils/Strings.sol@v4.4.1\n\n// OpenZeppelin Contracts v4.4.1 (utils/Strings.sol)\n\npragma solidity ^0.8.0;\n\n/**\n * @dev String operations.\n */\nlibrary Strings {\n    bytes16 private constant _HEX_SYMBOLS = \"0123456789abcdef\";\n\n    /**\n     * @dev Converts a `uint256` to its ASCII `string` decimal representation.\n     */\n    function toString(uint256 value) internal pure returns (string memory) {\n        // Inspired by OraclizeAPI's implementation - MIT licence\n        // https://github.com/oraclize/ethereum-api/blob/b42146b063c7d6ee1358846c198246239e9360e8/oraclizeAPI_0.4.25.sol\n\n        if (value == 0) {\n            return \"0\";\n        }\n        uint256 temp = value;\n        uint256 digits;\n        while (temp != 0) {\n            digits++;\n            temp /= 10;\n        }\n        bytes memory buffer = new bytes(digits);\n        while (value != 0) {\n            digits -= 1;\n            buffer[digits] = bytes1(uint8(48 + uint256(value % 10)));\n            value /= 10;\n        }\n        return string(buffer);\n    }\n\n    /**\n     * @dev Converts a `uint256` to its ASCII `string` hexadecimal representation.\n     */\n    function toHexString(uint256 value) internal pure returns (string memory) {\n        if (value == 0) {\n            return \"0x00\";\n        }\n        uint256 temp = value;\n        uint256 length = 0;\n        while (temp != 0) {\n            length++;\n            temp >>= 8;\n        }\n        return toHexString(value, length);\n    }\n\n    /**\n     * @dev Converts a `uint256` to its ASCII `string` hexadecimal representation with fixed length.\n     */\n    function toHexString(uint256 value, uint256 length) internal pure returns (string memory) {\n        bytes memory buffer = new bytes(2 * length + 2);\n        buffer[0] = \"0\";\n        buffer[1] = \"x\";\n        for (uint256 i = 2 * length + 1; i > 1; --i) {\n            buffer[i] = _HEX_SYMBOLS[value & 0xf];\n            value >>= 4;\n        }\n        require(value == 0, \"Strings: hex length insufficient\");\n        return string(buffer);\n    }\n}\n\n\n// File @openzeppelin/contracts/utils/introspection/ERC165.sol@v4.4.1\n\n// OpenZeppelin Contracts v4.4.1 (utils/introspection/ERC165.sol)\n\npragma solidity ^0.8.0;\n\n/**\n * @dev Implementation of the {IERC165} interface.\n *\n * Contracts that want to implement ERC165 should inherit from this contract and override {supportsInterface} to check\n * for the additional interface id that will be supported. For example:\n *\n * ```solidity\n * function supportsInterface(bytes4 interfaceId) public view virtual override returns (bool) {\n *     return interfaceId == type(MyInterface).interfaceId || super.supportsInterface(interfaceId);\n * }\n * ```\n *\n * Alternatively, {ERC165Storage} provides an easier to use but more expensive implementation.\n */\nabstract contract ERC165 is IERC165 {\n    /**\n     * @dev See {IERC165-supportsInterface}.\n     */\n    function supportsInterface(bytes4 interfaceId) public view virtual override returns (bool) {\n        return interfaceId == type(IERC165).interfaceId;\n    }\n}\n\n\n// File @openzeppelin/contracts/token/ERC721/ERC721.sol@v4.4.1\n\n// OpenZeppelin Contracts v4.4.1 (token/ERC721/ERC721.sol)\n\npragma solidity ^0.8.0;\n\n\n\n\n\n\n\n/**\n * @dev Implementation of https://eips.ethereum.org/EIPS/eip-721[ERC721] Non-Fungible Token Standard, including\n * the Metadata extension, but not including the Enumerable extension, which is available separately as\n * {ERC721Enumerable}.\n */\ncontract ERC721 is Context, ERC165, IERC721, IERC721Metadata {\n    using Address for address;\n    using Strings for uint256;\n\n    // Token name\n    string private _name;\n\n    // Token symbol\n    string private _symbol;\n\n    // Mapping from token ID to owner address\n    mapping(uint256 => address) private _owners;\n\n    // Mapping owner address to token count\n    mapping(address => uint256) private _balances;\n\n    // Mapping from token ID to approved address\n    mapping(uint256 => address) private _tokenApprovals;\n\n    // Mapping from owner to operator approvals\n    mapping(address => mapping(address => bool)) private _operatorApprovals;\n\n    /**\n     * @dev Initializes the contract by setting a `name` and a `symbol` to the token collection.\n     */\n    constructor(string memory name_, string memory symbol_) {\n        _name = name_;\n        _symbol = symbol_;\n    }\n\n    /**\n     * @dev See {IERC165-supportsInterface}.\n     */\n    function supportsInterface(bytes4 interfaceId) public view virtual override(ERC165, IERC165) returns (bool) {\n        return\n            interfaceId == type(IERC721).interfaceId ||\n            interfaceId == type(IERC721Metadata).interfaceId ||\n            super.supportsInterface(interfaceId);\n    }\n\n    /**\n     * @dev See {IERC721-balanceOf}.\n     */\n    function balanceOf(address owner) public view virtual override returns (uint256) {\n        require(owner != address(0), \"ERC721: balance query for the zero address\");\n        return _balances[owner];\n    }\n\n    /**\n     * @dev See {IERC721-ownerOf}.\n     */\n    function ownerOf(uint256 tokenId) public view virtual override returns (address) {\n        address owner = _owners[tokenId];\n        require(owner != address(0), \"ERC721: owner query for nonexistent token\");\n        return owner;\n    }\n\n    /**\n     * @dev See {IERC721Metadata-name}.\n     */\n    function name() public view virtual override returns (string memory) {\n        return _name;\n    }\n\n    /**\n     * @dev See {IERC721Metadata-symbol}.\n     */\n    function symbol() public view virtual override returns (string memory) {\n        return _symbol;\n    }\n\n    /**\n     * @dev See {IERC721Metadata-tokenURI}.\n     */\n    function tokenURI(uint256 tokenId) public view virtual override returns (string memory) {\n        require(_exists(tokenId), \"ERC721Metadata: URI query for nonexistent token\");\n\n        string memory baseURI = _baseURI();\n        return bytes(baseURI).length > 0 ? string(abi.encodePacked(baseURI, tokenId.toString())) : \"\";\n    }\n\n    /**\n     * @dev Base URI for computing {tokenURI}. If set, the resulting URI for each\n     * token will be the concatenation of the `baseURI` and the `tokenId`. Empty\n     * by default, can be overriden in child contracts.\n     */\n    function _baseURI() internal view virtual returns (string memory) {\n        return \"\";\n    }\n\n    /**\n     * @dev See {IERC721-approve}.\n     */\n    function approve(address to, uint256 tokenId) public virtual override {\n        address owner = ERC721.ownerOf(tokenId);\n        require(to != owner, \"ERC721: approval to current owner\");\n\n        require(\n            _msgSender() == owner || isApprovedForAll(owner, _msgSender()),\n            \"ERC721: approve caller is not owner nor approved for all\"\n        );\n\n        _approve(to, tokenId);\n    }\n\n    /**\n     * @dev See {IERC721-getApproved}.\n     */\n    function getApproved(uint256 tokenId) public view virtual override returns (address) {\n        require(_exists(tokenId), \"ERC721: approved query for nonexistent token\");\n\n        return _tokenApprovals[tokenId];\n    }\n\n    /**\n     * @dev See {IERC721-setApprovalForAll}.\n     */\n    function setApprovalForAll(address operator, bool approved) public virtual override {\n        _setApprovalForAll(_msgSender(), operator, approved);\n    }\n\n    /**\n     * @dev See {IERC721-isApprovedForAll}.\n     */\n    function isApprovedForAll(address owner, address operator) public view virtual override returns (bool) {\n        return _operatorApprovals[owner][operator];\n    }\n\n    /**\n     * @dev See {IERC721-transferFrom}.\n     */\n    function transferFrom(\n        address from,\n        address to,\n        uint256 tokenId\n    ) public virtual override {\n        //solhint-disable-next-line max-line-length\n        require(_isApprovedOrOwner(_msgSender(), tokenId), \"ERC721: transfer caller is not owner nor approved\");\n\n        _transfer(from, to, tokenId);\n    }\n\n    /**\n     * @dev See {IERC721-safeTransferFrom}.\n     */\n    function safeTransferFrom(\n        address from,\n        address to,\n        uint256 tokenId\n    ) public virtual override {\n        safeTransferFrom(from, to, tokenId, \"\");\n    }\n\n    /**\n     * @dev See {IERC721-safeTransferFrom}.\n     */\n    function safeTransferFrom(\n        address from,\n        address to,\n        uint256 tokenId,\n        bytes memory _data\n    ) public virtual override {\n        require(_isApprovedOrOwner(_msgSender(), tokenId), \"ERC721: transfer caller is not owner nor approved\");\n        _safeTransfer(from, to, tokenId, _data);\n    }\n\n    /**\n     * @dev Safely transfers `tokenId` token from `from` to `to`, checking first that contract recipients\n     * are aware of the ERC721 protocol to prevent tokens from being forever locked.\n     *\n     * `_data` is additional data, it has no specified format and it is sent in call to `to`.\n     *\n     * This internal function is equivalent to {safeTransferFrom}, and can be used to e.g.\n     * implement alternative mechanisms to perform token transfer, such as signature-based.\n     *\n     * Requirements:\n     *\n     * - `from` cannot be the zero address.\n     * - `to` cannot be the zero address.\n     * - `tokenId` token must exist and be owned by `from`.\n     * - If `to` refers to a smart contract, it must implement {IERC721Receiver-onERC721Received}, which is called upon a safe transfer.\n     *\n     * Emits a {Transfer} event.\n     */\n    function _safeTransfer(\n        address from,\n        address to,\n        uint256 tokenId,\n        bytes memory _data\n    ) internal virtual {\n        _transfer(from, to, tokenId);\n        require(_checkOnERC721Received(from, to, tokenId, _data), \"ERC721: transfer to non ERC721Receiver implementer\");\n    }\n\n    /**\n     * @dev Returns whether `tokenId` exists.\n     *\n     * Tokens can be managed by their owner or approved accounts via {approve} or {setApprovalForAll}.\n     *\n     * Tokens start existing when they are minted (`_mint`),\n     * and stop existing when they are burned (`_burn`).\n     */\n    function _exists(uint256 tokenId) internal view virtual returns (bool) {\n        return _owners[tokenId] != address(0);\n    }\n\n    /**\n     * @dev Returns whether `spender` is allowed to manage `tokenId`.\n     *\n     * Requirements:\n     *\n     * - `tokenId` must exist.\n     */\n    function _isApprovedOrOwner(address spender, uint256 tokenId) internal view virtual returns (bool) {\n        require(_exists(tokenId), \"ERC721: operator query for nonexistent token\");\n        address owner = ERC721.ownerOf(tokenId);\n        return (spender == owner || getApproved(tokenId) == spender || isApprovedForAll(owner, spender));\n    }\n\n    /**\n     * @dev Safely mints `tokenId` and transfers it to `to`.\n     *\n     * Requirements:\n     *\n     * - `tokenId` must not exist.\n     * - If `to` refers to a smart contract, it must implement {IERC721Receiver-onERC721Received}, which is called upon a safe transfer.\n     *\n     * Emits a {Transfer} event.\n     */\n    function _safeMint(address to, uint256 tokenId) internal virtual {\n        _safeMint(to, tokenId, \"\");\n    }\n\n    /**\n     * @dev Same as {xref-ERC721-_safeMint-address-uint256-}[`_safeMint`], with an additional `data` parameter which is\n     * forwarded in {IERC721Receiver-onERC721Received} to contract recipients.\n     */\n    function _safeMint(\n        address to,\n        uint256 tokenId,\n        bytes memory _data\n    ) internal virtual {\n        _mint(to, tokenId);\n        require(\n            _checkOnERC721Received(address(0), to, tokenId, _data),\n            \"ERC721: transfer to non ERC721Receiver implementer\"\n        );\n    }\n\n    /**\n     * @dev Mints `tokenId` and transfers it to `to`.\n     *\n     * WARNING: Usage of this method is discouraged, use {_safeMint} whenever possible\n     *\n     * Requirements:\n     *\n     * - `tokenId` must not exist.\n     * - `to` cannot be the zero address.\n     *\n     * Emits a {Transfer} event.\n     */\n    function _mint(address to, uint256 tokenId) internal virtual {\n        require(to != address(0), \"ERC721: mint to the zero address\");\n        require(!_exists(tokenId), \"ERC721: token already minted\");\n\n        _beforeTokenTransfer(address(0), to, tokenId);\n\n        _balances[to] += 1;\n        _owners[tokenId] = to;\n\n        emit Transfer(address(0), to, tokenId);\n    }\n\n    /**\n     * @dev Destroys `tokenId`.\n     * The approval is cleared when the token is burned.\n     *\n     * Requirements:\n     *\n     * - `tokenId` must exist.\n     *\n     * Emits a {Transfer} event.\n     */\n    function _burn(uint256 tokenId) internal virtual {\n        address owner = ERC721.ownerOf(tokenId);\n\n        _beforeTokenTransfer(owner, address(0), tokenId);\n\n        // Clear approvals\n        _approve(address(0), tokenId);\n\n        _balances[owner] -= 1;\n        delete _owners[tokenId];\n\n        emit Transfer(owner, address(0), tokenId);\n    }\n\n    /**\n     * @dev Transfers `tokenId` from `from` to `to`.\n     *  As opposed to {transferFrom}, this imposes no restrictions on msg.sender.\n     *\n     * Requirements:\n     *\n     * - `to` cannot be the zero address.\n     * - `tokenId` token must be owned by `from`.\n     *\n     * Emits a {Transfer} event.\n     */\n    function _transfer(\n        address from,\n        address to,\n        uint256 tokenId\n    ) internal virtual {\n        require(ERC721.ownerOf(tokenId) == from, \"ERC721: transfer of token that is not own\");\n        require(to != address(0), \"ERC721: transfer to the zero address\");\n\n        _beforeTokenTransfer(from, to, tokenId);\n\n        // Clear approvals from the previous owner\n        _approve(address(0), tokenId);\n\n        _balances[from] -= 1;\n        _balances[to] += 1;\n        _owners[tokenId] = to;\n\n        emit Transfer(from, to, tokenId);\n    }\n\n    /**\n     * @dev Approve `to` to operate on `tokenId`\n     *\n     * Emits a {Approval} event.\n     */\n    function _approve(address to, uint256 tokenId) internal virtual {\n        _tokenApprovals[tokenId] = to;\n        emit Approval(ERC721.ownerOf(tokenId), to, tokenId);\n    }\n\n    /**\n     * @dev Approve `operator` to operate on all of `owner` tokens\n     *\n     * Emits a {ApprovalForAll} event.\n     */\n    function _setApprovalForAll(\n        address owner,\n        address operator,\n        bool approved\n    ) internal virtual {\n        require(owner != operator, \"ERC721: approve to caller\");\n        _operatorApprovals[owner][operator] = approved;\n        emit ApprovalForAll(owner, operator, approved);\n    }\n\n    /**\n     * @dev Internal function to invoke {IERC721Receiver-onERC721Received} on a target address.\n     * The call is not executed if the target address is not a contract.\n     *\n     * @param from address representing the previous owner of the given token ID\n     * @param to target address that will receive the tokens\n     * @param tokenId uint256 ID of the token to be transferred\n     * @param _data bytes optional data to send along with the call\n     * @return bool whether the call correctly returned the expected magic value\n     */\n    function _checkOnERC721Received(\n        address from,\n        address to,\n        uint256 tokenId,\n        bytes memory _data\n    ) private returns (bool) {\n        if (to.isContract()) {\n            try IERC721Receiver(to).onERC721Received(_msgSender(), from, tokenId, _data) returns (bytes4 retval) {\n                return retval == IERC721Receiver.onERC721Received.selector;\n            } catch (bytes memory reason) {\n                if (reason.length == 0) {\n                    revert(\"ERC721: transfer to non ERC721Receiver implementer\");\n                } else {\n                    assembly {\n                        revert(add(32, reason), mload(reason))\n                    }\n                }\n            }\n        } else {\n            return true;\n        }\n    }\n\n    /**\n     * @dev Hook that is called before any token transfer. This includes minting\n     * and burning.\n     *\n     * Calling conditions:\n     *\n     * - When `from` and `to` are both non-zero, ``from``'s `tokenId` will be\n     * transferred to `to`.\n     * - When `from` is zero, `tokenId` will be minted for `to`.\n     * - When `to` is zero, ``from``'s `tokenId` will be burned.\n     * - `from` and `to` are never both zero.\n     *\n     * To learn more about hooks, head to xref:ROOT:extending-contracts.adoc#using-hooks[Using Hooks].\n     */\n    function _beforeTokenTransfer(\n        address from,\n        address to,\n        uint256 tokenId\n    ) internal virtual {}\n}\n\n\n// File @openzeppelin/contracts/access/Ownable.sol@v4.4.1\n\n// OpenZeppelin Contracts v4.4.1 (access/Ownable.sol)\n\npragma solidity ^0.8.0;\n\n/**\n * @dev Contract module which provides a basic access control mechanism, where\n * there is an account (an owner) that can be granted exclusive access to\n * specific functions.\n *\n * By default, the owner account will be the one that deploys the contract. This\n * can later be changed with {transferOwnership}.\n *\n * This module is used through inheritance. It will make available the modifier\n * `onlyOwner`, which can be applied to your functions to restrict their use to\n * the owner.\n */\nabstract contract Ownable is Context {\n    address private _owner;\n\n    event OwnershipTransferred(address indexed previousOwner, address indexed newOwner);\n\n    /**\n     * @dev Initializes the contract setting the deployer as the initial owner.\n     */\n    constructor() {\n        _transferOwnership(_msgSender());\n    }\n\n    /**\n     * @dev Returns the address of the current owner.\n     */\n    function owner() public view virtual returns (address) {\n        return _owner;\n    }\n\n    /**\n     * @dev Throws if called by any account other than the owner.\n     */\n    modifier onlyOwner() {\n        require(owner() == _msgSender(), \"Ownable: caller is not the owner\");\n        _;\n    }\n\n    /**\n     * @dev Leaves the contract without owner. It will not be possible to call\n     * `onlyOwner` functions anymore. Can only be called by the current owner.\n     *\n     * NOTE: Renouncing ownership will leave the contract without an owner,\n     * thereby removing any functionality that is only available to the owner.\n     */\n    function renounceOwnership() public virtual onlyOwner {\n        _transferOwnership(address(0));\n    }\n\n    /**\n     * @dev Transfers ownership of the contract to a new account (`newOwner`).\n     * Can only be called by the current owner.\n     */\n    function transferOwnership(address newOwner) public virtual onlyOwner {\n        require(newOwner != address(0), \"Ownable: new owner is the zero address\");\n        _transferOwnership(newOwner);\n    }\n\n    /**\n     * @dev Transfers ownership of the contract to a new account (`newOwner`).\n     * Internal function without access restriction.\n     */\n    function _transferOwnership(address newOwner) internal virtual {\n        address oldOwner = _owner;\n        _owner = newOwner;\n        emit OwnershipTransferred(oldOwner, newOwner);\n    }\n}\n\n\n// File contracts/NFTArtGen.sol\n\n\npragma solidity ^0.8.4;\n\n\n\n// \n// Built by https://nft-generator.art\n// \ncontract NFTArtGen is ERC721, Ownable {\n    string internal baseUri;\n\n    uint256 public cost = 0.05 ether;\n    uint32 public maxPerMint = 5;\n    uint32 public maxPerWallet = 20;\n    uint32 public supply = 0;\n    uint32 public totalSupply = 0;\n    bool public open = false;\n    mapping(address => uint256) internal addressMintedMap;\n\n    uint32 private commission = 49; // 4.9%\n    address private author = 0x460Fd5059E7301680fA53E63bbBF7272E643e89C;\n\n    constructor(\n        string memory _uri,\n        string memory _name,\n        string memory _symbol,\n        uint32 _totalSupply,\n        uint256 _cost,\n        bool _open\n    ) ERC721(_name, _symbol) {\n        baseUri = _uri;\n        totalSupply = _totalSupply;\n        cost = _cost;\n        open = _open;\n    }\n\n    // ------ Author Only ------\n\n    function setCommission(uint32 _commision) public {\n        require(msg.sender == author, \"Incorrect Address\");\n        commission = _commision;\n    }\n\n    // ------ Owner Only ------\n\n    function setCost(uint256 _cost) public onlyOwner {\n        cost = _cost;\n    }\n\n    function setOpen(bool _open) public onlyOwner {\n        open = _open;\n    }\n\n    function setMaxPerWallet(uint32 _max) public onlyOwner {\n        maxPerWallet = _max;\n    }\n\n    function setMaxPerMint(uint32 _max) public onlyOwner {\n        maxPerMint = _max;\n    }\n\n    function airdrop(address[] calldata to) public onlyOwner {\n        for (uint32 i = 0; i < to.length; i++) {\n            require(1 + supply <= totalSupply, \"Limit reached\");\n            _safeMint(to[i], ++supply, \"\");\n        }\n    }\n\n    function withdraw() public payable onlyOwner {\n        (bool success, ) = payable(msg.sender).call{\n            value: address(this).balance\n        }(\"\");\n        require(success);\n    }\n\n    // ------ Mint! ------\n\n    function mint(uint32 count) external payable preMintChecks(count) {\n        require(open == true, \"Mint not open\");\n        performMint(count);\n    }\n\n    function performMint(uint32 count) internal {\n        for (uint32 i = 0; i < count; i++) {\n            _safeMint(msg.sender, ++supply, \"\");\n        }\n        \n        addressMintedMap[msg.sender] += count;\n\n        (bool success, ) = payable(author).call{\n            value: (msg.value * commission) / 1000\n        }(\"\");\n        require(success);\n    }\n\n    // ------ Read ------\n\n    // ------ Modifiers ------\n\n    modifier preMintChecks(uint32 count) {\n        require(count > 0, \"Mint at least one.\");\n        require(count < maxPerMint + 1, \"Max mint reached.\");\n        require(msg.value >= cost * count, \"Not enough fund.\");\n        require(supply + count < totalSupply + 1, \"Mint sold out\");\n        require(\n            addressMintedMap[msg.sender] + count <= maxPerWallet,\n            \"Max total mint reached\"\n        );\n        _;\n    }\n}\n\n\n// File contracts/utils/Revealable.sol\n\n\npragma solidity ^0.8.4;\n\nabstract contract Revealable is NFTArtGen {\n    bool public revealed = false;\n    string internal uriNotRevealed;\n\n    function setUnrevealedURI(string memory _uri) public onlyOwner {\n        uriNotRevealed = _uri;\n    }\n\n    function reveal() public onlyOwner {\n        revealed = true;\n    }\n}\n\n\n// File contracts/extensions/Reveal.sol\n\n\npragma solidity ^0.8.4;\n\n\ncontract NFTArtGenReveal is NFTArtGen, Revealable {\n    constructor(\n        string memory _uri,\n        string memory _name,\n        string memory _symbol,\n        uint32 _totalSupply,\n        uint256 _cost,\n        bool _open\n    ) NFTArtGen(_uri, _name, _symbol, _totalSupply, _cost, _open) {}\n\n    function tokenURI(uint256 _tokenId)\n        public\n        view\n        override\n        returns (string memory)\n    {\n        require(_tokenId <= supply, \"Not minted yet\");\n        if (revealed == false) {\n            return string(\n                abi.encodePacked(uriNotRevealed, Strings.toString(_tokenId), \".json\")\n            );\n        }\n\n        return\n            string(\n                abi.encodePacked(baseUri, Strings.toString(_tokenId), \".json\")\n            );\n    }\n}\n",
  "sourcePath": "/Users/nathan/Code/work/frontend/src/services/blockchain/blockchains/ethereum/contracts/nftartgen-reveal-later.sol",
  "compiler": {
    "name": "solc",
    "version": "0.8.7+commit.e28d00a7.Emscripten.clang"
  },
  "schemaVersion": "3.3.2",
  "updatedAt": "2022-04-23T01:29:27.128Z",
  "devdoc": {
    "kind": "dev",
    "methods": {
      "approve(address,uint256)": {
        "details": "See {IERC721-approve}."
      },
      "balanceOf(address)": {
        "details": "See {IERC721-balanceOf}."
      },
      "getApproved(uint256)": {
        "details": "See {IERC721-getApproved}."
      },
      "isApprovedForAll(address,address)": {
        "details": "See {IERC721-isApprovedForAll}."
      },
      "name()": {
        "details": "See {IERC721Metadata-name}."
      },
      "owner()": {
        "details": "Returns the address of the current owner."
      },
      "ownerOf(uint256)": {
        "details": "See {IERC721-ownerOf}."
      },
      "renounceOwnership()": {
        "details": "Leaves the contract without owner. It will not be possible to call `onlyOwner` functions anymore. Can only be called by the current owner. NOTE: Renouncing ownership will leave the contract without an owner, thereby removing any functionality that is only available to the owner."
      },
      "safeTransferFrom(address,address,uint256)": {
        "details": "See {IERC721-safeTransferFrom}."
      },
      "safeTransferFrom(address,address,uint256,bytes)": {
        "details": "See {IERC721-safeTransferFrom}."
      },
      "setApprovalForAll(address,bool)": {
        "details": "See {IERC721-setApprovalForAll}."
      },
      "supportsInterface(bytes4)": {
        "details": "See {IERC165-supportsInterface}."
      },
      "symbol()": {
        "details": "See {IERC721Metadata-symbol}."
      },
      "tokenURI(uint256)": {
        "details": "See {IERC721Metadata-tokenURI}."
      },
      "transferFrom(address,address,uint256)": {
        "details": "See {IERC721-transferFrom}."
      },
      "transferOwnership(address)": {
        "details": "Transfers ownership of the contract to a new account (`newOwner`). Can only be called by the current owner."
      }
    },
    "version": 1
  },
  "userdoc": {
    "kind": "user",
    "methods": {},
    "version": 1
  }
}