{
  "contractName": "NFTArtGenPresale",
  "abi": [
    {
      "inputs": [
        {
          "internalType": "string",
          "name": "_uri",
          "type": "string"
        },
        {
          "internalType": "string",
          "name": "_name",
          "type": "string"
        },
        {
          "internalType": "string",
          "name": "_symbol",
          "type": "string"
        },
        {
          "internalType": "uint32",
          "name": "_totalSupply",
          "type": "uint32"
        },
        {
          "internalType": "uint256",
          "name": "_cost",
          "type": "uint256"
        },
        {
          "internalType": "bool",
          "name": "_open",
          "type": "bool"
        }
      ],
      "stateMutability": "nonpayable",
      "type": "constructor"
    },
    {
      "anonymous": false,
      "inputs": [
        {
          "indexed": true,
          "internalType": "address",
          "name": "owner",
          "type": "address"
        },
        {
          "indexed": true,
          "internalType": "address",
          "name": "approved",
          "type": "address"
        },
        {
          "indexed": true,
          "internalType": "uint256",
          "name": "tokenId",
          "type": "uint256"
        }
      ],
      "name": "Approval",
      "type": "event"
    },
    {
      "anonymous": false,
      "inputs": [
        {
          "indexed": true,
          "internalType": "address",
          "name": "owner",
          "type": "address"
        },
        {
          "indexed": true,
          "internalType": "address",
          "name": "operator",
          "type": "address"
        },
        {
          "indexed": false,
          "internalType": "bool",
          "name": "approved",
          "type": "bool"
        }
      ],
      "name": "ApprovalForAll",
      "type": "event"
    },
    {
      "anonymous": false,
      "inputs": [
        {
          "indexed": true,
          "internalType": "address",
          "name": "previousOwner",
          "type": "address"
        },
        {
          "indexed": true,
          "internalType": "address",
          "name": "newOwner",
          "type": "address"
        }
      ],
      "name": "OwnershipTransferred",
      "type": "event"
    },
    {
      "anonymous": false,
      "inputs": [
        {
          "indexed": true,
          "internalType": "address",
          "name": "from",
          "type": "address"
        },
        {
          "indexed": true,
          "internalType": "address",
          "name": "to",
          "type": "address"
        },
        {
          "indexed": true,
          "internalType": "uint256",
          "name": "tokenId",
          "type": "uint256"
        }
      ],
      "name": "Transfer",
      "type": "event"
    },
    {
      "inputs": [
        {
          "internalType": "address[]",
          "name": "to",
          "type": "address[]"
        }
      ],
      "name": "airdrop",
      "outputs": [],
      "stateMutability": "nonpayable",
      "type": "function"
    },
    {
      "inputs": [
        {
          "internalType": "address",
          "name": "to",
          "type": "address"
        },
        {
          "internalType": "uint256",
          "name": "tokenId",
          "type": "uint256"
        }
      ],
      "name": "approve",
      "outputs": [],
      "stateMutability": "nonpayable",
      "type": "function"
    },
    {
      "inputs": [
        {
          "internalType": "address",
          "name": "owner",
          "type": "address"
        }
      ],
      "name": "balanceOf",
      "outputs": [
        {
          "internalType": "uint256",
          "name": "",
          "type": "uint256"
        }
      ],
      "stateMutability": "view",
      "type": "function"
    },
    {
      "inputs": [],
      "name": "cost",
      "outputs": [
        {
          "internalType": "uint256",
          "name": "",
          "type": "uint256"
        }
      ],
      "stateMutability": "view",
      "type": "function"
    },
    {
      "inputs": [
        {
          "internalType": "uint256",
          "name": "tokenId",
          "type": "uint256"
        }
      ],
      "name": "getApproved",
      "outputs": [
        {
          "internalType": "address",
          "name": "",
          "type": "address"
        }
      ],
      "stateMutability": "view",
      "type": "function"
    },
    {
      "inputs": [
        {
          "internalType": "address",
          "name": "owner",
          "type": "address"
        },
        {
          "internalType": "address",
          "name": "operator",
          "type": "address"
        }
      ],
      "name": "isApprovedForAll",
      "outputs": [
        {
          "internalType": "bool",
          "name": "",
          "type": "bool"
        }
      ],
      "stateMutability": "view",
      "type": "function"
    },
    {
      "inputs": [],
      "name": "maxPerMint",
      "outputs": [
        {
          "internalType": "uint32",
          "name": "",
          "type": "uint32"
        }
      ],
      "stateMutability": "view",
      "type": "function"
    },
    {
      "inputs": [],
      "name": "maxPerWallet",
      "outputs": [
        {
          "internalType": "uint32",
          "name": "",
          "type": "uint32"
        }
      ],
      "stateMutability": "view",
      "type": "function"
    },
    {
      "inputs": [
        {
          "internalType": "uint32",
          "name": "count",
          "type": "uint32"
        }
      ],
      "name": "mint",
      "outputs": [],
      "stateMutability": "payable",
      "type": "function"
    },
    {
      "inputs": [],
      "name": "name",
      "outputs": [
        {
          "internalType": "string",
          "name": "",
          "type": "string"
        }
      ],
      "stateMutability": "view",
      "type": "function"
    },
    {
      "inputs": [],
      "name": "open",
      "outputs": [
        {
          "internalType": "bool",
          "name": "",
          "type": "bool"
        }
      ],
      "stateMutability": "view",
      "type": "function"
    },
    {
      "inputs": [],
      "name": "owner",
      "outputs": [
        {
          "internalType": "address",
          "name": "",
          "type": "address"
        }
      ],
      "stateMutability": "view",
      "type": "function"
    },
    {
      "inputs": [
        {
          "internalType": "uint256",
          "name": "tokenId",
          "type": "uint256"
        }
      ],
      "name": "ownerOf",
      "outputs": [
        {
          "internalType": "address",
          "name": "",
          "type": "address"
        }
      ],
      "stateMutability": "view",
      "type": "function"
    },
    {
      "inputs": [
        {
          "internalType": "uint32",
          "name": "count",
          "type": "uint32"
        },
        {
          "internalType": "bytes32[]",
          "name": "proof",
          "type": "bytes32[]"
        }
      ],
      "name": "presaleMint",
      "outputs": [],
      "stateMutability": "payable",
      "type": "function"
    },
    {
      "inputs": [],
      "name": "presaleOpen",
      "outputs": [
        {
          "internalType": "bool",
          "name": "",
          "type": "bool"
        }
      ],
      "stateMutability": "view",
      "type": "function"
    },
    {
      "inputs": [],
      "name": "renounceOwnership",
      "outputs": [],
      "stateMutability": "nonpayable",
      "type": "function"
    },
    {
      "inputs": [
        {
          "internalType": "address",
          "name": "from",
          "type": "address"
        },
        {
          "internalType": "address",
          "name": "to",
          "type": "address"
        },
        {
          "internalType": "uint256",
          "name": "tokenId",
          "type": "uint256"
        }
      ],
      "name": "safeTransferFrom",
      "outputs": [],
      "stateMutability": "nonpayable",
      "type": "function"
    },
    {
      "inputs": [
        {
          "internalType": "address",
          "name": "from",
          "type": "address"
        },
        {
          "internalType": "address",
          "name": "to",
          "type": "address"
        },
        {
          "internalType": "uint256",
          "name": "tokenId",
          "type": "uint256"
        },
        {
          "internalType": "bytes",
          "name": "_data",
          "type": "bytes"
        }
      ],
      "name": "safeTransferFrom",
      "outputs": [],
      "stateMutability": "nonpayable",
      "type": "function"
    },
    {
      "inputs": [
        {
          "internalType": "address",
          "name": "operator",
          "type": "address"
        },
        {
          "internalType": "bool",
          "name": "approved",
          "type": "bool"
        }
      ],
      "name": "setApprovalForAll",
      "outputs": [],
      "stateMutability": "nonpayable",
      "type": "function"
    },
    {
      "inputs": [
        {
          "internalType": "uint32",
          "name": "_commision",
          "type": "uint32"
        }
      ],
      "name": "setCommission",
      "outputs": [],
      "stateMutability": "nonpayable",
      "type": "function"
    },
    {
      "inputs": [
        {
          "internalType": "uint256",
          "name": "_cost",
          "type": "uint256"
        }
      ],
      "name": "setCost",
      "outputs": [],
      "stateMutability": "nonpayable",
      "type": "function"
    },
    {
      "inputs": [
        {
          "internalType": "uint32",
          "name": "_max",
          "type": "uint32"
        }
      ],
      "name": "setMaxPerMint",
      "outputs": [],
      "stateMutability": "nonpayable",
      "type": "function"
    },
    {
      "inputs": [
        {
          "internalType": "uint32",
          "name": "_max",
          "type": "uint32"
        }
      ],
      "name": "setMaxPerWallet",
      "outputs": [],
      "stateMutability": "nonpayable",
      "type": "function"
    },
    {
      "inputs": [
        {
          "internalType": "bool",
          "name": "_open",
          "type": "bool"
        }
      ],
      "name": "setOpen",
      "outputs": [],
      "stateMutability": "nonpayable",
      "type": "function"
    },
    {
      "inputs": [
        {
          "internalType": "bytes32",
          "name": "root",
          "type": "bytes32"
        }
      ],
      "name": "setPreSaleAddresses",
      "outputs": [],
      "stateMutability": "nonpayable",
      "type": "function"
    },
    {
      "inputs": [
        {
          "internalType": "bool",
          "name": "_open",
          "type": "bool"
        }
      ],
      "name": "setPresaleOpen",
      "outputs": [],
      "stateMutability": "nonpayable",
      "type": "function"
    },
    {
      "inputs": [],
      "name": "supply",
      "outputs": [
        {
          "internalType": "uint32",
          "name": "",
          "type": "uint32"
        }
      ],
      "stateMutability": "view",
      "type": "function"
    },
    {
      "inputs": [
        {
          "internalType": "bytes4",
          "name": "interfaceId",
          "type": "bytes4"
        }
      ],
      "name": "supportsInterface",
      "outputs": [
        {
          "internalType": "bool",
          "name": "",
          "type": "bool"
        }
      ],
      "stateMutability": "view",
      "type": "function"
    },
    {
      "inputs": [],
      "name": "symbol",
      "outputs": [
        {
          "internalType": "string",
          "name": "",
          "type": "string"
        }
      ],
      "stateMutability": "view",
      "type": "function"
    },
    {
      "inputs": [],
      "name": "totalSupply",
      "outputs": [
        {
          "internalType": "uint32",
          "name": "",
          "type": "uint32"
        }
      ],
      "stateMutability": "view",
      "type": "function"
    },
    {
      "inputs": [
        {
          "internalType": "address",
          "name": "from",
          "type": "address"
        },
        {
          "internalType": "address",
          "name": "to",
          "type": "address"
        },
        {
          "internalType": "uint256",
          "name": "tokenId",
          "type": "uint256"
        }
      ],
      "name": "transferFrom",
      "outputs": [],
      "stateMutability": "nonpayable",
      "type": "function"
    },
    {
      "inputs": [
        {
          "internalType": "address",
          "name": "newOwner",
          "type": "address"
        }
      ],
      "name": "transferOwnership",
      "outputs": [],
      "stateMutability": "nonpayable",
      "type": "function"
    },
    {
      "inputs": [],
      "name": "withdraw",
      "outputs": [],
      "stateMutability": "payable",
      "type": "function"
    },
    {
      "inputs": [
        {
          "internalType": "uint256",
          "name": "_tokenId",
          "type": "uint256"
        }
      ],
      "name": "tokenURI",
      "outputs": [
        {
          "internalType": "string",
          "name": "",
          "type": "string"
        }
      ],
      "stateMutability": "view",
      "type": "function"
    }
  ],
  "bytecode": "0x608060405266b1a2bc2ec500006008556005600960006101000a81548163ffffffff021916908363ffffffff1602179055506014600960046101000a81548163ffffffff021916908363ffffffff1602179055506000600960086101000a81548163ffffffff021916908363ffffffff16021790555060006009600c6101000a81548163ffffffff021916908363ffffffff1602179055506000600960106101000a81548160ff0219169083151502179055506031600b60006101000a81548163ffffffff021916908363ffffffff16021790555073460fd5059e7301680fa53e63bbbf7272e643e89c600b60046101000a81548173ffffffffffffffffffffffffffffffffffffffff021916908373ffffffffffffffffffffffffffffffffffffffff1602179055506000600b60186101000a81548160ff0219169083151502179055503480156200015157600080fd5b506040516200503538038062005035833981810160405281019062000177919062000481565b85858585858584848160009080519060200190620001979291906200030e565b508060019080519060200190620001b09291906200030e565b505050620001d3620001c76200024060201b60201c565b6200024860201b60201c565b8560079080519060200190620001eb9291906200030e565b50826009600c6101000a81548163ffffffff021916908363ffffffff1602179055508160088190555080600960106101000a81548160ff02191690831515021790555050505050505050505050505062000772565b600033905090565b6000600660009054906101000a900473ffffffffffffffffffffffffffffffffffffffff16905081600660006101000a81548173ffffffffffffffffffffffffffffffffffffffff021916908373ffffffffffffffffffffffffffffffffffffffff1602179055508173ffffffffffffffffffffffffffffffffffffffff168173ffffffffffffffffffffffffffffffffffffffff167f8be0079c531659141344cd1fd0a4f28419497f9722a3daafe3b4186f6b6457e060405160405180910390a35050565b8280546200031c9062000635565b90600052602060002090601f0160209004810192826200034057600085556200038c565b82601f106200035b57805160ff19168380011785556200038c565b828001600101855582156200038c579182015b828111156200038b5782518255916020019190600101906200036e565b5b5090506200039b91906200039f565b5090565b5b80821115620003ba576000816000905550600101620003a0565b5090565b6000620003d5620003cf84620005a3565b6200057a565b905082815260208101848484011115620003f457620003f362000704565b5b62000401848285620005ff565b509392505050565b6000815190506200041a8162000724565b92915050565b600082601f830112620004385762000437620006ff565b5b81516200044a848260208601620003be565b91505092915050565b60008151905062000464816200073e565b92915050565b6000815190506200047b8162000758565b92915050565b60008060008060008060c08789031215620004a157620004a06200070e565b5b600087015167ffffffffffffffff811115620004c257620004c162000709565b5b620004d089828a0162000420565b965050602087015167ffffffffffffffff811115620004f457620004f362000709565b5b6200050289828a0162000420565b955050604087015167ffffffffffffffff81111562000526576200052562000709565b5b6200053489828a0162000420565b94505060606200054789828a016200046a565b93505060806200055a89828a0162000453565b92505060a06200056d89828a0162000409565b9150509295509295509295565b60006200058662000599565b90506200059482826200066b565b919050565b6000604051905090565b600067ffffffffffffffff821115620005c157620005c0620006d0565b5b620005cc8262000713565b9050602081019050919050565b60008115159050919050565b6000819050919050565b600063ffffffff82169050919050565b60005b838110156200061f57808201518184015260208101905062000602565b838111156200062f576000848401525b50505050565b600060028204905060018216806200064e57607f821691505b60208210811415620006655762000664620006a1565b5b50919050565b620006768262000713565b810181811067ffffffffffffffff82111715620006985762000697620006d0565b5b80604052505050565b7f4e487b7100000000000000000000000000000000000000000000000000000000600052602260045260246000fd5b7f4e487b7100000000000000000000000000000000000000000000000000000000600052604160045260246000fd5b600080fd5b600080fd5b600080fd5b600080fd5b6000601f19601f8301169050919050565b6200072f81620005d9565b81146200073b57600080fd5b50565b6200074981620005e5565b81146200075557600080fd5b50565b6200076381620005ef565b81146200076f57600080fd5b50565b6148b380620007826000396000f3fe6080604052600436106101f95760003560e01c80636fdca5e01161010d578063a71bbebe116100a0578063e985e9c51161006f578063e985e9c5146106ce578063f2fde38b1461070b578063f5b9662114610734578063f8048d8f1461075d578063fcfff16f14610786576101f9565b8063a71bbebe14610621578063b88d4fde1461063d578063bee6348a14610666578063c87b56dd14610691576101f9565b80638da5cb5b116100dc5780638da5cb5b1461057957806395d89b41146105a45780639e5666cd146105cf578063a22cb465146105f8576101f9565b80636fdca5e0146104d357806370a08231146104fc578063715018a614610539578063729ad39e14610550576101f9565b806318160ddd1161019057806342842e0e1161015f57806342842e0e146103ee57806344a0d68a14610417578063453c231014610440578063507e094f1461046b5780636352211e14610496576101f9565b806318160ddd1461036757806323b872dd146103925780633006b543146103bb5780633ccfd60b146103e4576101f9565b8063081812fc116101cc578063081812fc146102ad578063092501a0146102ea578063095ea7b31461031357806313faede61461033c576101f9565b806301ffc9a7146101fe5780630364d22a1461023b578063047fc9aa1461025757806306fdde0314610282575b600080fd5b34801561020a57600080fd5b506102256004803603810190610220919061313f565b6107b1565b60405161023291906138c8565b60405180910390f35b610255600480360381019061025091906131f3565b610893565b005b34801561026357600080fd5b5061026c610c2a565b6040516102799190613c80565b60405180910390f35b34801561028e57600080fd5b50610297610c40565b6040516102a491906138e3565b60405180910390f35b3480156102b957600080fd5b506102d460048036038101906102cf9190613199565b610cd2565b6040516102e19190613861565b60405180910390f35b3480156102f657600080fd5b50610311600480360381019061030c91906131c6565b610d57565b005b34801561031f57600080fd5b5061033a60048036038101906103359190613058565b610e0b565b005b34801561034857600080fd5b50610351610f23565b60405161035e9190613c65565b60405180910390f35b34801561037357600080fd5b5061037c610f29565b6040516103899190613c80565b60405180910390f35b34801561039e57600080fd5b506103b960048036038101906103b49190612f42565b610f3f565b005b3480156103c757600080fd5b506103e260048036038101906103dd91906131c6565b610f9f565b005b6103ec61103f565b005b3480156103fa57600080fd5b5061041560048036038101906104109190612f42565b611134565b005b34801561042357600080fd5b5061043e60048036038101906104399190613199565b611154565b005b34801561044c57600080fd5b506104556111da565b6040516104629190613c80565b60405180910390f35b34801561047757600080fd5b506104806111f0565b60405161048d9190613c80565b60405180910390f35b3480156104a257600080fd5b506104bd60048036038101906104b89190613199565b611206565b6040516104ca9190613861565b60405180910390f35b3480156104df57600080fd5b506104fa60048036038101906104f591906130e5565b6112b8565b005b34801561050857600080fd5b50610523600480360381019061051e9190612ed5565b611351565b6040516105309190613c65565b60405180910390f35b34801561054557600080fd5b5061054e611409565b005b34801561055c57600080fd5b5061057760048036038101906105729190613098565b611491565b005b34801561058557600080fd5b5061058e61163f565b60405161059b9190613861565b60405180910390f35b3480156105b057600080fd5b506105b9611669565b6040516105c691906138e3565b60405180910390f35b3480156105db57600080fd5b506105f660048036038101906105f19190613112565b6116fb565b005b34801561060457600080fd5b5061061f600480360381019061061a9190613018565b611781565b005b61063b600480360381019061063691906131c6565b611797565b005b34801561064957600080fd5b50610664600480360381019061065f9190612f95565b611a3a565b005b34801561067257600080fd5b5061067b611a9c565b60405161068891906138c8565b60405180910390f35b34801561069d57600080fd5b506106b860048036038101906106b39190613199565b611aaf565b6040516106c591906138e3565b60405180910390f35b3480156106da57600080fd5b506106f560048036038101906106f09190612f02565b611b3e565b60405161070291906138c8565b60405180910390f35b34801561071757600080fd5b50610732600480360381019061072d9190612ed5565b611bd2565b005b34801561074057600080fd5b5061075b600480360381019061075691906130e5565b611cca565b005b34801561076957600080fd5b50610784600480360381019061077f91906131c6565b611d63565b005b34801561079257600080fd5b5061079b611e03565b6040516107a891906138c8565b60405180910390f35b60007f80ac58cd000000000000000000000000000000000000000000000000000000007bffffffffffffffffffffffffffffffffffffffffffffffffffffffff1916827bffffffffffffffffffffffffffffffffffffffffffffffffffffffff1916148061087c57507f5b5e139f000000000000000000000000000000000000000000000000000000007bffffffffffffffffffffffffffffffffffffffffffffffffffffffff1916827bffffffffffffffffffffffffffffffffffffffffffffffffffffffff1916145b8061088c575061088b82611e16565b5b9050919050565b8260008163ffffffff16116108dd576040517f08c379a00000000000000000000000000000000000000000000000000000000081526004016108d490613c45565b60405180910390fd5b6001600960009054906101000a900463ffffffff166108fc9190613daa565b63ffffffff168163ffffffff1610610949576040517f08c379a000000000000000000000000000000000000000000000000000000000815260040161094090613c25565b60405180910390fd5b8063ffffffff1660085461095d9190613e15565b34101561099f576040517f08c379a000000000000000000000000000000000000000000000000000000000815260040161099690613c05565b60405180910390fd5b60016009600c9054906101000a900463ffffffff166109be9190613daa565b63ffffffff1681600960089054906101000a900463ffffffff166109e29190613daa565b63ffffffff1610610a28576040517f08c379a0000000000000000000000000000000000000000000000000000000008152600401610a1f90613b45565b60405180910390fd5b600960049054906101000a900463ffffffff1663ffffffff168163ffffffff16600a60003373ffffffffffffffffffffffffffffffffffffffff1673ffffffffffffffffffffffffffffffffffffffff16815260200190815260200160002054610a929190613d54565b1115610ad3576040517f08c379a0000000000000000000000000000000000000000000000000000000008152600401610aca906139c5565b60405180910390fd5b600b60189054906101000a900460ff16610b22576040517f08c379a0000000000000000000000000000000000000000000000000000000008152600401610b1990613ba5565b60405180910390fd5b6000600c541415610b68576040517f08c379a0000000000000000000000000000000000000000000000000000000008152600401610b5f90613905565b60405180910390fd5b610bdc838380806020026020016040519081016040528093929190818152602001838360200280828437600081840152601f19601f82011690508083019250505050505050600c5433604051602001610bc191906137d6565b60405160208183030381529060405280519060200120611e80565b610c1b576040517f08c379a0000000000000000000000000000000000000000000000000000000008152600401610c12906139a5565b60405180910390fd5b610c2484611e97565b50505050565b600960089054906101000a900463ffffffff1681565b606060008054610c4f90613f73565b80601f0160208091040260200160405190810160405280929190818152602001828054610c7b90613f73565b8015610cc85780601f10610c9d57610100808354040283529160200191610cc8565b820191906000526020600020905b815481529060010190602001808311610cab57829003601f168201915b5050505050905090565b6000610cdd82612044565b610d1c576040517f08c379a0000000000000000000000000000000000000000000000000000000008152600401610d1390613ae5565b60405180910390fd5b6004600083815260200190815260200160002060009054906101000a900473ffffffffffffffffffffffffffffffffffffffff169050919050565b600b60049054906101000a900473ffffffffffffffffffffffffffffffffffffffff1673ffffffffffffffffffffffffffffffffffffffff163373ffffffffffffffffffffffffffffffffffffffff1614610de7576040517f08c379a0000000000000000000000000000000000000000000000000000000008152600401610dde90613be5565b60405180910390fd5b80600b60006101000a81548163ffffffff021916908363ffffffff16021790555050565b6000610e1682611206565b90508073ffffffffffffffffffffffffffffffffffffffff168373ffffffffffffffffffffffffffffffffffffffff161415610e87576040517f08c379a0000000000000000000000000000000000000000000000000000000008152600401610e7e90613b65565b60405180910390fd5b8073ffffffffffffffffffffffffffffffffffffffff16610ea66120b0565b73ffffffffffffffffffffffffffffffffffffffff161480610ed55750610ed481610ecf6120b0565b611b3e565b5b610f14576040517f08c379a0000000000000000000000000000000000000000000000000000000008152600401610f0b90613a65565b60405180910390fd5b610f1e83836120b8565b505050565b60085481565b6009600c9054906101000a900463ffffffff1681565b610f50610f4a6120b0565b82612171565b610f8f576040517f08c379a0000000000000000000000000000000000000000000000000000000008152600401610f8690613bc5565b60405180910390fd5b610f9a83838361224f565b505050565b610fa76120b0565b73ffffffffffffffffffffffffffffffffffffffff16610fc561163f565b73ffffffffffffffffffffffffffffffffffffffff161461101b576040517f08c379a000000000000000000000000000000000000000000000000000000000815260040161101290613b05565b60405180910390fd5b80600960046101000a81548163ffffffff021916908363ffffffff16021790555050565b6110476120b0565b73ffffffffffffffffffffffffffffffffffffffff1661106561163f565b73ffffffffffffffffffffffffffffffffffffffff16146110bb576040517f08c379a00000000000000000000000000000000000000000000000000000000081526004016110b290613b05565b60405180910390fd5b60003373ffffffffffffffffffffffffffffffffffffffff16476040516110e19061384c565b60006040518083038185875af1925050503d806000811461111e576040519150601f19603f3d011682016040523d82523d6000602084013e611123565b606091505b505090508061113157600080fd5b50565b61114f83838360405180602001604052806000815250611a3a565b505050565b61115c6120b0565b73ffffffffffffffffffffffffffffffffffffffff1661117a61163f565b73ffffffffffffffffffffffffffffffffffffffff16146111d0576040517f08c379a00000000000000000000000000000000000000000000000000000000081526004016111c790613b05565b60405180910390fd5b8060088190555050565b600960049054906101000a900463ffffffff1681565b600960009054906101000a900463ffffffff1681565b6000806002600084815260200190815260200160002060009054906101000a900473ffffffffffffffffffffffffffffffffffffffff169050600073ffffffffffffffffffffffffffffffffffffffff168173ffffffffffffffffffffffffffffffffffffffff1614156112af576040517f08c379a00000000000000000000000000000000000000000000000000000000081526004016112a690613aa5565b60405180910390fd5b80915050919050565b6112c06120b0565b73ffffffffffffffffffffffffffffffffffffffff166112de61163f565b73ffffffffffffffffffffffffffffffffffffffff1614611334576040517f08c379a000000000000000000000000000000000000000000000000000000000815260040161132b90613b05565b60405180910390fd5b80600960106101000a81548160ff02191690831515021790555050565b60008073ffffffffffffffffffffffffffffffffffffffff168273ffffffffffffffffffffffffffffffffffffffff1614156113c2576040517f08c379a00000000000000000000000000000000000000000000000000000000081526004016113b990613a85565b60405180910390fd5b600360008373ffffffffffffffffffffffffffffffffffffffff1673ffffffffffffffffffffffffffffffffffffffff168152602001908152602001600020549050919050565b6114116120b0565b73ffffffffffffffffffffffffffffffffffffffff1661142f61163f565b73ffffffffffffffffffffffffffffffffffffffff1614611485576040517f08c379a000000000000000000000000000000000000000000000000000000000815260040161147c90613b05565b60405180910390fd5b61148f60006124ab565b565b6114996120b0565b73ffffffffffffffffffffffffffffffffffffffff166114b761163f565b73ffffffffffffffffffffffffffffffffffffffff161461150d576040517f08c379a000000000000000000000000000000000000000000000000000000000815260040161150490613b05565b60405180910390fd5b60005b828290508163ffffffff16101561163a576009600c9054906101000a900463ffffffff1663ffffffff16600960089054906101000a900463ffffffff1660016115599190613daa565b63ffffffff1611156115a0576040517f08c379a000000000000000000000000000000000000000000000000000000000815260040161159790613a25565b60405180910390fd5b61162783838363ffffffff168181106115bc576115bb614138565b5b90506020020160208101906115d19190612ed5565b6009600881819054906101000a900463ffffffff166115ef9061401f565b91906101000a81548163ffffffff021916908363ffffffff160217905563ffffffff1660405180602001604052806000815250612571565b80806116329061401f565b915050611510565b505050565b6000600660009054906101000a900473ffffffffffffffffffffffffffffffffffffffff16905090565b60606001805461167890613f73565b80601f01602080910402602001604051908101604052809291908181526020018280546116a490613f73565b80156116f15780601f106116c6576101008083540402835291602001916116f1565b820191906000526020600020905b8154815290600101906020018083116116d457829003601f168201915b5050505050905090565b6117036120b0565b73ffffffffffffffffffffffffffffffffffffffff1661172161163f565b73ffffffffffffffffffffffffffffffffffffffff1614611777576040517f08c379a000000000000000000000000000000000000000000000000000000000815260040161176e90613b05565b60405180910390fd5b80600c8190555050565b61179361178c6120b0565b83836125cc565b5050565b8060008163ffffffff16116117e1576040517f08c379a00000000000000000000000000000000000000000000000000000000081526004016117d890613c45565b60405180910390fd5b6001600960009054906101000a900463ffffffff166118009190613daa565b63ffffffff168163ffffffff161061184d576040517f08c379a000000000000000000000000000000000000000000000000000000000815260040161184490613c25565b60405180910390fd5b8063ffffffff166008546118619190613e15565b3410156118a3576040517f08c379a000000000000000000000000000000000000000000000000000000000815260040161189a90613c05565b60405180910390fd5b60016009600c9054906101000a900463ffffffff166118c29190613daa565b63ffffffff1681600960089054906101000a900463ffffffff166118e69190613daa565b63ffffffff161061192c576040517f08c379a000000000000000000000000000000000000000000000000000000000815260040161192390613b45565b60405180910390fd5b600960049054906101000a900463ffffffff1663ffffffff168163ffffffff16600a60003373ffffffffffffffffffffffffffffffffffffffff1673ffffffffffffffffffffffffffffffffffffffff168152602001908152602001600020546119969190613d54565b11156119d7576040517f08c379a00000000000000000000000000000000000000000000000000000000081526004016119ce906139c5565b60405180910390fd5b60011515600960109054906101000a900460ff16151514611a2d576040517f08c379a0000000000000000000000000000000000000000000000000000000008152600401611a2490613b85565b60405180910390fd5b611a3682611e97565b5050565b611a4b611a456120b0565b83612171565b611a8a576040517f08c379a0000000000000000000000000000000000000000000000000000000008152600401611a8190613bc5565b60405180910390fd5b611a9684848484612739565b50505050565b600b60189054906101000a900460ff1681565b6060600960089054906101000a900463ffffffff1663ffffffff16821115611b0c576040517f08c379a0000000000000000000000000000000000000000000000000000000008152600401611b0390613945565b60405180910390fd5b6007611b1783612795565b604051602001611b2892919061381d565b6040516020818303038152906040529050919050565b6000600560008473ffffffffffffffffffffffffffffffffffffffff1673ffffffffffffffffffffffffffffffffffffffff16815260200190815260200160002060008373ffffffffffffffffffffffffffffffffffffffff1673ffffffffffffffffffffffffffffffffffffffff16815260200190815260200160002060009054906101000a900460ff16905092915050565b611bda6120b0565b73ffffffffffffffffffffffffffffffffffffffff16611bf861163f565b73ffffffffffffffffffffffffffffffffffffffff1614611c4e576040517f08c379a0000000000000000000000000000000000000000000000000000000008152600401611c4590613b05565b60405180910390fd5b600073ffffffffffffffffffffffffffffffffffffffff168173ffffffffffffffffffffffffffffffffffffffff161415611cbe576040517f08c379a0000000000000000000000000000000000000000000000000000000008152600401611cb590613965565b60405180910390fd5b611cc7816124ab565b50565b611cd26120b0565b73ffffffffffffffffffffffffffffffffffffffff16611cf061163f565b73ffffffffffffffffffffffffffffffffffffffff1614611d46576040517f08c379a0000000000000000000000000000000000000000000000000000000008152600401611d3d90613b05565b60405180910390fd5b80600b60186101000a81548160ff02191690831515021790555050565b611d6b6120b0565b73ffffffffffffffffffffffffffffffffffffffff16611d8961163f565b73ffffffffffffffffffffffffffffffffffffffff1614611ddf576040517f08c379a0000000000000000000000000000000000000000000000000000000008152600401611dd690613b05565b60405180910390fd5b80600960006101000a81548163ffffffff021916908363ffffffff16021790555050565b600960109054906101000a900460ff1681565b60007f01ffc9a7000000000000000000000000000000000000000000000000000000007bffffffffffffffffffffffffffffffffffffffffffffffffffffffff1916827bffffffffffffffffffffffffffffffffffffffffffffffffffffffff1916149050919050565b600082611e8d85846128f6565b1490509392505050565b60005b8163ffffffff168163ffffffff161015611f1b57611f08336009600881819054906101000a900463ffffffff16611ed09061401f565b91906101000a81548163ffffffff021916908363ffffffff160217905563ffffffff1660405180602001604052806000815250612571565b8080611f139061401f565b915050611e9a565b508063ffffffff16600a60003373ffffffffffffffffffffffffffffffffffffffff1673ffffffffffffffffffffffffffffffffffffffff1681526020019081526020016000206000828254611f719190613d54565b925050819055506000600b60049054906101000a900473ffffffffffffffffffffffffffffffffffffffff1673ffffffffffffffffffffffffffffffffffffffff166103e8600b60009054906101000a900463ffffffff1663ffffffff1634611fda9190613e15565b611fe49190613de4565b604051611ff09061384c565b60006040518083038185875af1925050503d806000811461202d576040519150601f19603f3d011682016040523d82523d6000602084013e612032565b606091505b505090508061204057600080fd5b5050565b60008073ffffffffffffffffffffffffffffffffffffffff166002600084815260200190815260200160002060009054906101000a900473ffffffffffffffffffffffffffffffffffffffff1673ffffffffffffffffffffffffffffffffffffffff1614159050919050565b600033905090565b816004600083815260200190815260200160002060006101000a81548173ffffffffffffffffffffffffffffffffffffffff021916908373ffffffffffffffffffffffffffffffffffffffff160217905550808273ffffffffffffffffffffffffffffffffffffffff1661212b83611206565b73ffffffffffffffffffffffffffffffffffffffff167f8c5be1e5ebec7d5bd14f71427d1e84f3dd0314c0f7b2291e5b200ac8c7c3b92560405160405180910390a45050565b600061217c82612044565b6121bb576040517f08c379a00000000000000000000000000000000000000000000000000000000081526004016121b290613a45565b60405180910390fd5b60006121c683611206565b90508073ffffffffffffffffffffffffffffffffffffffff168473ffffffffffffffffffffffffffffffffffffffff16148061223557508373ffffffffffffffffffffffffffffffffffffffff1661221d84610cd2565b73ffffffffffffffffffffffffffffffffffffffff16145b8061224657506122458185611b3e565b5b91505092915050565b8273ffffffffffffffffffffffffffffffffffffffff1661226f82611206565b73ffffffffffffffffffffffffffffffffffffffff16146122c5576040517f08c379a00000000000000000000000000000000000000000000000000000000081526004016122bc90613b25565b60405180910390fd5b600073ffffffffffffffffffffffffffffffffffffffff168273ffffffffffffffffffffffffffffffffffffffff161415612335576040517f08c379a000000000000000000000000000000000000000000000000000000000815260040161232c906139e5565b60405180910390fd5b6123408383836129a9565b61234b6000826120b8565b6001600360008573ffffffffffffffffffffffffffffffffffffffff1673ffffffffffffffffffffffffffffffffffffffff168152602001908152602001600020600082825461239b9190613e6f565b925050819055506001600360008473ffffffffffffffffffffffffffffffffffffffff1673ffffffffffffffffffffffffffffffffffffffff16815260200190815260200160002060008282546123f29190613d54565b92505081905550816002600083815260200190815260200160002060006101000a81548173ffffffffffffffffffffffffffffffffffffffff021916908373ffffffffffffffffffffffffffffffffffffffff160217905550808273ffffffffffffffffffffffffffffffffffffffff168473ffffffffffffffffffffffffffffffffffffffff167fddf252ad1be2c89b69c2b068fc378daa952ba7f163c4a11628f55a4df523b3ef60405160405180910390a4505050565b6000600660009054906101000a900473ffffffffffffffffffffffffffffffffffffffff16905081600660006101000a81548173ffffffffffffffffffffffffffffffffffffffff021916908373ffffffffffffffffffffffffffffffffffffffff1602179055508173ffffffffffffffffffffffffffffffffffffffff168173ffffffffffffffffffffffffffffffffffffffff167f8be0079c531659141344cd1fd0a4f28419497f9722a3daafe3b4186f6b6457e060405160405180910390a35050565b61257b83836129ae565b6125886000848484612b7c565b6125c7576040517f08c379a00000000000000000000000000000000000000000000000000000000081526004016125be90613925565b60405180910390fd5b505050565b8173ffffffffffffffffffffffffffffffffffffffff168373ffffffffffffffffffffffffffffffffffffffff16141561263b576040517f08c379a000000000000000000000000000000000000000000000000000000000815260040161263290613a05565b60405180910390fd5b80600560008573ffffffffffffffffffffffffffffffffffffffff1673ffffffffffffffffffffffffffffffffffffffff16815260200190815260200160002060008473ffffffffffffffffffffffffffffffffffffffff1673ffffffffffffffffffffffffffffffffffffffff16815260200190815260200160002060006101000a81548160ff0219169083151502179055508173ffffffffffffffffffffffffffffffffffffffff168373ffffffffffffffffffffffffffffffffffffffff167f17307eab39ab6107e8899845ad3d59bd9653f200f220920489ca2b5937696c318360405161272c91906138c8565b60405180910390a3505050565b61274484848461224f565b61275084848484612b7c565b61278f576040517f08c379a000000000000000000000000000000000000000000000000000000000815260040161278690613925565b60405180910390fd5b50505050565b606060008214156127dd576040518060400160405280600181526020017f300000000000000000000000000000000000000000000000000000000000000081525090506128f1565b600082905060005b6000821461280f5780806127f890613fd6565b915050600a826128089190613de4565b91506127e5565b60008167ffffffffffffffff81111561282b5761282a614167565b5b6040519080825280601f01601f19166020018201604052801561285d5781602001600182028036833780820191505090505b5090505b600085146128ea576001826128769190613e6f565b9150600a85612885919061407a565b60306128919190613d54565b60f81b8183815181106128a7576128a6614138565b5b60200101907effffffffffffffffffffffffffffffffffffffffffffffffffffffffffffff1916908160001a905350600a856128e39190613de4565b9450612861565b8093505050505b919050565b60008082905060005b845181101561299e57600085828151811061291d5761291c614138565b5b6020026020010151905080831161295e5782816040516020016129419291906137f1565b60405160208183030381529060405280519060200120925061298a565b80836040516020016129719291906137f1565b6040516020818303038152906040528051906020012092505b50808061299690613fd6565b9150506128ff565b508091505092915050565b505050565b600073ffffffffffffffffffffffffffffffffffffffff168273ffffffffffffffffffffffffffffffffffffffff161415612a1e576040517f08c379a0000000000000000000000000000000000000000000000000000000008152600401612a1590613ac5565b60405180910390fd5b612a2781612044565b15612a67576040517f08c379a0000000000000000000000000000000000000000000000000000000008152600401612a5e90613985565b60405180910390fd5b612a73600083836129a9565b6001600360008473ffffffffffffffffffffffffffffffffffffffff1673ffffffffffffffffffffffffffffffffffffffff1681526020019081526020016000206000828254612ac39190613d54565b92505081905550816002600083815260200190815260200160002060006101000a81548173ffffffffffffffffffffffffffffffffffffffff021916908373ffffffffffffffffffffffffffffffffffffffff160217905550808273ffffffffffffffffffffffffffffffffffffffff16600073ffffffffffffffffffffffffffffffffffffffff167fddf252ad1be2c89b69c2b068fc378daa952ba7f163c4a11628f55a4df523b3ef60405160405180910390a45050565b6000612b9d8473ffffffffffffffffffffffffffffffffffffffff16612d13565b15612d06578373ffffffffffffffffffffffffffffffffffffffff1663150b7a02612bc66120b0565b8786866040518563ffffffff1660e01b8152600401612be8949392919061387c565b602060405180830381600087803b158015612c0257600080fd5b505af1925050508015612c3357506040513d601f19601f82011682018060405250810190612c30919061316c565b60015b612cb6573d8060008114612c63576040519150601f19603f3d011682016040523d82523d6000602084013e612c68565b606091505b50600081511415612cae576040517f08c379a0000000000000000000000000000000000000000000000000000000008152600401612ca590613925565b60405180910390fd5b805181602001fd5b63150b7a0260e01b7bffffffffffffffffffffffffffffffffffffffffffffffffffffffff1916817bffffffffffffffffffffffffffffffffffffffffffffffffffffffff191614915050612d0b565b600190505b949350505050565b600080823b905060008111915050919050565b6000612d39612d3484613cc0565b613c9b565b905082815260208101848484011115612d5557612d546141a5565b5b612d60848285613f31565b509392505050565b600081359050612d77816147f3565b92915050565b60008083601f840112612d9357612d9261419b565b5b8235905067ffffffffffffffff811115612db057612daf614196565b5b602083019150836020820283011115612dcc57612dcb6141a0565b5b9250929050565b60008083601f840112612de957612de861419b565b5b8235905067ffffffffffffffff811115612e0657612e05614196565b5b602083019150836020820283011115612e2257612e216141a0565b5b9250929050565b600081359050612e388161480a565b92915050565b600081359050612e4d81614821565b92915050565b600081359050612e6281614838565b92915050565b600081519050612e7781614838565b92915050565b600082601f830112612e9257612e9161419b565b5b8135612ea2848260208601612d26565b91505092915050565b600081359050612eba8161484f565b92915050565b600081359050612ecf81614866565b92915050565b600060208284031215612eeb57612eea6141af565b5b6000612ef984828501612d68565b91505092915050565b60008060408385031215612f1957612f186141af565b5b6000612f2785828601612d68565b9250506020612f3885828601612d68565b9150509250929050565b600080600060608486031215612f5b57612f5a6141af565b5b6000612f6986828701612d68565b9350506020612f7a86828701612d68565b9250506040612f8b86828701612eab565b9150509250925092565b60008060008060808587031215612faf57612fae6141af565b5b6000612fbd87828801612d68565b9450506020612fce87828801612d68565b9350506040612fdf87828801612eab565b925050606085013567ffffffffffffffff81111561300057612fff6141aa565b5b61300c87828801612e7d565b91505092959194509250565b6000806040838503121561302f5761302e6141af565b5b600061303d85828601612d68565b925050602061304e85828601612e29565b9150509250929050565b6000806040838503121561306f5761306e6141af565b5b600061307d85828601612d68565b925050602061308e85828601612eab565b9150509250929050565b600080602083850312156130af576130ae6141af565b5b600083013567ffffffffffffffff8111156130cd576130cc6141aa565b5b6130d985828601612d7d565b92509250509250929050565b6000602082840312156130fb576130fa6141af565b5b600061310984828501612e29565b91505092915050565b600060208284031215613128576131276141af565b5b600061313684828501612e3e565b91505092915050565b600060208284031215613155576131546141af565b5b600061316384828501612e53565b91505092915050565b600060208284031215613182576131816141af565b5b600061319084828501612e68565b91505092915050565b6000602082840312156131af576131ae6141af565b5b60006131bd84828501612eab565b91505092915050565b6000602082840312156131dc576131db6141af565b5b60006131ea84828501612ec0565b91505092915050565b60008060006040848603121561320c5761320b6141af565b5b600061321a86828701612ec0565b935050602084013567ffffffffffffffff81111561323b5761323a6141aa565b5b61324786828701612dd3565b92509250509250925092565b61325c81613ea3565b82525050565b61327361326e82613ea3565b61404c565b82525050565b61328281613eb5565b82525050565b61329961329482613ec1565b61405e565b82525050565b60006132aa82613d06565b6132b48185613d1c565b93506132c4818560208601613f40565b6132cd816141b4565b840191505092915050565b60006132e382613d11565b6132ed8185613d38565b93506132fd818560208601613f40565b613306816141b4565b840191505092915050565b600061331c82613d11565b6133268185613d49565b9350613336818560208601613f40565b80840191505092915050565b6000815461334f81613f73565b6133598186613d49565b945060018216600081146133745760018114613385576133b8565b60ff198316865281860193506133b8565b61338e85613cf1565b60005b838110156133b057815481890152600182019150602081019050613391565b838801955050505b50505092915050565b60006133ce601183613d38565b91506133d9826141d2565b602082019050919050565b60006133f1603283613d38565b91506133fc826141fb565b604082019050919050565b6000613414600e83613d38565b915061341f8261424a565b602082019050919050565b6000613437602683613d38565b915061344282614273565b604082019050919050565b600061345a601c83613d38565b9150613465826142c2565b602082019050919050565b600061347d601483613d38565b9150613488826142eb565b602082019050919050565b60006134a0601683613d38565b91506134ab82614314565b602082019050919050565b60006134c3602483613d38565b91506134ce8261433d565b604082019050919050565b60006134e6601983613d38565b91506134f18261438c565b602082019050919050565b6000613509600d83613d38565b9150613514826143b5565b602082019050919050565b600061352c602c83613d38565b9150613537826143de565b604082019050919050565b600061354f603883613d38565b915061355a8261442d565b604082019050919050565b6000613572602a83613d38565b915061357d8261447c565b604082019050919050565b6000613595602983613d38565b91506135a0826144cb565b604082019050919050565b60006135b8602083613d38565b91506135c38261451a565b602082019050919050565b60006135db602c83613d38565b91506135e682614543565b604082019050919050565b60006135fe600583613d49565b915061360982614592565b600582019050919050565b6000613621602083613d38565b915061362c826145bb565b602082019050919050565b6000613644602983613d38565b915061364f826145e4565b604082019050919050565b6000613667600d83613d38565b915061367282614633565b602082019050919050565b600061368a602183613d38565b91506136958261465c565b604082019050919050565b60006136ad600d83613d38565b91506136b8826146ab565b602082019050919050565b60006136d0601083613d38565b91506136db826146d4565b602082019050919050565b60006136f3600083613d2d565b91506136fe826146fd565b600082019050919050565b6000613716603183613d38565b915061372182614700565b604082019050919050565b6000613739601183613d38565b91506137448261474f565b602082019050919050565b600061375c601083613d38565b915061376782614778565b602082019050919050565b600061377f601183613d38565b915061378a826147a1565b602082019050919050565b60006137a2601283613d38565b91506137ad826147ca565b602082019050919050565b6137c181613f17565b82525050565b6137d081613f21565b82525050565b60006137e28284613262565b60148201915081905092915050565b60006137fd8285613288565b60208201915061380d8284613288565b6020820191508190509392505050565b60006138298285613342565b91506138358284613311565b9150613840826135f1565b91508190509392505050565b6000613857826136e6565b9150819050919050565b60006020820190506138766000830184613253565b92915050565b60006080820190506138916000830187613253565b61389e6020830186613253565b6138ab60408301856137b8565b81810360608301526138bd818461329f565b905095945050505050565b60006020820190506138dd6000830184613279565b92915050565b600060208201905081810360008301526138fd81846132d8565b905092915050565b6000602082019050818103600083015261391e816133c1565b9050919050565b6000602082019050818103600083015261393e816133e4565b9050919050565b6000602082019050818103600083015261395e81613407565b9050919050565b6000602082019050818103600083015261397e8161342a565b9050919050565b6000602082019050818103600083015261399e8161344d565b9050919050565b600060208201905081810360008301526139be81613470565b9050919050565b600060208201905081810360008301526139de81613493565b9050919050565b600060208201905081810360008301526139fe816134b6565b9050919050565b60006020820190508181036000830152613a1e816134d9565b9050919050565b60006020820190508181036000830152613a3e816134fc565b9050919050565b60006020820190508181036000830152613a5e8161351f565b9050919050565b60006020820190508181036000830152613a7e81613542565b9050919050565b60006020820190508181036000830152613a9e81613565565b9050919050565b60006020820190508181036000830152613abe81613588565b9050919050565b60006020820190508181036000830152613ade816135ab565b9050919050565b60006020820190508181036000830152613afe816135ce565b9050919050565b60006020820190508181036000830152613b1e81613614565b9050919050565b60006020820190508181036000830152613b3e81613637565b9050919050565b60006020820190508181036000830152613b5e8161365a565b9050919050565b60006020820190508181036000830152613b7e8161367d565b9050919050565b60006020820190508181036000830152613b9e816136a0565b9050919050565b60006020820190508181036000830152613bbe816136c3565b9050919050565b60006020820190508181036000830152613bde81613709565b9050919050565b60006020820190508181036000830152613bfe8161372c565b9050919050565b60006020820190508181036000830152613c1e8161374f565b9050919050565b60006020820190508181036000830152613c3e81613772565b9050919050565b60006020820190508181036000830152613c5e81613795565b9050919050565b6000602082019050613c7a60008301846137b8565b92915050565b6000602082019050613c9560008301846137c7565b92915050565b6000613ca5613cb6565b9050613cb18282613fa5565b919050565b6000604051905090565b600067ffffffffffffffff821115613cdb57613cda614167565b5b613ce4826141b4565b9050602081019050919050565b60008190508160005260206000209050919050565b600081519050919050565b600081519050919050565b600082825260208201905092915050565b600081905092915050565b600082825260208201905092915050565b600081905092915050565b6000613d5f82613f17565b9150613d6a83613f17565b9250827fffffffffffffffffffffffffffffffffffffffffffffffffffffffffffffffff03821115613d9f57613d9e6140ab565b5b828201905092915050565b6000613db582613f21565b9150613dc083613f21565b92508263ffffffff03821115613dd957613dd86140ab565b5b828201905092915050565b6000613def82613f17565b9150613dfa83613f17565b925082613e0a57613e096140da565b5b828204905092915050565b6000613e2082613f17565b9150613e2b83613f17565b9250817fffffffffffffffffffffffffffffffffffffffffffffffffffffffffffffffff0483118215151615613e6457613e636140ab565b5b828202905092915050565b6000613e7a82613f17565b9150613e8583613f17565b925082821015613e9857613e976140ab565b5b828203905092915050565b6000613eae82613ef7565b9050919050565b60008115159050919050565b6000819050919050565b60007fffffffff0000000000000000000000000000000000000000000000000000000082169050919050565b600073ffffffffffffffffffffffffffffffffffffffff82169050919050565b6000819050919050565b600063ffffffff82169050919050565b82818337600083830152505050565b60005b83811015613f5e578082015181840152602081019050613f43565b83811115613f6d576000848401525b50505050565b60006002820490506001821680613f8b57607f821691505b60208210811415613f9f57613f9e614109565b5b50919050565b613fae826141b4565b810181811067ffffffffffffffff82111715613fcd57613fcc614167565b5b80604052505050565b6000613fe182613f17565b91507fffffffffffffffffffffffffffffffffffffffffffffffffffffffffffffffff821415614014576140136140ab565b5b600182019050919050565b600061402a82613f21565b915063ffffffff821415614041576140406140ab565b5b600182019050919050565b600061405782614068565b9050919050565b6000819050919050565b6000614073826141c5565b9050919050565b600061408582613f17565b915061409083613f17565b9250826140a05761409f6140da565b5b828206905092915050565b7f4e487b7100000000000000000000000000000000000000000000000000000000600052601160045260246000fd5b7f4e487b7100000000000000000000000000000000000000000000000000000000600052601260045260246000fd5b7f4e487b7100000000000000000000000000000000000000000000000000000000600052602260045260246000fd5b7f4e487b7100000000000000000000000000000000000000000000000000000000600052603260045260246000fd5b7f4e487b7100000000000000000000000000000000000000000000000000000000600052604160045260246000fd5b600080fd5b600080fd5b600080fd5b600080fd5b600080fd5b600080fd5b6000601f19601f8301169050919050565b60008160601b9050919050565b7f50726573616c65206e6f74207265616479000000000000000000000000000000600082015250565b7f4552433732313a207472616e7366657220746f206e6f6e20455243373231526560008201527f63656976657220696d706c656d656e7465720000000000000000000000000000602082015250565b7f4e6f74206d696e74656420796574000000000000000000000000000000000000600082015250565b7f4f776e61626c653a206e6577206f776e657220697320746865207a65726f206160008201527f6464726573730000000000000000000000000000000000000000000000000000602082015250565b7f4552433732313a20746f6b656e20616c7265616479206d696e74656400000000600082015250565b7f4e6f7420612070726573616c65206d656d626572000000000000000000000000600082015250565b7f4d617820746f74616c206d696e74207265616368656400000000000000000000600082015250565b7f4552433732313a207472616e7366657220746f20746865207a65726f2061646460008201527f7265737300000000000000000000000000000000000000000000000000000000602082015250565b7f4552433732313a20617070726f766520746f2063616c6c657200000000000000600082015250565b7f4c696d6974207265616368656400000000000000000000000000000000000000600082015250565b7f4552433732313a206f70657261746f7220717565727920666f72206e6f6e657860008201527f697374656e7420746f6b656e0000000000000000000000000000000000000000602082015250565b7f4552433732313a20617070726f76652063616c6c6572206973206e6f74206f7760008201527f6e6572206e6f7220617070726f76656420666f7220616c6c0000000000000000602082015250565b7f4552433732313a2062616c616e636520717565727920666f7220746865207a6560008201527f726f206164647265737300000000000000000000000000000000000000000000602082015250565b7f4552433732313a206f776e657220717565727920666f72206e6f6e657869737460008201527f656e7420746f6b656e0000000000000000000000000000000000000000000000602082015250565b7f4552433732313a206d696e7420746f20746865207a65726f2061646472657373600082015250565b7f4552433732313a20617070726f76656420717565727920666f72206e6f6e657860008201527f697374656e7420746f6b656e0000000000000000000000000000000000000000602082015250565b7f2e6a736f6e000000000000000000000000000000000000000000000000000000600082015250565b7f4f776e61626c653a2063616c6c6572206973206e6f7420746865206f776e6572600082015250565b7f4552433732313a207472616e73666572206f6620746f6b656e2074686174206960008201527f73206e6f74206f776e0000000000000000000000000000000000000000000000602082015250565b7f4d696e7420736f6c64206f757400000000000000000000000000000000000000600082015250565b7f4552433732313a20617070726f76616c20746f2063757272656e74206f776e6560008201527f7200000000000000000000000000000000000000000000000000000000000000602082015250565b7f4d696e74206e6f74206f70656e00000000000000000000000000000000000000600082015250565b7f50726573616c65206e6f74206f70656e00000000000000000000000000000000600082015250565b50565b7f4552433732313a207472616e736665722063616c6c6572206973206e6f74206f60008201527f776e6572206e6f7220617070726f766564000000000000000000000000000000602082015250565b7f496e636f72726563742041646472657373000000000000000000000000000000600082015250565b7f4e6f7420656e6f7567682066756e642e00000000000000000000000000000000600082015250565b7f4d6178206d696e7420726561636865642e000000000000000000000000000000600082015250565b7f4d696e74206174206c65617374206f6e652e0000000000000000000000000000600082015250565b6147fc81613ea3565b811461480757600080fd5b50565b61481381613eb5565b811461481e57600080fd5b50565b61482a81613ec1565b811461483557600080fd5b50565b61484181613ecb565b811461484c57600080fd5b50565b61485881613f17565b811461486357600080fd5b50565b61486f81613f21565b811461487a57600080fd5b5056fea264697066735822122006b624a734eaafb894e9d7311cfcf173283ff7f402f267115da53f77256fb46864736f6c63430008070033",
  "immutableReferences": {},
  "source": "// Sources flattened with hardhat v2.8.0 https://hardhat.org\n\n// File @openzeppelin/contracts/utils/introspection/IERC165.sol@v4.4.1\n\n// OpenZeppelin Contracts v4.4.1 (utils/introspection/IERC165.sol)\n\npragma solidity ^0.8.0;\n\n/**\n * @dev Interface of the ERC165 standard, as defined in the\n * https://eips.ethereum.org/EIPS/eip-165[EIP].\n *\n * Implementers can declare support of contract interfaces, which can then be\n * queried by others ({ERC165Checker}).\n *\n * For an implementation, see {ERC165}.\n */\ninterface IERC165 {\n    /**\n     * @dev Returns true if this contract implements the interface defined by\n     * `interfaceId`. See the corresponding\n     * https://eips.ethereum.org/EIPS/eip-165#how-interfaces-are-identified[EIP section]\n     * to learn more about how these ids are created.\n     *\n     * This function call must use less than 30 000 gas.\n     */\n    function supportsInterface(bytes4 interfaceId) external view returns (bool);\n}\n\n\n// File @openzeppelin/contracts/token/ERC721/IERC721.sol@v4.4.1\n\n// OpenZeppelin Contracts v4.4.1 (token/ERC721/IERC721.sol)\n\npragma solidity ^0.8.0;\n\n/**\n * @dev Required interface of an ERC721 compliant contract.\n */\ninterface IERC721 is IERC165 {\n    /**\n     * @dev Emitted when `tokenId` token is transferred from `from` to `to`.\n     */\n    event Transfer(address indexed from, address indexed to, uint256 indexed tokenId);\n\n    /**\n     * @dev Emitted when `owner` enables `approved` to manage the `tokenId` token.\n     */\n    event Approval(address indexed owner, address indexed approved, uint256 indexed tokenId);\n\n    /**\n     * @dev Emitted when `owner` enables or disables (`approved`) `operator` to manage all of its assets.\n     */\n    event ApprovalForAll(address indexed owner, address indexed operator, bool approved);\n\n    /**\n     * @dev Returns the number of tokens in ``owner``'s account.\n     */\n    function balanceOf(address owner) external view returns (uint256 balance);\n\n    /**\n     * @dev Returns the owner of the `tokenId` token.\n     *\n     * Requirements:\n     *\n     * - `tokenId` must exist.\n     */\n    function ownerOf(uint256 tokenId) external view returns (address owner);\n\n    /**\n     * @dev Safely transfers `tokenId` token from `from` to `to`, checking first that contract recipients\n     * are aware of the ERC721 protocol to prevent tokens from being forever locked.\n     *\n     * Requirements:\n     *\n     * - `from` cannot be the zero address.\n     * - `to` cannot be the zero address.\n     * - `tokenId` token must exist and be owned by `from`.\n     * - If the caller is not `from`, it must be have been allowed to move this token by either {approve} or {setApprovalForAll}.\n     * - If `to` refers to a smart contract, it must implement {IERC721Receiver-onERC721Received}, which is called upon a safe transfer.\n     *\n     * Emits a {Transfer} event.\n     */\n    function safeTransferFrom(\n        address from,\n        address to,\n        uint256 tokenId\n    ) external;\n\n    /**\n     * @dev Transfers `tokenId` token from `from` to `to`.\n     *\n     * WARNING: Usage of this method is discouraged, use {safeTransferFrom} whenever possible.\n     *\n     * Requirements:\n     *\n     * - `from` cannot be the zero address.\n     * - `to` cannot be the zero address.\n     * - `tokenId` token must be owned by `from`.\n     * - If the caller is not `from`, it must be approved to move this token by either {approve} or {setApprovalForAll}.\n     *\n     * Emits a {Transfer} event.\n     */\n    function transferFrom(\n        address from,\n        address to,\n        uint256 tokenId\n    ) external;\n\n    /**\n     * @dev Gives permission to `to` to transfer `tokenId` token to another account.\n     * The approval is cleared when the token is transferred.\n     *\n     * Only a single account can be approved at a time, so approving the zero address clears previous approvals.\n     *\n     * Requirements:\n     *\n     * - The caller must own the token or be an approved operator.\n     * - `tokenId` must exist.\n     *\n     * Emits an {Approval} event.\n     */\n    function approve(address to, uint256 tokenId) external;\n\n    /**\n     * @dev Returns the account approved for `tokenId` token.\n     *\n     * Requirements:\n     *\n     * - `tokenId` must exist.\n     */\n    function getApproved(uint256 tokenId) external view returns (address operator);\n\n    /**\n     * @dev Approve or remove `operator` as an operator for the caller.\n     * Operators can call {transferFrom} or {safeTransferFrom} for any token owned by the caller.\n     *\n     * Requirements:\n     *\n     * - The `operator` cannot be the caller.\n     *\n     * Emits an {ApprovalForAll} event.\n     */\n    function setApprovalForAll(address operator, bool _approved) external;\n\n    /**\n     * @dev Returns if the `operator` is allowed to manage all of the assets of `owner`.\n     *\n     * See {setApprovalForAll}\n     */\n    function isApprovedForAll(address owner, address operator) external view returns (bool);\n\n    /**\n     * @dev Safely transfers `tokenId` token from `from` to `to`.\n     *\n     * Requirements:\n     *\n     * - `from` cannot be the zero address.\n     * - `to` cannot be the zero address.\n     * - `tokenId` token must exist and be owned by `from`.\n     * - If the caller is not `from`, it must be approved to move this token by either {approve} or {setApprovalForAll}.\n     * - If `to` refers to a smart contract, it must implement {IERC721Receiver-onERC721Received}, which is called upon a safe transfer.\n     *\n     * Emits a {Transfer} event.\n     */\n    function safeTransferFrom(\n        address from,\n        address to,\n        uint256 tokenId,\n        bytes calldata data\n    ) external;\n}\n\n\n// File @openzeppelin/contracts/token/ERC721/IERC721Receiver.sol@v4.4.1\n\n// OpenZeppelin Contracts v4.4.1 (token/ERC721/IERC721Receiver.sol)\n\npragma solidity ^0.8.0;\n\n/**\n * @title ERC721 token receiver interface\n * @dev Interface for any contract that wants to support safeTransfers\n * from ERC721 asset contracts.\n */\ninterface IERC721Receiver {\n    /**\n     * @dev Whenever an {IERC721} `tokenId` token is transferred to this contract via {IERC721-safeTransferFrom}\n     * by `operator` from `from`, this function is called.\n     *\n     * It must return its Solidity selector to confirm the token transfer.\n     * If any other value is returned or the interface is not implemented by the recipient, the transfer will be reverted.\n     *\n     * The selector can be obtained in Solidity with `IERC721.onERC721Received.selector`.\n     */\n    function onERC721Received(\n        address operator,\n        address from,\n        uint256 tokenId,\n        bytes calldata data\n    ) external returns (bytes4);\n}\n\n\n// File @openzeppelin/contracts/token/ERC721/extensions/IERC721Metadata.sol@v4.4.1\n\n// OpenZeppelin Contracts v4.4.1 (token/ERC721/extensions/IERC721Metadata.sol)\n\npragma solidity ^0.8.0;\n\n/**\n * @title ERC-721 Non-Fungible Token Standard, optional metadata extension\n * @dev See https://eips.ethereum.org/EIPS/eip-721\n */\ninterface IERC721Metadata is IERC721 {\n    /**\n     * @dev Returns the token collection name.\n     */\n    function name() external view returns (string memory);\n\n    /**\n     * @dev Returns the token collection symbol.\n     */\n    function symbol() external view returns (string memory);\n\n    /**\n     * @dev Returns the Uniform Resource Identifier (URI) for `tokenId` token.\n     */\n    function tokenURI(uint256 tokenId) external view returns (string memory);\n}\n\n\n// File @openzeppelin/contracts/utils/Address.sol@v4.4.1\n\n// OpenZeppelin Contracts v4.4.1 (utils/Address.sol)\n\npragma solidity ^0.8.0;\n\n/**\n * @dev Collection of functions related to the address type\n */\nlibrary Address {\n    /**\n     * @dev Returns true if `account` is a contract.\n     *\n     * [IMPORTANT]\n     * ====\n     * It is unsafe to assume that an address for which this function returns\n     * false is an externally-owned account (EOA) and not a contract.\n     *\n     * Among others, `isContract` will return false for the following\n     * types of addresses:\n     *\n     *  - an externally-owned account\n     *  - a contract in construction\n     *  - an address where a contract will be created\n     *  - an address where a contract lived, but was destroyed\n     * ====\n     */\n    function isContract(address account) internal view returns (bool) {\n        // This method relies on extcodesize, which returns 0 for contracts in\n        // construction, since the code is only stored at the end of the\n        // constructor execution.\n\n        uint256 size;\n        assembly {\n            size := extcodesize(account)\n        }\n        return size > 0;\n    }\n\n    /**\n     * @dev Replacement for Solidity's `transfer`: sends `amount` wei to\n     * `recipient`, forwarding all available gas and reverting on errors.\n     *\n     * https://eips.ethereum.org/EIPS/eip-1884[EIP1884] increases the gas cost\n     * of certain opcodes, possibly making contracts go over the 2300 gas limit\n     * imposed by `transfer`, making them unable to receive funds via\n     * `transfer`. {sendValue} removes this limitation.\n     *\n     * https://diligence.consensys.net/posts/2019/09/stop-using-soliditys-transfer-now/[Learn more].\n     *\n     * IMPORTANT: because control is transferred to `recipient`, care must be\n     * taken to not create reentrancy vulnerabilities. Consider using\n     * {ReentrancyGuard} or the\n     * https://solidity.readthedocs.io/en/v0.5.11/security-considerations.html#use-the-checks-effects-interactions-pattern[checks-effects-interactions pattern].\n     */\n    function sendValue(address payable recipient, uint256 amount) internal {\n        require(address(this).balance >= amount, \"Address: insufficient balance\");\n\n        (bool success, ) = recipient.call{value: amount}(\"\");\n        require(success, \"Address: unable to send value, recipient may have reverted\");\n    }\n\n    /**\n     * @dev Performs a Solidity function call using a low level `call`. A\n     * plain `call` is an unsafe replacement for a function call: use this\n     * function instead.\n     *\n     * If `target` reverts with a revert reason, it is bubbled up by this\n     * function (like regular Solidity function calls).\n     *\n     * Returns the raw returned data. To convert to the expected return value,\n     * use https://solidity.readthedocs.io/en/latest/units-and-global-variables.html?highlight=abi.decode#abi-encoding-and-decoding-functions[`abi.decode`].\n     *\n     * Requirements:\n     *\n     * - `target` must be a contract.\n     * - calling `target` with `data` must not revert.\n     *\n     * _Available since v3.1._\n     */\n    function functionCall(address target, bytes memory data) internal returns (bytes memory) {\n        return functionCall(target, data, \"Address: low-level call failed\");\n    }\n\n    /**\n     * @dev Same as {xref-Address-functionCall-address-bytes-}[`functionCall`], but with\n     * `errorMessage` as a fallback revert reason when `target` reverts.\n     *\n     * _Available since v3.1._\n     */\n    function functionCall(\n        address target,\n        bytes memory data,\n        string memory errorMessage\n    ) internal returns (bytes memory) {\n        return functionCallWithValue(target, data, 0, errorMessage);\n    }\n\n    /**\n     * @dev Same as {xref-Address-functionCall-address-bytes-}[`functionCall`],\n     * but also transferring `value` wei to `target`.\n     *\n     * Requirements:\n     *\n     * - the calling contract must have an ETH balance of at least `value`.\n     * - the called Solidity function must be `payable`.\n     *\n     * _Available since v3.1._\n     */\n    function functionCallWithValue(\n        address target,\n        bytes memory data,\n        uint256 value\n    ) internal returns (bytes memory) {\n        return functionCallWithValue(target, data, value, \"Address: low-level call with value failed\");\n    }\n\n    /**\n     * @dev Same as {xref-Address-functionCallWithValue-address-bytes-uint256-}[`functionCallWithValue`], but\n     * with `errorMessage` as a fallback revert reason when `target` reverts.\n     *\n     * _Available since v3.1._\n     */\n    function functionCallWithValue(\n        address target,\n        bytes memory data,\n        uint256 value,\n        string memory errorMessage\n    ) internal returns (bytes memory) {\n        require(address(this).balance >= value, \"Address: insufficient balance for call\");\n        require(isContract(target), \"Address: call to non-contract\");\n\n        (bool success, bytes memory returndata) = target.call{value: value}(data);\n        return verifyCallResult(success, returndata, errorMessage);\n    }\n\n    /**\n     * @dev Same as {xref-Address-functionCall-address-bytes-}[`functionCall`],\n     * but performing a static call.\n     *\n     * _Available since v3.3._\n     */\n    function functionStaticCall(address target, bytes memory data) internal view returns (bytes memory) {\n        return functionStaticCall(target, data, \"Address: low-level static call failed\");\n    }\n\n    /**\n     * @dev Same as {xref-Address-functionCall-address-bytes-string-}[`functionCall`],\n     * but performing a static call.\n     *\n     * _Available since v3.3._\n     */\n    function functionStaticCall(\n        address target,\n        bytes memory data,\n        string memory errorMessage\n    ) internal view returns (bytes memory) {\n        require(isContract(target), \"Address: static call to non-contract\");\n\n        (bool success, bytes memory returndata) = target.staticcall(data);\n        return verifyCallResult(success, returndata, errorMessage);\n    }\n\n    /**\n     * @dev Same as {xref-Address-functionCall-address-bytes-}[`functionCall`],\n     * but performing a delegate call.\n     *\n     * _Available since v3.4._\n     */\n    function functionDelegateCall(address target, bytes memory data) internal returns (bytes memory) {\n        return functionDelegateCall(target, data, \"Address: low-level delegate call failed\");\n    }\n\n    /**\n     * @dev Same as {xref-Address-functionCall-address-bytes-string-}[`functionCall`],\n     * but performing a delegate call.\n     *\n     * _Available since v3.4._\n     */\n    function functionDelegateCall(\n        address target,\n        bytes memory data,\n        string memory errorMessage\n    ) internal returns (bytes memory) {\n        require(isContract(target), \"Address: delegate call to non-contract\");\n\n        (bool success, bytes memory returndata) = target.delegatecall(data);\n        return verifyCallResult(success, returndata, errorMessage);\n    }\n\n    /**\n     * @dev Tool to verifies that a low level call was successful, and revert if it wasn't, either by bubbling the\n     * revert reason using the provided one.\n     *\n     * _Available since v4.3._\n     */\n    function verifyCallResult(\n        bool success,\n        bytes memory returndata,\n        string memory errorMessage\n    ) internal pure returns (bytes memory) {\n        if (success) {\n            return returndata;\n        } else {\n            // Look for revert reason and bubble it up if present\n            if (returndata.length > 0) {\n                // The easiest way to bubble the revert reason is using memory via assembly\n\n                assembly {\n                    let returndata_size := mload(returndata)\n                    revert(add(32, returndata), returndata_size)\n                }\n            } else {\n                revert(errorMessage);\n            }\n        }\n    }\n}\n\n\n// File @openzeppelin/contracts/utils/Context.sol@v4.4.1\n\n// OpenZeppelin Contracts v4.4.1 (utils/Context.sol)\n\npragma solidity ^0.8.0;\n\n/**\n * @dev Provides information about the current execution context, including the\n * sender of the transaction and its data. While these are generally available\n * via msg.sender and msg.data, they should not be accessed in such a direct\n * manner, since when dealing with meta-transactions the account sending and\n * paying for execution may not be the actual sender (as far as an application\n * is concerned).\n *\n * This contract is only required for intermediate, library-like contracts.\n */\nabstract contract Context {\n    function _msgSender() internal view virtual returns (address) {\n        return msg.sender;\n    }\n\n    function _msgData() internal view virtual returns (bytes calldata) {\n        return msg.data;\n    }\n}\n\n\n// File @openzeppelin/contracts/utils/Strings.sol@v4.4.1\n\n// OpenZeppelin Contracts v4.4.1 (utils/Strings.sol)\n\npragma solidity ^0.8.0;\n\n/**\n * @dev String operations.\n */\nlibrary Strings {\n    bytes16 private constant _HEX_SYMBOLS = \"0123456789abcdef\";\n\n    /**\n     * @dev Converts a `uint256` to its ASCII `string` decimal representation.\n     */\n    function toString(uint256 value) internal pure returns (string memory) {\n        // Inspired by OraclizeAPI's implementation - MIT licence\n        // https://github.com/oraclize/ethereum-api/blob/b42146b063c7d6ee1358846c198246239e9360e8/oraclizeAPI_0.4.25.sol\n\n        if (value == 0) {\n            return \"0\";\n        }\n        uint256 temp = value;\n        uint256 digits;\n        while (temp != 0) {\n            digits++;\n            temp /= 10;\n        }\n        bytes memory buffer = new bytes(digits);\n        while (value != 0) {\n            digits -= 1;\n            buffer[digits] = bytes1(uint8(48 + uint256(value % 10)));\n            value /= 10;\n        }\n        return string(buffer);\n    }\n\n    /**\n     * @dev Converts a `uint256` to its ASCII `string` hexadecimal representation.\n     */\n    function toHexString(uint256 value) internal pure returns (string memory) {\n        if (value == 0) {\n            return \"0x00\";\n        }\n        uint256 temp = value;\n        uint256 length = 0;\n        while (temp != 0) {\n            length++;\n            temp >>= 8;\n        }\n        return toHexString(value, length);\n    }\n\n    /**\n     * @dev Converts a `uint256` to its ASCII `string` hexadecimal representation with fixed length.\n     */\n    function toHexString(uint256 value, uint256 length) internal pure returns (string memory) {\n        bytes memory buffer = new bytes(2 * length + 2);\n        buffer[0] = \"0\";\n        buffer[1] = \"x\";\n        for (uint256 i = 2 * length + 1; i > 1; --i) {\n            buffer[i] = _HEX_SYMBOLS[value & 0xf];\n            value >>= 4;\n        }\n        require(value == 0, \"Strings: hex length insufficient\");\n        return string(buffer);\n    }\n}\n\n\n// File @openzeppelin/contracts/utils/introspection/ERC165.sol@v4.4.1\n\n// OpenZeppelin Contracts v4.4.1 (utils/introspection/ERC165.sol)\n\npragma solidity ^0.8.0;\n\n/**\n * @dev Implementation of the {IERC165} interface.\n *\n * Contracts that want to implement ERC165 should inherit from this contract and override {supportsInterface} to check\n * for the additional interface id that will be supported. For example:\n *\n * ```solidity\n * function supportsInterface(bytes4 interfaceId) public view virtual override returns (bool) {\n *     return interfaceId == type(MyInterface).interfaceId || super.supportsInterface(interfaceId);\n * }\n * ```\n *\n * Alternatively, {ERC165Storage} provides an easier to use but more expensive implementation.\n */\nabstract contract ERC165 is IERC165 {\n    /**\n     * @dev See {IERC165-supportsInterface}.\n     */\n    function supportsInterface(bytes4 interfaceId) public view virtual override returns (bool) {\n        return interfaceId == type(IERC165).interfaceId;\n    }\n}\n\n\n// File @openzeppelin/contracts/token/ERC721/ERC721.sol@v4.4.1\n\n// OpenZeppelin Contracts v4.4.1 (token/ERC721/ERC721.sol)\n\npragma solidity ^0.8.0;\n\n\n\n\n\n\n\n/**\n * @dev Implementation of https://eips.ethereum.org/EIPS/eip-721[ERC721] Non-Fungible Token Standard, including\n * the Metadata extension, but not including the Enumerable extension, which is available separately as\n * {ERC721Enumerable}.\n */\ncontract ERC721 is Context, ERC165, IERC721, IERC721Metadata {\n    using Address for address;\n    using Strings for uint256;\n\n    // Token name\n    string private _name;\n\n    // Token symbol\n    string private _symbol;\n\n    // Mapping from token ID to owner address\n    mapping(uint256 => address) private _owners;\n\n    // Mapping owner address to token count\n    mapping(address => uint256) private _balances;\n\n    // Mapping from token ID to approved address\n    mapping(uint256 => address) private _tokenApprovals;\n\n    // Mapping from owner to operator approvals\n    mapping(address => mapping(address => bool)) private _operatorApprovals;\n\n    /**\n     * @dev Initializes the contract by setting a `name` and a `symbol` to the token collection.\n     */\n    constructor(string memory name_, string memory symbol_) {\n        _name = name_;\n        _symbol = symbol_;\n    }\n\n    /**\n     * @dev See {IERC165-supportsInterface}.\n     */\n    function supportsInterface(bytes4 interfaceId) public view virtual override(ERC165, IERC165) returns (bool) {\n        return\n            interfaceId == type(IERC721).interfaceId ||\n            interfaceId == type(IERC721Metadata).interfaceId ||\n            super.supportsInterface(interfaceId);\n    }\n\n    /**\n     * @dev See {IERC721-balanceOf}.\n     */\n    function balanceOf(address owner) public view virtual override returns (uint256) {\n        require(owner != address(0), \"ERC721: balance query for the zero address\");\n        return _balances[owner];\n    }\n\n    /**\n     * @dev See {IERC721-ownerOf}.\n     */\n    function ownerOf(uint256 tokenId) public view virtual override returns (address) {\n        address owner = _owners[tokenId];\n        require(owner != address(0), \"ERC721: owner query for nonexistent token\");\n        return owner;\n    }\n\n    /**\n     * @dev See {IERC721Metadata-name}.\n     */\n    function name() public view virtual override returns (string memory) {\n        return _name;\n    }\n\n    /**\n     * @dev See {IERC721Metadata-symbol}.\n     */\n    function symbol() public view virtual override returns (string memory) {\n        return _symbol;\n    }\n\n    /**\n     * @dev See {IERC721Metadata-tokenURI}.\n     */\n    function tokenURI(uint256 tokenId) public view virtual override returns (string memory) {\n        require(_exists(tokenId), \"ERC721Metadata: URI query for nonexistent token\");\n\n        string memory baseURI = _baseURI();\n        return bytes(baseURI).length > 0 ? string(abi.encodePacked(baseURI, tokenId.toString())) : \"\";\n    }\n\n    /**\n     * @dev Base URI for computing {tokenURI}. If set, the resulting URI for each\n     * token will be the concatenation of the `baseURI` and the `tokenId`. Empty\n     * by default, can be overriden in child contracts.\n     */\n    function _baseURI() internal view virtual returns (string memory) {\n        return \"\";\n    }\n\n    /**\n     * @dev See {IERC721-approve}.\n     */\n    function approve(address to, uint256 tokenId) public virtual override {\n        address owner = ERC721.ownerOf(tokenId);\n        require(to != owner, \"ERC721: approval to current owner\");\n\n        require(\n            _msgSender() == owner || isApprovedForAll(owner, _msgSender()),\n            \"ERC721: approve caller is not owner nor approved for all\"\n        );\n\n        _approve(to, tokenId);\n    }\n\n    /**\n     * @dev See {IERC721-getApproved}.\n     */\n    function getApproved(uint256 tokenId) public view virtual override returns (address) {\n        require(_exists(tokenId), \"ERC721: approved query for nonexistent token\");\n\n        return _tokenApprovals[tokenId];\n    }\n\n    /**\n     * @dev See {IERC721-setApprovalForAll}.\n     */\n    function setApprovalForAll(address operator, bool approved) public virtual override {\n        _setApprovalForAll(_msgSender(), operator, approved);\n    }\n\n    /**\n     * @dev See {IERC721-isApprovedForAll}.\n     */\n    function isApprovedForAll(address owner, address operator) public view virtual override returns (bool) {\n        return _operatorApprovals[owner][operator];\n    }\n\n    /**\n     * @dev See {IERC721-transferFrom}.\n     */\n    function transferFrom(\n        address from,\n        address to,\n        uint256 tokenId\n    ) public virtual override {\n        //solhint-disable-next-line max-line-length\n        require(_isApprovedOrOwner(_msgSender(), tokenId), \"ERC721: transfer caller is not owner nor approved\");\n\n        _transfer(from, to, tokenId);\n    }\n\n    /**\n     * @dev See {IERC721-safeTransferFrom}.\n     */\n    function safeTransferFrom(\n        address from,\n        address to,\n        uint256 tokenId\n    ) public virtual override {\n        safeTransferFrom(from, to, tokenId, \"\");\n    }\n\n    /**\n     * @dev See {IERC721-safeTransferFrom}.\n     */\n    function safeTransferFrom(\n        address from,\n        address to,\n        uint256 tokenId,\n        bytes memory _data\n    ) public virtual override {\n        require(_isApprovedOrOwner(_msgSender(), tokenId), \"ERC721: transfer caller is not owner nor approved\");\n        _safeTransfer(from, to, tokenId, _data);\n    }\n\n    /**\n     * @dev Safely transfers `tokenId` token from `from` to `to`, checking first that contract recipients\n     * are aware of the ERC721 protocol to prevent tokens from being forever locked.\n     *\n     * `_data` is additional data, it has no specified format and it is sent in call to `to`.\n     *\n     * This internal function is equivalent to {safeTransferFrom}, and can be used to e.g.\n     * implement alternative mechanisms to perform token transfer, such as signature-based.\n     *\n     * Requirements:\n     *\n     * - `from` cannot be the zero address.\n     * - `to` cannot be the zero address.\n     * - `tokenId` token must exist and be owned by `from`.\n     * - If `to` refers to a smart contract, it must implement {IERC721Receiver-onERC721Received}, which is called upon a safe transfer.\n     *\n     * Emits a {Transfer} event.\n     */\n    function _safeTransfer(\n        address from,\n        address to,\n        uint256 tokenId,\n        bytes memory _data\n    ) internal virtual {\n        _transfer(from, to, tokenId);\n        require(_checkOnERC721Received(from, to, tokenId, _data), \"ERC721: transfer to non ERC721Receiver implementer\");\n    }\n\n    /**\n     * @dev Returns whether `tokenId` exists.\n     *\n     * Tokens can be managed by their owner or approved accounts via {approve} or {setApprovalForAll}.\n     *\n     * Tokens start existing when they are minted (`_mint`),\n     * and stop existing when they are burned (`_burn`).\n     */\n    function _exists(uint256 tokenId) internal view virtual returns (bool) {\n        return _owners[tokenId] != address(0);\n    }\n\n    /**\n     * @dev Returns whether `spender` is allowed to manage `tokenId`.\n     *\n     * Requirements:\n     *\n     * - `tokenId` must exist.\n     */\n    function _isApprovedOrOwner(address spender, uint256 tokenId) internal view virtual returns (bool) {\n        require(_exists(tokenId), \"ERC721: operator query for nonexistent token\");\n        address owner = ERC721.ownerOf(tokenId);\n        return (spender == owner || getApproved(tokenId) == spender || isApprovedForAll(owner, spender));\n    }\n\n    /**\n     * @dev Safely mints `tokenId` and transfers it to `to`.\n     *\n     * Requirements:\n     *\n     * - `tokenId` must not exist.\n     * - If `to` refers to a smart contract, it must implement {IERC721Receiver-onERC721Received}, which is called upon a safe transfer.\n     *\n     * Emits a {Transfer} event.\n     */\n    function _safeMint(address to, uint256 tokenId) internal virtual {\n        _safeMint(to, tokenId, \"\");\n    }\n\n    /**\n     * @dev Same as {xref-ERC721-_safeMint-address-uint256-}[`_safeMint`], with an additional `data` parameter which is\n     * forwarded in {IERC721Receiver-onERC721Received} to contract recipients.\n     */\n    function _safeMint(\n        address to,\n        uint256 tokenId,\n        bytes memory _data\n    ) internal virtual {\n        _mint(to, tokenId);\n        require(\n            _checkOnERC721Received(address(0), to, tokenId, _data),\n            \"ERC721: transfer to non ERC721Receiver implementer\"\n        );\n    }\n\n    /**\n     * @dev Mints `tokenId` and transfers it to `to`.\n     *\n     * WARNING: Usage of this method is discouraged, use {_safeMint} whenever possible\n     *\n     * Requirements:\n     *\n     * - `tokenId` must not exist.\n     * - `to` cannot be the zero address.\n     *\n     * Emits a {Transfer} event.\n     */\n    function _mint(address to, uint256 tokenId) internal virtual {\n        require(to != address(0), \"ERC721: mint to the zero address\");\n        require(!_exists(tokenId), \"ERC721: token already minted\");\n\n        _beforeTokenTransfer(address(0), to, tokenId);\n\n        _balances[to] += 1;\n        _owners[tokenId] = to;\n\n        emit Transfer(address(0), to, tokenId);\n    }\n\n    /**\n     * @dev Destroys `tokenId`.\n     * The approval is cleared when the token is burned.\n     *\n     * Requirements:\n     *\n     * - `tokenId` must exist.\n     *\n     * Emits a {Transfer} event.\n     */\n    function _burn(uint256 tokenId) internal virtual {\n        address owner = ERC721.ownerOf(tokenId);\n\n        _beforeTokenTransfer(owner, address(0), tokenId);\n\n        // Clear approvals\n        _approve(address(0), tokenId);\n\n        _balances[owner] -= 1;\n        delete _owners[tokenId];\n\n        emit Transfer(owner, address(0), tokenId);\n    }\n\n    /**\n     * @dev Transfers `tokenId` from `from` to `to`.\n     *  As opposed to {transferFrom}, this imposes no restrictions on msg.sender.\n     *\n     * Requirements:\n     *\n     * - `to` cannot be the zero address.\n     * - `tokenId` token must be owned by `from`.\n     *\n     * Emits a {Transfer} event.\n     */\n    function _transfer(\n        address from,\n        address to,\n        uint256 tokenId\n    ) internal virtual {\n        require(ERC721.ownerOf(tokenId) == from, \"ERC721: transfer of token that is not own\");\n        require(to != address(0), \"ERC721: transfer to the zero address\");\n\n        _beforeTokenTransfer(from, to, tokenId);\n\n        // Clear approvals from the previous owner\n        _approve(address(0), tokenId);\n\n        _balances[from] -= 1;\n        _balances[to] += 1;\n        _owners[tokenId] = to;\n\n        emit Transfer(from, to, tokenId);\n    }\n\n    /**\n     * @dev Approve `to` to operate on `tokenId`\n     *\n     * Emits a {Approval} event.\n     */\n    function _approve(address to, uint256 tokenId) internal virtual {\n        _tokenApprovals[tokenId] = to;\n        emit Approval(ERC721.ownerOf(tokenId), to, tokenId);\n    }\n\n    /**\n     * @dev Approve `operator` to operate on all of `owner` tokens\n     *\n     * Emits a {ApprovalForAll} event.\n     */\n    function _setApprovalForAll(\n        address owner,\n        address operator,\n        bool approved\n    ) internal virtual {\n        require(owner != operator, \"ERC721: approve to caller\");\n        _operatorApprovals[owner][operator] = approved;\n        emit ApprovalForAll(owner, operator, approved);\n    }\n\n    /**\n     * @dev Internal function to invoke {IERC721Receiver-onERC721Received} on a target address.\n     * The call is not executed if the target address is not a contract.\n     *\n     * @param from address representing the previous owner of the given token ID\n     * @param to target address that will receive the tokens\n     * @param tokenId uint256 ID of the token to be transferred\n     * @param _data bytes optional data to send along with the call\n     * @return bool whether the call correctly returned the expected magic value\n     */\n    function _checkOnERC721Received(\n        address from,\n        address to,\n        uint256 tokenId,\n        bytes memory _data\n    ) private returns (bool) {\n        if (to.isContract()) {\n            try IERC721Receiver(to).onERC721Received(_msgSender(), from, tokenId, _data) returns (bytes4 retval) {\n                return retval == IERC721Receiver.onERC721Received.selector;\n            } catch (bytes memory reason) {\n                if (reason.length == 0) {\n                    revert(\"ERC721: transfer to non ERC721Receiver implementer\");\n                } else {\n                    assembly {\n                        revert(add(32, reason), mload(reason))\n                    }\n                }\n            }\n        } else {\n            return true;\n        }\n    }\n\n    /**\n     * @dev Hook that is called before any token transfer. This includes minting\n     * and burning.\n     *\n     * Calling conditions:\n     *\n     * - When `from` and `to` are both non-zero, ``from``'s `tokenId` will be\n     * transferred to `to`.\n     * - When `from` is zero, `tokenId` will be minted for `to`.\n     * - When `to` is zero, ``from``'s `tokenId` will be burned.\n     * - `from` and `to` are never both zero.\n     *\n     * To learn more about hooks, head to xref:ROOT:extending-contracts.adoc#using-hooks[Using Hooks].\n     */\n    function _beforeTokenTransfer(\n        address from,\n        address to,\n        uint256 tokenId\n    ) internal virtual {}\n}\n\n\n// File @openzeppelin/contracts/access/Ownable.sol@v4.4.1\n\n// OpenZeppelin Contracts v4.4.1 (access/Ownable.sol)\n\npragma solidity ^0.8.0;\n\n/**\n * @dev Contract module which provides a basic access control mechanism, where\n * there is an account (an owner) that can be granted exclusive access to\n * specific functions.\n *\n * By default, the owner account will be the one that deploys the contract. This\n * can later be changed with {transferOwnership}.\n *\n * This module is used through inheritance. It will make available the modifier\n * `onlyOwner`, which can be applied to your functions to restrict their use to\n * the owner.\n */\nabstract contract Ownable is Context {\n    address private _owner;\n\n    event OwnershipTransferred(address indexed previousOwner, address indexed newOwner);\n\n    /**\n     * @dev Initializes the contract setting the deployer as the initial owner.\n     */\n    constructor() {\n        _transferOwnership(_msgSender());\n    }\n\n    /**\n     * @dev Returns the address of the current owner.\n     */\n    function owner() public view virtual returns (address) {\n        return _owner;\n    }\n\n    /**\n     * @dev Throws if called by any account other than the owner.\n     */\n    modifier onlyOwner() {\n        require(owner() == _msgSender(), \"Ownable: caller is not the owner\");\n        _;\n    }\n\n    /**\n     * @dev Leaves the contract without owner. It will not be possible to call\n     * `onlyOwner` functions anymore. Can only be called by the current owner.\n     *\n     * NOTE: Renouncing ownership will leave the contract without an owner,\n     * thereby removing any functionality that is only available to the owner.\n     */\n    function renounceOwnership() public virtual onlyOwner {\n        _transferOwnership(address(0));\n    }\n\n    /**\n     * @dev Transfers ownership of the contract to a new account (`newOwner`).\n     * Can only be called by the current owner.\n     */\n    function transferOwnership(address newOwner) public virtual onlyOwner {\n        require(newOwner != address(0), \"Ownable: new owner is the zero address\");\n        _transferOwnership(newOwner);\n    }\n\n    /**\n     * @dev Transfers ownership of the contract to a new account (`newOwner`).\n     * Internal function without access restriction.\n     */\n    function _transferOwnership(address newOwner) internal virtual {\n        address oldOwner = _owner;\n        _owner = newOwner;\n        emit OwnershipTransferred(oldOwner, newOwner);\n    }\n}\n\n\n// File contracts/NFTArtGen.sol\n\n\npragma solidity ^0.8.4;\n\n\n\n// \n// Built by https://nft-generator.art\n// \ncontract NFTArtGen is ERC721, Ownable {\n    string internal baseUri;\n\n    uint256 public cost = 0.05 ether;\n    uint32 public maxPerMint = 5;\n    uint32 public maxPerWallet = 20;\n    uint32 public supply = 0;\n    uint32 public totalSupply = 0;\n    bool public open = false;\n    mapping(address => uint256) internal addressMintedMap;\n\n    uint32 private commission = 49; // 4.9%\n    address private author = 0x460Fd5059E7301680fA53E63bbBF7272E643e89C;\n\n    constructor(\n        string memory _uri,\n        string memory _name,\n        string memory _symbol,\n        uint32 _totalSupply,\n        uint256 _cost,\n        bool _open\n    ) ERC721(_name, _symbol) {\n        baseUri = _uri;\n        totalSupply = _totalSupply;\n        cost = _cost;\n        open = _open;\n    }\n\n    // ------ Author Only ------\n\n    function setCommission(uint32 _commision) public {\n        require(msg.sender == author, \"Incorrect Address\");\n        commission = _commision;\n    }\n\n    // ------ Owner Only ------\n\n    function setCost(uint256 _cost) public onlyOwner {\n        cost = _cost;\n    }\n\n    function setOpen(bool _open) public onlyOwner {\n        open = _open;\n    }\n\n    function setMaxPerWallet(uint32 _max) public onlyOwner {\n        maxPerWallet = _max;\n    }\n\n    function setMaxPerMint(uint32 _max) public onlyOwner {\n        maxPerMint = _max;\n    }\n\n    function airdrop(address[] calldata to) public onlyOwner {\n        for (uint32 i = 0; i < to.length; i++) {\n            require(1 + supply <= totalSupply, \"Limit reached\");\n            _safeMint(to[i], ++supply, \"\");\n        }\n    }\n\n    function withdraw() public payable onlyOwner {\n        (bool success, ) = payable(msg.sender).call{\n            value: address(this).balance\n        }(\"\");\n        require(success);\n    }\n\n    // ------ Mint! ------\n\n    function mint(uint32 count) external payable preMintChecks(count) {\n        require(open == true, \"Mint not open\");\n        performMint(count);\n    }\n\n    function performMint(uint32 count) internal {\n        for (uint32 i = 0; i < count; i++) {\n            _safeMint(msg.sender, ++supply, \"\");\n        }\n        \n        addressMintedMap[msg.sender] += count;\n\n        (bool success, ) = payable(author).call{\n            value: (msg.value * commission) / 1000\n        }(\"\");\n        require(success);\n    }\n\n    // ------ Read ------\n\n    // ------ Modifiers ------\n\n    modifier preMintChecks(uint32 count) {\n        require(count > 0, \"Mint at least one.\");\n        require(count < maxPerMint + 1, \"Max mint reached.\");\n        require(msg.value >= cost * count, \"Not enough fund.\");\n        require(supply + count < totalSupply + 1, \"Mint sold out\");\n        require(\n            addressMintedMap[msg.sender] + count <= maxPerWallet,\n            \"Max total mint reached\"\n        );\n        _;\n    }\n}\n\n\n// File @openzeppelin/contracts/utils/cryptography/MerkleProof.sol@v4.4.1\n\n// OpenZeppelin Contracts v4.4.1 (utils/cryptography/MerkleProof.sol)\n\npragma solidity ^0.8.0;\n\n/**\n * @dev These functions deal with verification of Merkle Trees proofs.\n *\n * The proofs can be generated using the JavaScript library\n * https://github.com/miguelmota/merkletreejs[merkletreejs].\n * Note: the hashing algorithm should be keccak256 and pair sorting should be enabled.\n *\n * See `test/utils/cryptography/MerkleProof.test.js` for some examples.\n */\nlibrary MerkleProof {\n    /**\n     * @dev Returns true if a `leaf` can be proved to be a part of a Merkle tree\n     * defined by `root`. For this, a `proof` must be provided, containing\n     * sibling hashes on the branch from the leaf to the root of the tree. Each\n     * pair of leaves and each pair of pre-images are assumed to be sorted.\n     */\n    function verify(\n        bytes32[] memory proof,\n        bytes32 root,\n        bytes32 leaf\n    ) internal pure returns (bool) {\n        return processProof(proof, leaf) == root;\n    }\n\n    /**\n     * @dev Returns the rebuilt hash obtained by traversing a Merklee tree up\n     * from `leaf` using `proof`. A `proof` is valid if and only if the rebuilt\n     * hash matches the root of the tree. When processing the proof, the pairs\n     * of leafs & pre-images are assumed to be sorted.\n     *\n     * _Available since v4.4._\n     */\n    function processProof(bytes32[] memory proof, bytes32 leaf) internal pure returns (bytes32) {\n        bytes32 computedHash = leaf;\n        for (uint256 i = 0; i < proof.length; i++) {\n            bytes32 proofElement = proof[i];\n            if (computedHash <= proofElement) {\n                // Hash(current computed hash + current element of the proof)\n                computedHash = keccak256(abi.encodePacked(computedHash, proofElement));\n            } else {\n                // Hash(current element of the proof + current computed hash)\n                computedHash = keccak256(abi.encodePacked(proofElement, computedHash));\n            }\n        }\n        return computedHash;\n    }\n}\n\n\n// File contracts/utils/Presaleable.sol\n\n\npragma solidity ^0.8.4;\n\n\nabstract contract Presaleable is NFTArtGen {\n    bool public presaleOpen = false;\n    bytes32 private merkleRoot;\n\n    function setPresaleOpen(bool _open) public onlyOwner {\n        presaleOpen = _open;\n    }\n\n    function setPreSaleAddresses(bytes32 root) public onlyOwner {\n        merkleRoot = root;\n    }\n\n    function presaleMint(uint32 count, bytes32[] calldata proof)\n        external\n        payable\n        preMintChecks(count)\n    {\n        require(presaleOpen, \"Presale not open\");\n        require(merkleRoot != \"\", \"Presale not ready\");\n        require(\n            MerkleProof.verify(\n                proof,\n                merkleRoot,\n                keccak256(abi.encodePacked(msg.sender))\n            ),\n            \"Not a presale member\"\n        );\n\n        performMint(count);\n    }\n}\n\n\n// File contracts/extensions/Presale.sol\n\n\npragma solidity ^0.8.4;\n\n\n\ncontract NFTArtGenPresale is NFTArtGen, Presaleable {\n    constructor(\n        string memory _uri,\n        string memory _name,\n        string memory _symbol,\n        uint32 _totalSupply,\n        uint256 _cost,\n        bool _open\n    ) NFTArtGen(_uri, _name, _symbol, _totalSupply, _cost, _open) {}\n\n    function tokenURI(uint256 _tokenId)\n        public\n        view\n        virtual\n        override\n        returns (string memory)\n    {\n        require(_tokenId <= supply, \"Not minted yet\");\n\n        return\n            string(\n                abi.encodePacked(baseUri, Strings.toString(_tokenId), \".json\")\n            );\n    }\n}\n",
  "sourcePath": "/Users/nathan/Code/work/frontend/src/services/blockchain/blockchains/ethereum/contracts/ambition-presale.sol",
  "compiler": {
    "name": "solc",
    "version": "0.8.7+commit.e28d00a7.Emscripten.clang"
  },
  "schemaVersion": "3.3.2",
  "updatedAt": "2022-04-25T20:42:30.659Z",
  "devdoc": {
    "kind": "dev",
    "methods": {
      "approve(address,uint256)": {
        "details": "See {IERC721-approve}."
      },
      "balanceOf(address)": {
        "details": "See {IERC721-balanceOf}."
      },
      "getApproved(uint256)": {
        "details": "See {IERC721-getApproved}."
      },
      "isApprovedForAll(address,address)": {
        "details": "See {IERC721-isApprovedForAll}."
      },
      "name()": {
        "details": "See {IERC721Metadata-name}."
      },
      "owner()": {
        "details": "Returns the address of the current owner."
      },
      "ownerOf(uint256)": {
        "details": "See {IERC721-ownerOf}."
      },
      "renounceOwnership()": {
        "details": "Leaves the contract without owner. It will not be possible to call `onlyOwner` functions anymore. Can only be called by the current owner. NOTE: Renouncing ownership will leave the contract without an owner, thereby removing any functionality that is only available to the owner."
      },
      "safeTransferFrom(address,address,uint256)": {
        "details": "See {IERC721-safeTransferFrom}."
      },
      "safeTransferFrom(address,address,uint256,bytes)": {
        "details": "See {IERC721-safeTransferFrom}."
      },
      "setApprovalForAll(address,bool)": {
        "details": "See {IERC721-setApprovalForAll}."
      },
      "supportsInterface(bytes4)": {
        "details": "See {IERC165-supportsInterface}."
      },
      "symbol()": {
        "details": "See {IERC721Metadata-symbol}."
      },
      "transferFrom(address,address,uint256)": {
        "details": "See {IERC721-transferFrom}."
      },
      "transferOwnership(address)": {
        "details": "Transfers ownership of the contract to a new account (`newOwner`). Can only be called by the current owner."
      }
    },
    "version": 1
  },
  "userdoc": {
    "kind": "user",
    "methods": {},
    "version": 1
  }
}