{
  "contractName": "NFTCollectible",
  "abi": [
    {
      "inputs": [
        {
          "internalType": "string",
          "name": "baseURI",
          "type": "string"
        },
        {
          "internalType": "uint256",
          "name": "priceInWei",
          "type": "uint256"
        },
        {
          "internalType": "uint256",
          "name": "maxSupply",
          "type": "uint256"
        }
      ],
      "stateMutability": "nonpayable",
      "type": "constructor"
    },
    {
      "anonymous": false,
      "inputs": [
        {
          "indexed": true,
          "internalType": "address",
          "name": "owner",
          "type": "address"
        },
        {
          "indexed": true,
          "internalType": "address",
          "name": "approved",
          "type": "address"
        },
        {
          "indexed": true,
          "internalType": "uint256",
          "name": "tokenId",
          "type": "uint256"
        }
      ],
      "name": "Approval",
      "type": "event"
    },
    {
      "anonymous": false,
      "inputs": [
        {
          "indexed": true,
          "internalType": "address",
          "name": "owner",
          "type": "address"
        },
        {
          "indexed": true,
          "internalType": "address",
          "name": "operator",
          "type": "address"
        },
        {
          "indexed": false,
          "internalType": "bool",
          "name": "approved",
          "type": "bool"
        }
      ],
      "name": "ApprovalForAll",
      "type": "event"
    },
    {
      "anonymous": false,
      "inputs": [
        {
          "indexed": true,
          "internalType": "address",
          "name": "previousOwner",
          "type": "address"
        },
        {
          "indexed": true,
          "internalType": "address",
          "name": "newOwner",
          "type": "address"
        }
      ],
      "name": "OwnershipTransferred",
      "type": "event"
    },
    {
      "anonymous": false,
      "inputs": [
        {
          "indexed": true,
          "internalType": "address",
          "name": "from",
          "type": "address"
        },
        {
          "indexed": true,
          "internalType": "address",
          "name": "to",
          "type": "address"
        },
        {
          "indexed": true,
          "internalType": "uint256",
          "name": "tokenId",
          "type": "uint256"
        }
      ],
      "name": "Transfer",
      "type": "event"
    },
    {
      "inputs": [],
      "name": "MAX_PER_MINT",
      "outputs": [
        {
          "internalType": "uint256",
          "name": "",
          "type": "uint256"
        }
      ],
      "stateMutability": "view",
      "type": "function"
    },
    {
      "inputs": [],
      "name": "MAX_SUPPLY",
      "outputs": [
        {
          "internalType": "uint256",
          "name": "",
          "type": "uint256"
        }
      ],
      "stateMutability": "view",
      "type": "function"
    },
    {
      "inputs": [],
      "name": "PRICE",
      "outputs": [
        {
          "internalType": "uint256",
          "name": "",
          "type": "uint256"
        }
      ],
      "stateMutability": "view",
      "type": "function"
    },
    {
      "inputs": [
        {
          "internalType": "address",
          "name": "to",
          "type": "address"
        },
        {
          "internalType": "uint256",
          "name": "tokenId",
          "type": "uint256"
        }
      ],
      "name": "approve",
      "outputs": [],
      "stateMutability": "nonpayable",
      "type": "function"
    },
    {
      "inputs": [
        {
          "internalType": "address",
          "name": "owner",
          "type": "address"
        }
      ],
      "name": "balanceOf",
      "outputs": [
        {
          "internalType": "uint256",
          "name": "",
          "type": "uint256"
        }
      ],
      "stateMutability": "view",
      "type": "function"
    },
    {
      "inputs": [],
      "name": "baseTokenURI",
      "outputs": [
        {
          "internalType": "string",
          "name": "",
          "type": "string"
        }
      ],
      "stateMutability": "view",
      "type": "function"
    },
    {
      "inputs": [
        {
          "internalType": "uint256",
          "name": "tokenId",
          "type": "uint256"
        }
      ],
      "name": "getApproved",
      "outputs": [
        {
          "internalType": "address",
          "name": "",
          "type": "address"
        }
      ],
      "stateMutability": "view",
      "type": "function"
    },
    {
      "inputs": [
        {
          "internalType": "address",
          "name": "owner",
          "type": "address"
        },
        {
          "internalType": "address",
          "name": "operator",
          "type": "address"
        }
      ],
      "name": "isApprovedForAll",
      "outputs": [
        {
          "internalType": "bool",
          "name": "",
          "type": "bool"
        }
      ],
      "stateMutability": "view",
      "type": "function"
    },
    {
      "inputs": [],
      "name": "name",
      "outputs": [
        {
          "internalType": "string",
          "name": "",
          "type": "string"
        }
      ],
      "stateMutability": "view",
      "type": "function"
    },
    {
      "inputs": [],
      "name": "owner",
      "outputs": [
        {
          "internalType": "address",
          "name": "",
          "type": "address"
        }
      ],
      "stateMutability": "view",
      "type": "function"
    },
    {
      "inputs": [
        {
          "internalType": "uint256",
          "name": "tokenId",
          "type": "uint256"
        }
      ],
      "name": "ownerOf",
      "outputs": [
        {
          "internalType": "address",
          "name": "",
          "type": "address"
        }
      ],
      "stateMutability": "view",
      "type": "function"
    },
    {
      "inputs": [],
      "name": "renounceOwnership",
      "outputs": [],
      "stateMutability": "nonpayable",
      "type": "function"
    },
    {
      "inputs": [
        {
          "internalType": "address",
          "name": "from",
          "type": "address"
        },
        {
          "internalType": "address",
          "name": "to",
          "type": "address"
        },
        {
          "internalType": "uint256",
          "name": "tokenId",
          "type": "uint256"
        }
      ],
      "name": "safeTransferFrom",
      "outputs": [],
      "stateMutability": "nonpayable",
      "type": "function"
    },
    {
      "inputs": [
        {
          "internalType": "address",
          "name": "from",
          "type": "address"
        },
        {
          "internalType": "address",
          "name": "to",
          "type": "address"
        },
        {
          "internalType": "uint256",
          "name": "tokenId",
          "type": "uint256"
        },
        {
          "internalType": "bytes",
          "name": "_data",
          "type": "bytes"
        }
      ],
      "name": "safeTransferFrom",
      "outputs": [],
      "stateMutability": "nonpayable",
      "type": "function"
    },
    {
      "inputs": [
        {
          "internalType": "address",
          "name": "operator",
          "type": "address"
        },
        {
          "internalType": "bool",
          "name": "approved",
          "type": "bool"
        }
      ],
      "name": "setApprovalForAll",
      "outputs": [],
      "stateMutability": "nonpayable",
      "type": "function"
    },
    {
      "inputs": [
        {
          "internalType": "bytes4",
          "name": "interfaceId",
          "type": "bytes4"
        }
      ],
      "name": "supportsInterface",
      "outputs": [
        {
          "internalType": "bool",
          "name": "",
          "type": "bool"
        }
      ],
      "stateMutability": "view",
      "type": "function"
    },
    {
      "inputs": [],
      "name": "symbol",
      "outputs": [
        {
          "internalType": "string",
          "name": "",
          "type": "string"
        }
      ],
      "stateMutability": "view",
      "type": "function"
    },
    {
      "inputs": [
        {
          "internalType": "uint256",
          "name": "index",
          "type": "uint256"
        }
      ],
      "name": "tokenByIndex",
      "outputs": [
        {
          "internalType": "uint256",
          "name": "",
          "type": "uint256"
        }
      ],
      "stateMutability": "view",
      "type": "function"
    },
    {
      "inputs": [
        {
          "internalType": "address",
          "name": "owner",
          "type": "address"
        },
        {
          "internalType": "uint256",
          "name": "index",
          "type": "uint256"
        }
      ],
      "name": "tokenOfOwnerByIndex",
      "outputs": [
        {
          "internalType": "uint256",
          "name": "",
          "type": "uint256"
        }
      ],
      "stateMutability": "view",
      "type": "function"
    },
    {
      "inputs": [
        {
          "internalType": "uint256",
          "name": "tokenId",
          "type": "uint256"
        }
      ],
      "name": "tokenURI",
      "outputs": [
        {
          "internalType": "string",
          "name": "",
          "type": "string"
        }
      ],
      "stateMutability": "view",
      "type": "function"
    },
    {
      "inputs": [],
      "name": "totalSupply",
      "outputs": [
        {
          "internalType": "uint256",
          "name": "",
          "type": "uint256"
        }
      ],
      "stateMutability": "view",
      "type": "function"
    },
    {
      "inputs": [
        {
          "internalType": "address",
          "name": "from",
          "type": "address"
        },
        {
          "internalType": "address",
          "name": "to",
          "type": "address"
        },
        {
          "internalType": "uint256",
          "name": "tokenId",
          "type": "uint256"
        }
      ],
      "name": "transferFrom",
      "outputs": [],
      "stateMutability": "nonpayable",
      "type": "function"
    },
    {
      "inputs": [
        {
          "internalType": "address",
          "name": "newOwner",
          "type": "address"
        }
      ],
      "name": "transferOwnership",
      "outputs": [],
      "stateMutability": "nonpayable",
      "type": "function"
    },
    {
      "inputs": [
        {
          "internalType": "string",
          "name": "_baseTokenURI",
          "type": "string"
        }
      ],
      "name": "setBaseURI",
      "outputs": [],
      "stateMutability": "nonpayable",
      "type": "function"
    },
    {
      "inputs": [],
      "name": "reserveNFTs",
      "outputs": [],
      "stateMutability": "nonpayable",
      "type": "function"
    },
    {
      "inputs": [
        {
          "internalType": "uint256",
          "name": "_count",
          "type": "uint256"
        }
      ],
      "name": "mintNFTs",
      "outputs": [],
      "stateMutability": "payable",
      "type": "function"
    },
    {
      "inputs": [
        {
          "internalType": "address",
          "name": "_owner",
          "type": "address"
        }
      ],
      "name": "tokensOfOwner",
      "outputs": [
        {
          "internalType": "uint256[]",
          "name": "",
          "type": "uint256[]"
        }
      ],
      "stateMutability": "view",
      "type": "function"
    },
    {
      "inputs": [],
      "name": "withdraw",
      "outputs": [],
      "stateMutability": "payable",
      "type": "function"
    }
  ],
  "bytecode": "0x60806040523480156200001157600080fd5b5060405162004863380380620048638339818101604052810190620000379190620003fb565b6040518060400160405280600f81526020017f4e465420436f6c6c65637469626c6500000000000000000000000000000000008152506040518060400160405280600481526020017f4e465443000000000000000000000000000000000000000000000000000000008152508160009080519060200190620000bb929190620002c2565b508060019080519060200190620000d4929190620002c2565b505050620000f7620000eb6200011f60201b60201c565b6200012760201b60201c565b6200010883620001ed60201b60201c565b81600c8190555080600d8190555050505062000681565b600033905090565b6000600a60009054906101000a900473ffffffffffffffffffffffffffffffffffffffff16905081600a60006101000a81548173ffffffffffffffffffffffffffffffffffffffff021916908373ffffffffffffffffffffffffffffffffffffffff1602179055508173ffffffffffffffffffffffffffffffffffffffff168173ffffffffffffffffffffffffffffffffffffffff167f8be0079c531659141344cd1fd0a4f28419497f9722a3daafe3b4186f6b6457e060405160405180910390a35050565b620001fd6200011f60201b60201c565b73ffffffffffffffffffffffffffffffffffffffff16620002236200029860201b60201c565b73ffffffffffffffffffffffffffffffffffffffff16146200027c576040517f08c379a0000000000000000000000000000000000000000000000000000000008152600401620002739062000491565b60405180910390fd5b80600e908051906020019062000294929190620002c2565b5050565b6000600a60009054906101000a900473ffffffffffffffffffffffffffffffffffffffff16905090565b828054620002d09062000563565b90600052602060002090601f016020900481019282620002f4576000855562000340565b82601f106200030f57805160ff191683800117855562000340565b8280016001018555821562000340579182015b828111156200033f57825182559160200191906001019062000322565b5b5090506200034f919062000353565b5090565b5b808211156200036e57600081600090555060010162000354565b5090565b6000620003896200038384620004dc565b620004b3565b905082815260208101848484011115620003a257600080fd5b620003af8482856200052d565b509392505050565b600082601f830112620003c957600080fd5b8151620003db84826020860162000372565b91505092915050565b600081519050620003f58162000667565b92915050565b6000806000606084860312156200041157600080fd5b600084015167ffffffffffffffff8111156200042c57600080fd5b6200043a86828701620003b7565b93505060206200044d86828701620003e4565b92505060406200046086828701620003e4565b9150509250925092565b60006200047960208362000512565b915062000486826200063e565b602082019050919050565b60006020820190508181036000830152620004ac816200046a565b9050919050565b6000620004bf620004d2565b9050620004cd828262000599565b919050565b6000604051905090565b600067ffffffffffffffff821115620004fa57620004f9620005fe565b5b62000505826200062d565b9050602081019050919050565b600082825260208201905092915050565b6000819050919050565b60005b838110156200054d57808201518184015260208101905062000530565b838111156200055d576000848401525b50505050565b600060028204905060018216806200057c57607f821691505b60208210811415620005935762000592620005cf565b5b50919050565b620005a4826200062d565b810181811067ffffffffffffffff82111715620005c657620005c5620005fe565b5b80604052505050565b7f4e487b7100000000000000000000000000000000000000000000000000000000600052602260045260246000fd5b7f4e487b7100000000000000000000000000000000000000000000000000000000600052604160045260246000fd5b6000601f19601f8301169050919050565b7f4f776e61626c653a2063616c6c6572206973206e6f7420746865206f776e6572600082015250565b620006728162000523565b81146200067e57600080fd5b50565b6141d280620006916000396000f3fe6080604052600436106101b75760003560e01c806355f804b3116100ec57806395d89b411161008a578063c87b56dd11610064578063c87b56dd146105de578063d547cfb71461061b578063e985e9c514610646578063f2fde38b14610683576101b7565b806395d89b4114610561578063a22cb4651461058c578063b88d4fde146105b5576101b7565b8063715018a6116100c6578063715018a6146104b75780638462151c146104ce5780638d859f3e1461050b5780638da5cb5b14610536576101b7565b806355f804b3146104145780636352211e1461043d57806370a082311461047a576101b7565b806323b872dd116101595780633b4b1381116101335780633b4b1381146103885780633ccfd60b146103a457806342842e0e146103ae5780634f6ccce7146103d7576101b7565b806323b872dd146102f75780632f745c591461032057806332cb6b0c1461035d576101b7565b8063095ea7b311610195578063095ea7b31461026157806309d42b301461028a578063144100c7146102b557806318160ddd146102cc576101b7565b806301ffc9a7146101bc57806306fdde03146101f9578063081812fc14610224575b600080fd5b3480156101c857600080fd5b506101e360048036038101906101de9190612d58565b6106ac565b6040516101f09190613373565b60405180910390f35b34801561020557600080fd5b5061020e610726565b60405161021b919061338e565b60405180910390f35b34801561023057600080fd5b5061024b60048036038101906102469190612deb565b6107b8565b60405161025891906132ea565b60405180910390f35b34801561026d57600080fd5b5061028860048036038101906102839190612d1c565b61083d565b005b34801561029657600080fd5b5061029f610955565b6040516102ac9190613690565b60405180910390f35b3480156102c157600080fd5b506102ca61095a565b005b3480156102d857600080fd5b506102e1610a66565b6040516102ee9190613690565b60405180910390f35b34801561030357600080fd5b5061031e60048036038101906103199190612c16565b610a73565b005b34801561032c57600080fd5b5061034760048036038101906103429190612d1c565b610ad3565b6040516103549190613690565b60405180910390f35b34801561036957600080fd5b50610372610b78565b60405161037f9190613690565b60405180910390f35b6103a2600480360381019061039d9190612deb565b610b7e565b005b6103ac610cb5565b005b3480156103ba57600080fd5b506103d560048036038101906103d09190612c16565b610e29565b005b3480156103e357600080fd5b506103fe60048036038101906103f99190612deb565b610e49565b60405161040b9190613690565b60405180910390f35b34801561042057600080fd5b5061043b60048036038101906104369190612daa565b610ee0565b005b34801561044957600080fd5b50610464600480360381019061045f9190612deb565b610f76565b60405161047191906132ea565b60405180910390f35b34801561048657600080fd5b506104a1600480360381019061049c9190612bb1565b611028565b6040516104ae9190613690565b60405180910390f35b3480156104c357600080fd5b506104cc6110e0565b005b3480156104da57600080fd5b506104f560048036038101906104f09190612bb1565b611168565b6040516105029190613351565b60405180910390f35b34801561051757600080fd5b50610520611262565b60405161052d9190613690565b60405180910390f35b34801561054257600080fd5b5061054b611268565b60405161055891906132ea565b60405180910390f35b34801561056d57600080fd5b50610576611292565b604051610583919061338e565b60405180910390f35b34801561059857600080fd5b506105b360048036038101906105ae9190612ce0565b611324565b005b3480156105c157600080fd5b506105dc60048036038101906105d79190612c65565b61133a565b005b3480156105ea57600080fd5b5061060560048036038101906106009190612deb565b61139c565b604051610612919061338e565b60405180910390f35b34801561062757600080fd5b50610630611443565b60405161063d919061338e565b60405180910390f35b34801561065257600080fd5b5061066d60048036038101906106689190612bda565b6114d1565b60405161067a9190613373565b60405180910390f35b34801561068f57600080fd5b506106aa60048036038101906106a59190612bb1565b611565565b005b60007f780e9d63000000000000000000000000000000000000000000000000000000007bffffffffffffffffffffffffffffffffffffffffffffffffffffffff1916827bffffffffffffffffffffffffffffffffffffffffffffffffffffffff1916148061071f575061071e8261165d565b5b9050919050565b60606000805461073590613984565b80601f016020809104026020016040519081016040528092919081815260200182805461076190613984565b80156107ae5780601f10610783576101008083540402835291602001916107ae565b820191906000526020600020905b81548152906001019060200180831161079157829003601f168201915b5050505050905090565b60006107c38261173f565b610802576040517f08c379a00000000000000000000000000000000000000000000000000000000081526004016107f990613590565b60405180910390fd5b6004600083815260200190815260200160002060009054906101000a900473ffffffffffffffffffffffffffffffffffffffff169050919050565b600061084882610f76565b90508073ffffffffffffffffffffffffffffffffffffffff168373ffffffffffffffffffffffffffffffffffffffff1614156108b9576040517f08c379a00000000000000000000000000000000000000000000000000000000081526004016108b090613610565b60405180910390fd5b8073ffffffffffffffffffffffffffffffffffffffff166108d86117ab565b73ffffffffffffffffffffffffffffffffffffffff1614806109075750610906816109016117ab565b6114d1565b5b610946576040517f08c379a000000000000000000000000000000000000000000000000000000000815260040161093d906134d0565b60405180910390fd5b61095083836117b3565b505050565b600181565b6109626117ab565b73ffffffffffffffffffffffffffffffffffffffff16610980611268565b73ffffffffffffffffffffffffffffffffffffffff16146109d6576040517f08c379a00000000000000000000000000000000000000000000000000000000081526004016109cd906135b0565b60405180910390fd5b60006109e2600b61186c565b9050600d546109fb600a8361187a90919063ffffffff16565b10610a3b576040517f08c379a0000000000000000000000000000000000000000000000000000000008152600401610a3290613530565b60405180910390fd5b60005b600a811015610a6257610a4f611890565b8080610a5a906139e7565b915050610a3e565b5050565b6000600880549050905090565b610a84610a7e6117ab565b826118b5565b610ac3576040517f08c379a0000000000000000000000000000000000000000000000000000000008152600401610aba90613650565b60405180910390fd5b610ace838383611993565b505050565b6000610ade83611028565b8210610b1f576040517f08c379a0000000000000000000000000000000000000000000000000000000008152600401610b16906133b0565b60405180910390fd5b600660008473ffffffffffffffffffffffffffffffffffffffff1673ffffffffffffffffffffffffffffffffffffffff168152602001908152602001600020600083815260200190815260200160002054905092915050565b600d5481565b6000610b8a600b61186c565b9050600d54610ba2838361187a90919063ffffffff16565b1115610be3576040517f08c379a0000000000000000000000000000000000000000000000000000000008152600401610bda90613530565b60405180910390fd5b600082118015610bf4575060018211155b610c33576040517f08c379a0000000000000000000000000000000000000000000000000000000008152600401610c2a90613490565b60405180910390fd5b610c4882600c54611bef90919063ffffffff16565b341015610c8a576040517f08c379a0000000000000000000000000000000000000000000000000000000008152600401610c8190613470565b60405180910390fd5b60005b82811015610cb057610c9d611890565b8080610ca8906139e7565b915050610c8d565b505050565b610cbd6117ab565b73ffffffffffffffffffffffffffffffffffffffff16610cdb611268565b73ffffffffffffffffffffffffffffffffffffffff1614610d31576040517f08c379a0000000000000000000000000000000000000000000000000000000008152600401610d28906135b0565b60405180910390fd5b600047905060008111610d79576040517f08c379a0000000000000000000000000000000000000000000000000000000008152600401610d7090613570565b60405180910390fd5b60003373ffffffffffffffffffffffffffffffffffffffff1682604051610d9f906132d5565b60006040518083038185875af1925050503d8060008114610ddc576040519150601f19603f3d011682016040523d82523d6000602084013e610de1565b606091505b5050905080610e25576040517f08c379a0000000000000000000000000000000000000000000000000000000008152600401610e1c90613630565b60405180910390fd5b5050565b610e448383836040518060200160405280600081525061133a565b505050565b6000610e53610a66565b8210610e94576040517f08c379a0000000000000000000000000000000000000000000000000000000008152600401610e8b90613670565b60405180910390fd5b60088281548110610ece577f4e487b7100000000000000000000000000000000000000000000000000000000600052603260045260246000fd5b90600052602060002001549050919050565b610ee86117ab565b73ffffffffffffffffffffffffffffffffffffffff16610f06611268565b73ffffffffffffffffffffffffffffffffffffffff1614610f5c576040517f08c379a0000000000000000000000000000000000000000000000000000000008152600401610f53906135b0565b60405180910390fd5b80600e9080519060200190610f729291906129d5565b5050565b6000806002600084815260200190815260200160002060009054906101000a900473ffffffffffffffffffffffffffffffffffffffff169050600073ffffffffffffffffffffffffffffffffffffffff168173ffffffffffffffffffffffffffffffffffffffff16141561101f576040517f08c379a000000000000000000000000000000000000000000000000000000000815260040161101690613510565b60405180910390fd5b80915050919050565b60008073ffffffffffffffffffffffffffffffffffffffff168273ffffffffffffffffffffffffffffffffffffffff161415611099576040517f08c379a0000000000000000000000000000000000000000000000000000000008152600401611090906134f0565b60405180910390fd5b600360008373ffffffffffffffffffffffffffffffffffffffff1673ffffffffffffffffffffffffffffffffffffffff168152602001908152602001600020549050919050565b6110e86117ab565b73ffffffffffffffffffffffffffffffffffffffff16611106611268565b73ffffffffffffffffffffffffffffffffffffffff161461115c576040517f08c379a0000000000000000000000000000000000000000000000000000000008152600401611153906135b0565b60405180910390fd5b6111666000611c05565b565b6060600061117583611028565b905060008167ffffffffffffffff8111156111b9577f4e487b7100000000000000000000000000000000000000000000000000000000600052604160045260246000fd5b6040519080825280602002602001820160405280156111e75781602001602082028036833780820191505090505b50905060005b82811015611257576111ff8582610ad3565b828281518110611238577f4e487b7100000000000000000000000000000000000000000000000000000000600052603260045260246000fd5b602002602001018181525050808061124f906139e7565b9150506111ed565b508092505050919050565b600c5481565b6000600a60009054906101000a900473ffffffffffffffffffffffffffffffffffffffff16905090565b6060600180546112a190613984565b80601f01602080910402602001604051908101604052809291908181526020018280546112cd90613984565b801561131a5780601f106112ef5761010080835404028352916020019161131a565b820191906000526020600020905b8154815290600101906020018083116112fd57829003601f168201915b5050505050905090565b61133661132f6117ab565b8383611ccb565b5050565b61134b6113456117ab565b836118b5565b61138a576040517f08c379a000000000000000000000000000000000000000000000000000000000815260040161138190613650565b60405180910390fd5b61139684848484611e38565b50505050565b60606113a78261173f565b6113e6576040517f08c379a00000000000000000000000000000000000000000000000000000000081526004016113dd906135f0565b60405180910390fd5b60006113f0611e94565b90506000815111611410576040518060200160405280600081525061143b565b8061141a84611f26565b60405160200161142b9291906132b1565b6040516020818303038152906040525b915050919050565b600e805461145090613984565b80601f016020809104026020016040519081016040528092919081815260200182805461147c90613984565b80156114c95780601f1061149e576101008083540402835291602001916114c9565b820191906000526020600020905b8154815290600101906020018083116114ac57829003601f168201915b505050505081565b6000600560008473ffffffffffffffffffffffffffffffffffffffff1673ffffffffffffffffffffffffffffffffffffffff16815260200190815260200160002060008373ffffffffffffffffffffffffffffffffffffffff1673ffffffffffffffffffffffffffffffffffffffff16815260200190815260200160002060009054906101000a900460ff16905092915050565b61156d6117ab565b73ffffffffffffffffffffffffffffffffffffffff1661158b611268565b73ffffffffffffffffffffffffffffffffffffffff16146115e1576040517f08c379a00000000000000000000000000000000000000000000000000000000081526004016115d8906135b0565b60405180910390fd5b600073ffffffffffffffffffffffffffffffffffffffff168173ffffffffffffffffffffffffffffffffffffffff161415611651576040517f08c379a0000000000000000000000000000000000000000000000000000000008152600401611648906133f0565b60405180910390fd5b61165a81611c05565b50565b60007f80ac58cd000000000000000000000000000000000000000000000000000000007bffffffffffffffffffffffffffffffffffffffffffffffffffffffff1916827bffffffffffffffffffffffffffffffffffffffffffffffffffffffff1916148061172857507f5b5e139f000000000000000000000000000000000000000000000000000000007bffffffffffffffffffffffffffffffffffffffffffffffffffffffff1916827bffffffffffffffffffffffffffffffffffffffffffffffffffffffff1916145b806117385750611737826120d3565b5b9050919050565b60008073ffffffffffffffffffffffffffffffffffffffff166002600084815260200190815260200160002060009054906101000a900473ffffffffffffffffffffffffffffffffffffffff1673ffffffffffffffffffffffffffffffffffffffff1614159050919050565b600033905090565b816004600083815260200190815260200160002060006101000a81548173ffffffffffffffffffffffffffffffffffffffff021916908373ffffffffffffffffffffffffffffffffffffffff160217905550808273ffffffffffffffffffffffffffffffffffffffff1661182683610f76565b73ffffffffffffffffffffffffffffffffffffffff167f8c5be1e5ebec7d5bd14f71427d1e84f3dd0314c0f7b2291e5b200ac8c7c3b92560405160405180910390a45050565b600081600001549050919050565b6000818361188891906137b9565b905092915050565b600061189c600b61186c565b90506118a8338261213d565b6118b2600b61215b565b50565b60006118c08261173f565b6118ff576040517f08c379a00000000000000000000000000000000000000000000000000000000081526004016118f6906134b0565b60405180910390fd5b600061190a83610f76565b90508073ffffffffffffffffffffffffffffffffffffffff168473ffffffffffffffffffffffffffffffffffffffff16148061197957508373ffffffffffffffffffffffffffffffffffffffff16611961846107b8565b73ffffffffffffffffffffffffffffffffffffffff16145b8061198a575061198981856114d1565b5b91505092915050565b8273ffffffffffffffffffffffffffffffffffffffff166119b382610f76565b73ffffffffffffffffffffffffffffffffffffffff1614611a09576040517f08c379a0000000000000000000000000000000000000000000000000000000008152600401611a00906135d0565b60405180910390fd5b600073ffffffffffffffffffffffffffffffffffffffff168273ffffffffffffffffffffffffffffffffffffffff161415611a79576040517f08c379a0000000000000000000000000000000000000000000000000000000008152600401611a7090613430565b60405180910390fd5b611a84838383612171565b611a8f6000826117b3565b6001600360008573ffffffffffffffffffffffffffffffffffffffff1673ffffffffffffffffffffffffffffffffffffffff1681526020019081526020016000206000828254611adf919061389a565b925050819055506001600360008473ffffffffffffffffffffffffffffffffffffffff1673ffffffffffffffffffffffffffffffffffffffff1681526020019081526020016000206000828254611b3691906137b9565b92505081905550816002600083815260200190815260200160002060006101000a81548173ffffffffffffffffffffffffffffffffffffffff021916908373ffffffffffffffffffffffffffffffffffffffff160217905550808273ffffffffffffffffffffffffffffffffffffffff168473ffffffffffffffffffffffffffffffffffffffff167fddf252ad1be2c89b69c2b068fc378daa952ba7f163c4a11628f55a4df523b3ef60405160405180910390a4505050565b60008183611bfd9190613840565b905092915050565b6000600a60009054906101000a900473ffffffffffffffffffffffffffffffffffffffff16905081600a60006101000a81548173ffffffffffffffffffffffffffffffffffffffff021916908373ffffffffffffffffffffffffffffffffffffffff1602179055508173ffffffffffffffffffffffffffffffffffffffff168173ffffffffffffffffffffffffffffffffffffffff167f8be0079c531659141344cd1fd0a4f28419497f9722a3daafe3b4186f6b6457e060405160405180910390a35050565b8173ffffffffffffffffffffffffffffffffffffffff168373ffffffffffffffffffffffffffffffffffffffff161415611d3a576040517f08c379a0000000000000000000000000000000000000000000000000000000008152600401611d3190613450565b60405180910390fd5b80600560008573ffffffffffffffffffffffffffffffffffffffff1673ffffffffffffffffffffffffffffffffffffffff16815260200190815260200160002060008473ffffffffffffffffffffffffffffffffffffffff1673ffffffffffffffffffffffffffffffffffffffff16815260200190815260200160002060006101000a81548160ff0219169083151502179055508173ffffffffffffffffffffffffffffffffffffffff168373ffffffffffffffffffffffffffffffffffffffff167f17307eab39ab6107e8899845ad3d59bd9653f200f220920489ca2b5937696c3183604051611e2b9190613373565b60405180910390a3505050565b611e43848484611993565b611e4f84848484612285565b611e8e576040517f08c379a0000000000000000000000000000000000000000000000000000000008152600401611e85906133d0565b60405180910390fd5b50505050565b6060600e8054611ea390613984565b80601f0160208091040260200160405190810160405280929190818152602001828054611ecf90613984565b8015611f1c5780601f10611ef157610100808354040283529160200191611f1c565b820191906000526020600020905b815481529060010190602001808311611eff57829003601f168201915b5050505050905090565b60606000821415611f6e576040518060400160405280600181526020017f300000000000000000000000000000000000000000000000000000000000000081525090506120ce565b600082905060005b60008214611fa0578080611f89906139e7565b915050600a82611f99919061380f565b9150611f76565b60008167ffffffffffffffff811115611fe2577f4e487b7100000000000000000000000000000000000000000000000000000000600052604160045260246000fd5b6040519080825280601f01601f1916602001820160405280156120145781602001600182028036833780820191505090505b5090505b600085146120c75760018261202d919061389a565b9150600a8561203c9190613a30565b603061204891906137b9565b60f81b818381518110612084577f4e487b7100000000000000000000000000000000000000000000000000000000600052603260045260246000fd5b60200101907effffffffffffffffffffffffffffffffffffffffffffffffffffffffffffff1916908160001a905350600a856120c0919061380f565b9450612018565b8093505050505b919050565b60007f01ffc9a7000000000000000000000000000000000000000000000000000000007bffffffffffffffffffffffffffffffffffffffffffffffffffffffff1916827bffffffffffffffffffffffffffffffffffffffffffffffffffffffff1916149050919050565b61215782826040518060200160405280600081525061241c565b5050565b6001816000016000828254019250508190555050565b61217c838383612477565b600073ffffffffffffffffffffffffffffffffffffffff168373ffffffffffffffffffffffffffffffffffffffff1614156121bf576121ba8161247c565b6121fe565b8173ffffffffffffffffffffffffffffffffffffffff168373ffffffffffffffffffffffffffffffffffffffff16146121fd576121fc83826124c5565b5b5b600073ffffffffffffffffffffffffffffffffffffffff168273ffffffffffffffffffffffffffffffffffffffff1614156122415761223c81612632565b612280565b8273ffffffffffffffffffffffffffffffffffffffff168273ffffffffffffffffffffffffffffffffffffffff161461227f5761227e8282612775565b5b5b505050565b60006122a68473ffffffffffffffffffffffffffffffffffffffff166127f4565b1561240f578373ffffffffffffffffffffffffffffffffffffffff1663150b7a026122cf6117ab565b8786866040518563ffffffff1660e01b81526004016122f19493929190613305565b602060405180830381600087803b15801561230b57600080fd5b505af192505050801561233c57506040513d601f19601f820116820180604052508101906123399190612d81565b60015b6123bf573d806000811461236c576040519150601f19603f3d011682016040523d82523d6000602084013e612371565b606091505b506000815114156123b7576040517f08c379a00000000000000000000000000000000000000000000000000000000081526004016123ae906133d0565b60405180910390fd5b805181602001fd5b63150b7a0260e01b7bffffffffffffffffffffffffffffffffffffffffffffffffffffffff1916817bffffffffffffffffffffffffffffffffffffffffffffffffffffffff191614915050612414565b600190505b949350505050565b6124268383612807565b6124336000848484612285565b612472576040517f08c379a0000000000000000000000000000000000000000000000000000000008152600401612469906133d0565b60405180910390fd5b505050565b505050565b6008805490506009600083815260200190815260200160002081905550600881908060018154018082558091505060019003906000526020600020016000909190919091505550565b600060016124d284611028565b6124dc919061389a565b90506000600760008481526020019081526020016000205490508181146125c1576000600660008673ffffffffffffffffffffffffffffffffffffffff1673ffffffffffffffffffffffffffffffffffffffff168152602001908152602001600020600084815260200190815260200160002054905080600660008773ffffffffffffffffffffffffffffffffffffffff1673ffffffffffffffffffffffffffffffffffffffff168152602001908152602001600020600084815260200190815260200160002081905550816007600083815260200190815260200160002081905550505b6007600084815260200190815260200160002060009055600660008573ffffffffffffffffffffffffffffffffffffffff1673ffffffffffffffffffffffffffffffffffffffff16815260200190815260200160002060008381526020019081526020016000206000905550505050565b60006001600880549050612646919061389a565b905060006009600084815260200190815260200160002054905060006008838154811061269c577f4e487b7100000000000000000000000000000000000000000000000000000000600052603260045260246000fd5b9060005260206000200154905080600883815481106126e4577f4e487b7100000000000000000000000000000000000000000000000000000000600052603260045260246000fd5b906000526020600020018190555081600960008381526020019081526020016000208190555060096000858152602001908152602001600020600090556008805480612759577f4e487b7100000000000000000000000000000000000000000000000000000000600052603160045260246000fd5b6001900381819060005260206000200160009055905550505050565b600061278083611028565b905081600660008573ffffffffffffffffffffffffffffffffffffffff1673ffffffffffffffffffffffffffffffffffffffff168152602001908152602001600020600083815260200190815260200160002081905550806007600084815260200190815260200160002081905550505050565b600080823b905060008111915050919050565b600073ffffffffffffffffffffffffffffffffffffffff168273ffffffffffffffffffffffffffffffffffffffff161415612877576040517f08c379a000000000000000000000000000000000000000000000000000000000815260040161286e90613550565b60405180910390fd5b6128808161173f565b156128c0576040517f08c379a00000000000000000000000000000000000000000000000000000000081526004016128b790613410565b60405180910390fd5b6128cc60008383612171565b6001600360008473ffffffffffffffffffffffffffffffffffffffff1673ffffffffffffffffffffffffffffffffffffffff168152602001908152602001600020600082825461291c91906137b9565b92505081905550816002600083815260200190815260200160002060006101000a81548173ffffffffffffffffffffffffffffffffffffffff021916908373ffffffffffffffffffffffffffffffffffffffff160217905550808273ffffffffffffffffffffffffffffffffffffffff16600073ffffffffffffffffffffffffffffffffffffffff167fddf252ad1be2c89b69c2b068fc378daa952ba7f163c4a11628f55a4df523b3ef60405160405180910390a45050565b8280546129e190613984565b90600052602060002090601f016020900481019282612a035760008555612a4a565b82601f10612a1c57805160ff1916838001178555612a4a565b82800160010185558215612a4a579182015b82811115612a49578251825591602001919060010190612a2e565b5b509050612a579190612a5b565b5090565b5b80821115612a74576000816000905550600101612a5c565b5090565b6000612a8b612a86846136d0565b6136ab565b905082815260208101848484011115612aa357600080fd5b612aae848285613942565b509392505050565b6000612ac9612ac484613701565b6136ab565b905082815260208101848484011115612ae157600080fd5b612aec848285613942565b509392505050565b600081359050612b0381614140565b92915050565b600081359050612b1881614157565b92915050565b600081359050612b2d8161416e565b92915050565b600081519050612b428161416e565b92915050565b600082601f830112612b5957600080fd5b8135612b69848260208601612a78565b91505092915050565b600082601f830112612b8357600080fd5b8135612b93848260208601612ab6565b91505092915050565b600081359050612bab81614185565b92915050565b600060208284031215612bc357600080fd5b6000612bd184828501612af4565b91505092915050565b60008060408385031215612bed57600080fd5b6000612bfb85828601612af4565b9250506020612c0c85828601612af4565b9150509250929050565b600080600060608486031215612c2b57600080fd5b6000612c3986828701612af4565b9350506020612c4a86828701612af4565b9250506040612c5b86828701612b9c565b9150509250925092565b60008060008060808587031215612c7b57600080fd5b6000612c8987828801612af4565b9450506020612c9a87828801612af4565b9350506040612cab87828801612b9c565b925050606085013567ffffffffffffffff811115612cc857600080fd5b612cd487828801612b48565b91505092959194509250565b60008060408385031215612cf357600080fd5b6000612d0185828601612af4565b9250506020612d1285828601612b09565b9150509250929050565b60008060408385031215612d2f57600080fd5b6000612d3d85828601612af4565b9250506020612d4e85828601612b9c565b9150509250929050565b600060208284031215612d6a57600080fd5b6000612d7884828501612b1e565b91505092915050565b600060208284031215612d9357600080fd5b6000612da184828501612b33565b91505092915050565b600060208284031215612dbc57600080fd5b600082013567ffffffffffffffff811115612dd657600080fd5b612de284828501612b72565b91505092915050565b600060208284031215612dfd57600080fd5b6000612e0b84828501612b9c565b91505092915050565b6000612e208383613293565b60208301905092915050565b612e35816138ce565b82525050565b6000612e4682613742565b612e508185613770565b9350612e5b83613732565b8060005b83811015612e8c578151612e738882612e14565b9750612e7e83613763565b925050600181019050612e5f565b5085935050505092915050565b612ea2816138e0565b82525050565b6000612eb38261374d565b612ebd8185613781565b9350612ecd818560208601613951565b612ed681613b1d565b840191505092915050565b6000612eec82613758565b612ef6818561379d565b9350612f06818560208601613951565b612f0f81613b1d565b840191505092915050565b6000612f2582613758565b612f2f81856137ae565b9350612f3f818560208601613951565b80840191505092915050565b6000612f58602b8361379d565b9150612f6382613b2e565b604082019050919050565b6000612f7b60328361379d565b9150612f8682613b7d565b604082019050919050565b6000612f9e60268361379d565b9150612fa982613bcc565b604082019050919050565b6000612fc1601c8361379d565b9150612fcc82613c1b565b602082019050919050565b6000612fe460248361379d565b9150612fef82613c44565b604082019050919050565b600061300760198361379d565b915061301282613c93565b602082019050919050565b600061302a60228361379d565b915061303582613cbc565b604082019050919050565b600061304d60258361379d565b915061305882613d0b565b604082019050919050565b6000613070602c8361379d565b915061307b82613d5a565b604082019050919050565b600061309360388361379d565b915061309e82613da9565b604082019050919050565b60006130b6602a8361379d565b91506130c182613df8565b604082019050919050565b60006130d960298361379d565b91506130e482613e47565b604082019050919050565b60006130fc600f8361379d565b915061310782613e96565b602082019050919050565b600061311f60208361379d565b915061312a82613ebf565b602082019050919050565b600061314260198361379d565b915061314d82613ee8565b602082019050919050565b6000613165602c8361379d565b915061317082613f11565b604082019050919050565b600061318860208361379d565b915061319382613f60565b602082019050919050565b60006131ab60298361379d565b91506131b682613f89565b604082019050919050565b60006131ce602f8361379d565b91506131d982613fd8565b604082019050919050565b60006131f160218361379d565b91506131fc82614027565b604082019050919050565b6000613214600083613792565b915061321f82614076565b600082019050919050565b600061323760108361379d565b915061324282614079565b602082019050919050565b600061325a60318361379d565b9150613265826140a2565b604082019050919050565b600061327d602c8361379d565b9150613288826140f1565b604082019050919050565b61329c81613938565b82525050565b6132ab81613938565b82525050565b60006132bd8285612f1a565b91506132c98284612f1a565b91508190509392505050565b60006132e082613207565b9150819050919050565b60006020820190506132ff6000830184612e2c565b92915050565b600060808201905061331a6000830187612e2c565b6133276020830186612e2c565b61333460408301856132a2565b81810360608301526133468184612ea8565b905095945050505050565b6000602082019050818103600083015261336b8184612e3b565b905092915050565b60006020820190506133886000830184612e99565b92915050565b600060208201905081810360008301526133a88184612ee1565b905092915050565b600060208201905081810360008301526133c981612f4b565b9050919050565b600060208201905081810360008301526133e981612f6e565b9050919050565b6000602082019050818103600083015261340981612f91565b9050919050565b6000602082019050818103600083015261342981612fb4565b9050919050565b6000602082019050818103600083015261344981612fd7565b9050919050565b6000602082019050818103600083015261346981612ffa565b9050919050565b600060208201905081810360008301526134898161301d565b9050919050565b600060208201905081810360008301526134a981613040565b9050919050565b600060208201905081810360008301526134c981613063565b9050919050565b600060208201905081810360008301526134e981613086565b9050919050565b60006020820190508181036000830152613509816130a9565b9050919050565b60006020820190508181036000830152613529816130cc565b9050919050565b60006020820190508181036000830152613549816130ef565b9050919050565b6000602082019050818103600083015261356981613112565b9050919050565b6000602082019050818103600083015261358981613135565b9050919050565b600060208201905081810360008301526135a981613158565b9050919050565b600060208201905081810360008301526135c98161317b565b9050919050565b600060208201905081810360008301526135e98161319e565b9050919050565b60006020820190508181036000830152613609816131c1565b9050919050565b60006020820190508181036000830152613629816131e4565b9050919050565b600060208201905081810360008301526136498161322a565b9050919050565b600060208201905081810360008301526136698161324d565b9050919050565b6000602082019050818103600083015261368981613270565b9050919050565b60006020820190506136a560008301846132a2565b92915050565b60006136b56136c6565b90506136c182826139b6565b919050565b6000604051905090565b600067ffffffffffffffff8211156136eb576136ea613aee565b5b6136f482613b1d565b9050602081019050919050565b600067ffffffffffffffff82111561371c5761371b613aee565b5b61372582613b1d565b9050602081019050919050565b6000819050602082019050919050565b600081519050919050565b600081519050919050565b600081519050919050565b6000602082019050919050565b600082825260208201905092915050565b600082825260208201905092915050565b600081905092915050565b600082825260208201905092915050565b600081905092915050565b60006137c482613938565b91506137cf83613938565b9250827fffffffffffffffffffffffffffffffffffffffffffffffffffffffffffffffff0382111561380457613803613a61565b5b828201905092915050565b600061381a82613938565b915061382583613938565b92508261383557613834613a90565b5b828204905092915050565b600061384b82613938565b915061385683613938565b9250817fffffffffffffffffffffffffffffffffffffffffffffffffffffffffffffffff048311821515161561388f5761388e613a61565b5b828202905092915050565b60006138a582613938565b91506138b083613938565b9250828210156138c3576138c2613a61565b5b828203905092915050565b60006138d982613918565b9050919050565b60008115159050919050565b60007fffffffff0000000000000000000000000000000000000000000000000000000082169050919050565b600073ffffffffffffffffffffffffffffffffffffffff82169050919050565b6000819050919050565b82818337600083830152505050565b60005b8381101561396f578082015181840152602081019050613954565b8381111561397e576000848401525b50505050565b6000600282049050600182168061399c57607f821691505b602082108114156139b0576139af613abf565b5b50919050565b6139bf82613b1d565b810181811067ffffffffffffffff821117156139de576139dd613aee565b5b80604052505050565b60006139f282613938565b91507fffffffffffffffffffffffffffffffffffffffffffffffffffffffffffffffff821415613a2557613a24613a61565b5b600182019050919050565b6000613a3b82613938565b9150613a4683613938565b925082613a5657613a55613a90565b5b828206905092915050565b7f4e487b7100000000000000000000000000000000000000000000000000000000600052601160045260246000fd5b7f4e487b7100000000000000000000000000000000000000000000000000000000600052601260045260246000fd5b7f4e487b7100000000000000000000000000000000000000000000000000000000600052602260045260246000fd5b7f4e487b7100000000000000000000000000000000000000000000000000000000600052604160045260246000fd5b6000601f19601f8301169050919050565b7f455243373231456e756d657261626c653a206f776e657220696e646578206f7560008201527f74206f6620626f756e6473000000000000000000000000000000000000000000602082015250565b7f4552433732313a207472616e7366657220746f206e6f6e20455243373231526560008201527f63656976657220696d706c656d656e7465720000000000000000000000000000602082015250565b7f4f776e61626c653a206e6577206f776e657220697320746865207a65726f206160008201527f6464726573730000000000000000000000000000000000000000000000000000602082015250565b7f4552433732313a20746f6b656e20616c7265616479206d696e74656400000000600082015250565b7f4552433732313a207472616e7366657220746f20746865207a65726f2061646460008201527f7265737300000000000000000000000000000000000000000000000000000000602082015250565b7f4552433732313a20617070726f766520746f2063616c6c657200000000000000600082015250565b7f4e6f7420656e6f75676820657468657220746f207075726368617365204e465460008201527f732e000000000000000000000000000000000000000000000000000000000000602082015250565b7f43616e6e6f74206d696e7420737065636966696564206e756d626572206f662060008201527f4e4654732e000000000000000000000000000000000000000000000000000000602082015250565b7f4552433732313a206f70657261746f7220717565727920666f72206e6f6e657860008201527f697374656e7420746f6b656e0000000000000000000000000000000000000000602082015250565b7f4552433732313a20617070726f76652063616c6c6572206973206e6f74206f7760008201527f6e6572206e6f7220617070726f76656420666f7220616c6c0000000000000000602082015250565b7f4552433732313a2062616c616e636520717565727920666f7220746865207a6560008201527f726f206164647265737300000000000000000000000000000000000000000000602082015250565b7f4552433732313a206f776e657220717565727920666f72206e6f6e657869737460008201527f656e7420746f6b656e0000000000000000000000000000000000000000000000602082015250565b7f4e6f7420656e6f756768204e4654730000000000000000000000000000000000600082015250565b7f4552433732313a206d696e7420746f20746865207a65726f2061646472657373600082015250565b7f4e6f206574686572206c65667420746f20776974686472617700000000000000600082015250565b7f4552433732313a20617070726f76656420717565727920666f72206e6f6e657860008201527f697374656e7420746f6b656e0000000000000000000000000000000000000000602082015250565b7f4f776e61626c653a2063616c6c6572206973206e6f7420746865206f776e6572600082015250565b7f4552433732313a207472616e73666572206f6620746f6b656e2074686174206960008201527f73206e6f74206f776e0000000000000000000000000000000000000000000000602082015250565b7f4552433732314d657461646174613a2055524920717565727920666f72206e6f60008201527f6e6578697374656e7420746f6b656e0000000000000000000000000000000000602082015250565b7f4552433732313a20617070726f76616c20746f2063757272656e74206f776e6560008201527f7200000000000000000000000000000000000000000000000000000000000000602082015250565b50565b7f5472616e73666572206661696c65642e00000000000000000000000000000000600082015250565b7f4552433732313a207472616e736665722063616c6c6572206973206e6f74206f60008201527f776e6572206e6f7220617070726f766564000000000000000000000000000000602082015250565b7f455243373231456e756d657261626c653a20676c6f62616c20696e646578206f60008201527f7574206f6620626f756e64730000000000000000000000000000000000000000602082015250565b614149816138ce565b811461415457600080fd5b50565b614160816138e0565b811461416b57600080fd5b50565b614177816138ec565b811461418257600080fd5b50565b61418e81613938565b811461419957600080fd5b5056fea2646970667358221220e908edf592f5bdae170723fe4832f4033a923dee257ab96eec741b573e1d605c64736f6c63430008040033",
  "immutableReferences": {},
  "source": "//SPDX-License-Identifier: MIT\npragma solidity ^0.8.0;\n\nimport \"@openzeppelin/contracts/utils/Counters.sol\";\nimport \"@openzeppelin/contracts/access/Ownable.sol\";\nimport \"@openzeppelin/contracts/utils/math/SafeMath.sol\";\nimport \"@openzeppelin/contracts/token/ERC721/extensions/ERC721Enumerable.sol\";\n/*\nimport \"./@rarible/royalties/contracts/impl/RoyaltiesV2Impl.sol\";\nimport \"./@rarible/royalties/contracts/LibPart.sol\";\nimport \"./@rarible/royalties/contracts/LibRoyaltiesV2.sol\";\n*/\n\n\ncontract NFTCollectible is ERC721Enumerable, Ownable {\n\tusing SafeMath for uint256;\n\tusing Counters for Counters.Counter;\n\n\tCounters.Counter private _tokenIds;\n\n\t// @TODO change these to be initialized in constructor\n\tuint public PRICE;\n\tuint public MAX_SUPPLY;\n\tuint public constant MAX_PER_MINT = 1;\n\n\tstring public baseTokenURI;\n\n\tconstructor(string memory baseURI, uint priceInWei, uint maxSupply ) ERC721(\"NFT Collectible\", \"NFTC\") {\n\t\tsetBaseURI(baseURI);\n\n\t\tPRICE = priceInWei;\n\t\tMAX_SUPPLY = maxSupply;\n//\t\tMAX_PER_MINT = maxPerMint;\n\t}\n\n\t\n\t// Override empty function to return basetokenURI\n\t// to tell our contract that baseTokenURI is the base URI our contract must use\n\tfunction _baseURI() internal view virtual override returns (string memory) {\n\t\treturn baseTokenURI;\n\t}\n\tfunction setBaseURI(string memory _baseTokenURI) public onlyOwner {\n\t\tbaseTokenURI = _baseTokenURI;\t\n\t}\n\n\n\t// Let the creator of the project reserve a number of NFT\n\t// for giveaways, etc\n\tfunction reserveNFTs() public onlyOwner {\n\t\t// Check total minted NFTs to ensure there are\n\t\t// enough NFTs left in the collection to reserve\n\t\tuint totalMinted = _tokenIds.current();\n\t\trequire(\n\t\t\ttotalMinted.add(10) < MAX_SUPPLY, \"Not enough NFTs\"\n\t\t);\n\n\t\t// Proceed with reserving\n\t\tfor (uint i = 0; i < 10; i++) {\n\t\t\t_mintSingleNFT();\n\t\t}\n\t}\n\n\n\t// Call this function to purchase and mint NFTs from collection\n\t// @NOTE - since they are sending ether to this function, we have to mark it as \"payable\"\n\t// Function needs to make 3 checks before we mint\n\t//\t1. There are enough NFTs left in the collection for the caller to mint the requested amount\n\t//\t2. The caller has requested to mint more than 0 and less than the maximum number of NFTs allowed per transaction\n\t//\t3. The caller has sent enough ether to mint the requested number of NFTs\n\tfunction mintNFTs(uint _count) public payable {\n\t\tuint totalMinted = _tokenIds.current();\n\n\t\t// 1. There are enough NFTs left in the colection for the caller to mint the requested amount\n\t\trequire(\n\t\t\ttotalMinted.add(_count) <= MAX_SUPPLY, \"Not enough NFTs\"\n\t\t);\n\n\t\t// 2. The caller has requested to mint more than 0 and less than the maximum number of NFTs allowed per transaction\n\t\trequire(\n\t\t\t_count > 0 && _count <= MAX_PER_MINT, \"Cannot mint specified number of NFTs.\"\n\t\t);\n\n\t\t// 3. The caller has sent enough ether to mint the requested number of NFTs\n\t\trequire(\n\t\t\tmsg.value >= PRICE.mul(_count), \"Not enough ether to purchase NFTs.\"\n\t\t);\n\n\t\t// Proceed with minting\n\t\tfor (uint i = 0; i < _count; i++) {\n\t\t\t_mintSingleNFT();\n\t\t}\n\t}\n\n\tfunction _mintSingleNFT() private {\n\t\tuint newTokenID = _tokenIds.current();\n\t\t_safeMint(msg.sender, newTokenID);\n\t\t_tokenIds.increment();\n\t}\n\n\n\t// Getting all tokens owned by a particular address\n\tfunction tokensOfOwner(address _owner) external view returns (uint[] memory) {\n\t\tuint tokenCount = balanceOf(_owner);\n\t\tuint[] memory tokensId = new uint256[](tokenCount);\n\n\t\tfor (uint i = 0; i < tokenCount; i++) {\n\t\t\ttokensId[i] = tokenOfOwnerByIndex(_owner, i);\n\t\t}\n\n\t\treturn tokensId;\n\t}\n\n\n\t// Payout owner function\n\tfunction withdraw() public payable onlyOwner {\n\t\tuint balance = address(this).balance;\n\t\trequire(\n\t\t\tbalance > 0, \"No ether left to withdraw\"\n\t\t);\n\n\t\t(bool success, ) = (msg.sender).call{value: balance}(\"\");\n\t\trequire(\n\t\t\tsuccess, \"Transfer failed.\"\n\t\t);\n\t}\n\n\t/*\n\tfunction setRoyalties(uint _tokenId, address payable _royaltiesRecipientAddress, uint96 _percentageBasisPoints) public onlyOwner {\n\t\tLibPart.Part[] memory _royalties = new LibPart.Part[](1);\n\t\t_royalties[0].value = _percentageBasisPoints;\n\t\t_royalties[0].account = _royaltiesRecipientAddress;\n\t\t_saveRoyalties(_tokenId, _royalties);\n\t}\n\n\tfunction supportsInterface(bytes4 interfaceId) public view virtual override(ERC721) returns (bool) {\n\t\tif(interfaceId == LibRoyaltiesV2._INTERFACE_ID_ROYALTIES) {\n\t\t\treturn true;\n\t\t}\n\t\treturn super.supportsInterface(interfaceId);\n\t}\n\t*/\n}\n",
  "sourcePath": "/Users/nathan/Code/work/nftdatagen/src/ethereum/contracts/NFTCollectible.sol",
  "compiler": {
    "name": "solc",
    "version": "0.8.4+commit.c7e474f2.Emscripten.clang"
  },
  "schemaVersion": "3.3.2",
  "updatedAt": "2022-01-20T17:22:07.850Z",
  "devdoc": {
    "kind": "dev",
    "methods": {
      "approve(address,uint256)": {
        "details": "See {IERC721-approve}."
      },
      "balanceOf(address)": {
        "details": "See {IERC721-balanceOf}."
      },
      "getApproved(uint256)": {
        "details": "See {IERC721-getApproved}."
      },
      "isApprovedForAll(address,address)": {
        "details": "See {IERC721-isApprovedForAll}."
      },
      "name()": {
        "details": "See {IERC721Metadata-name}."
      },
      "owner()": {
        "details": "Returns the address of the current owner."
      },
      "ownerOf(uint256)": {
        "details": "See {IERC721-ownerOf}."
      },
      "renounceOwnership()": {
        "details": "Leaves the contract without owner. It will not be possible to call `onlyOwner` functions anymore. Can only be called by the current owner. NOTE: Renouncing ownership will leave the contract without an owner, thereby removing any functionality that is only available to the owner."
      },
      "safeTransferFrom(address,address,uint256)": {
        "details": "See {IERC721-safeTransferFrom}."
      },
      "safeTransferFrom(address,address,uint256,bytes)": {
        "details": "See {IERC721-safeTransferFrom}."
      },
      "setApprovalForAll(address,bool)": {
        "details": "See {IERC721-setApprovalForAll}."
      },
      "supportsInterface(bytes4)": {
        "details": "See {IERC165-supportsInterface}."
      },
      "symbol()": {
        "details": "See {IERC721Metadata-symbol}."
      },
      "tokenByIndex(uint256)": {
        "details": "See {IERC721Enumerable-tokenByIndex}."
      },
      "tokenOfOwnerByIndex(address,uint256)": {
        "details": "See {IERC721Enumerable-tokenOfOwnerByIndex}."
      },
      "tokenURI(uint256)": {
        "details": "See {IERC721Metadata-tokenURI}."
      },
      "totalSupply()": {
        "details": "See {IERC721Enumerable-totalSupply}."
      },
      "transferFrom(address,address,uint256)": {
        "details": "See {IERC721-transferFrom}."
      },
      "transferOwnership(address)": {
        "details": "Transfers ownership of the contract to a new account (`newOwner`). Can only be called by the current owner."
      }
    },
    "version": 1
  },
  "userdoc": {
    "kind": "user",
    "methods": {},
    "version": 1
  }
}